{
	"contracts/PaymentProcessor.sol": {
		"PaymentProcessor": {
			"abi": [
				{
					"inputs": [
						{
							"internalType": "address",
							"name": "_adr",
							"type": "address"
						}
					],
					"name": "CheckBalance",
					"outputs": [
						{
							"internalType": "uint256",
							"name": "",
							"type": "uint256"
						}
					],
					"stateMutability": "view",
					"type": "function"
				},
				{
					"inputs": [],
					"name": "ReceivePayment",
					"outputs": [],
					"stateMutability": "payable",
					"type": "function"
				},
				{
					"inputs": [
						{
							"internalType": "address",
							"name": "",
							"type": "address"
						}
					],
					"name": "balances",
					"outputs": [
						{
							"internalType": "uint256",
							"name": "",
							"type": "uint256"
						}
					],
					"stateMutability": "view",
					"type": "function"
				},
				{
					"inputs": [
						{
							"internalType": "address",
							"name": "customer",
							"type": "address"
						},
						{
							"internalType": "uint256",
							"name": "_amount",
							"type": "uint256"
						}
					],
					"name": "refundPayment",
					"outputs": [],
					"stateMutability": "nonpayable",
					"type": "function"
				}
			],
			"devdoc": {
				"kind": "dev",
				"methods": {},
				"version": 1
			},
			"evm": {
				"assembly": "    /* \"contracts/PaymentProcessor.sol\":62:863  contract PaymentProcessor {... */\n  mstore(0x40, 0x80)\n  callvalue\n  dup1\n  iszero\n  tag_1\n  jumpi\n  revert(0x00, 0x00)\ntag_1:\n  pop\n  dataSize(sub_0)\n  dup1\n  dataOffset(sub_0)\n  0x00\n  codecopy\n  0x00\n  return\nstop\n\nsub_0: assembly {\n        /* \"contracts/PaymentProcessor.sol\":62:863  contract PaymentProcessor {... */\n      mstore(0x40, 0x80)\n      jumpi(tag_1, lt(calldatasize, 0x04))\n      shr(0xe0, calldataload(0x00))\n      dup1\n      0x27e235e3\n      eq\n      tag_2\n      jumpi\n      dup1\n      0x2e4d59c4\n      eq\n      tag_3\n      jumpi\n      dup1\n      0x8ac5752e\n      eq\n      tag_4\n      jumpi\n      dup1\n      0xdcd37669\n      eq\n      tag_5\n      jumpi\n    tag_1:\n      revert(0x00, 0x00)\n        /* \"contracts/PaymentProcessor.sol\":97:140  mapping(address => uint256) public balances */\n    tag_2:\n      callvalue\n      dup1\n      iszero\n      tag_6\n      jumpi\n      revert(0x00, 0x00)\n    tag_6:\n      pop\n      tag_7\n      0x04\n      dup1\n      calldatasize\n      sub\n      dup2\n      add\n      swap1\n      tag_8\n      swap2\n      swap1\n      tag_9\n      jump\t// in\n    tag_8:\n      tag_10\n      jump\t// in\n    tag_7:\n      mload(0x40)\n      tag_11\n      swap2\n      swap1\n      tag_12\n      jump\t// in\n    tag_11:\n      mload(0x40)\n      dup1\n      swap2\n      sub\n      swap1\n      return\n        /* \"contracts/PaymentProcessor.sol\":459:596  function CheckBalance(address _adr) external view OwnerAddress(_adr) returns(uint256){... */\n    tag_3:\n      callvalue\n      dup1\n      iszero\n      tag_13\n      jumpi\n      revert(0x00, 0x00)\n    tag_13:\n      pop\n      tag_14\n      0x04\n      dup1\n      calldatasize\n      sub\n      dup2\n      add\n      swap1\n      tag_15\n      swap2\n      swap1\n      tag_9\n      jump\t// in\n    tag_15:\n      tag_16\n      jump\t// in\n    tag_14:\n      mload(0x40)\n      tag_17\n      swap2\n      swap1\n      tag_12\n      jump\t// in\n    tag_17:\n      mload(0x40)\n      dup1\n      swap2\n      sub\n      swap1\n      return\n        /* \"contracts/PaymentProcessor.sol\":604:858  function refundPayment(address customer, uint _amount) public virtual {... */\n    tag_4:\n      callvalue\n      dup1\n      iszero\n      tag_18\n      jumpi\n      revert(0x00, 0x00)\n    tag_18:\n      pop\n      tag_19\n      0x04\n      dup1\n      calldatasize\n      sub\n      dup2\n      add\n      swap1\n      tag_20\n      swap2\n      swap1\n      tag_21\n      jump\t// in\n    tag_20:\n      tag_22\n      jump\t// in\n    tag_19:\n      stop\n        /* \"contracts/PaymentProcessor.sol\":285:451  function ReceivePayment() external payable {... */\n    tag_5:\n      tag_23\n      tag_24\n      jump\t// in\n    tag_23:\n      stop\n        /* \"contracts/PaymentProcessor.sol\":97:140  mapping(address => uint256) public balances */\n    tag_10:\n      mstore(0x20, 0x00)\n      dup1\n      0x00\n      mstore\n      keccak256(0x00, 0x40)\n      0x00\n      swap2\n      pop\n      swap1\n      pop\n      sload\n      dup2\n      jump\t// out\n        /* \"contracts/PaymentProcessor.sol\":459:596  function CheckBalance(address _adr) external view OwnerAddress(_adr) returns(uint256){... */\n    tag_16:\n        /* \"contracts/PaymentProcessor.sol\":536:543  uint256 */\n      0x00\n        /* \"contracts/PaymentProcessor.sol\":522:526  _adr */\n      dup2\n        /* \"contracts/PaymentProcessor.sol\":226:227  0 */\n      0x00\n        /* \"contracts/PaymentProcessor.sol\":207:215  balances */\n      0x00\n        /* \"contracts/PaymentProcessor.sol\":207:223  balances[_owner] */\n      0x00\n        /* \"contracts/PaymentProcessor.sol\":216:222  _owner */\n      dup4\n        /* \"contracts/PaymentProcessor.sol\":207:223  balances[_owner] */\n      0xffffffffffffffffffffffffffffffffffffffff\n      and\n      0xffffffffffffffffffffffffffffffffffffffff\n      and\n      dup2\n      mstore\n      0x20\n      add\n      swap1\n      dup2\n      mstore\n      0x20\n      add\n      0x00\n      keccak256\n      sload\n        /* \"contracts/PaymentProcessor.sol\":207:227  balances[_owner] > 0 */\n      gt\n        /* \"contracts/PaymentProcessor.sol\":199:261  require(balances[_owner] > 0, \"We don't found such as client\") */\n      tag_26\n      jumpi\n      mload(0x40)\n      0x08c379a000000000000000000000000000000000000000000000000000000000\n      dup2\n      mstore\n      0x04\n      add\n      tag_27\n      swap1\n      tag_28\n      jump\t// in\n    tag_27:\n      mload(0x40)\n      dup1\n      swap2\n      sub\n      swap1\n      revert\n    tag_26:\n        /* \"contracts/PaymentProcessor.sol\":572:580  balances */\n      0x00\n        /* \"contracts/PaymentProcessor.sol\":572:586  balances[_adr] */\n      0x00\n        /* \"contracts/PaymentProcessor.sol\":581:585  _adr */\n      dup5\n        /* \"contracts/PaymentProcessor.sol\":572:586  balances[_adr] */\n      0xffffffffffffffffffffffffffffffffffffffff\n      and\n      0xffffffffffffffffffffffffffffffffffffffff\n      and\n      dup2\n      mstore\n      0x20\n      add\n      swap1\n      dup2\n      mstore\n      0x20\n      add\n      0x00\n      keccak256\n      sload\n        /* \"contracts/PaymentProcessor.sol\":565:586  return balances[_adr] */\n      swap2\n      pop\n        /* \"contracts/PaymentProcessor.sol\":459:596  function CheckBalance(address _adr) external view OwnerAddress(_adr) returns(uint256){... */\n      pop\n      swap2\n      swap1\n      pop\n      jump\t// out\n        /* \"contracts/PaymentProcessor.sol\":604:858  function refundPayment(address customer, uint _amount) public virtual {... */\n    tag_22:\n        /* \"contracts/PaymentProcessor.sol\":704:712  balances */\n      0x00\n        /* \"contracts/PaymentProcessor.sol\":704:722  balances[customer] */\n      0x00\n        /* \"contracts/PaymentProcessor.sol\":713:721  customer */\n      dup4\n        /* \"contracts/PaymentProcessor.sol\":704:722  balances[customer] */\n      0xffffffffffffffffffffffffffffffffffffffff\n      and\n      0xffffffffffffffffffffffffffffffffffffffff\n      and\n      dup2\n      mstore\n      0x20\n      add\n      swap1\n      dup2\n      mstore\n      0x20\n      add\n      0x00\n      keccak256\n      sload\n        /* \"contracts/PaymentProcessor.sol\":693:700  _amount */\n      dup2\n        /* \"contracts/PaymentProcessor.sol\":693:722  _amount <= balances[customer] */\n      gt\n      iszero\n        /* \"contracts/PaymentProcessor.sol\":685:758  require(_amount <= balances[customer], \"Insufficient balance for refund\") */\n      tag_31\n      jumpi\n      mload(0x40)\n      0x08c379a000000000000000000000000000000000000000000000000000000000\n      dup2\n      mstore\n      0x04\n      add\n      tag_32\n      swap1\n      tag_33\n      jump\t// in\n    tag_32:\n      mload(0x40)\n      dup1\n      swap2\n      sub\n      swap1\n      revert\n    tag_31:\n        /* \"contracts/PaymentProcessor.sol\":793:800  _amount */\n      dup1\n        /* \"contracts/PaymentProcessor.sol\":771:779  balances */\n      0x00\n        /* \"contracts/PaymentProcessor.sol\":771:789  balances[customer] */\n      0x00\n        /* \"contracts/PaymentProcessor.sol\":780:788  customer */\n      dup5\n        /* \"contracts/PaymentProcessor.sol\":771:789  balances[customer] */\n      0xffffffffffffffffffffffffffffffffffffffff\n      and\n      0xffffffffffffffffffffffffffffffffffffffff\n      and\n      dup2\n      mstore\n      0x20\n      add\n      swap1\n      dup2\n      mstore\n      0x20\n      add\n      0x00\n      keccak256\n      0x00\n        /* \"contracts/PaymentProcessor.sol\":771:800  balances[customer] -= _amount */\n      dup3\n      dup3\n      sload\n      tag_34\n      swap2\n      swap1\n      tag_35\n      jump\t// in\n    tag_34:\n      swap3\n      pop\n      pop\n      dup2\n      swap1\n      sstore\n      pop\n        /* \"contracts/PaymentProcessor.sol\":821:829  customer */\n      dup2\n        /* \"contracts/PaymentProcessor.sol\":813:839  payable(customer).transfer */\n      0xffffffffffffffffffffffffffffffffffffffff\n      and\n        /* \"contracts/PaymentProcessor.sol\":813:848  payable(customer).transfer(_amount) */\n      0x08fc\n        /* \"contracts/PaymentProcessor.sol\":840:847  _amount */\n      dup3\n        /* \"contracts/PaymentProcessor.sol\":813:848  payable(customer).transfer(_amount) */\n      swap1\n      dup2\n      iszero\n      mul\n      swap1\n      mload(0x40)\n      0x00\n      mload(0x40)\n      dup1\n      dup4\n      sub\n      dup2\n      dup6\n      dup9\n      dup9\n      call\n      swap4\n      pop\n      pop\n      pop\n      pop\n      iszero\n      dup1\n      iszero\n      tag_37\n      jumpi\n      returndatacopy(0x00, 0x00, returndatasize)\n      revert(0x00, returndatasize)\n    tag_37:\n      pop\n        /* \"contracts/PaymentProcessor.sol\":604:858  function refundPayment(address customer, uint _amount) public virtual {... */\n      pop\n      pop\n      jump\t// out\n        /* \"contracts/PaymentProcessor.sol\":285:451  function ReceivePayment() external payable {... */\n    tag_24:\n        /* \"contracts/PaymentProcessor.sol\":361:362  0 */\n      0x00\n        /* \"contracts/PaymentProcessor.sol\":349:358  msg.value */\n      callvalue\n        /* \"contracts/PaymentProcessor.sol\":349:362  msg.value > 0 */\n      gt\n        /* \"contracts/PaymentProcessor.sol\":341:397  require(msg.value > 0, \"Payment must be greater than 0\") */\n      tag_39\n      jumpi\n      mload(0x40)\n      0x08c379a000000000000000000000000000000000000000000000000000000000\n      dup2\n      mstore\n      0x04\n      add\n      tag_40\n      swap1\n      tag_41\n      jump\t// in\n    tag_40:\n      mload(0x40)\n      dup1\n      swap2\n      sub\n      swap1\n      revert\n    tag_39:\n        /* \"contracts/PaymentProcessor.sol\":432:441  msg.value */\n      callvalue\n        /* \"contracts/PaymentProcessor.sol\":408:416  balances */\n      0x00\n        /* \"contracts/PaymentProcessor.sol\":408:428  balances[msg.sender] */\n      0x00\n        /* \"contracts/PaymentProcessor.sol\":417:427  msg.sender */\n      caller\n        /* \"contracts/PaymentProcessor.sol\":408:428  balances[msg.sender] */\n      0xffffffffffffffffffffffffffffffffffffffff\n      and\n      0xffffffffffffffffffffffffffffffffffffffff\n      and\n      dup2\n      mstore\n      0x20\n      add\n      swap1\n      dup2\n      mstore\n      0x20\n      add\n      0x00\n      keccak256\n      0x00\n        /* \"contracts/PaymentProcessor.sol\":408:441  balances[msg.sender] += msg.value */\n      dup3\n      dup3\n      sload\n      tag_42\n      swap2\n      swap1\n      tag_43\n      jump\t// in\n    tag_42:\n      swap3\n      pop\n      pop\n      dup2\n      swap1\n      sstore\n      pop\n        /* \"contracts/PaymentProcessor.sol\":285:451  function ReceivePayment() external payable {... */\n      jump\t// out\n        /* \"#utility.yul\":88:205   */\n    tag_45:\n        /* \"#utility.yul\":197:198   */\n      0x00\n        /* \"#utility.yul\":194:195   */\n      0x00\n        /* \"#utility.yul\":187:199   */\n      revert\n        /* \"#utility.yul\":334:460   */\n    tag_47:\n        /* \"#utility.yul\":371:378   */\n      0x00\n        /* \"#utility.yul\":411:453   */\n      0xffffffffffffffffffffffffffffffffffffffff\n        /* \"#utility.yul\":404:409   */\n      dup3\n        /* \"#utility.yul\":400:454   */\n      and\n        /* \"#utility.yul\":389:454   */\n      swap1\n      pop\n        /* \"#utility.yul\":334:460   */\n      swap2\n      swap1\n      pop\n      jump\t// out\n        /* \"#utility.yul\":466:562   */\n    tag_48:\n        /* \"#utility.yul\":503:510   */\n      0x00\n        /* \"#utility.yul\":532:556   */\n      tag_69\n        /* \"#utility.yul\":550:555   */\n      dup3\n        /* \"#utility.yul\":532:556   */\n      tag_47\n      jump\t// in\n    tag_69:\n        /* \"#utility.yul\":521:556   */\n      swap1\n      pop\n        /* \"#utility.yul\":466:562   */\n      swap2\n      swap1\n      pop\n      jump\t// out\n        /* \"#utility.yul\":568:690   */\n    tag_49:\n        /* \"#utility.yul\":641:665   */\n      tag_71\n        /* \"#utility.yul\":659:664   */\n      dup2\n        /* \"#utility.yul\":641:665   */\n      tag_48\n      jump\t// in\n    tag_71:\n        /* \"#utility.yul\":634:639   */\n      dup2\n        /* \"#utility.yul\":631:666   */\n      eq\n        /* \"#utility.yul\":621:684   */\n      tag_72\n      jumpi\n        /* \"#utility.yul\":680:681   */\n      0x00\n        /* \"#utility.yul\":677:678   */\n      0x00\n        /* \"#utility.yul\":670:682   */\n      revert\n        /* \"#utility.yul\":621:684   */\n    tag_72:\n        /* \"#utility.yul\":568:690   */\n      pop\n      jump\t// out\n        /* \"#utility.yul\":696:835   */\n    tag_50:\n        /* \"#utility.yul\":742:747   */\n      0x00\n        /* \"#utility.yul\":780:786   */\n      dup2\n        /* \"#utility.yul\":767:787   */\n      calldataload\n        /* \"#utility.yul\":758:787   */\n      swap1\n      pop\n        /* \"#utility.yul\":796:829   */\n      tag_74\n        /* \"#utility.yul\":823:828   */\n      dup2\n        /* \"#utility.yul\":796:829   */\n      tag_49\n      jump\t// in\n    tag_74:\n        /* \"#utility.yul\":696:835   */\n      swap3\n      swap2\n      pop\n      pop\n      jump\t// out\n        /* \"#utility.yul\":841:1170   */\n    tag_9:\n        /* \"#utility.yul\":900:906   */\n      0x00\n        /* \"#utility.yul\":949:951   */\n      0x20\n        /* \"#utility.yul\":937:946   */\n      dup3\n        /* \"#utility.yul\":928:935   */\n      dup5\n        /* \"#utility.yul\":924:947   */\n      sub\n        /* \"#utility.yul\":920:952   */\n      slt\n        /* \"#utility.yul\":917:1036   */\n      iszero\n      tag_76\n      jumpi\n        /* \"#utility.yul\":955:1034   */\n      tag_77\n      tag_45\n      jump\t// in\n    tag_77:\n        /* \"#utility.yul\":917:1036   */\n    tag_76:\n        /* \"#utility.yul\":1075:1076   */\n      0x00\n        /* \"#utility.yul\":1100:1153   */\n      tag_78\n        /* \"#utility.yul\":1145:1152   */\n      dup5\n        /* \"#utility.yul\":1136:1142   */\n      dup3\n        /* \"#utility.yul\":1125:1134   */\n      dup6\n        /* \"#utility.yul\":1121:1143   */\n      add\n        /* \"#utility.yul\":1100:1153   */\n      tag_50\n      jump\t// in\n    tag_78:\n        /* \"#utility.yul\":1090:1153   */\n      swap2\n      pop\n        /* \"#utility.yul\":1046:1163   */\n      pop\n        /* \"#utility.yul\":841:1170   */\n      swap3\n      swap2\n      pop\n      pop\n      jump\t// out\n        /* \"#utility.yul\":1176:1253   */\n    tag_51:\n        /* \"#utility.yul\":1213:1220   */\n      0x00\n        /* \"#utility.yul\":1242:1247   */\n      dup2\n        /* \"#utility.yul\":1231:1247   */\n      swap1\n      pop\n        /* \"#utility.yul\":1176:1253   */\n      swap2\n      swap1\n      pop\n      jump\t// out\n        /* \"#utility.yul\":1259:1377   */\n    tag_52:\n        /* \"#utility.yul\":1346:1370   */\n      tag_81\n        /* \"#utility.yul\":1364:1369   */\n      dup2\n        /* \"#utility.yul\":1346:1370   */\n      tag_51\n      jump\t// in\n    tag_81:\n        /* \"#utility.yul\":1341:1344   */\n      dup3\n        /* \"#utility.yul\":1334:1371   */\n      mstore\n        /* \"#utility.yul\":1259:1377   */\n      pop\n      pop\n      jump\t// out\n        /* \"#utility.yul\":1383:1605   */\n    tag_12:\n        /* \"#utility.yul\":1476:1480   */\n      0x00\n        /* \"#utility.yul\":1514:1516   */\n      0x20\n        /* \"#utility.yul\":1503:1512   */\n      dup3\n        /* \"#utility.yul\":1499:1517   */\n      add\n        /* \"#utility.yul\":1491:1517   */\n      swap1\n      pop\n        /* \"#utility.yul\":1527:1598   */\n      tag_83\n        /* \"#utility.yul\":1595:1596   */\n      0x00\n        /* \"#utility.yul\":1584:1593   */\n      dup4\n        /* \"#utility.yul\":1580:1597   */\n      add\n        /* \"#utility.yul\":1571:1577   */\n      dup5\n        /* \"#utility.yul\":1527:1598   */\n      tag_52\n      jump\t// in\n    tag_83:\n        /* \"#utility.yul\":1383:1605   */\n      swap3\n      swap2\n      pop\n      pop\n      jump\t// out\n        /* \"#utility.yul\":1611:1733   */\n    tag_53:\n        /* \"#utility.yul\":1684:1708   */\n      tag_85\n        /* \"#utility.yul\":1702:1707   */\n      dup2\n        /* \"#utility.yul\":1684:1708   */\n      tag_51\n      jump\t// in\n    tag_85:\n        /* \"#utility.yul\":1677:1682   */\n      dup2\n        /* \"#utility.yul\":1674:1709   */\n      eq\n        /* \"#utility.yul\":1664:1727   */\n      tag_86\n      jumpi\n        /* \"#utility.yul\":1723:1724   */\n      0x00\n        /* \"#utility.yul\":1720:1721   */\n      0x00\n        /* \"#utility.yul\":1713:1725   */\n      revert\n        /* \"#utility.yul\":1664:1727   */\n    tag_86:\n        /* \"#utility.yul\":1611:1733   */\n      pop\n      jump\t// out\n        /* \"#utility.yul\":1739:1878   */\n    tag_54:\n        /* \"#utility.yul\":1785:1790   */\n      0x00\n        /* \"#utility.yul\":1823:1829   */\n      dup2\n        /* \"#utility.yul\":1810:1830   */\n      calldataload\n        /* \"#utility.yul\":1801:1830   */\n      swap1\n      pop\n        /* \"#utility.yul\":1839:1872   */\n      tag_88\n        /* \"#utility.yul\":1866:1871   */\n      dup2\n        /* \"#utility.yul\":1839:1872   */\n      tag_53\n      jump\t// in\n    tag_88:\n        /* \"#utility.yul\":1739:1878   */\n      swap3\n      swap2\n      pop\n      pop\n      jump\t// out\n        /* \"#utility.yul\":1884:2358   */\n    tag_21:\n        /* \"#utility.yul\":1952:1958   */\n      0x00\n        /* \"#utility.yul\":1960:1966   */\n      0x00\n        /* \"#utility.yul\":2009:2011   */\n      0x40\n        /* \"#utility.yul\":1997:2006   */\n      dup4\n        /* \"#utility.yul\":1988:1995   */\n      dup6\n        /* \"#utility.yul\":1984:2007   */\n      sub\n        /* \"#utility.yul\":1980:2012   */\n      slt\n        /* \"#utility.yul\":1977:2096   */\n      iszero\n      tag_90\n      jumpi\n        /* \"#utility.yul\":2015:2094   */\n      tag_91\n      tag_45\n      jump\t// in\n    tag_91:\n        /* \"#utility.yul\":1977:2096   */\n    tag_90:\n        /* \"#utility.yul\":2135:2136   */\n      0x00\n        /* \"#utility.yul\":2160:2213   */\n      tag_92\n        /* \"#utility.yul\":2205:2212   */\n      dup6\n        /* \"#utility.yul\":2196:2202   */\n      dup3\n        /* \"#utility.yul\":2185:2194   */\n      dup7\n        /* \"#utility.yul\":2181:2203   */\n      add\n        /* \"#utility.yul\":2160:2213   */\n      tag_50\n      jump\t// in\n    tag_92:\n        /* \"#utility.yul\":2150:2213   */\n      swap3\n      pop\n        /* \"#utility.yul\":2106:2223   */\n      pop\n        /* \"#utility.yul\":2262:2264   */\n      0x20\n        /* \"#utility.yul\":2288:2341   */\n      tag_93\n        /* \"#utility.yul\":2333:2340   */\n      dup6\n        /* \"#utility.yul\":2324:2330   */\n      dup3\n        /* \"#utility.yul\":2313:2322   */\n      dup7\n        /* \"#utility.yul\":2309:2331   */\n      add\n        /* \"#utility.yul\":2288:2341   */\n      tag_54\n      jump\t// in\n    tag_93:\n        /* \"#utility.yul\":2278:2341   */\n      swap2\n      pop\n        /* \"#utility.yul\":2233:2351   */\n      pop\n        /* \"#utility.yul\":1884:2358   */\n      swap3\n      pop\n      swap3\n      swap1\n      pop\n      jump\t// out\n        /* \"#utility.yul\":2364:2533   */\n    tag_55:\n        /* \"#utility.yul\":2448:2459   */\n      0x00\n        /* \"#utility.yul\":2482:2488   */\n      dup3\n        /* \"#utility.yul\":2477:2480   */\n      dup3\n        /* \"#utility.yul\":2470:2489   */\n      mstore\n        /* \"#utility.yul\":2522:2526   */\n      0x20\n        /* \"#utility.yul\":2517:2520   */\n      dup3\n        /* \"#utility.yul\":2513:2527   */\n      add\n        /* \"#utility.yul\":2498:2527   */\n      swap1\n      pop\n        /* \"#utility.yul\":2364:2533   */\n      swap3\n      swap2\n      pop\n      pop\n      jump\t// out\n        /* \"#utility.yul\":2539:2718   */\n    tag_56:\n        /* \"#utility.yul\":2679:2710   */\n      0x576520646f6e277420666f756e64207375636820617320636c69656e74000000\n        /* \"#utility.yul\":2675:2676   */\n      0x00\n        /* \"#utility.yul\":2667:2673   */\n      dup3\n        /* \"#utility.yul\":2663:2677   */\n      add\n        /* \"#utility.yul\":2656:2711   */\n      mstore\n        /* \"#utility.yul\":2539:2718   */\n      pop\n      jump\t// out\n        /* \"#utility.yul\":2724:3090   */\n    tag_57:\n        /* \"#utility.yul\":2866:2869   */\n      0x00\n        /* \"#utility.yul\":2887:2954   */\n      tag_97\n        /* \"#utility.yul\":2951:2953   */\n      0x1d\n        /* \"#utility.yul\":2946:2949   */\n      dup4\n        /* \"#utility.yul\":2887:2954   */\n      tag_55\n      jump\t// in\n    tag_97:\n        /* \"#utility.yul\":2880:2954   */\n      swap2\n      pop\n        /* \"#utility.yul\":2963:3056   */\n      tag_98\n        /* \"#utility.yul\":3052:3055   */\n      dup3\n        /* \"#utility.yul\":2963:3056   */\n      tag_56\n      jump\t// in\n    tag_98:\n        /* \"#utility.yul\":3081:3083   */\n      0x20\n        /* \"#utility.yul\":3076:3079   */\n      dup3\n        /* \"#utility.yul\":3072:3084   */\n      add\n        /* \"#utility.yul\":3065:3084   */\n      swap1\n      pop\n        /* \"#utility.yul\":2724:3090   */\n      swap2\n      swap1\n      pop\n      jump\t// out\n        /* \"#utility.yul\":3096:3515   */\n    tag_28:\n        /* \"#utility.yul\":3262:3266   */\n      0x00\n        /* \"#utility.yul\":3300:3302   */\n      0x20\n        /* \"#utility.yul\":3289:3298   */\n      dup3\n        /* \"#utility.yul\":3285:3303   */\n      add\n        /* \"#utility.yul\":3277:3303   */\n      swap1\n      pop\n        /* \"#utility.yul\":3349:3358   */\n      dup2\n        /* \"#utility.yul\":3343:3347   */\n      dup2\n        /* \"#utility.yul\":3339:3359   */\n      sub\n        /* \"#utility.yul\":3335:3336   */\n      0x00\n        /* \"#utility.yul\":3324:3333   */\n      dup4\n        /* \"#utility.yul\":3320:3337   */\n      add\n        /* \"#utility.yul\":3313:3360   */\n      mstore\n        /* \"#utility.yul\":3377:3508   */\n      tag_100\n        /* \"#utility.yul\":3503:3507   */\n      dup2\n        /* \"#utility.yul\":3377:3508   */\n      tag_57\n      jump\t// in\n    tag_100:\n        /* \"#utility.yul\":3369:3508   */\n      swap1\n      pop\n        /* \"#utility.yul\":3096:3515   */\n      swap2\n      swap1\n      pop\n      jump\t// out\n        /* \"#utility.yul\":3521:3702   */\n    tag_58:\n        /* \"#utility.yul\":3661:3694   */\n      0x496e73756666696369656e742062616c616e636520666f7220726566756e6400\n        /* \"#utility.yul\":3657:3658   */\n      0x00\n        /* \"#utility.yul\":3649:3655   */\n      dup3\n        /* \"#utility.yul\":3645:3659   */\n      add\n        /* \"#utility.yul\":3638:3695   */\n      mstore\n        /* \"#utility.yul\":3521:3702   */\n      pop\n      jump\t// out\n        /* \"#utility.yul\":3708:4074   */\n    tag_59:\n        /* \"#utility.yul\":3850:3853   */\n      0x00\n        /* \"#utility.yul\":3871:3938   */\n      tag_103\n        /* \"#utility.yul\":3935:3937   */\n      0x1f\n        /* \"#utility.yul\":3930:3933   */\n      dup4\n        /* \"#utility.yul\":3871:3938   */\n      tag_55\n      jump\t// in\n    tag_103:\n        /* \"#utility.yul\":3864:3938   */\n      swap2\n      pop\n        /* \"#utility.yul\":3947:4040   */\n      tag_104\n        /* \"#utility.yul\":4036:4039   */\n      dup3\n        /* \"#utility.yul\":3947:4040   */\n      tag_58\n      jump\t// in\n    tag_104:\n        /* \"#utility.yul\":4065:4067   */\n      0x20\n        /* \"#utility.yul\":4060:4063   */\n      dup3\n        /* \"#utility.yul\":4056:4068   */\n      add\n        /* \"#utility.yul\":4049:4068   */\n      swap1\n      pop\n        /* \"#utility.yul\":3708:4074   */\n      swap2\n      swap1\n      pop\n      jump\t// out\n        /* \"#utility.yul\":4080:4499   */\n    tag_33:\n        /* \"#utility.yul\":4246:4250   */\n      0x00\n        /* \"#utility.yul\":4284:4286   */\n      0x20\n        /* \"#utility.yul\":4273:4282   */\n      dup3\n        /* \"#utility.yul\":4269:4287   */\n      add\n        /* \"#utility.yul\":4261:4287   */\n      swap1\n      pop\n        /* \"#utility.yul\":4333:4342   */\n      dup2\n        /* \"#utility.yul\":4327:4331   */\n      dup2\n        /* \"#utility.yul\":4323:4343   */\n      sub\n        /* \"#utility.yul\":4319:4320   */\n      0x00\n        /* \"#utility.yul\":4308:4317   */\n      dup4\n        /* \"#utility.yul\":4304:4321   */\n      add\n        /* \"#utility.yul\":4297:4344   */\n      mstore\n        /* \"#utility.yul\":4361:4492   */\n      tag_106\n        /* \"#utility.yul\":4487:4491   */\n      dup2\n        /* \"#utility.yul\":4361:4492   */\n      tag_59\n      jump\t// in\n    tag_106:\n        /* \"#utility.yul\":4353:4492   */\n      swap1\n      pop\n        /* \"#utility.yul\":4080:4499   */\n      swap2\n      swap1\n      pop\n      jump\t// out\n        /* \"#utility.yul\":4505:4685   */\n    tag_60:\n        /* \"#utility.yul\":4553:4630   */\n      0x4e487b7100000000000000000000000000000000000000000000000000000000\n        /* \"#utility.yul\":4550:4551   */\n      0x00\n        /* \"#utility.yul\":4543:4631   */\n      mstore\n        /* \"#utility.yul\":4650:4654   */\n      0x11\n        /* \"#utility.yul\":4647:4648   */\n      0x04\n        /* \"#utility.yul\":4640:4655   */\n      mstore\n        /* \"#utility.yul\":4674:4678   */\n      0x24\n        /* \"#utility.yul\":4671:4672   */\n      0x00\n        /* \"#utility.yul\":4664:4679   */\n      revert\n        /* \"#utility.yul\":4691:4885   */\n    tag_35:\n        /* \"#utility.yul\":4731:4735   */\n      0x00\n        /* \"#utility.yul\":4751:4771   */\n      tag_109\n        /* \"#utility.yul\":4769:4770   */\n      dup3\n        /* \"#utility.yul\":4751:4771   */\n      tag_51\n      jump\t// in\n    tag_109:\n        /* \"#utility.yul\":4746:4771   */\n      swap2\n      pop\n        /* \"#utility.yul\":4785:4805   */\n      tag_110\n        /* \"#utility.yul\":4803:4804   */\n      dup4\n        /* \"#utility.yul\":4785:4805   */\n      tag_51\n      jump\t// in\n    tag_110:\n        /* \"#utility.yul\":4780:4805   */\n      swap3\n      pop\n        /* \"#utility.yul\":4829:4830   */\n      dup3\n        /* \"#utility.yul\":4826:4827   */\n      dup3\n        /* \"#utility.yul\":4822:4831   */\n      sub\n        /* \"#utility.yul\":4814:4831   */\n      swap1\n      pop\n        /* \"#utility.yul\":4853:4854   */\n      dup2\n        /* \"#utility.yul\":4847:4851   */\n      dup2\n        /* \"#utility.yul\":4844:4855   */\n      gt\n        /* \"#utility.yul\":4841:4878   */\n      iszero\n      tag_111\n      jumpi\n        /* \"#utility.yul\":4858:4876   */\n      tag_112\n      tag_60\n      jump\t// in\n    tag_112:\n        /* \"#utility.yul\":4841:4878   */\n    tag_111:\n        /* \"#utility.yul\":4691:4885   */\n      swap3\n      swap2\n      pop\n      pop\n      jump\t// out\n        /* \"#utility.yul\":4891:5071   */\n    tag_61:\n        /* \"#utility.yul\":5031:5063   */\n      0x5061796d656e74206d7573742062652067726561746572207468616e20300000\n        /* \"#utility.yul\":5027:5028   */\n      0x00\n        /* \"#utility.yul\":5019:5025   */\n      dup3\n        /* \"#utility.yul\":5015:5029   */\n      add\n        /* \"#utility.yul\":5008:5064   */\n      mstore\n        /* \"#utility.yul\":4891:5071   */\n      pop\n      jump\t// out\n        /* \"#utility.yul\":5077:5443   */\n    tag_62:\n        /* \"#utility.yul\":5219:5222   */\n      0x00\n        /* \"#utility.yul\":5240:5307   */\n      tag_115\n        /* \"#utility.yul\":5304:5306   */\n      0x1e\n        /* \"#utility.yul\":5299:5302   */\n      dup4\n        /* \"#utility.yul\":5240:5307   */\n      tag_55\n      jump\t// in\n    tag_115:\n        /* \"#utility.yul\":5233:5307   */\n      swap2\n      pop\n        /* \"#utility.yul\":5316:5409   */\n      tag_116\n        /* \"#utility.yul\":5405:5408   */\n      dup3\n        /* \"#utility.yul\":5316:5409   */\n      tag_61\n      jump\t// in\n    tag_116:\n        /* \"#utility.yul\":5434:5436   */\n      0x20\n        /* \"#utility.yul\":5429:5432   */\n      dup3\n        /* \"#utility.yul\":5425:5437   */\n      add\n        /* \"#utility.yul\":5418:5437   */\n      swap1\n      pop\n        /* \"#utility.yul\":5077:5443   */\n      swap2\n      swap1\n      pop\n      jump\t// out\n        /* \"#utility.yul\":5449:5868   */\n    tag_41:\n        /* \"#utility.yul\":5615:5619   */\n      0x00\n        /* \"#utility.yul\":5653:5655   */\n      0x20\n        /* \"#utility.yul\":5642:5651   */\n      dup3\n        /* \"#utility.yul\":5638:5656   */\n      add\n        /* \"#utility.yul\":5630:5656   */\n      swap1\n      pop\n        /* \"#utility.yul\":5702:5711   */\n      dup2\n        /* \"#utility.yul\":5696:5700   */\n      dup2\n        /* \"#utility.yul\":5692:5712   */\n      sub\n        /* \"#utility.yul\":5688:5689   */\n      0x00\n        /* \"#utility.yul\":5677:5686   */\n      dup4\n        /* \"#utility.yul\":5673:5690   */\n      add\n        /* \"#utility.yul\":5666:5713   */\n      mstore\n        /* \"#utility.yul\":5730:5861   */\n      tag_118\n        /* \"#utility.yul\":5856:5860   */\n      dup2\n        /* \"#utility.yul\":5730:5861   */\n      tag_62\n      jump\t// in\n    tag_118:\n        /* \"#utility.yul\":5722:5861   */\n      swap1\n      pop\n        /* \"#utility.yul\":5449:5868   */\n      swap2\n      swap1\n      pop\n      jump\t// out\n        /* \"#utility.yul\":5874:6065   */\n    tag_43:\n        /* \"#utility.yul\":5914:5917   */\n      0x00\n        /* \"#utility.yul\":5933:5953   */\n      tag_120\n        /* \"#utility.yul\":5951:5952   */\n      dup3\n        /* \"#utility.yul\":5933:5953   */\n      tag_51\n      jump\t// in\n    tag_120:\n        /* \"#utility.yul\":5928:5953   */\n      swap2\n      pop\n        /* \"#utility.yul\":5967:5987   */\n      tag_121\n        /* \"#utility.yul\":5985:5986   */\n      dup4\n        /* \"#utility.yul\":5967:5987   */\n      tag_51\n      jump\t// in\n    tag_121:\n        /* \"#utility.yul\":5962:5987   */\n      swap3\n      pop\n        /* \"#utility.yul\":6010:6011   */\n      dup3\n        /* \"#utility.yul\":6007:6008   */\n      dup3\n        /* \"#utility.yul\":6003:6012   */\n      add\n        /* \"#utility.yul\":5996:6012   */\n      swap1\n      pop\n        /* \"#utility.yul\":6031:6034   */\n      dup1\n        /* \"#utility.yul\":6028:6029   */\n      dup3\n        /* \"#utility.yul\":6025:6035   */\n      gt\n        /* \"#utility.yul\":6022:6058   */\n      iszero\n      tag_122\n      jumpi\n        /* \"#utility.yul\":6038:6056   */\n      tag_123\n      tag_60\n      jump\t// in\n    tag_123:\n        /* \"#utility.yul\":6022:6058   */\n    tag_122:\n        /* \"#utility.yul\":5874:6065   */\n      swap3\n      swap2\n      pop\n      pop\n      jump\t// out\n\n    auxdata: 0xa264697066735822122004a8e999f0bee00836debdde4a5257f4bd95313ac6459e0ab88eb0e7ba98524e64736f6c634300081c0033\n}\n",
				"bytecode": {
					"linkReferences": {},
					"object": "6080604052348015600e575f5ffd5b506106a78061001c5f395ff3fe60806040526004361061003e575f3560e01c806327e235e3146100425780632e4d59c41461007e5780638ac5752e146100ba578063dcd37669146100e2575b5f5ffd5b34801561004d575f5ffd5b50610068600480360381019061006391906103d2565b6100ec565b6040516100759190610415565b60405180910390f35b348015610089575f5ffd5b506100a4600480360381019061009f91906103d2565b610100565b6040516100b19190610415565b60405180910390f35b3480156100c5575f5ffd5b506100e060048036038101906100db9190610458565b6101c5565b005b6100ea6102de565b005b5f602052805f5260405f205f915090505481565b5f815f5f5f8373ffffffffffffffffffffffffffffffffffffffff1673ffffffffffffffffffffffffffffffffffffffff1681526020019081526020015f205411610180576040517f08c379a0000000000000000000000000000000000000000000000000000000008152600401610177906104f0565b60405180910390fd5b5f5f8473ffffffffffffffffffffffffffffffffffffffff1673ffffffffffffffffffffffffffffffffffffffff1681526020019081526020015f2054915050919050565b5f5f8373ffffffffffffffffffffffffffffffffffffffff1673ffffffffffffffffffffffffffffffffffffffff1681526020019081526020015f2054811115610244576040517f08c379a000000000000000000000000000000000000000000000000000000000815260040161023b90610558565b60405180910390fd5b805f5f8473ffffffffffffffffffffffffffffffffffffffff1673ffffffffffffffffffffffffffffffffffffffff1681526020019081526020015f205f82825461028f91906105a3565b925050819055508173ffffffffffffffffffffffffffffffffffffffff166108fc8290811502906040515f60405180830381858888f193505050501580156102d9573d5f5f3e3d5ffd5b505050565b5f3411610320576040517f08c379a000000000000000000000000000000000000000000000000000000000815260040161031790610620565b60405180910390fd5b345f5f3373ffffffffffffffffffffffffffffffffffffffff1673ffffffffffffffffffffffffffffffffffffffff1681526020019081526020015f205f82825461036b919061063e565b92505081905550565b5f5ffd5b5f73ffffffffffffffffffffffffffffffffffffffff82169050919050565b5f6103a182610378565b9050919050565b6103b181610397565b81146103bb575f5ffd5b50565b5f813590506103cc816103a8565b92915050565b5f602082840312156103e7576103e6610374565b5b5f6103f4848285016103be565b91505092915050565b5f819050919050565b61040f816103fd565b82525050565b5f6020820190506104285f830184610406565b92915050565b610437816103fd565b8114610441575f5ffd5b50565b5f813590506104528161042e565b92915050565b5f5f6040838503121561046e5761046d610374565b5b5f61047b858286016103be565b925050602061048c85828601610444565b9150509250929050565b5f82825260208201905092915050565b7f576520646f6e277420666f756e64207375636820617320636c69656e740000005f82015250565b5f6104da601d83610496565b91506104e5826104a6565b602082019050919050565b5f6020820190508181035f830152610507816104ce565b9050919050565b7f496e73756666696369656e742062616c616e636520666f7220726566756e64005f82015250565b5f610542601f83610496565b915061054d8261050e565b602082019050919050565b5f6020820190508181035f83015261056f81610536565b9050919050565b7f4e487b71000000000000000000000000000000000000000000000000000000005f52601160045260245ffd5b5f6105ad826103fd565b91506105b8836103fd565b92508282039050818111156105d0576105cf610576565b5b92915050565b7f5061796d656e74206d7573742062652067726561746572207468616e203000005f82015250565b5f61060a601e83610496565b9150610615826105d6565b602082019050919050565b5f6020820190508181035f830152610637816105fe565b9050919050565b5f610648826103fd565b9150610653836103fd565b925082820190508082111561066b5761066a610576565b5b9291505056fea264697066735822122004a8e999f0bee00836debdde4a5257f4bd95313ac6459e0ab88eb0e7ba98524e64736f6c634300081c0033",
					"opcodes": "PUSH1 0x80 PUSH1 0x40 MSTORE CALLVALUE DUP1 ISZERO PUSH1 0xE JUMPI PUSH0 PUSH0 REVERT JUMPDEST POP PUSH2 0x6A7 DUP1 PUSH2 0x1C PUSH0 CODECOPY PUSH0 RETURN INVALID PUSH1 0x80 PUSH1 0x40 MSTORE PUSH1 0x4 CALLDATASIZE LT PUSH2 0x3E JUMPI PUSH0 CALLDATALOAD PUSH1 0xE0 SHR DUP1 PUSH4 0x27E235E3 EQ PUSH2 0x42 JUMPI DUP1 PUSH4 0x2E4D59C4 EQ PUSH2 0x7E JUMPI DUP1 PUSH4 0x8AC5752E EQ PUSH2 0xBA JUMPI DUP1 PUSH4 0xDCD37669 EQ PUSH2 0xE2 JUMPI JUMPDEST PUSH0 PUSH0 REVERT JUMPDEST CALLVALUE DUP1 ISZERO PUSH2 0x4D JUMPI PUSH0 PUSH0 REVERT JUMPDEST POP PUSH2 0x68 PUSH1 0x4 DUP1 CALLDATASIZE SUB DUP2 ADD SWAP1 PUSH2 0x63 SWAP2 SWAP1 PUSH2 0x3D2 JUMP JUMPDEST PUSH2 0xEC JUMP JUMPDEST PUSH1 0x40 MLOAD PUSH2 0x75 SWAP2 SWAP1 PUSH2 0x415 JUMP JUMPDEST PUSH1 0x40 MLOAD DUP1 SWAP2 SUB SWAP1 RETURN JUMPDEST CALLVALUE DUP1 ISZERO PUSH2 0x89 JUMPI PUSH0 PUSH0 REVERT JUMPDEST POP PUSH2 0xA4 PUSH1 0x4 DUP1 CALLDATASIZE SUB DUP2 ADD SWAP1 PUSH2 0x9F SWAP2 SWAP1 PUSH2 0x3D2 JUMP JUMPDEST PUSH2 0x100 JUMP JUMPDEST PUSH1 0x40 MLOAD PUSH2 0xB1 SWAP2 SWAP1 PUSH2 0x415 JUMP JUMPDEST PUSH1 0x40 MLOAD DUP1 SWAP2 SUB SWAP1 RETURN JUMPDEST CALLVALUE DUP1 ISZERO PUSH2 0xC5 JUMPI PUSH0 PUSH0 REVERT JUMPDEST POP PUSH2 0xE0 PUSH1 0x4 DUP1 CALLDATASIZE SUB DUP2 ADD SWAP1 PUSH2 0xDB SWAP2 SWAP1 PUSH2 0x458 JUMP JUMPDEST PUSH2 0x1C5 JUMP JUMPDEST STOP JUMPDEST PUSH2 0xEA PUSH2 0x2DE JUMP JUMPDEST STOP JUMPDEST PUSH0 PUSH1 0x20 MSTORE DUP1 PUSH0 MSTORE PUSH1 0x40 PUSH0 KECCAK256 PUSH0 SWAP2 POP SWAP1 POP SLOAD DUP2 JUMP JUMPDEST PUSH0 DUP2 PUSH0 PUSH0 PUSH0 DUP4 PUSH20 0xFFFFFFFFFFFFFFFFFFFFFFFFFFFFFFFFFFFFFFFF AND PUSH20 0xFFFFFFFFFFFFFFFFFFFFFFFFFFFFFFFFFFFFFFFF AND DUP2 MSTORE PUSH1 0x20 ADD SWAP1 DUP2 MSTORE PUSH1 0x20 ADD PUSH0 KECCAK256 SLOAD GT PUSH2 0x180 JUMPI PUSH1 0x40 MLOAD PUSH32 0x8C379A000000000000000000000000000000000000000000000000000000000 DUP2 MSTORE PUSH1 0x4 ADD PUSH2 0x177 SWAP1 PUSH2 0x4F0 JUMP JUMPDEST PUSH1 0x40 MLOAD DUP1 SWAP2 SUB SWAP1 REVERT JUMPDEST PUSH0 PUSH0 DUP5 PUSH20 0xFFFFFFFFFFFFFFFFFFFFFFFFFFFFFFFFFFFFFFFF AND PUSH20 0xFFFFFFFFFFFFFFFFFFFFFFFFFFFFFFFFFFFFFFFF AND DUP2 MSTORE PUSH1 0x20 ADD SWAP1 DUP2 MSTORE PUSH1 0x20 ADD PUSH0 KECCAK256 SLOAD SWAP2 POP POP SWAP2 SWAP1 POP JUMP JUMPDEST PUSH0 PUSH0 DUP4 PUSH20 0xFFFFFFFFFFFFFFFFFFFFFFFFFFFFFFFFFFFFFFFF AND PUSH20 0xFFFFFFFFFFFFFFFFFFFFFFFFFFFFFFFFFFFFFFFF AND DUP2 MSTORE PUSH1 0x20 ADD SWAP1 DUP2 MSTORE PUSH1 0x20 ADD PUSH0 KECCAK256 SLOAD DUP2 GT ISZERO PUSH2 0x244 JUMPI PUSH1 0x40 MLOAD PUSH32 0x8C379A000000000000000000000000000000000000000000000000000000000 DUP2 MSTORE PUSH1 0x4 ADD PUSH2 0x23B SWAP1 PUSH2 0x558 JUMP JUMPDEST PUSH1 0x40 MLOAD DUP1 SWAP2 SUB SWAP1 REVERT JUMPDEST DUP1 PUSH0 PUSH0 DUP5 PUSH20 0xFFFFFFFFFFFFFFFFFFFFFFFFFFFFFFFFFFFFFFFF AND PUSH20 0xFFFFFFFFFFFFFFFFFFFFFFFFFFFFFFFFFFFFFFFF AND DUP2 MSTORE PUSH1 0x20 ADD SWAP1 DUP2 MSTORE PUSH1 0x20 ADD PUSH0 KECCAK256 PUSH0 DUP3 DUP3 SLOAD PUSH2 0x28F SWAP2 SWAP1 PUSH2 0x5A3 JUMP JUMPDEST SWAP3 POP POP DUP2 SWAP1 SSTORE POP DUP2 PUSH20 0xFFFFFFFFFFFFFFFFFFFFFFFFFFFFFFFFFFFFFFFF AND PUSH2 0x8FC DUP3 SWAP1 DUP2 ISZERO MUL SWAP1 PUSH1 0x40 MLOAD PUSH0 PUSH1 0x40 MLOAD DUP1 DUP4 SUB DUP2 DUP6 DUP9 DUP9 CALL SWAP4 POP POP POP POP ISZERO DUP1 ISZERO PUSH2 0x2D9 JUMPI RETURNDATASIZE PUSH0 PUSH0 RETURNDATACOPY RETURNDATASIZE PUSH0 REVERT JUMPDEST POP POP POP JUMP JUMPDEST PUSH0 CALLVALUE GT PUSH2 0x320 JUMPI PUSH1 0x40 MLOAD PUSH32 0x8C379A000000000000000000000000000000000000000000000000000000000 DUP2 MSTORE PUSH1 0x4 ADD PUSH2 0x317 SWAP1 PUSH2 0x620 JUMP JUMPDEST PUSH1 0x40 MLOAD DUP1 SWAP2 SUB SWAP1 REVERT JUMPDEST CALLVALUE PUSH0 PUSH0 CALLER PUSH20 0xFFFFFFFFFFFFFFFFFFFFFFFFFFFFFFFFFFFFFFFF AND PUSH20 0xFFFFFFFFFFFFFFFFFFFFFFFFFFFFFFFFFFFFFFFF AND DUP2 MSTORE PUSH1 0x20 ADD SWAP1 DUP2 MSTORE PUSH1 0x20 ADD PUSH0 KECCAK256 PUSH0 DUP3 DUP3 SLOAD PUSH2 0x36B SWAP2 SWAP1 PUSH2 0x63E JUMP JUMPDEST SWAP3 POP POP DUP2 SWAP1 SSTORE POP JUMP JUMPDEST PUSH0 PUSH0 REVERT JUMPDEST PUSH0 PUSH20 0xFFFFFFFFFFFFFFFFFFFFFFFFFFFFFFFFFFFFFFFF DUP3 AND SWAP1 POP SWAP2 SWAP1 POP JUMP JUMPDEST PUSH0 PUSH2 0x3A1 DUP3 PUSH2 0x378 JUMP JUMPDEST SWAP1 POP SWAP2 SWAP1 POP JUMP JUMPDEST PUSH2 0x3B1 DUP2 PUSH2 0x397 JUMP JUMPDEST DUP2 EQ PUSH2 0x3BB JUMPI PUSH0 PUSH0 REVERT JUMPDEST POP JUMP JUMPDEST PUSH0 DUP2 CALLDATALOAD SWAP1 POP PUSH2 0x3CC DUP2 PUSH2 0x3A8 JUMP JUMPDEST SWAP3 SWAP2 POP POP JUMP JUMPDEST PUSH0 PUSH1 0x20 DUP3 DUP5 SUB SLT ISZERO PUSH2 0x3E7 JUMPI PUSH2 0x3E6 PUSH2 0x374 JUMP JUMPDEST JUMPDEST PUSH0 PUSH2 0x3F4 DUP5 DUP3 DUP6 ADD PUSH2 0x3BE JUMP JUMPDEST SWAP2 POP POP SWAP3 SWAP2 POP POP JUMP JUMPDEST PUSH0 DUP2 SWAP1 POP SWAP2 SWAP1 POP JUMP JUMPDEST PUSH2 0x40F DUP2 PUSH2 0x3FD JUMP JUMPDEST DUP3 MSTORE POP POP JUMP JUMPDEST PUSH0 PUSH1 0x20 DUP3 ADD SWAP1 POP PUSH2 0x428 PUSH0 DUP4 ADD DUP5 PUSH2 0x406 JUMP JUMPDEST SWAP3 SWAP2 POP POP JUMP JUMPDEST PUSH2 0x437 DUP2 PUSH2 0x3FD JUMP JUMPDEST DUP2 EQ PUSH2 0x441 JUMPI PUSH0 PUSH0 REVERT JUMPDEST POP JUMP JUMPDEST PUSH0 DUP2 CALLDATALOAD SWAP1 POP PUSH2 0x452 DUP2 PUSH2 0x42E JUMP JUMPDEST SWAP3 SWAP2 POP POP JUMP JUMPDEST PUSH0 PUSH0 PUSH1 0x40 DUP4 DUP6 SUB SLT ISZERO PUSH2 0x46E JUMPI PUSH2 0x46D PUSH2 0x374 JUMP JUMPDEST JUMPDEST PUSH0 PUSH2 0x47B DUP6 DUP3 DUP7 ADD PUSH2 0x3BE JUMP JUMPDEST SWAP3 POP POP PUSH1 0x20 PUSH2 0x48C DUP6 DUP3 DUP7 ADD PUSH2 0x444 JUMP JUMPDEST SWAP2 POP POP SWAP3 POP SWAP3 SWAP1 POP JUMP JUMPDEST PUSH0 DUP3 DUP3 MSTORE PUSH1 0x20 DUP3 ADD SWAP1 POP SWAP3 SWAP2 POP POP JUMP JUMPDEST PUSH32 0x576520646F6E277420666F756E64207375636820617320636C69656E74000000 PUSH0 DUP3 ADD MSTORE POP JUMP JUMPDEST PUSH0 PUSH2 0x4DA PUSH1 0x1D DUP4 PUSH2 0x496 JUMP JUMPDEST SWAP2 POP PUSH2 0x4E5 DUP3 PUSH2 0x4A6 JUMP JUMPDEST PUSH1 0x20 DUP3 ADD SWAP1 POP SWAP2 SWAP1 POP JUMP JUMPDEST PUSH0 PUSH1 0x20 DUP3 ADD SWAP1 POP DUP2 DUP2 SUB PUSH0 DUP4 ADD MSTORE PUSH2 0x507 DUP2 PUSH2 0x4CE JUMP JUMPDEST SWAP1 POP SWAP2 SWAP1 POP JUMP JUMPDEST PUSH32 0x496E73756666696369656E742062616C616E636520666F7220726566756E6400 PUSH0 DUP3 ADD MSTORE POP JUMP JUMPDEST PUSH0 PUSH2 0x542 PUSH1 0x1F DUP4 PUSH2 0x496 JUMP JUMPDEST SWAP2 POP PUSH2 0x54D DUP3 PUSH2 0x50E JUMP JUMPDEST PUSH1 0x20 DUP3 ADD SWAP1 POP SWAP2 SWAP1 POP JUMP JUMPDEST PUSH0 PUSH1 0x20 DUP3 ADD SWAP1 POP DUP2 DUP2 SUB PUSH0 DUP4 ADD MSTORE PUSH2 0x56F DUP2 PUSH2 0x536 JUMP JUMPDEST SWAP1 POP SWAP2 SWAP1 POP JUMP JUMPDEST PUSH32 0x4E487B7100000000000000000000000000000000000000000000000000000000 PUSH0 MSTORE PUSH1 0x11 PUSH1 0x4 MSTORE PUSH1 0x24 PUSH0 REVERT JUMPDEST PUSH0 PUSH2 0x5AD DUP3 PUSH2 0x3FD JUMP JUMPDEST SWAP2 POP PUSH2 0x5B8 DUP4 PUSH2 0x3FD JUMP JUMPDEST SWAP3 POP DUP3 DUP3 SUB SWAP1 POP DUP2 DUP2 GT ISZERO PUSH2 0x5D0 JUMPI PUSH2 0x5CF PUSH2 0x576 JUMP JUMPDEST JUMPDEST SWAP3 SWAP2 POP POP JUMP JUMPDEST PUSH32 0x5061796D656E74206D7573742062652067726561746572207468616E20300000 PUSH0 DUP3 ADD MSTORE POP JUMP JUMPDEST PUSH0 PUSH2 0x60A PUSH1 0x1E DUP4 PUSH2 0x496 JUMP JUMPDEST SWAP2 POP PUSH2 0x615 DUP3 PUSH2 0x5D6 JUMP JUMPDEST PUSH1 0x20 DUP3 ADD SWAP1 POP SWAP2 SWAP1 POP JUMP JUMPDEST PUSH0 PUSH1 0x20 DUP3 ADD SWAP1 POP DUP2 DUP2 SUB PUSH0 DUP4 ADD MSTORE PUSH2 0x637 DUP2 PUSH2 0x5FE JUMP JUMPDEST SWAP1 POP SWAP2 SWAP1 POP JUMP JUMPDEST PUSH0 PUSH2 0x648 DUP3 PUSH2 0x3FD JUMP JUMPDEST SWAP2 POP PUSH2 0x653 DUP4 PUSH2 0x3FD JUMP JUMPDEST SWAP3 POP DUP3 DUP3 ADD SWAP1 POP DUP1 DUP3 GT ISZERO PUSH2 0x66B JUMPI PUSH2 0x66A PUSH2 0x576 JUMP JUMPDEST JUMPDEST SWAP3 SWAP2 POP POP JUMP INVALID LOG2 PUSH5 0x6970667358 0x22 SLT KECCAK256 DIV 0xA8 0xE9 SWAP10 CREATE 0xBE 0xE0 ADDMOD CALLDATASIZE 0xDE 0xBD 0xDE BLOBBASEFEE MSTORE JUMPI DELEGATECALL 0xBD SWAP6 BALANCE GASPRICE 0xC6 GASLIMIT SWAP15 EXP 0xB8 DUP15 0xB0 0xE7 0xBA SWAP9 MSTORE 0x4E PUSH5 0x736F6C6343 STOP ADDMOD SHR STOP CALLER "
				},
				"gasEstimates": {
					"creation": {
						"codeDepositCost": "340600",
						"executionCost": "378",
						"totalCost": "340978"
					},
					"external": {
						"CheckBalance(address)": "5042",
						"ReceivePayment()": "infinite",
						"balances(address)": "2779",
						"refundPayment(address,uint256)": "infinite"
					}
				},
				"methodIdentifiers": {
					"CheckBalance(address)": "2e4d59c4",
					"ReceivePayment()": "dcd37669",
					"balances(address)": "27e235e3",
					"refundPayment(address,uint256)": "8ac5752e"
				}
			},
			"storageLayout": {
				"storage": [
					{
						"astId": 5,
						"contract": "contracts/PaymentProcessor.sol:PaymentProcessor",
						"label": "balances",
						"offset": 0,
						"slot": "0",
						"type": "t_mapping(t_address,t_uint256)"
					}
				],
				"types": {
					"t_address": {
						"encoding": "inplace",
						"label": "address",
						"numberOfBytes": "20"
					},
					"t_mapping(t_address,t_uint256)": {
						"encoding": "mapping",
						"key": "t_address",
						"label": "mapping(address => uint256)",
						"numberOfBytes": "32",
						"value": "t_uint256"
					},
					"t_uint256": {
						"encoding": "inplace",
						"label": "uint256",
						"numberOfBytes": "32"
					}
				}
			},
			"userdoc": {
				"kind": "user",
				"methods": {},
				"version": 1
			}
		}
	}
}