{
	"contracts/PaymentProcessor.sol": {
		"Merchant": {
			"abi": [
				{
					"inputs": [
						{
							"internalType": "address",
							"name": "_adr",
							"type": "address"
						}
					],
					"name": "CheckBalance",
					"outputs": [
						{
							"internalType": "uint256",
							"name": "",
							"type": "uint256"
						}
					],
					"stateMutability": "view",
					"type": "function"
				},
				{
					"inputs": [],
					"name": "ReceivePayment",
					"outputs": [],
					"stateMutability": "payable",
					"type": "function"
				},
				{
					"inputs": [
						{
							"internalType": "address",
							"name": "",
							"type": "address"
						}
					],
					"name": "balances",
					"outputs": [
						{
							"internalType": "uint256",
							"name": "",
							"type": "uint256"
						}
					],
					"stateMutability": "view",
					"type": "function"
				},
				{
					"inputs": [],
					"name": "loyaltyThreshold",
					"outputs": [
						{
							"internalType": "uint256",
							"name": "",
							"type": "uint256"
						}
					],
					"stateMutability": "view",
					"type": "function"
				},
				{
					"inputs": [
						{
							"internalType": "address",
							"name": "customer",
							"type": "address"
						},
						{
							"internalType": "uint256",
							"name": "_amount",
							"type": "uint256"
						}
					],
					"name": "refundPayment",
					"outputs": [],
					"stateMutability": "nonpayable",
					"type": "function"
				}
			],
			"devdoc": {
				"kind": "dev",
				"methods": {},
				"version": 1
			},
			"evm": {
				"assembly": "    /* \"contracts/PaymentProcessor.sol\":867:1301  contract Merchant is PaymentProcessor {... */\n  mstore(0x40, 0x80)\n    /* \"contracts/PaymentProcessor.sol\":945:952  1 ether */\n  0x0de0b6b3a7640000\n    /* \"contracts/PaymentProcessor.sol\":914:952  uint public loyaltyThreshold = 1 ether */\n  0x01\n  sstore\n    /* \"contracts/PaymentProcessor.sol\":867:1301  contract Merchant is PaymentProcessor {... */\n  callvalue\n  dup1\n  iszero\n  tag_1\n  jumpi\n  revert(0x00, 0x00)\ntag_1:\n  pop\n  dataSize(sub_0)\n  dup1\n  dataOffset(sub_0)\n  0x00\n  codecopy\n  0x00\n  return\nstop\n\nsub_0: assembly {\n        /* \"contracts/PaymentProcessor.sol\":867:1301  contract Merchant is PaymentProcessor {... */\n      mstore(0x40, 0x80)\n      jumpi(tag_1, lt(calldatasize, 0x04))\n      shr(0xe0, calldataload(0x00))\n      dup1\n      0x27e235e3\n      eq\n      tag_2\n      jumpi\n      dup1\n      0x2e4d59c4\n      eq\n      tag_3\n      jumpi\n      dup1\n      0x8ac5752e\n      eq\n      tag_4\n      jumpi\n      dup1\n      0xa310a67c\n      eq\n      tag_5\n      jumpi\n      dup1\n      0xdcd37669\n      eq\n      tag_6\n      jumpi\n    tag_1:\n      revert(0x00, 0x00)\n        /* \"contracts/PaymentProcessor.sol\":97:140  mapping(address => uint256) public balances */\n    tag_2:\n      callvalue\n      dup1\n      iszero\n      tag_7\n      jumpi\n      revert(0x00, 0x00)\n    tag_7:\n      pop\n      tag_8\n      0x04\n      dup1\n      calldatasize\n      sub\n      dup2\n      add\n      swap1\n      tag_9\n      swap2\n      swap1\n      tag_10\n      jump\t// in\n    tag_9:\n      tag_11\n      jump\t// in\n    tag_8:\n      mload(0x40)\n      tag_12\n      swap2\n      swap1\n      tag_13\n      jump\t// in\n    tag_12:\n      mload(0x40)\n      dup1\n      swap2\n      sub\n      swap1\n      return\n        /* \"contracts/PaymentProcessor.sol\":459:596  function CheckBalance(address _adr) external view OwnerAddress(_adr) returns(uint256){... */\n    tag_3:\n      callvalue\n      dup1\n      iszero\n      tag_14\n      jumpi\n      revert(0x00, 0x00)\n    tag_14:\n      pop\n      tag_15\n      0x04\n      dup1\n      calldatasize\n      sub\n      dup2\n      add\n      swap1\n      tag_16\n      swap2\n      swap1\n      tag_10\n      jump\t// in\n    tag_16:\n      tag_17\n      jump\t// in\n    tag_15:\n      mload(0x40)\n      tag_18\n      swap2\n      swap1\n      tag_13\n      jump\t// in\n    tag_18:\n      mload(0x40)\n      dup1\n      swap2\n      sub\n      swap1\n      return\n        /* \"contracts/PaymentProcessor.sol\":961:1296  function refundPayment(address customer, uint _amount)  public override{... */\n    tag_4:\n      callvalue\n      dup1\n      iszero\n      tag_19\n      jumpi\n      revert(0x00, 0x00)\n    tag_19:\n      pop\n      tag_20\n      0x04\n      dup1\n      calldatasize\n      sub\n      dup2\n      add\n      swap1\n      tag_21\n      swap2\n      swap1\n      tag_22\n      jump\t// in\n    tag_21:\n      tag_23\n      jump\t// in\n    tag_20:\n      stop\n        /* \"contracts/PaymentProcessor.sol\":914:952  uint public loyaltyThreshold = 1 ether */\n    tag_5:\n      callvalue\n      dup1\n      iszero\n      tag_24\n      jumpi\n      revert(0x00, 0x00)\n    tag_24:\n      pop\n      tag_25\n      tag_26\n      jump\t// in\n    tag_25:\n      mload(0x40)\n      tag_27\n      swap2\n      swap1\n      tag_13\n      jump\t// in\n    tag_27:\n      mload(0x40)\n      dup1\n      swap2\n      sub\n      swap1\n      return\n        /* \"contracts/PaymentProcessor.sol\":285:451  function ReceivePayment() external payable {... */\n    tag_6:\n      tag_28\n      tag_29\n      jump\t// in\n    tag_28:\n      stop\n        /* \"contracts/PaymentProcessor.sol\":97:140  mapping(address => uint256) public balances */\n    tag_11:\n      mstore(0x20, 0x00)\n      dup1\n      0x00\n      mstore\n      keccak256(0x00, 0x40)\n      0x00\n      swap2\n      pop\n      swap1\n      pop\n      sload\n      dup2\n      jump\t// out\n        /* \"contracts/PaymentProcessor.sol\":459:596  function CheckBalance(address _adr) external view OwnerAddress(_adr) returns(uint256){... */\n    tag_17:\n        /* \"contracts/PaymentProcessor.sol\":536:543  uint256 */\n      0x00\n        /* \"contracts/PaymentProcessor.sol\":522:526  _adr */\n      dup2\n        /* \"contracts/PaymentProcessor.sol\":226:227  0 */\n      0x00\n        /* \"contracts/PaymentProcessor.sol\":207:215  balances */\n      0x00\n        /* \"contracts/PaymentProcessor.sol\":207:223  balances[_owner] */\n      0x00\n        /* \"contracts/PaymentProcessor.sol\":216:222  _owner */\n      dup4\n        /* \"contracts/PaymentProcessor.sol\":207:223  balances[_owner] */\n      0xffffffffffffffffffffffffffffffffffffffff\n      and\n      0xffffffffffffffffffffffffffffffffffffffff\n      and\n      dup2\n      mstore\n      0x20\n      add\n      swap1\n      dup2\n      mstore\n      0x20\n      add\n      0x00\n      keccak256\n      sload\n        /* \"contracts/PaymentProcessor.sol\":207:227  balances[_owner] > 0 */\n      gt\n        /* \"contracts/PaymentProcessor.sol\":199:261  require(balances[_owner] > 0, \"We don't found such as client\") */\n      tag_31\n      jumpi\n      mload(0x40)\n      0x08c379a000000000000000000000000000000000000000000000000000000000\n      dup2\n      mstore\n      0x04\n      add\n      tag_32\n      swap1\n      tag_33\n      jump\t// in\n    tag_32:\n      mload(0x40)\n      dup1\n      swap2\n      sub\n      swap1\n      revert\n    tag_31:\n        /* \"contracts/PaymentProcessor.sol\":572:580  balances */\n      0x00\n        /* \"contracts/PaymentProcessor.sol\":572:586  balances[_adr] */\n      0x00\n        /* \"contracts/PaymentProcessor.sol\":581:585  _adr */\n      dup5\n        /* \"contracts/PaymentProcessor.sol\":572:586  balances[_adr] */\n      0xffffffffffffffffffffffffffffffffffffffff\n      and\n      0xffffffffffffffffffffffffffffffffffffffff\n      and\n      dup2\n      mstore\n      0x20\n      add\n      swap1\n      dup2\n      mstore\n      0x20\n      add\n      0x00\n      keccak256\n      sload\n        /* \"contracts/PaymentProcessor.sol\":565:586  return balances[_adr] */\n      swap2\n      pop\n        /* \"contracts/PaymentProcessor.sol\":459:596  function CheckBalance(address _adr) external view OwnerAddress(_adr) returns(uint256){... */\n      pop\n      swap2\n      swap1\n      pop\n      jump\t// out\n        /* \"contracts/PaymentProcessor.sol\":961:1296  function refundPayment(address customer, uint _amount)  public override{... */\n    tag_23:\n        /* \"contracts/PaymentProcessor.sol\":1045:1062  uint refundAmount */\n      0x00\n        /* \"contracts/PaymentProcessor.sol\":1065:1072  _amount */\n      dup2\n        /* \"contracts/PaymentProcessor.sol\":1045:1072  uint refundAmount = _amount */\n      swap1\n      pop\n        /* \"contracts/PaymentProcessor.sol\":1110:1126  loyaltyThreshold */\n      sload(0x01)\n        /* \"contracts/PaymentProcessor.sol\":1088:1096  balances */\n      0x00\n        /* \"contracts/PaymentProcessor.sol\":1088:1106  balances[customer] */\n      0x00\n        /* \"contracts/PaymentProcessor.sol\":1097:1105  customer */\n      dup6\n        /* \"contracts/PaymentProcessor.sol\":1088:1106  balances[customer] */\n      0xffffffffffffffffffffffffffffffffffffffff\n      and\n      0xffffffffffffffffffffffffffffffffffffffff\n      and\n      dup2\n      mstore\n      0x20\n      add\n      swap1\n      dup2\n      mstore\n      0x20\n      add\n      0x00\n      keccak256\n      sload\n        /* \"contracts/PaymentProcessor.sol\":1088:1126  balances[customer] >= loyaltyThreshold */\n      lt\n        /* \"contracts/PaymentProcessor.sol\":1085:1231  if(balances[customer] >= loyaltyThreshold){... */\n      tag_36\n      jumpi\n        /* \"contracts/PaymentProcessor.sol\":1142:1152  uint bonus */\n      0x00\n        /* \"contracts/PaymentProcessor.sol\":1171:1174  100 */\n      0x64\n        /* \"contracts/PaymentProcessor.sol\":1166:1167  1 */\n      0x01\n        /* \"contracts/PaymentProcessor.sol\":1156:1163  _amount */\n      dup5\n        /* \"contracts/PaymentProcessor.sol\":1156:1167  _amount * 1 */\n      tag_37\n      swap2\n      swap1\n      tag_38\n      jump\t// in\n    tag_37:\n        /* \"contracts/PaymentProcessor.sol\":1155:1174  (_amount * 1) / 100 */\n      tag_39\n      swap2\n      swap1\n      tag_40\n      jump\t// in\n    tag_39:\n        /* \"contracts/PaymentProcessor.sol\":1142:1174  uint bonus = (_amount * 1) / 100 */\n      swap1\n      pop\n        /* \"contracts/PaymentProcessor.sol\":1214:1219  bonus */\n      dup1\n        /* \"contracts/PaymentProcessor.sol\":1204:1211  _amount */\n      dup4\n        /* \"contracts/PaymentProcessor.sol\":1204:1219  _amount + bonus */\n      tag_41\n      swap2\n      swap1\n      tag_42\n      jump\t// in\n    tag_41:\n        /* \"contracts/PaymentProcessor.sol\":1189:1219  refundAmount = _amount + bonus */\n      swap2\n      pop\n        /* \"contracts/PaymentProcessor.sol\":1127:1231  {... */\n      pop\n        /* \"contracts/PaymentProcessor.sol\":1085:1231  if(balances[customer] >= loyaltyThreshold){... */\n    tag_36:\n        /* \"contracts/PaymentProcessor.sol\":1243:1286  super.refundPayment(customer, refundAmount) */\n      tag_43\n        /* \"contracts/PaymentProcessor.sol\":1263:1271  customer */\n      dup4\n        /* \"contracts/PaymentProcessor.sol\":1273:1285  refundAmount */\n      dup3\n        /* \"contracts/PaymentProcessor.sol\":1243:1262  super.refundPayment */\n      tag_44\n        /* \"contracts/PaymentProcessor.sol\":1243:1286  super.refundPayment(customer, refundAmount) */\n      jump\t// in\n    tag_43:\n        /* \"contracts/PaymentProcessor.sol\":1032:1296  {... */\n      pop\n        /* \"contracts/PaymentProcessor.sol\":961:1296  function refundPayment(address customer, uint _amount)  public override{... */\n      pop\n      pop\n      jump\t// out\n        /* \"contracts/PaymentProcessor.sol\":914:952  uint public loyaltyThreshold = 1 ether */\n    tag_26:\n      sload(0x01)\n      dup2\n      jump\t// out\n        /* \"contracts/PaymentProcessor.sol\":285:451  function ReceivePayment() external payable {... */\n    tag_29:\n        /* \"contracts/PaymentProcessor.sol\":361:362  0 */\n      0x00\n        /* \"contracts/PaymentProcessor.sol\":349:358  msg.value */\n      callvalue\n        /* \"contracts/PaymentProcessor.sol\":349:362  msg.value > 0 */\n      gt\n        /* \"contracts/PaymentProcessor.sol\":341:397  require(msg.value > 0, \"Payment must be greater than 0\") */\n      tag_46\n      jumpi\n      mload(0x40)\n      0x08c379a000000000000000000000000000000000000000000000000000000000\n      dup2\n      mstore\n      0x04\n      add\n      tag_47\n      swap1\n      tag_48\n      jump\t// in\n    tag_47:\n      mload(0x40)\n      dup1\n      swap2\n      sub\n      swap1\n      revert\n    tag_46:\n        /* \"contracts/PaymentProcessor.sol\":432:441  msg.value */\n      callvalue\n        /* \"contracts/PaymentProcessor.sol\":408:416  balances */\n      0x00\n        /* \"contracts/PaymentProcessor.sol\":408:428  balances[msg.sender] */\n      0x00\n        /* \"contracts/PaymentProcessor.sol\":417:427  msg.sender */\n      caller\n        /* \"contracts/PaymentProcessor.sol\":408:428  balances[msg.sender] */\n      0xffffffffffffffffffffffffffffffffffffffff\n      and\n      0xffffffffffffffffffffffffffffffffffffffff\n      and\n      dup2\n      mstore\n      0x20\n      add\n      swap1\n      dup2\n      mstore\n      0x20\n      add\n      0x00\n      keccak256\n      0x00\n        /* \"contracts/PaymentProcessor.sol\":408:441  balances[msg.sender] += msg.value */\n      dup3\n      dup3\n      sload\n      tag_49\n      swap2\n      swap1\n      tag_42\n      jump\t// in\n    tag_49:\n      swap3\n      pop\n      pop\n      dup2\n      swap1\n      sstore\n      pop\n        /* \"contracts/PaymentProcessor.sol\":285:451  function ReceivePayment() external payable {... */\n      jump\t// out\n        /* \"contracts/PaymentProcessor.sol\":604:858  function refundPayment(address customer, uint _amount) public virtual {... */\n    tag_44:\n        /* \"contracts/PaymentProcessor.sol\":704:712  balances */\n      0x00\n        /* \"contracts/PaymentProcessor.sol\":704:722  balances[customer] */\n      0x00\n        /* \"contracts/PaymentProcessor.sol\":713:721  customer */\n      dup4\n        /* \"contracts/PaymentProcessor.sol\":704:722  balances[customer] */\n      0xffffffffffffffffffffffffffffffffffffffff\n      and\n      0xffffffffffffffffffffffffffffffffffffffff\n      and\n      dup2\n      mstore\n      0x20\n      add\n      swap1\n      dup2\n      mstore\n      0x20\n      add\n      0x00\n      keccak256\n      sload\n        /* \"contracts/PaymentProcessor.sol\":693:700  _amount */\n      dup2\n        /* \"contracts/PaymentProcessor.sol\":693:722  _amount <= balances[customer] */\n      gt\n      iszero\n        /* \"contracts/PaymentProcessor.sol\":685:758  require(_amount <= balances[customer], \"Insufficient balance for refund\") */\n      tag_51\n      jumpi\n      mload(0x40)\n      0x08c379a000000000000000000000000000000000000000000000000000000000\n      dup2\n      mstore\n      0x04\n      add\n      tag_52\n      swap1\n      tag_53\n      jump\t// in\n    tag_52:\n      mload(0x40)\n      dup1\n      swap2\n      sub\n      swap1\n      revert\n    tag_51:\n        /* \"contracts/PaymentProcessor.sol\":793:800  _amount */\n      dup1\n        /* \"contracts/PaymentProcessor.sol\":771:779  balances */\n      0x00\n        /* \"contracts/PaymentProcessor.sol\":771:789  balances[customer] */\n      0x00\n        /* \"contracts/PaymentProcessor.sol\":780:788  customer */\n      dup5\n        /* \"contracts/PaymentProcessor.sol\":771:789  balances[customer] */\n      0xffffffffffffffffffffffffffffffffffffffff\n      and\n      0xffffffffffffffffffffffffffffffffffffffff\n      and\n      dup2\n      mstore\n      0x20\n      add\n      swap1\n      dup2\n      mstore\n      0x20\n      add\n      0x00\n      keccak256\n      0x00\n        /* \"contracts/PaymentProcessor.sol\":771:800  balances[customer] -= _amount */\n      dup3\n      dup3\n      sload\n      tag_54\n      swap2\n      swap1\n      tag_55\n      jump\t// in\n    tag_54:\n      swap3\n      pop\n      pop\n      dup2\n      swap1\n      sstore\n      pop\n        /* \"contracts/PaymentProcessor.sol\":821:829  customer */\n      dup2\n        /* \"contracts/PaymentProcessor.sol\":813:839  payable(customer).transfer */\n      0xffffffffffffffffffffffffffffffffffffffff\n      and\n        /* \"contracts/PaymentProcessor.sol\":813:848  payable(customer).transfer(_amount) */\n      0x08fc\n        /* \"contracts/PaymentProcessor.sol\":840:847  _amount */\n      dup3\n        /* \"contracts/PaymentProcessor.sol\":813:848  payable(customer).transfer(_amount) */\n      swap1\n      dup2\n      iszero\n      mul\n      swap1\n      mload(0x40)\n      0x00\n      mload(0x40)\n      dup1\n      dup4\n      sub\n      dup2\n      dup6\n      dup9\n      dup9\n      call\n      swap4\n      pop\n      pop\n      pop\n      pop\n      iszero\n      dup1\n      iszero\n      tag_57\n      jumpi\n      returndatacopy(0x00, 0x00, returndatasize)\n      revert(0x00, returndatasize)\n    tag_57:\n      pop\n        /* \"contracts/PaymentProcessor.sol\":604:858  function refundPayment(address customer, uint _amount) public virtual {... */\n      pop\n      pop\n      jump\t// out\n        /* \"#utility.yul\":88:205   */\n    tag_59:\n        /* \"#utility.yul\":197:198   */\n      0x00\n        /* \"#utility.yul\":194:195   */\n      0x00\n        /* \"#utility.yul\":187:199   */\n      revert\n        /* \"#utility.yul\":334:460   */\n    tag_61:\n        /* \"#utility.yul\":371:378   */\n      0x00\n        /* \"#utility.yul\":411:453   */\n      0xffffffffffffffffffffffffffffffffffffffff\n        /* \"#utility.yul\":404:409   */\n      dup3\n        /* \"#utility.yul\":400:454   */\n      and\n        /* \"#utility.yul\":389:454   */\n      swap1\n      pop\n        /* \"#utility.yul\":334:460   */\n      swap2\n      swap1\n      pop\n      jump\t// out\n        /* \"#utility.yul\":466:562   */\n    tag_62:\n        /* \"#utility.yul\":503:510   */\n      0x00\n        /* \"#utility.yul\":532:556   */\n      tag_84\n        /* \"#utility.yul\":550:555   */\n      dup3\n        /* \"#utility.yul\":532:556   */\n      tag_61\n      jump\t// in\n    tag_84:\n        /* \"#utility.yul\":521:556   */\n      swap1\n      pop\n        /* \"#utility.yul\":466:562   */\n      swap2\n      swap1\n      pop\n      jump\t// out\n        /* \"#utility.yul\":568:690   */\n    tag_63:\n        /* \"#utility.yul\":641:665   */\n      tag_86\n        /* \"#utility.yul\":659:664   */\n      dup2\n        /* \"#utility.yul\":641:665   */\n      tag_62\n      jump\t// in\n    tag_86:\n        /* \"#utility.yul\":634:639   */\n      dup2\n        /* \"#utility.yul\":631:666   */\n      eq\n        /* \"#utility.yul\":621:684   */\n      tag_87\n      jumpi\n        /* \"#utility.yul\":680:681   */\n      0x00\n        /* \"#utility.yul\":677:678   */\n      0x00\n        /* \"#utility.yul\":670:682   */\n      revert\n        /* \"#utility.yul\":621:684   */\n    tag_87:\n        /* \"#utility.yul\":568:690   */\n      pop\n      jump\t// out\n        /* \"#utility.yul\":696:835   */\n    tag_64:\n        /* \"#utility.yul\":742:747   */\n      0x00\n        /* \"#utility.yul\":780:786   */\n      dup2\n        /* \"#utility.yul\":767:787   */\n      calldataload\n        /* \"#utility.yul\":758:787   */\n      swap1\n      pop\n        /* \"#utility.yul\":796:829   */\n      tag_89\n        /* \"#utility.yul\":823:828   */\n      dup2\n        /* \"#utility.yul\":796:829   */\n      tag_63\n      jump\t// in\n    tag_89:\n        /* \"#utility.yul\":696:835   */\n      swap3\n      swap2\n      pop\n      pop\n      jump\t// out\n        /* \"#utility.yul\":841:1170   */\n    tag_10:\n        /* \"#utility.yul\":900:906   */\n      0x00\n        /* \"#utility.yul\":949:951   */\n      0x20\n        /* \"#utility.yul\":937:946   */\n      dup3\n        /* \"#utility.yul\":928:935   */\n      dup5\n        /* \"#utility.yul\":924:947   */\n      sub\n        /* \"#utility.yul\":920:952   */\n      slt\n        /* \"#utility.yul\":917:1036   */\n      iszero\n      tag_91\n      jumpi\n        /* \"#utility.yul\":955:1034   */\n      tag_92\n      tag_59\n      jump\t// in\n    tag_92:\n        /* \"#utility.yul\":917:1036   */\n    tag_91:\n        /* \"#utility.yul\":1075:1076   */\n      0x00\n        /* \"#utility.yul\":1100:1153   */\n      tag_93\n        /* \"#utility.yul\":1145:1152   */\n      dup5\n        /* \"#utility.yul\":1136:1142   */\n      dup3\n        /* \"#utility.yul\":1125:1134   */\n      dup6\n        /* \"#utility.yul\":1121:1143   */\n      add\n        /* \"#utility.yul\":1100:1153   */\n      tag_64\n      jump\t// in\n    tag_93:\n        /* \"#utility.yul\":1090:1153   */\n      swap2\n      pop\n        /* \"#utility.yul\":1046:1163   */\n      pop\n        /* \"#utility.yul\":841:1170   */\n      swap3\n      swap2\n      pop\n      pop\n      jump\t// out\n        /* \"#utility.yul\":1176:1253   */\n    tag_65:\n        /* \"#utility.yul\":1213:1220   */\n      0x00\n        /* \"#utility.yul\":1242:1247   */\n      dup2\n        /* \"#utility.yul\":1231:1247   */\n      swap1\n      pop\n        /* \"#utility.yul\":1176:1253   */\n      swap2\n      swap1\n      pop\n      jump\t// out\n        /* \"#utility.yul\":1259:1377   */\n    tag_66:\n        /* \"#utility.yul\":1346:1370   */\n      tag_96\n        /* \"#utility.yul\":1364:1369   */\n      dup2\n        /* \"#utility.yul\":1346:1370   */\n      tag_65\n      jump\t// in\n    tag_96:\n        /* \"#utility.yul\":1341:1344   */\n      dup3\n        /* \"#utility.yul\":1334:1371   */\n      mstore\n        /* \"#utility.yul\":1259:1377   */\n      pop\n      pop\n      jump\t// out\n        /* \"#utility.yul\":1383:1605   */\n    tag_13:\n        /* \"#utility.yul\":1476:1480   */\n      0x00\n        /* \"#utility.yul\":1514:1516   */\n      0x20\n        /* \"#utility.yul\":1503:1512   */\n      dup3\n        /* \"#utility.yul\":1499:1517   */\n      add\n        /* \"#utility.yul\":1491:1517   */\n      swap1\n      pop\n        /* \"#utility.yul\":1527:1598   */\n      tag_98\n        /* \"#utility.yul\":1595:1596   */\n      0x00\n        /* \"#utility.yul\":1584:1593   */\n      dup4\n        /* \"#utility.yul\":1580:1597   */\n      add\n        /* \"#utility.yul\":1571:1577   */\n      dup5\n        /* \"#utility.yul\":1527:1598   */\n      tag_66\n      jump\t// in\n    tag_98:\n        /* \"#utility.yul\":1383:1605   */\n      swap3\n      swap2\n      pop\n      pop\n      jump\t// out\n        /* \"#utility.yul\":1611:1733   */\n    tag_67:\n        /* \"#utility.yul\":1684:1708   */\n      tag_100\n        /* \"#utility.yul\":1702:1707   */\n      dup2\n        /* \"#utility.yul\":1684:1708   */\n      tag_65\n      jump\t// in\n    tag_100:\n        /* \"#utility.yul\":1677:1682   */\n      dup2\n        /* \"#utility.yul\":1674:1709   */\n      eq\n        /* \"#utility.yul\":1664:1727   */\n      tag_101\n      jumpi\n        /* \"#utility.yul\":1723:1724   */\n      0x00\n        /* \"#utility.yul\":1720:1721   */\n      0x00\n        /* \"#utility.yul\":1713:1725   */\n      revert\n        /* \"#utility.yul\":1664:1727   */\n    tag_101:\n        /* \"#utility.yul\":1611:1733   */\n      pop\n      jump\t// out\n        /* \"#utility.yul\":1739:1878   */\n    tag_68:\n        /* \"#utility.yul\":1785:1790   */\n      0x00\n        /* \"#utility.yul\":1823:1829   */\n      dup2\n        /* \"#utility.yul\":1810:1830   */\n      calldataload\n        /* \"#utility.yul\":1801:1830   */\n      swap1\n      pop\n        /* \"#utility.yul\":1839:1872   */\n      tag_103\n        /* \"#utility.yul\":1866:1871   */\n      dup2\n        /* \"#utility.yul\":1839:1872   */\n      tag_67\n      jump\t// in\n    tag_103:\n        /* \"#utility.yul\":1739:1878   */\n      swap3\n      swap2\n      pop\n      pop\n      jump\t// out\n        /* \"#utility.yul\":1884:2358   */\n    tag_22:\n        /* \"#utility.yul\":1952:1958   */\n      0x00\n        /* \"#utility.yul\":1960:1966   */\n      0x00\n        /* \"#utility.yul\":2009:2011   */\n      0x40\n        /* \"#utility.yul\":1997:2006   */\n      dup4\n        /* \"#utility.yul\":1988:1995   */\n      dup6\n        /* \"#utility.yul\":1984:2007   */\n      sub\n        /* \"#utility.yul\":1980:2012   */\n      slt\n        /* \"#utility.yul\":1977:2096   */\n      iszero\n      tag_105\n      jumpi\n        /* \"#utility.yul\":2015:2094   */\n      tag_106\n      tag_59\n      jump\t// in\n    tag_106:\n        /* \"#utility.yul\":1977:2096   */\n    tag_105:\n        /* \"#utility.yul\":2135:2136   */\n      0x00\n        /* \"#utility.yul\":2160:2213   */\n      tag_107\n        /* \"#utility.yul\":2205:2212   */\n      dup6\n        /* \"#utility.yul\":2196:2202   */\n      dup3\n        /* \"#utility.yul\":2185:2194   */\n      dup7\n        /* \"#utility.yul\":2181:2203   */\n      add\n        /* \"#utility.yul\":2160:2213   */\n      tag_64\n      jump\t// in\n    tag_107:\n        /* \"#utility.yul\":2150:2213   */\n      swap3\n      pop\n        /* \"#utility.yul\":2106:2223   */\n      pop\n        /* \"#utility.yul\":2262:2264   */\n      0x20\n        /* \"#utility.yul\":2288:2341   */\n      tag_108\n        /* \"#utility.yul\":2333:2340   */\n      dup6\n        /* \"#utility.yul\":2324:2330   */\n      dup3\n        /* \"#utility.yul\":2313:2322   */\n      dup7\n        /* \"#utility.yul\":2309:2331   */\n      add\n        /* \"#utility.yul\":2288:2341   */\n      tag_68\n      jump\t// in\n    tag_108:\n        /* \"#utility.yul\":2278:2341   */\n      swap2\n      pop\n        /* \"#utility.yul\":2233:2351   */\n      pop\n        /* \"#utility.yul\":1884:2358   */\n      swap3\n      pop\n      swap3\n      swap1\n      pop\n      jump\t// out\n        /* \"#utility.yul\":2364:2533   */\n    tag_69:\n        /* \"#utility.yul\":2448:2459   */\n      0x00\n        /* \"#utility.yul\":2482:2488   */\n      dup3\n        /* \"#utility.yul\":2477:2480   */\n      dup3\n        /* \"#utility.yul\":2470:2489   */\n      mstore\n        /* \"#utility.yul\":2522:2526   */\n      0x20\n        /* \"#utility.yul\":2517:2520   */\n      dup3\n        /* \"#utility.yul\":2513:2527   */\n      add\n        /* \"#utility.yul\":2498:2527   */\n      swap1\n      pop\n        /* \"#utility.yul\":2364:2533   */\n      swap3\n      swap2\n      pop\n      pop\n      jump\t// out\n        /* \"#utility.yul\":2539:2718   */\n    tag_70:\n        /* \"#utility.yul\":2679:2710   */\n      0x576520646f6e277420666f756e64207375636820617320636c69656e74000000\n        /* \"#utility.yul\":2675:2676   */\n      0x00\n        /* \"#utility.yul\":2667:2673   */\n      dup3\n        /* \"#utility.yul\":2663:2677   */\n      add\n        /* \"#utility.yul\":2656:2711   */\n      mstore\n        /* \"#utility.yul\":2539:2718   */\n      pop\n      jump\t// out\n        /* \"#utility.yul\":2724:3090   */\n    tag_71:\n        /* \"#utility.yul\":2866:2869   */\n      0x00\n        /* \"#utility.yul\":2887:2954   */\n      tag_112\n        /* \"#utility.yul\":2951:2953   */\n      0x1d\n        /* \"#utility.yul\":2946:2949   */\n      dup4\n        /* \"#utility.yul\":2887:2954   */\n      tag_69\n      jump\t// in\n    tag_112:\n        /* \"#utility.yul\":2880:2954   */\n      swap2\n      pop\n        /* \"#utility.yul\":2963:3056   */\n      tag_113\n        /* \"#utility.yul\":3052:3055   */\n      dup3\n        /* \"#utility.yul\":2963:3056   */\n      tag_70\n      jump\t// in\n    tag_113:\n        /* \"#utility.yul\":3081:3083   */\n      0x20\n        /* \"#utility.yul\":3076:3079   */\n      dup3\n        /* \"#utility.yul\":3072:3084   */\n      add\n        /* \"#utility.yul\":3065:3084   */\n      swap1\n      pop\n        /* \"#utility.yul\":2724:3090   */\n      swap2\n      swap1\n      pop\n      jump\t// out\n        /* \"#utility.yul\":3096:3515   */\n    tag_33:\n        /* \"#utility.yul\":3262:3266   */\n      0x00\n        /* \"#utility.yul\":3300:3302   */\n      0x20\n        /* \"#utility.yul\":3289:3298   */\n      dup3\n        /* \"#utility.yul\":3285:3303   */\n      add\n        /* \"#utility.yul\":3277:3303   */\n      swap1\n      pop\n        /* \"#utility.yul\":3349:3358   */\n      dup2\n        /* \"#utility.yul\":3343:3347   */\n      dup2\n        /* \"#utility.yul\":3339:3359   */\n      sub\n        /* \"#utility.yul\":3335:3336   */\n      0x00\n        /* \"#utility.yul\":3324:3333   */\n      dup4\n        /* \"#utility.yul\":3320:3337   */\n      add\n        /* \"#utility.yul\":3313:3360   */\n      mstore\n        /* \"#utility.yul\":3377:3508   */\n      tag_115\n        /* \"#utility.yul\":3503:3507   */\n      dup2\n        /* \"#utility.yul\":3377:3508   */\n      tag_71\n      jump\t// in\n    tag_115:\n        /* \"#utility.yul\":3369:3508   */\n      swap1\n      pop\n        /* \"#utility.yul\":3096:3515   */\n      swap2\n      swap1\n      pop\n      jump\t// out\n        /* \"#utility.yul\":3521:3701   */\n    tag_72:\n        /* \"#utility.yul\":3569:3646   */\n      0x4e487b7100000000000000000000000000000000000000000000000000000000\n        /* \"#utility.yul\":3566:3567   */\n      0x00\n        /* \"#utility.yul\":3559:3647   */\n      mstore\n        /* \"#utility.yul\":3666:3670   */\n      0x11\n        /* \"#utility.yul\":3663:3664   */\n      0x04\n        /* \"#utility.yul\":3656:3671   */\n      mstore\n        /* \"#utility.yul\":3690:3694   */\n      0x24\n        /* \"#utility.yul\":3687:3688   */\n      0x00\n        /* \"#utility.yul\":3680:3695   */\n      revert\n        /* \"#utility.yul\":3707:4117   */\n    tag_38:\n        /* \"#utility.yul\":3747:3754   */\n      0x00\n        /* \"#utility.yul\":3770:3790   */\n      tag_118\n        /* \"#utility.yul\":3788:3789   */\n      dup3\n        /* \"#utility.yul\":3770:3790   */\n      tag_65\n      jump\t// in\n    tag_118:\n        /* \"#utility.yul\":3765:3790   */\n      swap2\n      pop\n        /* \"#utility.yul\":3804:3824   */\n      tag_119\n        /* \"#utility.yul\":3822:3823   */\n      dup4\n        /* \"#utility.yul\":3804:3824   */\n      tag_65\n      jump\t// in\n    tag_119:\n        /* \"#utility.yul\":3799:3824   */\n      swap3\n      pop\n        /* \"#utility.yul\":3859:3860   */\n      dup3\n        /* \"#utility.yul\":3856:3857   */\n      dup3\n        /* \"#utility.yul\":3852:3861   */\n      mul\n        /* \"#utility.yul\":3881:3911   */\n      tag_120\n        /* \"#utility.yul\":3899:3910   */\n      dup2\n        /* \"#utility.yul\":3881:3911   */\n      tag_65\n      jump\t// in\n    tag_120:\n        /* \"#utility.yul\":3870:3911   */\n      swap2\n      pop\n        /* \"#utility.yul\":4060:4061   */\n      dup3\n        /* \"#utility.yul\":4051:4058   */\n      dup3\n        /* \"#utility.yul\":4047:4062   */\n      div\n        /* \"#utility.yul\":4044:4045   */\n      dup5\n        /* \"#utility.yul\":4041:4063   */\n      eq\n        /* \"#utility.yul\":4021:4022   */\n      dup4\n        /* \"#utility.yul\":4014:4023   */\n      iszero\n        /* \"#utility.yul\":3994:4077   */\n      or\n        /* \"#utility.yul\":3971:4110   */\n      tag_121\n      jumpi\n        /* \"#utility.yul\":4090:4108   */\n      tag_122\n      tag_72\n      jump\t// in\n    tag_122:\n        /* \"#utility.yul\":3971:4110   */\n    tag_121:\n        /* \"#utility.yul\":3755:4117   */\n      pop\n        /* \"#utility.yul\":3707:4117   */\n      swap3\n      swap2\n      pop\n      pop\n      jump\t// out\n        /* \"#utility.yul\":4123:4303   */\n    tag_73:\n        /* \"#utility.yul\":4171:4248   */\n      0x4e487b7100000000000000000000000000000000000000000000000000000000\n        /* \"#utility.yul\":4168:4169   */\n      0x00\n        /* \"#utility.yul\":4161:4249   */\n      mstore\n        /* \"#utility.yul\":4268:4272   */\n      0x12\n        /* \"#utility.yul\":4265:4266   */\n      0x04\n        /* \"#utility.yul\":4258:4273   */\n      mstore\n        /* \"#utility.yul\":4292:4296   */\n      0x24\n        /* \"#utility.yul\":4289:4290   */\n      0x00\n        /* \"#utility.yul\":4282:4297   */\n      revert\n        /* \"#utility.yul\":4309:4494   */\n    tag_40:\n        /* \"#utility.yul\":4349:4350   */\n      0x00\n        /* \"#utility.yul\":4366:4386   */\n      tag_125\n        /* \"#utility.yul\":4384:4385   */\n      dup3\n        /* \"#utility.yul\":4366:4386   */\n      tag_65\n      jump\t// in\n    tag_125:\n        /* \"#utility.yul\":4361:4386   */\n      swap2\n      pop\n        /* \"#utility.yul\":4400:4420   */\n      tag_126\n        /* \"#utility.yul\":4418:4419   */\n      dup4\n        /* \"#utility.yul\":4400:4420   */\n      tag_65\n      jump\t// in\n    tag_126:\n        /* \"#utility.yul\":4395:4420   */\n      swap3\n      pop\n        /* \"#utility.yul\":4439:4440   */\n      dup3\n        /* \"#utility.yul\":4429:4464   */\n      tag_127\n      jumpi\n        /* \"#utility.yul\":4444:4462   */\n      tag_128\n      tag_73\n      jump\t// in\n    tag_128:\n        /* \"#utility.yul\":4429:4464   */\n    tag_127:\n        /* \"#utility.yul\":4486:4487   */\n      dup3\n        /* \"#utility.yul\":4483:4484   */\n      dup3\n        /* \"#utility.yul\":4479:4488   */\n      div\n        /* \"#utility.yul\":4474:4488   */\n      swap1\n      pop\n        /* \"#utility.yul\":4309:4494   */\n      swap3\n      swap2\n      pop\n      pop\n      jump\t// out\n        /* \"#utility.yul\":4500:4691   */\n    tag_42:\n        /* \"#utility.yul\":4540:4543   */\n      0x00\n        /* \"#utility.yul\":4559:4579   */\n      tag_130\n        /* \"#utility.yul\":4577:4578   */\n      dup3\n        /* \"#utility.yul\":4559:4579   */\n      tag_65\n      jump\t// in\n    tag_130:\n        /* \"#utility.yul\":4554:4579   */\n      swap2\n      pop\n        /* \"#utility.yul\":4593:4613   */\n      tag_131\n        /* \"#utility.yul\":4611:4612   */\n      dup4\n        /* \"#utility.yul\":4593:4613   */\n      tag_65\n      jump\t// in\n    tag_131:\n        /* \"#utility.yul\":4588:4613   */\n      swap3\n      pop\n        /* \"#utility.yul\":4636:4637   */\n      dup3\n        /* \"#utility.yul\":4633:4634   */\n      dup3\n        /* \"#utility.yul\":4629:4638   */\n      add\n        /* \"#utility.yul\":4622:4638   */\n      swap1\n      pop\n        /* \"#utility.yul\":4657:4660   */\n      dup1\n        /* \"#utility.yul\":4654:4655   */\n      dup3\n        /* \"#utility.yul\":4651:4661   */\n      gt\n        /* \"#utility.yul\":4648:4684   */\n      iszero\n      tag_132\n      jumpi\n        /* \"#utility.yul\":4664:4682   */\n      tag_133\n      tag_72\n      jump\t// in\n    tag_133:\n        /* \"#utility.yul\":4648:4684   */\n    tag_132:\n        /* \"#utility.yul\":4500:4691   */\n      swap3\n      swap2\n      pop\n      pop\n      jump\t// out\n        /* \"#utility.yul\":4697:4877   */\n    tag_74:\n        /* \"#utility.yul\":4837:4869   */\n      0x5061796d656e74206d7573742062652067726561746572207468616e20300000\n        /* \"#utility.yul\":4833:4834   */\n      0x00\n        /* \"#utility.yul\":4825:4831   */\n      dup3\n        /* \"#utility.yul\":4821:4835   */\n      add\n        /* \"#utility.yul\":4814:4870   */\n      mstore\n        /* \"#utility.yul\":4697:4877   */\n      pop\n      jump\t// out\n        /* \"#utility.yul\":4883:5249   */\n    tag_75:\n        /* \"#utility.yul\":5025:5028   */\n      0x00\n        /* \"#utility.yul\":5046:5113   */\n      tag_136\n        /* \"#utility.yul\":5110:5112   */\n      0x1e\n        /* \"#utility.yul\":5105:5108   */\n      dup4\n        /* \"#utility.yul\":5046:5113   */\n      tag_69\n      jump\t// in\n    tag_136:\n        /* \"#utility.yul\":5039:5113   */\n      swap2\n      pop\n        /* \"#utility.yul\":5122:5215   */\n      tag_137\n        /* \"#utility.yul\":5211:5214   */\n      dup3\n        /* \"#utility.yul\":5122:5215   */\n      tag_74\n      jump\t// in\n    tag_137:\n        /* \"#utility.yul\":5240:5242   */\n      0x20\n        /* \"#utility.yul\":5235:5238   */\n      dup3\n        /* \"#utility.yul\":5231:5243   */\n      add\n        /* \"#utility.yul\":5224:5243   */\n      swap1\n      pop\n        /* \"#utility.yul\":4883:5249   */\n      swap2\n      swap1\n      pop\n      jump\t// out\n        /* \"#utility.yul\":5255:5674   */\n    tag_48:\n        /* \"#utility.yul\":5421:5425   */\n      0x00\n        /* \"#utility.yul\":5459:5461   */\n      0x20\n        /* \"#utility.yul\":5448:5457   */\n      dup3\n        /* \"#utility.yul\":5444:5462   */\n      add\n        /* \"#utility.yul\":5436:5462   */\n      swap1\n      pop\n        /* \"#utility.yul\":5508:5517   */\n      dup2\n        /* \"#utility.yul\":5502:5506   */\n      dup2\n        /* \"#utility.yul\":5498:5518   */\n      sub\n        /* \"#utility.yul\":5494:5495   */\n      0x00\n        /* \"#utility.yul\":5483:5492   */\n      dup4\n        /* \"#utility.yul\":5479:5496   */\n      add\n        /* \"#utility.yul\":5472:5519   */\n      mstore\n        /* \"#utility.yul\":5536:5667   */\n      tag_139\n        /* \"#utility.yul\":5662:5666   */\n      dup2\n        /* \"#utility.yul\":5536:5667   */\n      tag_75\n      jump\t// in\n    tag_139:\n        /* \"#utility.yul\":5528:5667   */\n      swap1\n      pop\n        /* \"#utility.yul\":5255:5674   */\n      swap2\n      swap1\n      pop\n      jump\t// out\n        /* \"#utility.yul\":5680:5861   */\n    tag_76:\n        /* \"#utility.yul\":5820:5853   */\n      0x496e73756666696369656e742062616c616e636520666f7220726566756e6400\n        /* \"#utility.yul\":5816:5817   */\n      0x00\n        /* \"#utility.yul\":5808:5814   */\n      dup3\n        /* \"#utility.yul\":5804:5818   */\n      add\n        /* \"#utility.yul\":5797:5854   */\n      mstore\n        /* \"#utility.yul\":5680:5861   */\n      pop\n      jump\t// out\n        /* \"#utility.yul\":5867:6233   */\n    tag_77:\n        /* \"#utility.yul\":6009:6012   */\n      0x00\n        /* \"#utility.yul\":6030:6097   */\n      tag_142\n        /* \"#utility.yul\":6094:6096   */\n      0x1f\n        /* \"#utility.yul\":6089:6092   */\n      dup4\n        /* \"#utility.yul\":6030:6097   */\n      tag_69\n      jump\t// in\n    tag_142:\n        /* \"#utility.yul\":6023:6097   */\n      swap2\n      pop\n        /* \"#utility.yul\":6106:6199   */\n      tag_143\n        /* \"#utility.yul\":6195:6198   */\n      dup3\n        /* \"#utility.yul\":6106:6199   */\n      tag_76\n      jump\t// in\n    tag_143:\n        /* \"#utility.yul\":6224:6226   */\n      0x20\n        /* \"#utility.yul\":6219:6222   */\n      dup3\n        /* \"#utility.yul\":6215:6227   */\n      add\n        /* \"#utility.yul\":6208:6227   */\n      swap1\n      pop\n        /* \"#utility.yul\":5867:6233   */\n      swap2\n      swap1\n      pop\n      jump\t// out\n        /* \"#utility.yul\":6239:6658   */\n    tag_53:\n        /* \"#utility.yul\":6405:6409   */\n      0x00\n        /* \"#utility.yul\":6443:6445   */\n      0x20\n        /* \"#utility.yul\":6432:6441   */\n      dup3\n        /* \"#utility.yul\":6428:6446   */\n      add\n        /* \"#utility.yul\":6420:6446   */\n      swap1\n      pop\n        /* \"#utility.yul\":6492:6501   */\n      dup2\n        /* \"#utility.yul\":6486:6490   */\n      dup2\n        /* \"#utility.yul\":6482:6502   */\n      sub\n        /* \"#utility.yul\":6478:6479   */\n      0x00\n        /* \"#utility.yul\":6467:6476   */\n      dup4\n        /* \"#utility.yul\":6463:6480   */\n      add\n        /* \"#utility.yul\":6456:6503   */\n      mstore\n        /* \"#utility.yul\":6520:6651   */\n      tag_145\n        /* \"#utility.yul\":6646:6650   */\n      dup2\n        /* \"#utility.yul\":6520:6651   */\n      tag_77\n      jump\t// in\n    tag_145:\n        /* \"#utility.yul\":6512:6651   */\n      swap1\n      pop\n        /* \"#utility.yul\":6239:6658   */\n      swap2\n      swap1\n      pop\n      jump\t// out\n        /* \"#utility.yul\":6664:6858   */\n    tag_55:\n        /* \"#utility.yul\":6704:6708   */\n      0x00\n        /* \"#utility.yul\":6724:6744   */\n      tag_147\n        /* \"#utility.yul\":6742:6743   */\n      dup3\n        /* \"#utility.yul\":6724:6744   */\n      tag_65\n      jump\t// in\n    tag_147:\n        /* \"#utility.yul\":6719:6744   */\n      swap2\n      pop\n        /* \"#utility.yul\":6758:6778   */\n      tag_148\n        /* \"#utility.yul\":6776:6777   */\n      dup4\n        /* \"#utility.yul\":6758:6778   */\n      tag_65\n      jump\t// in\n    tag_148:\n        /* \"#utility.yul\":6753:6778   */\n      swap3\n      pop\n        /* \"#utility.yul\":6802:6803   */\n      dup3\n        /* \"#utility.yul\":6799:6800   */\n      dup3\n        /* \"#utility.yul\":6795:6804   */\n      sub\n        /* \"#utility.yul\":6787:6804   */\n      swap1\n      pop\n        /* \"#utility.yul\":6826:6827   */\n      dup2\n        /* \"#utility.yul\":6820:6824   */\n      dup2\n        /* \"#utility.yul\":6817:6828   */\n      gt\n        /* \"#utility.yul\":6814:6851   */\n      iszero\n      tag_149\n      jumpi\n        /* \"#utility.yul\":6831:6849   */\n      tag_150\n      tag_72\n      jump\t// in\n    tag_150:\n        /* \"#utility.yul\":6814:6851   */\n    tag_149:\n        /* \"#utility.yul\":6664:6858   */\n      swap3\n      swap2\n      pop\n      pop\n      jump\t// out\n\n    auxdata: 0xa26469706673582212205f4b67ecdc6c67296ed0c5ab05ca56be27b6052b57e74bdfbfa88c98bd8497db64736f6c634300081c0033\n}\n",
				"bytecode": {
					"linkReferences": {},
					"object": "6080604052670de0b6b3a7640000600155348015601a575f5ffd5b50610804806100285f395ff3fe608060405260043610610049575f3560e01c806327e235e31461004d5780632e4d59c4146100895780638ac5752e146100c5578063a310a67c146100ed578063dcd3766914610117575b5f5ffd5b348015610058575f5ffd5b50610073600480360381019061006e9190610491565b610121565b60405161008091906104d4565b60405180910390f35b348015610094575f5ffd5b506100af60048036038101906100aa9190610491565b610135565b6040516100bc91906104d4565b60405180910390f35b3480156100d0575f5ffd5b506100eb60048036038101906100e69190610517565b6101fa565b005b3480156100f8575f5ffd5b5061010161027e565b60405161010e91906104d4565b60405180910390f35b61011f610284565b005b5f602052805f5260405f205f915090505481565b5f815f5f5f8373ffffffffffffffffffffffffffffffffffffffff1673ffffffffffffffffffffffffffffffffffffffff1681526020019081526020015f2054116101b5576040517f08c379a00000000000000000000000000000000000000000000000000000000081526004016101ac906105af565b60405180910390fd5b5f5f8473ffffffffffffffffffffffffffffffffffffffff1673ffffffffffffffffffffffffffffffffffffffff1681526020019081526020015f2054915050919050565b5f8190506001545f5f8573ffffffffffffffffffffffffffffffffffffffff1673ffffffffffffffffffffffffffffffffffffffff1681526020019081526020015f20541061026f575f606460018461025391906105fa565b61025d9190610668565b9050808361026b9190610698565b9150505b610279838261031a565b505050565b60015481565b5f34116102c6576040517f08c379a00000000000000000000000000000000000000000000000000000000081526004016102bd90610715565b60405180910390fd5b345f5f3373ffffffffffffffffffffffffffffffffffffffff1673ffffffffffffffffffffffffffffffffffffffff1681526020019081526020015f205f8282546103119190610698565b92505081905550565b5f5f8373ffffffffffffffffffffffffffffffffffffffff1673ffffffffffffffffffffffffffffffffffffffff1681526020019081526020015f2054811115610399576040517f08c379a00000000000000000000000000000000000000000000000000000000081526004016103909061077d565b60405180910390fd5b805f5f8473ffffffffffffffffffffffffffffffffffffffff1673ffffffffffffffffffffffffffffffffffffffff1681526020019081526020015f205f8282546103e4919061079b565b925050819055508173ffffffffffffffffffffffffffffffffffffffff166108fc8290811502906040515f60405180830381858888f1935050505015801561042e573d5f5f3e3d5ffd5b505050565b5f5ffd5b5f73ffffffffffffffffffffffffffffffffffffffff82169050919050565b5f61046082610437565b9050919050565b61047081610456565b811461047a575f5ffd5b50565b5f8135905061048b81610467565b92915050565b5f602082840312156104a6576104a5610433565b5b5f6104b38482850161047d565b91505092915050565b5f819050919050565b6104ce816104bc565b82525050565b5f6020820190506104e75f8301846104c5565b92915050565b6104f6816104bc565b8114610500575f5ffd5b50565b5f81359050610511816104ed565b92915050565b5f5f6040838503121561052d5761052c610433565b5b5f61053a8582860161047d565b925050602061054b85828601610503565b9150509250929050565b5f82825260208201905092915050565b7f576520646f6e277420666f756e64207375636820617320636c69656e740000005f82015250565b5f610599601d83610555565b91506105a482610565565b602082019050919050565b5f6020820190508181035f8301526105c68161058d565b9050919050565b7f4e487b71000000000000000000000000000000000000000000000000000000005f52601160045260245ffd5b5f610604826104bc565b915061060f836104bc565b925082820261061d816104bc565b91508282048414831517610634576106336105cd565b5b5092915050565b7f4e487b71000000000000000000000000000000000000000000000000000000005f52601260045260245ffd5b5f610672826104bc565b915061067d836104bc565b92508261068d5761068c61063b565b5b828204905092915050565b5f6106a2826104bc565b91506106ad836104bc565b92508282019050808211156106c5576106c46105cd565b5b92915050565b7f5061796d656e74206d7573742062652067726561746572207468616e203000005f82015250565b5f6106ff601e83610555565b915061070a826106cb565b602082019050919050565b5f6020820190508181035f83015261072c816106f3565b9050919050565b7f496e73756666696369656e742062616c616e636520666f7220726566756e64005f82015250565b5f610767601f83610555565b915061077282610733565b602082019050919050565b5f6020820190508181035f8301526107948161075b565b9050919050565b5f6107a5826104bc565b91506107b0836104bc565b92508282039050818111156107c8576107c76105cd565b5b9291505056fea26469706673582212205f4b67ecdc6c67296ed0c5ab05ca56be27b6052b57e74bdfbfa88c98bd8497db64736f6c634300081c0033",
					"opcodes": "PUSH1 0x80 PUSH1 0x40 MSTORE PUSH8 0xDE0B6B3A7640000 PUSH1 0x1 SSTORE CALLVALUE DUP1 ISZERO PUSH1 0x1A JUMPI PUSH0 PUSH0 REVERT JUMPDEST POP PUSH2 0x804 DUP1 PUSH2 0x28 PUSH0 CODECOPY PUSH0 RETURN INVALID PUSH1 0x80 PUSH1 0x40 MSTORE PUSH1 0x4 CALLDATASIZE LT PUSH2 0x49 JUMPI PUSH0 CALLDATALOAD PUSH1 0xE0 SHR DUP1 PUSH4 0x27E235E3 EQ PUSH2 0x4D JUMPI DUP1 PUSH4 0x2E4D59C4 EQ PUSH2 0x89 JUMPI DUP1 PUSH4 0x8AC5752E EQ PUSH2 0xC5 JUMPI DUP1 PUSH4 0xA310A67C EQ PUSH2 0xED JUMPI DUP1 PUSH4 0xDCD37669 EQ PUSH2 0x117 JUMPI JUMPDEST PUSH0 PUSH0 REVERT JUMPDEST CALLVALUE DUP1 ISZERO PUSH2 0x58 JUMPI PUSH0 PUSH0 REVERT JUMPDEST POP PUSH2 0x73 PUSH1 0x4 DUP1 CALLDATASIZE SUB DUP2 ADD SWAP1 PUSH2 0x6E SWAP2 SWAP1 PUSH2 0x491 JUMP JUMPDEST PUSH2 0x121 JUMP JUMPDEST PUSH1 0x40 MLOAD PUSH2 0x80 SWAP2 SWAP1 PUSH2 0x4D4 JUMP JUMPDEST PUSH1 0x40 MLOAD DUP1 SWAP2 SUB SWAP1 RETURN JUMPDEST CALLVALUE DUP1 ISZERO PUSH2 0x94 JUMPI PUSH0 PUSH0 REVERT JUMPDEST POP PUSH2 0xAF PUSH1 0x4 DUP1 CALLDATASIZE SUB DUP2 ADD SWAP1 PUSH2 0xAA SWAP2 SWAP1 PUSH2 0x491 JUMP JUMPDEST PUSH2 0x135 JUMP JUMPDEST PUSH1 0x40 MLOAD PUSH2 0xBC SWAP2 SWAP1 PUSH2 0x4D4 JUMP JUMPDEST PUSH1 0x40 MLOAD DUP1 SWAP2 SUB SWAP1 RETURN JUMPDEST CALLVALUE DUP1 ISZERO PUSH2 0xD0 JUMPI PUSH0 PUSH0 REVERT JUMPDEST POP PUSH2 0xEB PUSH1 0x4 DUP1 CALLDATASIZE SUB DUP2 ADD SWAP1 PUSH2 0xE6 SWAP2 SWAP1 PUSH2 0x517 JUMP JUMPDEST PUSH2 0x1FA JUMP JUMPDEST STOP JUMPDEST CALLVALUE DUP1 ISZERO PUSH2 0xF8 JUMPI PUSH0 PUSH0 REVERT JUMPDEST POP PUSH2 0x101 PUSH2 0x27E JUMP JUMPDEST PUSH1 0x40 MLOAD PUSH2 0x10E SWAP2 SWAP1 PUSH2 0x4D4 JUMP JUMPDEST PUSH1 0x40 MLOAD DUP1 SWAP2 SUB SWAP1 RETURN JUMPDEST PUSH2 0x11F PUSH2 0x284 JUMP JUMPDEST STOP JUMPDEST PUSH0 PUSH1 0x20 MSTORE DUP1 PUSH0 MSTORE PUSH1 0x40 PUSH0 KECCAK256 PUSH0 SWAP2 POP SWAP1 POP SLOAD DUP2 JUMP JUMPDEST PUSH0 DUP2 PUSH0 PUSH0 PUSH0 DUP4 PUSH20 0xFFFFFFFFFFFFFFFFFFFFFFFFFFFFFFFFFFFFFFFF AND PUSH20 0xFFFFFFFFFFFFFFFFFFFFFFFFFFFFFFFFFFFFFFFF AND DUP2 MSTORE PUSH1 0x20 ADD SWAP1 DUP2 MSTORE PUSH1 0x20 ADD PUSH0 KECCAK256 SLOAD GT PUSH2 0x1B5 JUMPI PUSH1 0x40 MLOAD PUSH32 0x8C379A000000000000000000000000000000000000000000000000000000000 DUP2 MSTORE PUSH1 0x4 ADD PUSH2 0x1AC SWAP1 PUSH2 0x5AF JUMP JUMPDEST PUSH1 0x40 MLOAD DUP1 SWAP2 SUB SWAP1 REVERT JUMPDEST PUSH0 PUSH0 DUP5 PUSH20 0xFFFFFFFFFFFFFFFFFFFFFFFFFFFFFFFFFFFFFFFF AND PUSH20 0xFFFFFFFFFFFFFFFFFFFFFFFFFFFFFFFFFFFFFFFF AND DUP2 MSTORE PUSH1 0x20 ADD SWAP1 DUP2 MSTORE PUSH1 0x20 ADD PUSH0 KECCAK256 SLOAD SWAP2 POP POP SWAP2 SWAP1 POP JUMP JUMPDEST PUSH0 DUP2 SWAP1 POP PUSH1 0x1 SLOAD PUSH0 PUSH0 DUP6 PUSH20 0xFFFFFFFFFFFFFFFFFFFFFFFFFFFFFFFFFFFFFFFF AND PUSH20 0xFFFFFFFFFFFFFFFFFFFFFFFFFFFFFFFFFFFFFFFF AND DUP2 MSTORE PUSH1 0x20 ADD SWAP1 DUP2 MSTORE PUSH1 0x20 ADD PUSH0 KECCAK256 SLOAD LT PUSH2 0x26F JUMPI PUSH0 PUSH1 0x64 PUSH1 0x1 DUP5 PUSH2 0x253 SWAP2 SWAP1 PUSH2 0x5FA JUMP JUMPDEST PUSH2 0x25D SWAP2 SWAP1 PUSH2 0x668 JUMP JUMPDEST SWAP1 POP DUP1 DUP4 PUSH2 0x26B SWAP2 SWAP1 PUSH2 0x698 JUMP JUMPDEST SWAP2 POP POP JUMPDEST PUSH2 0x279 DUP4 DUP3 PUSH2 0x31A JUMP JUMPDEST POP POP POP JUMP JUMPDEST PUSH1 0x1 SLOAD DUP2 JUMP JUMPDEST PUSH0 CALLVALUE GT PUSH2 0x2C6 JUMPI PUSH1 0x40 MLOAD PUSH32 0x8C379A000000000000000000000000000000000000000000000000000000000 DUP2 MSTORE PUSH1 0x4 ADD PUSH2 0x2BD SWAP1 PUSH2 0x715 JUMP JUMPDEST PUSH1 0x40 MLOAD DUP1 SWAP2 SUB SWAP1 REVERT JUMPDEST CALLVALUE PUSH0 PUSH0 CALLER PUSH20 0xFFFFFFFFFFFFFFFFFFFFFFFFFFFFFFFFFFFFFFFF AND PUSH20 0xFFFFFFFFFFFFFFFFFFFFFFFFFFFFFFFFFFFFFFFF AND DUP2 MSTORE PUSH1 0x20 ADD SWAP1 DUP2 MSTORE PUSH1 0x20 ADD PUSH0 KECCAK256 PUSH0 DUP3 DUP3 SLOAD PUSH2 0x311 SWAP2 SWAP1 PUSH2 0x698 JUMP JUMPDEST SWAP3 POP POP DUP2 SWAP1 SSTORE POP JUMP JUMPDEST PUSH0 PUSH0 DUP4 PUSH20 0xFFFFFFFFFFFFFFFFFFFFFFFFFFFFFFFFFFFFFFFF AND PUSH20 0xFFFFFFFFFFFFFFFFFFFFFFFFFFFFFFFFFFFFFFFF AND DUP2 MSTORE PUSH1 0x20 ADD SWAP1 DUP2 MSTORE PUSH1 0x20 ADD PUSH0 KECCAK256 SLOAD DUP2 GT ISZERO PUSH2 0x399 JUMPI PUSH1 0x40 MLOAD PUSH32 0x8C379A000000000000000000000000000000000000000000000000000000000 DUP2 MSTORE PUSH1 0x4 ADD PUSH2 0x390 SWAP1 PUSH2 0x77D JUMP JUMPDEST PUSH1 0x40 MLOAD DUP1 SWAP2 SUB SWAP1 REVERT JUMPDEST DUP1 PUSH0 PUSH0 DUP5 PUSH20 0xFFFFFFFFFFFFFFFFFFFFFFFFFFFFFFFFFFFFFFFF AND PUSH20 0xFFFFFFFFFFFFFFFFFFFFFFFFFFFFFFFFFFFFFFFF AND DUP2 MSTORE PUSH1 0x20 ADD SWAP1 DUP2 MSTORE PUSH1 0x20 ADD PUSH0 KECCAK256 PUSH0 DUP3 DUP3 SLOAD PUSH2 0x3E4 SWAP2 SWAP1 PUSH2 0x79B JUMP JUMPDEST SWAP3 POP POP DUP2 SWAP1 SSTORE POP DUP2 PUSH20 0xFFFFFFFFFFFFFFFFFFFFFFFFFFFFFFFFFFFFFFFF AND PUSH2 0x8FC DUP3 SWAP1 DUP2 ISZERO MUL SWAP1 PUSH1 0x40 MLOAD PUSH0 PUSH1 0x40 MLOAD DUP1 DUP4 SUB DUP2 DUP6 DUP9 DUP9 CALL SWAP4 POP POP POP POP ISZERO DUP1 ISZERO PUSH2 0x42E JUMPI RETURNDATASIZE PUSH0 PUSH0 RETURNDATACOPY RETURNDATASIZE PUSH0 REVERT JUMPDEST POP POP POP JUMP JUMPDEST PUSH0 PUSH0 REVERT JUMPDEST PUSH0 PUSH20 0xFFFFFFFFFFFFFFFFFFFFFFFFFFFFFFFFFFFFFFFF DUP3 AND SWAP1 POP SWAP2 SWAP1 POP JUMP JUMPDEST PUSH0 PUSH2 0x460 DUP3 PUSH2 0x437 JUMP JUMPDEST SWAP1 POP SWAP2 SWAP1 POP JUMP JUMPDEST PUSH2 0x470 DUP2 PUSH2 0x456 JUMP JUMPDEST DUP2 EQ PUSH2 0x47A JUMPI PUSH0 PUSH0 REVERT JUMPDEST POP JUMP JUMPDEST PUSH0 DUP2 CALLDATALOAD SWAP1 POP PUSH2 0x48B DUP2 PUSH2 0x467 JUMP JUMPDEST SWAP3 SWAP2 POP POP JUMP JUMPDEST PUSH0 PUSH1 0x20 DUP3 DUP5 SUB SLT ISZERO PUSH2 0x4A6 JUMPI PUSH2 0x4A5 PUSH2 0x433 JUMP JUMPDEST JUMPDEST PUSH0 PUSH2 0x4B3 DUP5 DUP3 DUP6 ADD PUSH2 0x47D JUMP JUMPDEST SWAP2 POP POP SWAP3 SWAP2 POP POP JUMP JUMPDEST PUSH0 DUP2 SWAP1 POP SWAP2 SWAP1 POP JUMP JUMPDEST PUSH2 0x4CE DUP2 PUSH2 0x4BC JUMP JUMPDEST DUP3 MSTORE POP POP JUMP JUMPDEST PUSH0 PUSH1 0x20 DUP3 ADD SWAP1 POP PUSH2 0x4E7 PUSH0 DUP4 ADD DUP5 PUSH2 0x4C5 JUMP JUMPDEST SWAP3 SWAP2 POP POP JUMP JUMPDEST PUSH2 0x4F6 DUP2 PUSH2 0x4BC JUMP JUMPDEST DUP2 EQ PUSH2 0x500 JUMPI PUSH0 PUSH0 REVERT JUMPDEST POP JUMP JUMPDEST PUSH0 DUP2 CALLDATALOAD SWAP1 POP PUSH2 0x511 DUP2 PUSH2 0x4ED JUMP JUMPDEST SWAP3 SWAP2 POP POP JUMP JUMPDEST PUSH0 PUSH0 PUSH1 0x40 DUP4 DUP6 SUB SLT ISZERO PUSH2 0x52D JUMPI PUSH2 0x52C PUSH2 0x433 JUMP JUMPDEST JUMPDEST PUSH0 PUSH2 0x53A DUP6 DUP3 DUP7 ADD PUSH2 0x47D JUMP JUMPDEST SWAP3 POP POP PUSH1 0x20 PUSH2 0x54B DUP6 DUP3 DUP7 ADD PUSH2 0x503 JUMP JUMPDEST SWAP2 POP POP SWAP3 POP SWAP3 SWAP1 POP JUMP JUMPDEST PUSH0 DUP3 DUP3 MSTORE PUSH1 0x20 DUP3 ADD SWAP1 POP SWAP3 SWAP2 POP POP JUMP JUMPDEST PUSH32 0x576520646F6E277420666F756E64207375636820617320636C69656E74000000 PUSH0 DUP3 ADD MSTORE POP JUMP JUMPDEST PUSH0 PUSH2 0x599 PUSH1 0x1D DUP4 PUSH2 0x555 JUMP JUMPDEST SWAP2 POP PUSH2 0x5A4 DUP3 PUSH2 0x565 JUMP JUMPDEST PUSH1 0x20 DUP3 ADD SWAP1 POP SWAP2 SWAP1 POP JUMP JUMPDEST PUSH0 PUSH1 0x20 DUP3 ADD SWAP1 POP DUP2 DUP2 SUB PUSH0 DUP4 ADD MSTORE PUSH2 0x5C6 DUP2 PUSH2 0x58D JUMP JUMPDEST SWAP1 POP SWAP2 SWAP1 POP JUMP JUMPDEST PUSH32 0x4E487B7100000000000000000000000000000000000000000000000000000000 PUSH0 MSTORE PUSH1 0x11 PUSH1 0x4 MSTORE PUSH1 0x24 PUSH0 REVERT JUMPDEST PUSH0 PUSH2 0x604 DUP3 PUSH2 0x4BC JUMP JUMPDEST SWAP2 POP PUSH2 0x60F DUP4 PUSH2 0x4BC JUMP JUMPDEST SWAP3 POP DUP3 DUP3 MUL PUSH2 0x61D DUP2 PUSH2 0x4BC JUMP JUMPDEST SWAP2 POP DUP3 DUP3 DIV DUP5 EQ DUP4 ISZERO OR PUSH2 0x634 JUMPI PUSH2 0x633 PUSH2 0x5CD JUMP JUMPDEST JUMPDEST POP SWAP3 SWAP2 POP POP JUMP JUMPDEST PUSH32 0x4E487B7100000000000000000000000000000000000000000000000000000000 PUSH0 MSTORE PUSH1 0x12 PUSH1 0x4 MSTORE PUSH1 0x24 PUSH0 REVERT JUMPDEST PUSH0 PUSH2 0x672 DUP3 PUSH2 0x4BC JUMP JUMPDEST SWAP2 POP PUSH2 0x67D DUP4 PUSH2 0x4BC JUMP JUMPDEST SWAP3 POP DUP3 PUSH2 0x68D JUMPI PUSH2 0x68C PUSH2 0x63B JUMP JUMPDEST JUMPDEST DUP3 DUP3 DIV SWAP1 POP SWAP3 SWAP2 POP POP JUMP JUMPDEST PUSH0 PUSH2 0x6A2 DUP3 PUSH2 0x4BC JUMP JUMPDEST SWAP2 POP PUSH2 0x6AD DUP4 PUSH2 0x4BC JUMP JUMPDEST SWAP3 POP DUP3 DUP3 ADD SWAP1 POP DUP1 DUP3 GT ISZERO PUSH2 0x6C5 JUMPI PUSH2 0x6C4 PUSH2 0x5CD JUMP JUMPDEST JUMPDEST SWAP3 SWAP2 POP POP JUMP JUMPDEST PUSH32 0x5061796D656E74206D7573742062652067726561746572207468616E20300000 PUSH0 DUP3 ADD MSTORE POP JUMP JUMPDEST PUSH0 PUSH2 0x6FF PUSH1 0x1E DUP4 PUSH2 0x555 JUMP JUMPDEST SWAP2 POP PUSH2 0x70A DUP3 PUSH2 0x6CB JUMP JUMPDEST PUSH1 0x20 DUP3 ADD SWAP1 POP SWAP2 SWAP1 POP JUMP JUMPDEST PUSH0 PUSH1 0x20 DUP3 ADD SWAP1 POP DUP2 DUP2 SUB PUSH0 DUP4 ADD MSTORE PUSH2 0x72C DUP2 PUSH2 0x6F3 JUMP JUMPDEST SWAP1 POP SWAP2 SWAP1 POP JUMP JUMPDEST PUSH32 0x496E73756666696369656E742062616C616E636520666F7220726566756E6400 PUSH0 DUP3 ADD MSTORE POP JUMP JUMPDEST PUSH0 PUSH2 0x767 PUSH1 0x1F DUP4 PUSH2 0x555 JUMP JUMPDEST SWAP2 POP PUSH2 0x772 DUP3 PUSH2 0x733 JUMP JUMPDEST PUSH1 0x20 DUP3 ADD SWAP1 POP SWAP2 SWAP1 POP JUMP JUMPDEST PUSH0 PUSH1 0x20 DUP3 ADD SWAP1 POP DUP2 DUP2 SUB PUSH0 DUP4 ADD MSTORE PUSH2 0x794 DUP2 PUSH2 0x75B JUMP JUMPDEST SWAP1 POP SWAP2 SWAP1 POP JUMP JUMPDEST PUSH0 PUSH2 0x7A5 DUP3 PUSH2 0x4BC JUMP JUMPDEST SWAP2 POP PUSH2 0x7B0 DUP4 PUSH2 0x4BC JUMP JUMPDEST SWAP3 POP DUP3 DUP3 SUB SWAP1 POP DUP2 DUP2 GT ISZERO PUSH2 0x7C8 JUMPI PUSH2 0x7C7 PUSH2 0x5CD JUMP JUMPDEST JUMPDEST SWAP3 SWAP2 POP POP JUMP INVALID LOG2 PUSH5 0x6970667358 0x22 SLT KECCAK256 PUSH0 0x4B PUSH8 0xECDC6C67296ED0C5 0xAB SDIV 0xCA JUMP 0xBE 0x27 0xB6 SDIV 0x2B JUMPI 0xE7 0x4B 0xDF 0xBF 0xA8 DUP13 SWAP9 0xBD DUP5 SWAP8 0xDB PUSH5 0x736F6C6343 STOP ADDMOD SHR STOP CALLER "
				},
				"gasEstimates": {
					"creation": {
						"codeDepositCost": "410400",
						"executionCost": "22553",
						"totalCost": "432953"
					},
					"external": {
						"CheckBalance(address)": "5042",
						"ReceivePayment()": "infinite",
						"balances(address)": "2779",
						"loyaltyThreshold()": "2469",
						"refundPayment(address,uint256)": "infinite"
					}
				},
				"methodIdentifiers": {
					"CheckBalance(address)": "2e4d59c4",
					"ReceivePayment()": "dcd37669",
					"balances(address)": "27e235e3",
					"loyaltyThreshold()": "a310a67c",
					"refundPayment(address,uint256)": "8ac5752e"
				}
			},
			"storageLayout": {
				"storage": [
					{
						"astId": 5,
						"contract": "contracts/PaymentProcessor.sol:Merchant",
						"label": "balances",
						"offset": 0,
						"slot": "0",
						"type": "t_mapping(t_address,t_uint256)"
					},
					{
						"astId": 92,
						"contract": "contracts/PaymentProcessor.sol:Merchant",
						"label": "loyaltyThreshold",
						"offset": 0,
						"slot": "1",
						"type": "t_uint256"
					}
				],
				"types": {
					"t_address": {
						"encoding": "inplace",
						"label": "address",
						"numberOfBytes": "20"
					},
					"t_mapping(t_address,t_uint256)": {
						"encoding": "mapping",
						"key": "t_address",
						"label": "mapping(address => uint256)",
						"numberOfBytes": "32",
						"value": "t_uint256"
					},
					"t_uint256": {
						"encoding": "inplace",
						"label": "uint256",
						"numberOfBytes": "32"
					}
				}
			},
			"userdoc": {
				"kind": "user",
				"methods": {},
				"version": 1
			}
		}
	}
}