{
	"contracts/Payroll.sol": {
		"Payroll": {
			"abi": [
				{
					"inputs": [
						{
							"internalType": "uint256",
							"name": "rating",
							"type": "uint256"
						}
					],
					"name": "InvalidRating",
					"type": "error"
				},
				{
					"inputs": [
						{
							"internalType": "uint256",
							"name": "salary",
							"type": "uint256"
						}
					],
					"name": "InvalidSalary",
					"type": "error"
				},
				{
					"inputs": [
						{
							"internalType": "uint256",
							"name": "salary",
							"type": "uint256"
						},
						{
							"internalType": "uint256",
							"name": "rating",
							"type": "uint256"
						}
					],
					"name": "calculatePaycheck",
					"outputs": [
						{
							"internalType": "uint256",
							"name": "result",
							"type": "uint256"
						}
					],
					"stateMutability": "pure",
					"type": "function"
				}
			],
			"devdoc": {
				"kind": "dev",
				"methods": {},
				"version": 1
			},
			"evm": {
				"assembly": "    /* \"contracts/Payroll.sol\":84:614  contract Payroll{... */\n  mstore(0x40, 0x80)\n  callvalue\n  dup1\n  iszero\n  tag_1\n  jumpi\n  revert(0x00, 0x00)\ntag_1:\n  pop\n  dataSize(sub_0)\n  dup1\n  dataOffset(sub_0)\n  0x00\n  codecopy\n  0x00\n  return\nstop\n\nsub_0: assembly {\n        /* \"contracts/Payroll.sol\":84:614  contract Payroll{... */\n      mstore(0x40, 0x80)\n      callvalue\n      dup1\n      iszero\n      tag_1\n      jumpi\n      revert(0x00, 0x00)\n    tag_1:\n      pop\n      jumpi(tag_2, lt(calldatasize, 0x04))\n      shr(0xe0, calldataload(0x00))\n      dup1\n      0x45958250\n      eq\n      tag_3\n      jumpi\n    tag_2:\n      revert(0x00, 0x00)\n        /* \"contracts/Payroll.sol\":195:611  function calculatePaycheck(uint256 salary, uint256 rating) public pure returns(uint256 result){... */\n    tag_3:\n      tag_4\n      0x04\n      dup1\n      calldatasize\n      sub\n      dup2\n      add\n      swap1\n      tag_5\n      swap2\n      swap1\n      tag_6\n      jump\t// in\n    tag_5:\n      tag_7\n      jump\t// in\n    tag_4:\n      mload(0x40)\n      tag_8\n      swap2\n      swap1\n      tag_9\n      jump\t// in\n    tag_8:\n      mload(0x40)\n      dup1\n      swap2\n      sub\n      swap1\n      return\n    tag_7:\n        /* \"contracts/Payroll.sol\":274:288  uint256 result */\n      0x00\n        /* \"contracts/Payroll.sol\":311:317  salary */\n      dup3\n        /* \"contracts/Payroll.sol\":302:317  result = salary */\n      swap1\n      pop\n        /* \"contracts/Payroll.sol\":342:343  0 */\n      0x00\n        /* \"contracts/Payroll.sol\":333:339  salary */\n      dup4\n        /* \"contracts/Payroll.sol\":333:343  salary < 0 */\n      lt\n        /* \"contracts/Payroll.sol\":330:602  if(salary < 0){... */\n      iszero\n      tag_11\n      jumpi\n        /* \"contracts/Payroll.sol\":380:386  salary */\n      dup3\n        /* \"contracts/Payroll.sol\":366:387  InvalidSalary(salary) */\n      mload(0x40)\n      0xd000dda100000000000000000000000000000000000000000000000000000000\n      dup2\n      mstore\n      0x04\n      add\n      tag_12\n      swap2\n      swap1\n      tag_9\n      jump\t// in\n    tag_12:\n      mload(0x40)\n      dup1\n      swap2\n      sub\n      swap1\n      revert\n        /* \"contracts/Payroll.sol\":330:602  if(salary < 0){... */\n    tag_11:\n        /* \"contracts/Payroll.sol\":436:437  8 */\n      0x08\n        /* \"contracts/Payroll.sol\":427:433  rating */\n      dup3\n        /* \"contracts/Payroll.sol\":427:437  rating > 8 */\n      gt\n        /* \"contracts/Payroll.sol\":427:453  rating > 8 && rating <= 10 */\n      dup1\n      iszero\n      tag_14\n      jumpi\n      pop\n        /* \"contracts/Payroll.sol\":451:453  10 */\n      0x0a\n        /* \"contracts/Payroll.sol\":441:447  rating */\n      dup3\n        /* \"contracts/Payroll.sol\":441:453  rating <= 10 */\n      gt\n      iszero\n        /* \"contracts/Payroll.sol\":427:453  rating > 8 && rating <= 10 */\n    tag_14:\n        /* \"contracts/Payroll.sol\":424:602  if(rating > 8 && rating <= 10){... */\n      iszero\n      tag_15\n      jumpi\n        /* \"contracts/Payroll.sol\":493:496  100 */\n      0x64\n        /* \"contracts/Payroll.sol\":488:490  10 */\n      0x0a\n        /* \"contracts/Payroll.sol\":479:485  salary */\n      dup5\n        /* \"contracts/Payroll.sol\":479:490  salary * 10 */\n      tag_16\n      swap2\n      swap1\n      tag_17\n      jump\t// in\n    tag_16:\n        /* \"contracts/Payroll.sol\":479:496  salary * 10 / 100 */\n      tag_18\n      swap2\n      swap1\n      tag_19\n      jump\t// in\n    tag_18:\n        /* \"contracts/Payroll.sol\":469:496  salary += salary * 10 / 100 */\n      dup4\n      tag_20\n      swap2\n      swap1\n      tag_21\n      jump\t// in\n    tag_20:\n      swap3\n      pop\n        /* \"contracts/Payroll.sol\":424:602  if(rating > 8 && rating <= 10){... */\n      jump(tag_22)\n    tag_15:\n        /* \"contracts/Payroll.sol\":528:529  0 */\n      0x00\n        /* \"contracts/Payroll.sol\":519:525  rating */\n      dup3\n        /* \"contracts/Payroll.sol\":519:529  rating < 0 */\n      lt\n        /* \"contracts/Payroll.sol\":519:544  rating < 0 || rating > 10 */\n      dup1\n      tag_23\n      jumpi\n      pop\n        /* \"contracts/Payroll.sol\":542:544  10 */\n      0x0a\n        /* \"contracts/Payroll.sol\":533:539  rating */\n      dup3\n        /* \"contracts/Payroll.sol\":533:544  rating > 10 */\n      gt\n        /* \"contracts/Payroll.sol\":519:544  rating < 0 || rating > 10 */\n    tag_23:\n        /* \"contracts/Payroll.sol\":515:602  if (rating < 0 || rating > 10){... */\n      iszero\n      tag_24\n      jumpi\n        /* \"contracts/Payroll.sol\":581:587  rating */\n      dup2\n        /* \"contracts/Payroll.sol\":567:588  InvalidRating(rating) */\n      mload(0x40)\n      0x088e5a3900000000000000000000000000000000000000000000000000000000\n      dup2\n      mstore\n      0x04\n      add\n      tag_25\n      swap2\n      swap1\n      tag_9\n      jump\t// in\n    tag_25:\n      mload(0x40)\n      dup1\n      swap2\n      sub\n      swap1\n      revert\n        /* \"contracts/Payroll.sol\":515:602  if (rating < 0 || rating > 10){... */\n    tag_24:\n        /* \"contracts/Payroll.sol\":424:602  if(rating > 8 && rating <= 10){... */\n    tag_22:\n        /* \"contracts/Payroll.sol\":195:611  function calculatePaycheck(uint256 salary, uint256 rating) public pure returns(uint256 result){... */\n      swap3\n      swap2\n      pop\n      pop\n      jump\t// out\n        /* \"#utility.yul\":88:205   */\n    tag_27:\n        /* \"#utility.yul\":197:198   */\n      0x00\n        /* \"#utility.yul\":194:195   */\n      0x00\n        /* \"#utility.yul\":187:199   */\n      revert\n        /* \"#utility.yul\":334:411   */\n    tag_29:\n        /* \"#utility.yul\":371:378   */\n      0x00\n        /* \"#utility.yul\":400:405   */\n      dup2\n        /* \"#utility.yul\":389:405   */\n      swap1\n      pop\n        /* \"#utility.yul\":334:411   */\n      swap2\n      swap1\n      pop\n      jump\t// out\n        /* \"#utility.yul\":417:539   */\n    tag_30:\n        /* \"#utility.yul\":490:514   */\n      tag_41\n        /* \"#utility.yul\":508:513   */\n      dup2\n        /* \"#utility.yul\":490:514   */\n      tag_29\n      jump\t// in\n    tag_41:\n        /* \"#utility.yul\":483:488   */\n      dup2\n        /* \"#utility.yul\":480:515   */\n      eq\n        /* \"#utility.yul\":470:533   */\n      tag_42\n      jumpi\n        /* \"#utility.yul\":529:530   */\n      0x00\n        /* \"#utility.yul\":526:527   */\n      0x00\n        /* \"#utility.yul\":519:531   */\n      revert\n        /* \"#utility.yul\":470:533   */\n    tag_42:\n        /* \"#utility.yul\":417:539   */\n      pop\n      jump\t// out\n        /* \"#utility.yul\":545:684   */\n    tag_31:\n        /* \"#utility.yul\":591:596   */\n      0x00\n        /* \"#utility.yul\":629:635   */\n      dup2\n        /* \"#utility.yul\":616:636   */\n      calldataload\n        /* \"#utility.yul\":607:636   */\n      swap1\n      pop\n        /* \"#utility.yul\":645:678   */\n      tag_44\n        /* \"#utility.yul\":672:677   */\n      dup2\n        /* \"#utility.yul\":645:678   */\n      tag_30\n      jump\t// in\n    tag_44:\n        /* \"#utility.yul\":545:684   */\n      swap3\n      swap2\n      pop\n      pop\n      jump\t// out\n        /* \"#utility.yul\":690:1164   */\n    tag_6:\n        /* \"#utility.yul\":758:764   */\n      0x00\n        /* \"#utility.yul\":766:772   */\n      0x00\n        /* \"#utility.yul\":815:817   */\n      0x40\n        /* \"#utility.yul\":803:812   */\n      dup4\n        /* \"#utility.yul\":794:801   */\n      dup6\n        /* \"#utility.yul\":790:813   */\n      sub\n        /* \"#utility.yul\":786:818   */\n      slt\n        /* \"#utility.yul\":783:902   */\n      iszero\n      tag_46\n      jumpi\n        /* \"#utility.yul\":821:900   */\n      tag_47\n      tag_27\n      jump\t// in\n    tag_47:\n        /* \"#utility.yul\":783:902   */\n    tag_46:\n        /* \"#utility.yul\":941:942   */\n      0x00\n        /* \"#utility.yul\":966:1019   */\n      tag_48\n        /* \"#utility.yul\":1011:1018   */\n      dup6\n        /* \"#utility.yul\":1002:1008   */\n      dup3\n        /* \"#utility.yul\":991:1000   */\n      dup7\n        /* \"#utility.yul\":987:1009   */\n      add\n        /* \"#utility.yul\":966:1019   */\n      tag_31\n      jump\t// in\n    tag_48:\n        /* \"#utility.yul\":956:1019   */\n      swap3\n      pop\n        /* \"#utility.yul\":912:1029   */\n      pop\n        /* \"#utility.yul\":1068:1070   */\n      0x20\n        /* \"#utility.yul\":1094:1147   */\n      tag_49\n        /* \"#utility.yul\":1139:1146   */\n      dup6\n        /* \"#utility.yul\":1130:1136   */\n      dup3\n        /* \"#utility.yul\":1119:1128   */\n      dup7\n        /* \"#utility.yul\":1115:1137   */\n      add\n        /* \"#utility.yul\":1094:1147   */\n      tag_31\n      jump\t// in\n    tag_49:\n        /* \"#utility.yul\":1084:1147   */\n      swap2\n      pop\n        /* \"#utility.yul\":1039:1157   */\n      pop\n        /* \"#utility.yul\":690:1164   */\n      swap3\n      pop\n      swap3\n      swap1\n      pop\n      jump\t// out\n        /* \"#utility.yul\":1170:1288   */\n    tag_32:\n        /* \"#utility.yul\":1257:1281   */\n      tag_51\n        /* \"#utility.yul\":1275:1280   */\n      dup2\n        /* \"#utility.yul\":1257:1281   */\n      tag_29\n      jump\t// in\n    tag_51:\n        /* \"#utility.yul\":1252:1255   */\n      dup3\n        /* \"#utility.yul\":1245:1282   */\n      mstore\n        /* \"#utility.yul\":1170:1288   */\n      pop\n      pop\n      jump\t// out\n        /* \"#utility.yul\":1294:1516   */\n    tag_9:\n        /* \"#utility.yul\":1387:1391   */\n      0x00\n        /* \"#utility.yul\":1425:1427   */\n      0x20\n        /* \"#utility.yul\":1414:1423   */\n      dup3\n        /* \"#utility.yul\":1410:1428   */\n      add\n        /* \"#utility.yul\":1402:1428   */\n      swap1\n      pop\n        /* \"#utility.yul\":1438:1509   */\n      tag_53\n        /* \"#utility.yul\":1506:1507   */\n      0x00\n        /* \"#utility.yul\":1495:1504   */\n      dup4\n        /* \"#utility.yul\":1491:1508   */\n      add\n        /* \"#utility.yul\":1482:1488   */\n      dup5\n        /* \"#utility.yul\":1438:1509   */\n      tag_32\n      jump\t// in\n    tag_53:\n        /* \"#utility.yul\":1294:1516   */\n      swap3\n      swap2\n      pop\n      pop\n      jump\t// out\n        /* \"#utility.yul\":1522:1702   */\n    tag_33:\n        /* \"#utility.yul\":1570:1647   */\n      0x4e487b7100000000000000000000000000000000000000000000000000000000\n        /* \"#utility.yul\":1567:1568   */\n      0x00\n        /* \"#utility.yul\":1560:1648   */\n      mstore\n        /* \"#utility.yul\":1667:1671   */\n      0x11\n        /* \"#utility.yul\":1664:1665   */\n      0x04\n        /* \"#utility.yul\":1657:1672   */\n      mstore\n        /* \"#utility.yul\":1691:1695   */\n      0x24\n        /* \"#utility.yul\":1688:1689   */\n      0x00\n        /* \"#utility.yul\":1681:1696   */\n      revert\n        /* \"#utility.yul\":1708:2118   */\n    tag_17:\n        /* \"#utility.yul\":1748:1755   */\n      0x00\n        /* \"#utility.yul\":1771:1791   */\n      tag_56\n        /* \"#utility.yul\":1789:1790   */\n      dup3\n        /* \"#utility.yul\":1771:1791   */\n      tag_29\n      jump\t// in\n    tag_56:\n        /* \"#utility.yul\":1766:1791   */\n      swap2\n      pop\n        /* \"#utility.yul\":1805:1825   */\n      tag_57\n        /* \"#utility.yul\":1823:1824   */\n      dup4\n        /* \"#utility.yul\":1805:1825   */\n      tag_29\n      jump\t// in\n    tag_57:\n        /* \"#utility.yul\":1800:1825   */\n      swap3\n      pop\n        /* \"#utility.yul\":1860:1861   */\n      dup3\n        /* \"#utility.yul\":1857:1858   */\n      dup3\n        /* \"#utility.yul\":1853:1862   */\n      mul\n        /* \"#utility.yul\":1882:1912   */\n      tag_58\n        /* \"#utility.yul\":1900:1911   */\n      dup2\n        /* \"#utility.yul\":1882:1912   */\n      tag_29\n      jump\t// in\n    tag_58:\n        /* \"#utility.yul\":1871:1912   */\n      swap2\n      pop\n        /* \"#utility.yul\":2061:2062   */\n      dup3\n        /* \"#utility.yul\":2052:2059   */\n      dup3\n        /* \"#utility.yul\":2048:2063   */\n      div\n        /* \"#utility.yul\":2045:2046   */\n      dup5\n        /* \"#utility.yul\":2042:2064   */\n      eq\n        /* \"#utility.yul\":2022:2023   */\n      dup4\n        /* \"#utility.yul\":2015:2024   */\n      iszero\n        /* \"#utility.yul\":1995:2078   */\n      or\n        /* \"#utility.yul\":1972:2111   */\n      tag_59\n      jumpi\n        /* \"#utility.yul\":2091:2109   */\n      tag_60\n      tag_33\n      jump\t// in\n    tag_60:\n        /* \"#utility.yul\":1972:2111   */\n    tag_59:\n        /* \"#utility.yul\":1756:2118   */\n      pop\n        /* \"#utility.yul\":1708:2118   */\n      swap3\n      swap2\n      pop\n      pop\n      jump\t// out\n        /* \"#utility.yul\":2124:2304   */\n    tag_34:\n        /* \"#utility.yul\":2172:2249   */\n      0x4e487b7100000000000000000000000000000000000000000000000000000000\n        /* \"#utility.yul\":2169:2170   */\n      0x00\n        /* \"#utility.yul\":2162:2250   */\n      mstore\n        /* \"#utility.yul\":2269:2273   */\n      0x12\n        /* \"#utility.yul\":2266:2267   */\n      0x04\n        /* \"#utility.yul\":2259:2274   */\n      mstore\n        /* \"#utility.yul\":2293:2297   */\n      0x24\n        /* \"#utility.yul\":2290:2291   */\n      0x00\n        /* \"#utility.yul\":2283:2298   */\n      revert\n        /* \"#utility.yul\":2310:2495   */\n    tag_19:\n        /* \"#utility.yul\":2350:2351   */\n      0x00\n        /* \"#utility.yul\":2367:2387   */\n      tag_63\n        /* \"#utility.yul\":2385:2386   */\n      dup3\n        /* \"#utility.yul\":2367:2387   */\n      tag_29\n      jump\t// in\n    tag_63:\n        /* \"#utility.yul\":2362:2387   */\n      swap2\n      pop\n        /* \"#utility.yul\":2401:2421   */\n      tag_64\n        /* \"#utility.yul\":2419:2420   */\n      dup4\n        /* \"#utility.yul\":2401:2421   */\n      tag_29\n      jump\t// in\n    tag_64:\n        /* \"#utility.yul\":2396:2421   */\n      swap3\n      pop\n        /* \"#utility.yul\":2440:2441   */\n      dup3\n        /* \"#utility.yul\":2430:2465   */\n      tag_65\n      jumpi\n        /* \"#utility.yul\":2445:2463   */\n      tag_66\n      tag_34\n      jump\t// in\n    tag_66:\n        /* \"#utility.yul\":2430:2465   */\n    tag_65:\n        /* \"#utility.yul\":2487:2488   */\n      dup3\n        /* \"#utility.yul\":2484:2485   */\n      dup3\n        /* \"#utility.yul\":2480:2489   */\n      div\n        /* \"#utility.yul\":2475:2489   */\n      swap1\n      pop\n        /* \"#utility.yul\":2310:2495   */\n      swap3\n      swap2\n      pop\n      pop\n      jump\t// out\n        /* \"#utility.yul\":2501:2692   */\n    tag_21:\n        /* \"#utility.yul\":2541:2544   */\n      0x00\n        /* \"#utility.yul\":2560:2580   */\n      tag_68\n        /* \"#utility.yul\":2578:2579   */\n      dup3\n        /* \"#utility.yul\":2560:2580   */\n      tag_29\n      jump\t// in\n    tag_68:\n        /* \"#utility.yul\":2555:2580   */\n      swap2\n      pop\n        /* \"#utility.yul\":2594:2614   */\n      tag_69\n        /* \"#utility.yul\":2612:2613   */\n      dup4\n        /* \"#utility.yul\":2594:2614   */\n      tag_29\n      jump\t// in\n    tag_69:\n        /* \"#utility.yul\":2589:2614   */\n      swap3\n      pop\n        /* \"#utility.yul\":2637:2638   */\n      dup3\n        /* \"#utility.yul\":2634:2635   */\n      dup3\n        /* \"#utility.yul\":2630:2639   */\n      add\n        /* \"#utility.yul\":2623:2639   */\n      swap1\n      pop\n        /* \"#utility.yul\":2658:2661   */\n      dup1\n        /* \"#utility.yul\":2655:2656   */\n      dup3\n        /* \"#utility.yul\":2652:2662   */\n      gt\n        /* \"#utility.yul\":2649:2685   */\n      iszero\n      tag_70\n      jumpi\n        /* \"#utility.yul\":2665:2683   */\n      tag_71\n      tag_33\n      jump\t// in\n    tag_71:\n        /* \"#utility.yul\":2649:2685   */\n    tag_70:\n        /* \"#utility.yul\":2501:2692   */\n      swap3\n      swap2\n      pop\n      pop\n      jump\t// out\n\n    auxdata: 0xa26469706673582212207dbc72a81c419a34cc6fe1ad3f54d14acc10d87dc3ce199019f6f27d6e1e6dd164736f6c634300081c0033\n}\n",
				"bytecode": {
					"linkReferences": {},
					"object": "6080604052348015600e575f5ffd5b5061030f8061001c5f395ff3fe608060405234801561000f575f5ffd5b5060043610610029575f3560e01c8063459582501461002d575b5f5ffd5b61004760048036038101906100429190610175565b61005d565b60405161005491906101c2565b60405180910390f35b5f8290505f8310156100a657826040517fd000dda100000000000000000000000000000000000000000000000000000000815260040161009d91906101c2565b60405180910390fd5b6008821180156100b75750600a8211155b156100e7576064600a846100cb9190610208565b6100d59190610276565b836100e091906102a6565b9250610138565b5f8210806100f55750600a82115b1561013757816040517f088e5a3900000000000000000000000000000000000000000000000000000000815260040161012e91906101c2565b60405180910390fd5b5b92915050565b5f5ffd5b5f819050919050565b61015481610142565b811461015e575f5ffd5b50565b5f8135905061016f8161014b565b92915050565b5f5f6040838503121561018b5761018a61013e565b5b5f61019885828601610161565b92505060206101a985828601610161565b9150509250929050565b6101bc81610142565b82525050565b5f6020820190506101d55f8301846101b3565b92915050565b7f4e487b71000000000000000000000000000000000000000000000000000000005f52601160045260245ffd5b5f61021282610142565b915061021d83610142565b925082820261022b81610142565b91508282048414831517610242576102416101db565b5b5092915050565b7f4e487b71000000000000000000000000000000000000000000000000000000005f52601260045260245ffd5b5f61028082610142565b915061028b83610142565b92508261029b5761029a610249565b5b828204905092915050565b5f6102b082610142565b91506102bb83610142565b92508282019050808211156102d3576102d26101db565b5b9291505056fea26469706673582212207dbc72a81c419a34cc6fe1ad3f54d14acc10d87dc3ce199019f6f27d6e1e6dd164736f6c634300081c0033",
					"opcodes": "PUSH1 0x80 PUSH1 0x40 MSTORE CALLVALUE DUP1 ISZERO PUSH1 0xE JUMPI PUSH0 PUSH0 REVERT JUMPDEST POP PUSH2 0x30F DUP1 PUSH2 0x1C PUSH0 CODECOPY PUSH0 RETURN INVALID PUSH1 0x80 PUSH1 0x40 MSTORE CALLVALUE DUP1 ISZERO PUSH2 0xF JUMPI PUSH0 PUSH0 REVERT JUMPDEST POP PUSH1 0x4 CALLDATASIZE LT PUSH2 0x29 JUMPI PUSH0 CALLDATALOAD PUSH1 0xE0 SHR DUP1 PUSH4 0x45958250 EQ PUSH2 0x2D JUMPI JUMPDEST PUSH0 PUSH0 REVERT JUMPDEST PUSH2 0x47 PUSH1 0x4 DUP1 CALLDATASIZE SUB DUP2 ADD SWAP1 PUSH2 0x42 SWAP2 SWAP1 PUSH2 0x175 JUMP JUMPDEST PUSH2 0x5D JUMP JUMPDEST PUSH1 0x40 MLOAD PUSH2 0x54 SWAP2 SWAP1 PUSH2 0x1C2 JUMP JUMPDEST PUSH1 0x40 MLOAD DUP1 SWAP2 SUB SWAP1 RETURN JUMPDEST PUSH0 DUP3 SWAP1 POP PUSH0 DUP4 LT ISZERO PUSH2 0xA6 JUMPI DUP3 PUSH1 0x40 MLOAD PUSH32 0xD000DDA100000000000000000000000000000000000000000000000000000000 DUP2 MSTORE PUSH1 0x4 ADD PUSH2 0x9D SWAP2 SWAP1 PUSH2 0x1C2 JUMP JUMPDEST PUSH1 0x40 MLOAD DUP1 SWAP2 SUB SWAP1 REVERT JUMPDEST PUSH1 0x8 DUP3 GT DUP1 ISZERO PUSH2 0xB7 JUMPI POP PUSH1 0xA DUP3 GT ISZERO JUMPDEST ISZERO PUSH2 0xE7 JUMPI PUSH1 0x64 PUSH1 0xA DUP5 PUSH2 0xCB SWAP2 SWAP1 PUSH2 0x208 JUMP JUMPDEST PUSH2 0xD5 SWAP2 SWAP1 PUSH2 0x276 JUMP JUMPDEST DUP4 PUSH2 0xE0 SWAP2 SWAP1 PUSH2 0x2A6 JUMP JUMPDEST SWAP3 POP PUSH2 0x138 JUMP JUMPDEST PUSH0 DUP3 LT DUP1 PUSH2 0xF5 JUMPI POP PUSH1 0xA DUP3 GT JUMPDEST ISZERO PUSH2 0x137 JUMPI DUP2 PUSH1 0x40 MLOAD PUSH32 0x88E5A3900000000000000000000000000000000000000000000000000000000 DUP2 MSTORE PUSH1 0x4 ADD PUSH2 0x12E SWAP2 SWAP1 PUSH2 0x1C2 JUMP JUMPDEST PUSH1 0x40 MLOAD DUP1 SWAP2 SUB SWAP1 REVERT JUMPDEST JUMPDEST SWAP3 SWAP2 POP POP JUMP JUMPDEST PUSH0 PUSH0 REVERT JUMPDEST PUSH0 DUP2 SWAP1 POP SWAP2 SWAP1 POP JUMP JUMPDEST PUSH2 0x154 DUP2 PUSH2 0x142 JUMP JUMPDEST DUP2 EQ PUSH2 0x15E JUMPI PUSH0 PUSH0 REVERT JUMPDEST POP JUMP JUMPDEST PUSH0 DUP2 CALLDATALOAD SWAP1 POP PUSH2 0x16F DUP2 PUSH2 0x14B JUMP JUMPDEST SWAP3 SWAP2 POP POP JUMP JUMPDEST PUSH0 PUSH0 PUSH1 0x40 DUP4 DUP6 SUB SLT ISZERO PUSH2 0x18B JUMPI PUSH2 0x18A PUSH2 0x13E JUMP JUMPDEST JUMPDEST PUSH0 PUSH2 0x198 DUP6 DUP3 DUP7 ADD PUSH2 0x161 JUMP JUMPDEST SWAP3 POP POP PUSH1 0x20 PUSH2 0x1A9 DUP6 DUP3 DUP7 ADD PUSH2 0x161 JUMP JUMPDEST SWAP2 POP POP SWAP3 POP SWAP3 SWAP1 POP JUMP JUMPDEST PUSH2 0x1BC DUP2 PUSH2 0x142 JUMP JUMPDEST DUP3 MSTORE POP POP JUMP JUMPDEST PUSH0 PUSH1 0x20 DUP3 ADD SWAP1 POP PUSH2 0x1D5 PUSH0 DUP4 ADD DUP5 PUSH2 0x1B3 JUMP JUMPDEST SWAP3 SWAP2 POP POP JUMP JUMPDEST PUSH32 0x4E487B7100000000000000000000000000000000000000000000000000000000 PUSH0 MSTORE PUSH1 0x11 PUSH1 0x4 MSTORE PUSH1 0x24 PUSH0 REVERT JUMPDEST PUSH0 PUSH2 0x212 DUP3 PUSH2 0x142 JUMP JUMPDEST SWAP2 POP PUSH2 0x21D DUP4 PUSH2 0x142 JUMP JUMPDEST SWAP3 POP DUP3 DUP3 MUL PUSH2 0x22B DUP2 PUSH2 0x142 JUMP JUMPDEST SWAP2 POP DUP3 DUP3 DIV DUP5 EQ DUP4 ISZERO OR PUSH2 0x242 JUMPI PUSH2 0x241 PUSH2 0x1DB JUMP JUMPDEST JUMPDEST POP SWAP3 SWAP2 POP POP JUMP JUMPDEST PUSH32 0x4E487B7100000000000000000000000000000000000000000000000000000000 PUSH0 MSTORE PUSH1 0x12 PUSH1 0x4 MSTORE PUSH1 0x24 PUSH0 REVERT JUMPDEST PUSH0 PUSH2 0x280 DUP3 PUSH2 0x142 JUMP JUMPDEST SWAP2 POP PUSH2 0x28B DUP4 PUSH2 0x142 JUMP JUMPDEST SWAP3 POP DUP3 PUSH2 0x29B JUMPI PUSH2 0x29A PUSH2 0x249 JUMP JUMPDEST JUMPDEST DUP3 DUP3 DIV SWAP1 POP SWAP3 SWAP2 POP POP JUMP JUMPDEST PUSH0 PUSH2 0x2B0 DUP3 PUSH2 0x142 JUMP JUMPDEST SWAP2 POP PUSH2 0x2BB DUP4 PUSH2 0x142 JUMP JUMPDEST SWAP3 POP DUP3 DUP3 ADD SWAP1 POP DUP1 DUP3 GT ISZERO PUSH2 0x2D3 JUMPI PUSH2 0x2D2 PUSH2 0x1DB JUMP JUMPDEST JUMPDEST SWAP3 SWAP2 POP POP JUMP INVALID LOG2 PUSH5 0x6970667358 0x22 SLT KECCAK256 PUSH30 0xBC72A81C419A34CC6FE1AD3F54D14ACC10D87DC3CE199019F6F27D6E1E6D 0xD1 PUSH5 0x736F6C6343 STOP ADDMOD SHR STOP CALLER "
				},
				"gasEstimates": {
					"creation": {
						"codeDepositCost": "156600",
						"executionCost": "200",
						"totalCost": "156800"
					},
					"external": {
						"calculatePaycheck(uint256,uint256)": "infinite"
					}
				},
				"methodIdentifiers": {
					"calculatePaycheck(uint256,uint256)": "45958250"
				}
			},
			"storageLayout": {
				"storage": [],
				"types": null
			},
			"userdoc": {
				"kind": "user",
				"methods": {},
				"version": 1
			}
		}
	}
}