{
	"contracts/DeFiSavingsAcc.sol": {
		"DefiSavings": {
			"abi": [
				{
					"inputs": [
						{
							"internalType": "uint256",
							"name": "_lockPeriod",
							"type": "uint256"
						}
					],
					"name": "createSavingsPlan",
					"outputs": [],
					"stateMutability": "payable",
					"type": "function"
				},
				{
					"inputs": [
						{
							"internalType": "address",
							"name": "",
							"type": "address"
						},
						{
							"internalType": "uint256",
							"name": "",
							"type": "uint256"
						}
					],
					"name": "savingsAccounts",
					"outputs": [
						{
							"internalType": "uint256",
							"name": "balance",
							"type": "uint256"
						},
						{
							"internalType": "address",
							"name": "owner",
							"type": "address"
						},
						{
							"internalType": "uint256",
							"name": "creationTime",
							"type": "uint256"
						},
						{
							"internalType": "uint256",
							"name": "lockPeriod",
							"type": "uint256"
						},
						{
							"internalType": "bool",
							"name": "hasWithdrawn",
							"type": "bool"
						}
					],
					"stateMutability": "view",
					"type": "function"
				},
				{
					"inputs": [
						{
							"internalType": "uint256",
							"name": "index",
							"type": "uint256"
						}
					],
					"name": "viewSavingsPlan",
					"outputs": [
						{
							"internalType": "uint256",
							"name": "balance",
							"type": "uint256"
						},
						{
							"internalType": "uint256",
							"name": "creationTime",
							"type": "uint256"
						},
						{
							"internalType": "uint256",
							"name": "lockPeriod",
							"type": "uint256"
						}
					],
					"stateMutability": "view",
					"type": "function"
				},
				{
					"inputs": [
						{
							"internalType": "uint256",
							"name": "index",
							"type": "uint256"
						}
					],
					"name": "withdrawFunds",
					"outputs": [],
					"stateMutability": "nonpayable",
					"type": "function"
				}
			],
			"devdoc": {
				"kind": "dev",
				"methods": {},
				"version": 1
			},
			"evm": {
				"assembly": "    /* \"contracts/DeFiSavingsAcc.sol\":82:1807  contract DefiSavings{... */\n  mstore(0x40, 0x80)\n  callvalue\n  dup1\n  iszero\n  tag_1\n  jumpi\n  revert(0x00, 0x00)\ntag_1:\n  pop\n  dataSize(sub_0)\n  dup1\n  dataOffset(sub_0)\n  0x00\n  codecopy\n  0x00\n  return\nstop\n\nsub_0: assembly {\n        /* \"contracts/DeFiSavingsAcc.sol\":82:1807  contract DefiSavings{... */\n      mstore(0x40, 0x80)\n      jumpi(tag_1, lt(calldatasize, 0x04))\n      shr(0xe0, calldataload(0x00))\n      dup1\n      0x155dd5ee\n      eq\n      tag_2\n      jumpi\n      dup1\n      0x96239f3b\n      eq\n      tag_3\n      jumpi\n      dup1\n      0xd3400632\n      eq\n      tag_4\n      jumpi\n      dup1\n      0xf8097856\n      eq\n      tag_5\n      jumpi\n    tag_1:\n      revert(0x00, 0x00)\n        /* \"contracts/DeFiSavingsAcc.sol\":1238:1800  function withdrawFunds(uint256 index) external {... */\n    tag_2:\n      callvalue\n      dup1\n      iszero\n      tag_6\n      jumpi\n      revert(0x00, 0x00)\n    tag_6:\n      pop\n      tag_7\n      0x04\n      dup1\n      calldatasize\n      sub\n      dup2\n      add\n      swap1\n      tag_8\n      swap2\n      swap1\n      tag_9\n      jump\t// in\n    tag_8:\n      tag_10\n      jump\t// in\n    tag_7:\n      stop\n        /* \"contracts/DeFiSavingsAcc.sol\":354:838  function createSavingsPlan(uint256 _lockPeriod) external payable{... */\n    tag_3:\n      tag_11\n      0x04\n      dup1\n      calldatasize\n      sub\n      dup2\n      add\n      swap1\n      tag_12\n      swap2\n      swap1\n      tag_9\n      jump\t// in\n    tag_12:\n      tag_13\n      jump\t// in\n    tag_11:\n      stop\n        /* \"contracts/DeFiSavingsAcc.sol\":846:1230  function viewSavingsPlan(uint256 index) external view returns(uint256 balance, uint256 creationTime, uint256 lockPeriod){... */\n    tag_4:\n      callvalue\n      dup1\n      iszero\n      tag_14\n      jumpi\n      revert(0x00, 0x00)\n    tag_14:\n      pop\n      tag_15\n      0x04\n      dup1\n      calldatasize\n      sub\n      dup2\n      add\n      swap1\n      tag_16\n      swap2\n      swap1\n      tag_9\n      jump\t// in\n    tag_16:\n      tag_17\n      jump\t// in\n    tag_15:\n      mload(0x40)\n      tag_18\n      swap4\n      swap3\n      swap2\n      swap1\n      tag_19\n      jump\t// in\n    tag_18:\n      mload(0x40)\n      dup1\n      swap2\n      sub\n      swap1\n      return\n        /* \"contracts/DeFiSavingsAcc.sol\":286:345  mapping(address => SavingsAccount[]) public savingsAccounts */\n    tag_5:\n      callvalue\n      dup1\n      iszero\n      tag_20\n      jumpi\n      revert(0x00, 0x00)\n    tag_20:\n      pop\n      tag_21\n      0x04\n      dup1\n      calldatasize\n      sub\n      dup2\n      add\n      swap1\n      tag_22\n      swap2\n      swap1\n      tag_23\n      jump\t// in\n    tag_22:\n      tag_24\n      jump\t// in\n    tag_21:\n      mload(0x40)\n      tag_25\n      swap6\n      swap5\n      swap4\n      swap3\n      swap2\n      swap1\n      tag_26\n      jump\t// in\n    tag_25:\n      mload(0x40)\n      dup1\n      swap2\n      sub\n      swap1\n      return\n        /* \"contracts/DeFiSavingsAcc.sol\":1238:1800  function withdrawFunds(uint256 index) external {... */\n    tag_10:\n        /* \"contracts/DeFiSavingsAcc.sol\":1314:1329  savingsAccounts */\n      0x00\n        /* \"contracts/DeFiSavingsAcc.sol\":1314:1341  savingsAccounts[msg.sender] */\n      0x00\n        /* \"contracts/DeFiSavingsAcc.sol\":1330:1340  msg.sender */\n      caller\n        /* \"contracts/DeFiSavingsAcc.sol\":1314:1341  savingsAccounts[msg.sender] */\n      0xffffffffffffffffffffffffffffffffffffffff\n      and\n      0xffffffffffffffffffffffffffffffffffffffff\n      and\n      dup2\n      mstore\n      0x20\n      add\n      swap1\n      dup2\n      mstore\n      0x20\n      add\n      0x00\n      keccak256\n        /* \"contracts/DeFiSavingsAcc.sol\":1314:1348  savingsAccounts[msg.sender].length */\n      dup1\n      sload\n      swap1\n      pop\n        /* \"contracts/DeFiSavingsAcc.sol\":1306:1311  index */\n      dup2\n        /* \"contracts/DeFiSavingsAcc.sol\":1306:1348  index < savingsAccounts[msg.sender].length */\n      lt\n        /* \"contracts/DeFiSavingsAcc.sol\":1298:1379  require(index < savingsAccounts[msg.sender].length, \"Invalid savings plan index\") */\n      tag_28\n      jumpi\n      mload(0x40)\n      0x08c379a000000000000000000000000000000000000000000000000000000000\n      dup2\n      mstore\n      0x04\n      add\n      tag_29\n      swap1\n      tag_30\n      jump\t// in\n    tag_29:\n      mload(0x40)\n      dup1\n      swap2\n      sub\n      swap1\n      revert\n    tag_28:\n        /* \"contracts/DeFiSavingsAcc.sol\":1392:1422  SavingsAccount storage account */\n      0x00\n        /* \"contracts/DeFiSavingsAcc.sol\":1425:1440  savingsAccounts */\n      0x00\n        /* \"contracts/DeFiSavingsAcc.sol\":1425:1452  savingsAccounts[msg.sender] */\n      0x00\n        /* \"contracts/DeFiSavingsAcc.sol\":1441:1451  msg.sender */\n      caller\n        /* \"contracts/DeFiSavingsAcc.sol\":1425:1452  savingsAccounts[msg.sender] */\n      0xffffffffffffffffffffffffffffffffffffffff\n      and\n      0xffffffffffffffffffffffffffffffffffffffff\n      and\n      dup2\n      mstore\n      0x20\n      add\n      swap1\n      dup2\n      mstore\n      0x20\n      add\n      0x00\n      keccak256\n        /* \"contracts/DeFiSavingsAcc.sol\":1453:1458  index */\n      dup3\n        /* \"contracts/DeFiSavingsAcc.sol\":1425:1459  savingsAccounts[msg.sender][index] */\n      dup2\n      sload\n      dup2\n      lt\n      tag_31\n      jumpi\n      tag_32\n      tag_33\n      jump\t// in\n    tag_32:\n    tag_31:\n      swap1\n      0x00\n      mstore\n      keccak256(0x00, 0x20)\n      swap1\n      0x05\n      mul\n      add\n        /* \"contracts/DeFiSavingsAcc.sol\":1392:1459  SavingsAccount storage account = savingsAccounts[msg.sender][index] */\n      swap1\n      pop\n        /* \"contracts/DeFiSavingsAcc.sol\":1522:1529  account */\n      dup1\n        /* \"contracts/DeFiSavingsAcc.sol\":1522:1540  account.lockPeriod */\n      0x03\n      add\n      sload\n        /* \"contracts/DeFiSavingsAcc.sol\":1499:1506  account */\n      dup2\n        /* \"contracts/DeFiSavingsAcc.sol\":1499:1519  account.creationTime */\n      0x02\n      add\n      sload\n        /* \"contracts/DeFiSavingsAcc.sol\":1499:1540  account.creationTime + account.lockPeriod */\n      tag_35\n      swap2\n      swap1\n      tag_36\n      jump\t// in\n    tag_35:\n        /* \"contracts/DeFiSavingsAcc.sol\":1480:1495  block.timestamp */\n      timestamp\n        /* \"contracts/DeFiSavingsAcc.sol\":1480:1540  block.timestamp >= account.creationTime + account.lockPeriod */\n      lt\n      iszero\n        /* \"contracts/DeFiSavingsAcc.sol\":1472:1576  require(block.timestamp >= account.creationTime + account.lockPeriod, \"Lock period has not expired yet\") */\n      tag_37\n      jumpi\n      mload(0x40)\n      0x08c379a000000000000000000000000000000000000000000000000000000000\n      dup2\n      mstore\n      0x04\n      add\n      tag_38\n      swap1\n      tag_39\n      jump\t// in\n    tag_38:\n      mload(0x40)\n      dup1\n      swap2\n      sub\n      swap1\n      revert\n    tag_37:\n        /* \"contracts/DeFiSavingsAcc.sol\":1589:1613  uint256 amountToWithdraw */\n      0x00\n        /* \"contracts/DeFiSavingsAcc.sol\":1616:1623  account */\n      dup2\n        /* \"contracts/DeFiSavingsAcc.sol\":1616:1631  account.balance */\n      0x00\n      add\n      sload\n        /* \"contracts/DeFiSavingsAcc.sol\":1589:1631  uint256 amountToWithdraw = account.balance */\n      swap1\n      pop\n        /* \"contracts/DeFiSavingsAcc.sol\":1671:1672  0 */\n      0x00\n        /* \"contracts/DeFiSavingsAcc.sol\":1652:1668  amountToWithdraw */\n      dup2\n        /* \"contracts/DeFiSavingsAcc.sol\":1652:1672  amountToWithdraw > 0 */\n      gt\n        /* \"contracts/DeFiSavingsAcc.sol\":1644:1697  require(amountToWithdraw > 0, \"No funds to withdraw\") */\n      tag_40\n      jumpi\n      mload(0x40)\n      0x08c379a000000000000000000000000000000000000000000000000000000000\n      dup2\n      mstore\n      0x04\n      add\n      tag_41\n      swap1\n      tag_42\n      jump\t// in\n    tag_41:\n      mload(0x40)\n      dup1\n      swap2\n      sub\n      swap1\n      revert\n    tag_40:\n        /* \"contracts/DeFiSavingsAcc.sol\":1728:1729  0 */\n      0x00\n        /* \"contracts/DeFiSavingsAcc.sol\":1710:1717  account */\n      dup3\n        /* \"contracts/DeFiSavingsAcc.sol\":1710:1725  account.balance */\n      0x00\n      add\n        /* \"contracts/DeFiSavingsAcc.sol\":1710:1729  account.balance = 0 */\n      dup2\n      swap1\n      sstore\n      pop\n        /* \"contracts/DeFiSavingsAcc.sol\":1750:1760  msg.sender */\n      caller\n        /* \"contracts/DeFiSavingsAcc.sol\":1742:1770  payable(msg.sender).transfer */\n      0xffffffffffffffffffffffffffffffffffffffff\n      and\n        /* \"contracts/DeFiSavingsAcc.sol\":1742:1788  payable(msg.sender).transfer(amountToWithdraw) */\n      0x08fc\n        /* \"contracts/DeFiSavingsAcc.sol\":1771:1787  amountToWithdraw */\n      dup3\n        /* \"contracts/DeFiSavingsAcc.sol\":1742:1788  payable(msg.sender).transfer(amountToWithdraw) */\n      swap1\n      dup2\n      iszero\n      mul\n      swap1\n      mload(0x40)\n      0x00\n      mload(0x40)\n      dup1\n      dup4\n      sub\n      dup2\n      dup6\n      dup9\n      dup9\n      call\n      swap4\n      pop\n      pop\n      pop\n      pop\n      iszero\n      dup1\n      iszero\n      tag_44\n      jumpi\n      returndatacopy(0x00, 0x00, returndatasize)\n      revert(0x00, returndatasize)\n    tag_44:\n      pop\n        /* \"contracts/DeFiSavingsAcc.sol\":1285:1800  {... */\n      pop\n      pop\n        /* \"contracts/DeFiSavingsAcc.sol\":1238:1800  function withdrawFunds(uint256 index) external {... */\n      pop\n      jump\t// out\n        /* \"contracts/DeFiSavingsAcc.sol\":354:838  function createSavingsPlan(uint256 _lockPeriod) external payable{... */\n    tag_13:\n        /* \"contracts/DeFiSavingsAcc.sol\":452:453  0 */\n      0x00\n        /* \"contracts/DeFiSavingsAcc.sol\":440:449  msg.value */\n      callvalue\n        /* \"contracts/DeFiSavingsAcc.sol\":440:453  msg.value > 0 */\n      gt\n        /* \"contracts/DeFiSavingsAcc.sol\":432:507  require(msg.value > 0, \"You must send some ether to create a savings plan\") */\n      tag_46\n      jumpi\n      mload(0x40)\n      0x08c379a000000000000000000000000000000000000000000000000000000000\n      dup2\n      mstore\n      0x04\n      add\n      tag_47\n      swap1\n      tag_48\n      jump\t// in\n    tag_47:\n      mload(0x40)\n      dup1\n      swap2\n      sub\n      swap1\n      revert\n    tag_46:\n        /* \"contracts/DeFiSavingsAcc.sol\":520:552  SavingsAccount memory NewAccount */\n      0x00\n        /* \"contracts/DeFiSavingsAcc.sol\":555:763  SavingsAccount({... */\n      mload(0x40)\n      dup1\n      0xa0\n      add\n      0x40\n      mstore\n      dup1\n        /* \"contracts/DeFiSavingsAcc.sol\":594:603  msg.value */\n      callvalue\n        /* \"contracts/DeFiSavingsAcc.sol\":555:763  SavingsAccount({... */\n      dup2\n      mstore\n      0x20\n      add\n        /* \"contracts/DeFiSavingsAcc.sol\":625:635  msg.sender */\n      caller\n        /* \"contracts/DeFiSavingsAcc.sol\":555:763  SavingsAccount({... */\n      0xffffffffffffffffffffffffffffffffffffffff\n      and\n      dup2\n      mstore\n      0x20\n      add\n        /* \"contracts/DeFiSavingsAcc.sol\":664:679  block.timestamp */\n      timestamp\n        /* \"contracts/DeFiSavingsAcc.sol\":555:763  SavingsAccount({... */\n      dup2\n      mstore\n      0x20\n      add\n        /* \"contracts/DeFiSavingsAcc.sol\":706:717  _lockPeriod */\n      dup4\n        /* \"contracts/DeFiSavingsAcc.sol\":555:763  SavingsAccount({... */\n      dup2\n      mstore\n      0x20\n      add\n        /* \"contracts/DeFiSavingsAcc.sol\":746:751  false */\n      0x00\n        /* \"contracts/DeFiSavingsAcc.sol\":555:763  SavingsAccount({... */\n      iszero\n      iszero\n      dup2\n      mstore\n      pop\n        /* \"contracts/DeFiSavingsAcc.sol\":520:763  SavingsAccount memory NewAccount = SavingsAccount({... */\n      swap1\n      pop\n        /* \"contracts/DeFiSavingsAcc.sol\":776:791  savingsAccounts */\n      0x00\n        /* \"contracts/DeFiSavingsAcc.sol\":776:803  savingsAccounts[msg.sender] */\n      0x00\n        /* \"contracts/DeFiSavingsAcc.sol\":792:802  msg.sender */\n      caller\n        /* \"contracts/DeFiSavingsAcc.sol\":776:803  savingsAccounts[msg.sender] */\n      0xffffffffffffffffffffffffffffffffffffffff\n      and\n      0xffffffffffffffffffffffffffffffffffffffff\n      and\n      dup2\n      mstore\n      0x20\n      add\n      swap1\n      dup2\n      mstore\n      0x20\n      add\n      0x00\n      keccak256\n        /* \"contracts/DeFiSavingsAcc.sol\":809:819  NewAccount */\n      dup2\n        /* \"contracts/DeFiSavingsAcc.sol\":776:820  savingsAccounts[msg.sender].push(NewAccount) */\n      swap1\n      dup1\n      0x01\n      dup2\n      sload\n      add\n      dup1\n      dup3\n      sstore\n      dup1\n      swap2\n      pop\n      pop\n      0x01\n      swap1\n      sub\n      swap1\n      0x00\n      mstore\n      keccak256(0x00, 0x20)\n      swap1\n      0x05\n      mul\n      add\n      0x00\n      swap1\n      swap2\n      swap1\n      swap2\n      swap1\n      swap2\n      pop\n      0x00\n      dup3\n      add\n      mload\n      dup2\n      0x00\n      add\n      sstore\n      0x20\n      dup3\n      add\n      mload\n      dup2\n      0x01\n      add\n      exp(0x0100, 0x00)\n      dup2\n      sload\n      dup2\n      0xffffffffffffffffffffffffffffffffffffffff\n      mul\n      not\n      and\n      swap1\n      dup4\n      0xffffffffffffffffffffffffffffffffffffffff\n      and\n      mul\n      or\n      swap1\n      sstore\n      pop\n      0x40\n      dup3\n      add\n      mload\n      dup2\n      0x02\n      add\n      sstore\n      0x60\n      dup3\n      add\n      mload\n      dup2\n      0x03\n      add\n      sstore\n      0x80\n      dup3\n      add\n      mload\n      dup2\n      0x04\n      add\n      exp(0x0100, 0x00)\n      dup2\n      sload\n      dup2\n      0xff\n      mul\n      not\n      and\n      swap1\n      dup4\n      iszero\n      iszero\n      mul\n      or\n      swap1\n      sstore\n      pop\n      pop\n      pop\n        /* \"contracts/DeFiSavingsAcc.sol\":418:838  {... */\n      pop\n        /* \"contracts/DeFiSavingsAcc.sol\":354:838  function createSavingsPlan(uint256 _lockPeriod) external payable{... */\n      pop\n      jump\t// out\n        /* \"contracts/DeFiSavingsAcc.sol\":846:1230  function viewSavingsPlan(uint256 index) external view returns(uint256 balance, uint256 creationTime, uint256 lockPeriod){... */\n    tag_17:\n        /* \"contracts/DeFiSavingsAcc.sol\":908:923  uint256 balance */\n      0x00\n        /* \"contracts/DeFiSavingsAcc.sol\":925:945  uint256 creationTime */\n      0x00\n        /* \"contracts/DeFiSavingsAcc.sol\":947:965  uint256 lockPeriod */\n      0x00\n        /* \"contracts/DeFiSavingsAcc.sol\":995:1010  savingsAccounts */\n      0x00\n        /* \"contracts/DeFiSavingsAcc.sol\":995:1022  savingsAccounts[msg.sender] */\n      0x00\n        /* \"contracts/DeFiSavingsAcc.sol\":1011:1021  msg.sender */\n      caller\n        /* \"contracts/DeFiSavingsAcc.sol\":995:1022  savingsAccounts[msg.sender] */\n      0xffffffffffffffffffffffffffffffffffffffff\n      and\n      0xffffffffffffffffffffffffffffffffffffffff\n      and\n      dup2\n      mstore\n      0x20\n      add\n      swap1\n      dup2\n      mstore\n      0x20\n      add\n      0x00\n      keccak256\n        /* \"contracts/DeFiSavingsAcc.sol\":995:1029  savingsAccounts[msg.sender].length */\n      dup1\n      sload\n      swap1\n      pop\n        /* \"contracts/DeFiSavingsAcc.sol\":987:992  index */\n      dup5\n        /* \"contracts/DeFiSavingsAcc.sol\":987:1029  index < savingsAccounts[msg.sender].length */\n      lt\n        /* \"contracts/DeFiSavingsAcc.sol\":979:1060  require(index < savingsAccounts[msg.sender].length, \"Invalid savings plan index\") */\n      tag_51\n      jumpi\n      mload(0x40)\n      0x08c379a000000000000000000000000000000000000000000000000000000000\n      dup2\n      mstore\n      0x04\n      add\n      tag_52\n      swap1\n      tag_30\n      jump\t// in\n    tag_52:\n      mload(0x40)\n      dup1\n      swap2\n      sub\n      swap1\n      revert\n    tag_51:\n        /* \"contracts/DeFiSavingsAcc.sol\":1073:1102  SavingsAccount memory account */\n      0x00\n        /* \"contracts/DeFiSavingsAcc.sol\":1105:1120  savingsAccounts */\n      0x00\n        /* \"contracts/DeFiSavingsAcc.sol\":1105:1132  savingsAccounts[msg.sender] */\n      0x00\n        /* \"contracts/DeFiSavingsAcc.sol\":1121:1131  msg.sender */\n      caller\n        /* \"contracts/DeFiSavingsAcc.sol\":1105:1132  savingsAccounts[msg.sender] */\n      0xffffffffffffffffffffffffffffffffffffffff\n      and\n      0xffffffffffffffffffffffffffffffffffffffff\n      and\n      dup2\n      mstore\n      0x20\n      add\n      swap1\n      dup2\n      mstore\n      0x20\n      add\n      0x00\n      keccak256\n        /* \"contracts/DeFiSavingsAcc.sol\":1133:1138  index */\n      dup6\n        /* \"contracts/DeFiSavingsAcc.sol\":1105:1139  savingsAccounts[msg.sender][index] */\n      dup2\n      sload\n      dup2\n      lt\n      tag_53\n      jumpi\n      tag_54\n      tag_33\n      jump\t// in\n    tag_54:\n    tag_53:\n      swap1\n      0x00\n      mstore\n      keccak256(0x00, 0x20)\n      swap1\n      0x05\n      mul\n      add\n        /* \"contracts/DeFiSavingsAcc.sol\":1073:1139  SavingsAccount memory account = savingsAccounts[msg.sender][index] */\n      mload(0x40)\n      dup1\n      0xa0\n      add\n      0x40\n      mstore\n      swap1\n      dup2\n      0x00\n      dup3\n      add\n      sload\n      dup2\n      mstore\n      0x20\n      add\n      0x01\n      dup3\n      add\n      0x00\n      swap1\n      sload\n      swap1\n      0x0100\n      exp\n      swap1\n      div\n      0xffffffffffffffffffffffffffffffffffffffff\n      and\n      0xffffffffffffffffffffffffffffffffffffffff\n      and\n      0xffffffffffffffffffffffffffffffffffffffff\n      and\n      dup2\n      mstore\n      0x20\n      add\n      0x02\n      dup3\n      add\n      sload\n      dup2\n      mstore\n      0x20\n      add\n      0x03\n      dup3\n      add\n      sload\n      dup2\n      mstore\n      0x20\n      add\n      0x04\n      dup3\n      add\n      0x00\n      swap1\n      sload\n      swap1\n      0x0100\n      exp\n      swap1\n      div\n      0xff\n      and\n      iszero\n      iszero\n      iszero\n      iszero\n      dup2\n      mstore\n      pop\n      pop\n      swap1\n      pop\n        /* \"contracts/DeFiSavingsAcc.sol\":1160:1167  account */\n      dup1\n        /* \"contracts/DeFiSavingsAcc.sol\":1160:1175  account.balance */\n      0x00\n      add\n      mload\n        /* \"contracts/DeFiSavingsAcc.sol\":1177:1184  account */\n      dup2\n        /* \"contracts/DeFiSavingsAcc.sol\":1177:1197  account.creationTime */\n      0x40\n      add\n      mload\n        /* \"contracts/DeFiSavingsAcc.sol\":1199:1206  account */\n      dup3\n        /* \"contracts/DeFiSavingsAcc.sol\":1199:1217  account.lockPeriod */\n      0x60\n      add\n      mload\n        /* \"contracts/DeFiSavingsAcc.sol\":1152:1218  return (account.balance, account.creationTime, account.lockPeriod) */\n      swap4\n      pop\n      swap4\n      pop\n      swap4\n      pop\n      pop\n        /* \"contracts/DeFiSavingsAcc.sol\":846:1230  function viewSavingsPlan(uint256 index) external view returns(uint256 balance, uint256 creationTime, uint256 lockPeriod){... */\n      swap2\n      swap4\n      swap1\n      swap3\n      pop\n      jump\t// out\n        /* \"contracts/DeFiSavingsAcc.sol\":286:345  mapping(address => SavingsAccount[]) public savingsAccounts */\n    tag_24:\n      mstore(0x20, 0x00)\n      dup2\n      0x00\n      mstore\n      keccak256(0x00, 0x40)\n      dup2\n      dup2\n      sload\n      dup2\n      lt\n      tag_56\n      jumpi\n      0x00\n      dup1\n      revert\n    tag_56:\n      swap1\n      0x00\n      mstore\n      keccak256(0x00, 0x20)\n      swap1\n      0x05\n      mul\n      add\n      0x00\n      swap2\n      pop\n      swap2\n      pop\n      pop\n      dup1\n      0x00\n      add\n      sload\n      swap1\n      dup1\n      0x01\n      add\n      0x00\n      swap1\n      sload\n      swap1\n      0x0100\n      exp\n      swap1\n      div\n      0xffffffffffffffffffffffffffffffffffffffff\n      and\n      swap1\n      dup1\n      0x02\n      add\n      sload\n      swap1\n      dup1\n      0x03\n      add\n      sload\n      swap1\n      dup1\n      0x04\n      add\n      0x00\n      swap1\n      sload\n      swap1\n      0x0100\n      exp\n      swap1\n      div\n      0xff\n      and\n      swap1\n      pop\n      dup6\n      jump\t// out\n        /* \"#utility.yul\":88:205   */\n    tag_59:\n        /* \"#utility.yul\":197:198   */\n      0x00\n        /* \"#utility.yul\":194:195   */\n      0x00\n        /* \"#utility.yul\":187:199   */\n      revert\n        /* \"#utility.yul\":334:411   */\n    tag_61:\n        /* \"#utility.yul\":371:378   */\n      0x00\n        /* \"#utility.yul\":400:405   */\n      dup2\n        /* \"#utility.yul\":389:405   */\n      swap1\n      pop\n        /* \"#utility.yul\":334:411   */\n      swap2\n      swap1\n      pop\n      jump\t// out\n        /* \"#utility.yul\":417:539   */\n    tag_62:\n        /* \"#utility.yul\":490:514   */\n      tag_88\n        /* \"#utility.yul\":508:513   */\n      dup2\n        /* \"#utility.yul\":490:514   */\n      tag_61\n      jump\t// in\n    tag_88:\n        /* \"#utility.yul\":483:488   */\n      dup2\n        /* \"#utility.yul\":480:515   */\n      eq\n        /* \"#utility.yul\":470:533   */\n      tag_89\n      jumpi\n        /* \"#utility.yul\":529:530   */\n      0x00\n        /* \"#utility.yul\":526:527   */\n      0x00\n        /* \"#utility.yul\":519:531   */\n      revert\n        /* \"#utility.yul\":470:533   */\n    tag_89:\n        /* \"#utility.yul\":417:539   */\n      pop\n      jump\t// out\n        /* \"#utility.yul\":545:684   */\n    tag_63:\n        /* \"#utility.yul\":591:596   */\n      0x00\n        /* \"#utility.yul\":629:635   */\n      dup2\n        /* \"#utility.yul\":616:636   */\n      calldataload\n        /* \"#utility.yul\":607:636   */\n      swap1\n      pop\n        /* \"#utility.yul\":645:678   */\n      tag_91\n        /* \"#utility.yul\":672:677   */\n      dup2\n        /* \"#utility.yul\":645:678   */\n      tag_62\n      jump\t// in\n    tag_91:\n        /* \"#utility.yul\":545:684   */\n      swap3\n      swap2\n      pop\n      pop\n      jump\t// out\n        /* \"#utility.yul\":690:1019   */\n    tag_9:\n        /* \"#utility.yul\":749:755   */\n      0x00\n        /* \"#utility.yul\":798:800   */\n      0x20\n        /* \"#utility.yul\":786:795   */\n      dup3\n        /* \"#utility.yul\":777:784   */\n      dup5\n        /* \"#utility.yul\":773:796   */\n      sub\n        /* \"#utility.yul\":769:801   */\n      slt\n        /* \"#utility.yul\":766:885   */\n      iszero\n      tag_93\n      jumpi\n        /* \"#utility.yul\":804:883   */\n      tag_94\n      tag_59\n      jump\t// in\n    tag_94:\n        /* \"#utility.yul\":766:885   */\n    tag_93:\n        /* \"#utility.yul\":924:925   */\n      0x00\n        /* \"#utility.yul\":949:1002   */\n      tag_95\n        /* \"#utility.yul\":994:1001   */\n      dup5\n        /* \"#utility.yul\":985:991   */\n      dup3\n        /* \"#utility.yul\":974:983   */\n      dup6\n        /* \"#utility.yul\":970:992   */\n      add\n        /* \"#utility.yul\":949:1002   */\n      tag_63\n      jump\t// in\n    tag_95:\n        /* \"#utility.yul\":939:1002   */\n      swap2\n      pop\n        /* \"#utility.yul\":895:1012   */\n      pop\n        /* \"#utility.yul\":690:1019   */\n      swap3\n      swap2\n      pop\n      pop\n      jump\t// out\n        /* \"#utility.yul\":1025:1143   */\n    tag_64:\n        /* \"#utility.yul\":1112:1136   */\n      tag_97\n        /* \"#utility.yul\":1130:1135   */\n      dup2\n        /* \"#utility.yul\":1112:1136   */\n      tag_61\n      jump\t// in\n    tag_97:\n        /* \"#utility.yul\":1107:1110   */\n      dup3\n        /* \"#utility.yul\":1100:1137   */\n      mstore\n        /* \"#utility.yul\":1025:1143   */\n      pop\n      pop\n      jump\t// out\n        /* \"#utility.yul\":1149:1591   */\n    tag_19:\n        /* \"#utility.yul\":1298:1302   */\n      0x00\n        /* \"#utility.yul\":1336:1338   */\n      0x60\n        /* \"#utility.yul\":1325:1334   */\n      dup3\n        /* \"#utility.yul\":1321:1339   */\n      add\n        /* \"#utility.yul\":1313:1339   */\n      swap1\n      pop\n        /* \"#utility.yul\":1349:1420   */\n      tag_99\n        /* \"#utility.yul\":1417:1418   */\n      0x00\n        /* \"#utility.yul\":1406:1415   */\n      dup4\n        /* \"#utility.yul\":1402:1419   */\n      add\n        /* \"#utility.yul\":1393:1399   */\n      dup7\n        /* \"#utility.yul\":1349:1420   */\n      tag_64\n      jump\t// in\n    tag_99:\n        /* \"#utility.yul\":1430:1502   */\n      tag_100\n        /* \"#utility.yul\":1498:1500   */\n      0x20\n        /* \"#utility.yul\":1487:1496   */\n      dup4\n        /* \"#utility.yul\":1483:1501   */\n      add\n        /* \"#utility.yul\":1474:1480   */\n      dup6\n        /* \"#utility.yul\":1430:1502   */\n      tag_64\n      jump\t// in\n    tag_100:\n        /* \"#utility.yul\":1512:1584   */\n      tag_101\n        /* \"#utility.yul\":1580:1582   */\n      0x40\n        /* \"#utility.yul\":1569:1578   */\n      dup4\n        /* \"#utility.yul\":1565:1583   */\n      add\n        /* \"#utility.yul\":1556:1562   */\n      dup5\n        /* \"#utility.yul\":1512:1584   */\n      tag_64\n      jump\t// in\n    tag_101:\n        /* \"#utility.yul\":1149:1591   */\n      swap5\n      swap4\n      pop\n      pop\n      pop\n      pop\n      jump\t// out\n        /* \"#utility.yul\":1597:1723   */\n    tag_65:\n        /* \"#utility.yul\":1634:1641   */\n      0x00\n        /* \"#utility.yul\":1674:1716   */\n      0xffffffffffffffffffffffffffffffffffffffff\n        /* \"#utility.yul\":1667:1672   */\n      dup3\n        /* \"#utility.yul\":1663:1717   */\n      and\n        /* \"#utility.yul\":1652:1717   */\n      swap1\n      pop\n        /* \"#utility.yul\":1597:1723   */\n      swap2\n      swap1\n      pop\n      jump\t// out\n        /* \"#utility.yul\":1729:1825   */\n    tag_66:\n        /* \"#utility.yul\":1766:1773   */\n      0x00\n        /* \"#utility.yul\":1795:1819   */\n      tag_104\n        /* \"#utility.yul\":1813:1818   */\n      dup3\n        /* \"#utility.yul\":1795:1819   */\n      tag_65\n      jump\t// in\n    tag_104:\n        /* \"#utility.yul\":1784:1819   */\n      swap1\n      pop\n        /* \"#utility.yul\":1729:1825   */\n      swap2\n      swap1\n      pop\n      jump\t// out\n        /* \"#utility.yul\":1831:1953   */\n    tag_67:\n        /* \"#utility.yul\":1904:1928   */\n      tag_106\n        /* \"#utility.yul\":1922:1927   */\n      dup2\n        /* \"#utility.yul\":1904:1928   */\n      tag_66\n      jump\t// in\n    tag_106:\n        /* \"#utility.yul\":1897:1902   */\n      dup2\n        /* \"#utility.yul\":1894:1929   */\n      eq\n        /* \"#utility.yul\":1884:1947   */\n      tag_107\n      jumpi\n        /* \"#utility.yul\":1943:1944   */\n      0x00\n        /* \"#utility.yul\":1940:1941   */\n      0x00\n        /* \"#utility.yul\":1933:1945   */\n      revert\n        /* \"#utility.yul\":1884:1947   */\n    tag_107:\n        /* \"#utility.yul\":1831:1953   */\n      pop\n      jump\t// out\n        /* \"#utility.yul\":1959:2098   */\n    tag_68:\n        /* \"#utility.yul\":2005:2010   */\n      0x00\n        /* \"#utility.yul\":2043:2049   */\n      dup2\n        /* \"#utility.yul\":2030:2050   */\n      calldataload\n        /* \"#utility.yul\":2021:2050   */\n      swap1\n      pop\n        /* \"#utility.yul\":2059:2092   */\n      tag_109\n        /* \"#utility.yul\":2086:2091   */\n      dup2\n        /* \"#utility.yul\":2059:2092   */\n      tag_67\n      jump\t// in\n    tag_109:\n        /* \"#utility.yul\":1959:2098   */\n      swap3\n      swap2\n      pop\n      pop\n      jump\t// out\n        /* \"#utility.yul\":2104:2578   */\n    tag_23:\n        /* \"#utility.yul\":2172:2178   */\n      0x00\n        /* \"#utility.yul\":2180:2186   */\n      0x00\n        /* \"#utility.yul\":2229:2231   */\n      0x40\n        /* \"#utility.yul\":2217:2226   */\n      dup4\n        /* \"#utility.yul\":2208:2215   */\n      dup6\n        /* \"#utility.yul\":2204:2227   */\n      sub\n        /* \"#utility.yul\":2200:2232   */\n      slt\n        /* \"#utility.yul\":2197:2316   */\n      iszero\n      tag_111\n      jumpi\n        /* \"#utility.yul\":2235:2314   */\n      tag_112\n      tag_59\n      jump\t// in\n    tag_112:\n        /* \"#utility.yul\":2197:2316   */\n    tag_111:\n        /* \"#utility.yul\":2355:2356   */\n      0x00\n        /* \"#utility.yul\":2380:2433   */\n      tag_113\n        /* \"#utility.yul\":2425:2432   */\n      dup6\n        /* \"#utility.yul\":2416:2422   */\n      dup3\n        /* \"#utility.yul\":2405:2414   */\n      dup7\n        /* \"#utility.yul\":2401:2423   */\n      add\n        /* \"#utility.yul\":2380:2433   */\n      tag_68\n      jump\t// in\n    tag_113:\n        /* \"#utility.yul\":2370:2433   */\n      swap3\n      pop\n        /* \"#utility.yul\":2326:2443   */\n      pop\n        /* \"#utility.yul\":2482:2484   */\n      0x20\n        /* \"#utility.yul\":2508:2561   */\n      tag_114\n        /* \"#utility.yul\":2553:2560   */\n      dup6\n        /* \"#utility.yul\":2544:2550   */\n      dup3\n        /* \"#utility.yul\":2533:2542   */\n      dup7\n        /* \"#utility.yul\":2529:2551   */\n      add\n        /* \"#utility.yul\":2508:2561   */\n      tag_63\n      jump\t// in\n    tag_114:\n        /* \"#utility.yul\":2498:2561   */\n      swap2\n      pop\n        /* \"#utility.yul\":2453:2571   */\n      pop\n        /* \"#utility.yul\":2104:2578   */\n      swap3\n      pop\n      swap3\n      swap1\n      pop\n      jump\t// out\n        /* \"#utility.yul\":2584:2702   */\n    tag_69:\n        /* \"#utility.yul\":2671:2695   */\n      tag_116\n        /* \"#utility.yul\":2689:2694   */\n      dup2\n        /* \"#utility.yul\":2671:2695   */\n      tag_66\n      jump\t// in\n    tag_116:\n        /* \"#utility.yul\":2666:2669   */\n      dup3\n        /* \"#utility.yul\":2659:2696   */\n      mstore\n        /* \"#utility.yul\":2584:2702   */\n      pop\n      pop\n      jump\t// out\n        /* \"#utility.yul\":2708:2798   */\n    tag_70:\n        /* \"#utility.yul\":2742:2749   */\n      0x00\n        /* \"#utility.yul\":2785:2790   */\n      dup2\n        /* \"#utility.yul\":2778:2791   */\n      iszero\n        /* \"#utility.yul\":2771:2792   */\n      iszero\n        /* \"#utility.yul\":2760:2792   */\n      swap1\n      pop\n        /* \"#utility.yul\":2708:2798   */\n      swap2\n      swap1\n      pop\n      jump\t// out\n        /* \"#utility.yul\":2804:2913   */\n    tag_71:\n        /* \"#utility.yul\":2885:2906   */\n      tag_119\n        /* \"#utility.yul\":2900:2905   */\n      dup2\n        /* \"#utility.yul\":2885:2906   */\n      tag_70\n      jump\t// in\n    tag_119:\n        /* \"#utility.yul\":2880:2883   */\n      dup3\n        /* \"#utility.yul\":2873:2907   */\n      mstore\n        /* \"#utility.yul\":2804:2913   */\n      pop\n      pop\n      jump\t// out\n        /* \"#utility.yul\":2919:3571   */\n    tag_26:\n        /* \"#utility.yul\":3118:3122   */\n      0x00\n        /* \"#utility.yul\":3156:3159   */\n      0xa0\n        /* \"#utility.yul\":3145:3154   */\n      dup3\n        /* \"#utility.yul\":3141:3160   */\n      add\n        /* \"#utility.yul\":3133:3160   */\n      swap1\n      pop\n        /* \"#utility.yul\":3170:3241   */\n      tag_121\n        /* \"#utility.yul\":3238:3239   */\n      0x00\n        /* \"#utility.yul\":3227:3236   */\n      dup4\n        /* \"#utility.yul\":3223:3240   */\n      add\n        /* \"#utility.yul\":3214:3220   */\n      dup9\n        /* \"#utility.yul\":3170:3241   */\n      tag_64\n      jump\t// in\n    tag_121:\n        /* \"#utility.yul\":3251:3323   */\n      tag_122\n        /* \"#utility.yul\":3319:3321   */\n      0x20\n        /* \"#utility.yul\":3308:3317   */\n      dup4\n        /* \"#utility.yul\":3304:3322   */\n      add\n        /* \"#utility.yul\":3295:3301   */\n      dup8\n        /* \"#utility.yul\":3251:3323   */\n      tag_69\n      jump\t// in\n    tag_122:\n        /* \"#utility.yul\":3333:3405   */\n      tag_123\n        /* \"#utility.yul\":3401:3403   */\n      0x40\n        /* \"#utility.yul\":3390:3399   */\n      dup4\n        /* \"#utility.yul\":3386:3404   */\n      add\n        /* \"#utility.yul\":3377:3383   */\n      dup7\n        /* \"#utility.yul\":3333:3405   */\n      tag_64\n      jump\t// in\n    tag_123:\n        /* \"#utility.yul\":3415:3487   */\n      tag_124\n        /* \"#utility.yul\":3483:3485   */\n      0x60\n        /* \"#utility.yul\":3472:3481   */\n      dup4\n        /* \"#utility.yul\":3468:3486   */\n      add\n        /* \"#utility.yul\":3459:3465   */\n      dup6\n        /* \"#utility.yul\":3415:3487   */\n      tag_64\n      jump\t// in\n    tag_124:\n        /* \"#utility.yul\":3497:3564   */\n      tag_125\n        /* \"#utility.yul\":3559:3562   */\n      0x80\n        /* \"#utility.yul\":3548:3557   */\n      dup4\n        /* \"#utility.yul\":3544:3563   */\n      add\n        /* \"#utility.yul\":3535:3541   */\n      dup5\n        /* \"#utility.yul\":3497:3564   */\n      tag_71\n      jump\t// in\n    tag_125:\n        /* \"#utility.yul\":2919:3571   */\n      swap7\n      swap6\n      pop\n      pop\n      pop\n      pop\n      pop\n      pop\n      jump\t// out\n        /* \"#utility.yul\":3577:3746   */\n    tag_72:\n        /* \"#utility.yul\":3661:3672   */\n      0x00\n        /* \"#utility.yul\":3695:3701   */\n      dup3\n        /* \"#utility.yul\":3690:3693   */\n      dup3\n        /* \"#utility.yul\":3683:3702   */\n      mstore\n        /* \"#utility.yul\":3735:3739   */\n      0x20\n        /* \"#utility.yul\":3730:3733   */\n      dup3\n        /* \"#utility.yul\":3726:3740   */\n      add\n        /* \"#utility.yul\":3711:3740   */\n      swap1\n      pop\n        /* \"#utility.yul\":3577:3746   */\n      swap3\n      swap2\n      pop\n      pop\n      jump\t// out\n        /* \"#utility.yul\":3752:3928   */\n    tag_73:\n        /* \"#utility.yul\":3892:3920   */\n      0x496e76616c696420736176696e677320706c616e20696e646578000000000000\n        /* \"#utility.yul\":3888:3889   */\n      0x00\n        /* \"#utility.yul\":3880:3886   */\n      dup3\n        /* \"#utility.yul\":3876:3890   */\n      add\n        /* \"#utility.yul\":3869:3921   */\n      mstore\n        /* \"#utility.yul\":3752:3928   */\n      pop\n      jump\t// out\n        /* \"#utility.yul\":3934:4300   */\n    tag_74:\n        /* \"#utility.yul\":4076:4079   */\n      0x00\n        /* \"#utility.yul\":4097:4164   */\n      tag_129\n        /* \"#utility.yul\":4161:4163   */\n      0x1a\n        /* \"#utility.yul\":4156:4159   */\n      dup4\n        /* \"#utility.yul\":4097:4164   */\n      tag_72\n      jump\t// in\n    tag_129:\n        /* \"#utility.yul\":4090:4164   */\n      swap2\n      pop\n        /* \"#utility.yul\":4173:4266   */\n      tag_130\n        /* \"#utility.yul\":4262:4265   */\n      dup3\n        /* \"#utility.yul\":4173:4266   */\n      tag_73\n      jump\t// in\n    tag_130:\n        /* \"#utility.yul\":4291:4293   */\n      0x20\n        /* \"#utility.yul\":4286:4289   */\n      dup3\n        /* \"#utility.yul\":4282:4294   */\n      add\n        /* \"#utility.yul\":4275:4294   */\n      swap1\n      pop\n        /* \"#utility.yul\":3934:4300   */\n      swap2\n      swap1\n      pop\n      jump\t// out\n        /* \"#utility.yul\":4306:4725   */\n    tag_30:\n        /* \"#utility.yul\":4472:4476   */\n      0x00\n        /* \"#utility.yul\":4510:4512   */\n      0x20\n        /* \"#utility.yul\":4499:4508   */\n      dup3\n        /* \"#utility.yul\":4495:4513   */\n      add\n        /* \"#utility.yul\":4487:4513   */\n      swap1\n      pop\n        /* \"#utility.yul\":4559:4568   */\n      dup2\n        /* \"#utility.yul\":4553:4557   */\n      dup2\n        /* \"#utility.yul\":4549:4569   */\n      sub\n        /* \"#utility.yul\":4545:4546   */\n      0x00\n        /* \"#utility.yul\":4534:4543   */\n      dup4\n        /* \"#utility.yul\":4530:4547   */\n      add\n        /* \"#utility.yul\":4523:4570   */\n      mstore\n        /* \"#utility.yul\":4587:4718   */\n      tag_132\n        /* \"#utility.yul\":4713:4717   */\n      dup2\n        /* \"#utility.yul\":4587:4718   */\n      tag_74\n      jump\t// in\n    tag_132:\n        /* \"#utility.yul\":4579:4718   */\n      swap1\n      pop\n        /* \"#utility.yul\":4306:4725   */\n      swap2\n      swap1\n      pop\n      jump\t// out\n        /* \"#utility.yul\":4731:4911   */\n    tag_33:\n        /* \"#utility.yul\":4779:4856   */\n      0x4e487b7100000000000000000000000000000000000000000000000000000000\n        /* \"#utility.yul\":4776:4777   */\n      0x00\n        /* \"#utility.yul\":4769:4857   */\n      mstore\n        /* \"#utility.yul\":4876:4880   */\n      0x32\n        /* \"#utility.yul\":4873:4874   */\n      0x04\n        /* \"#utility.yul\":4866:4881   */\n      mstore\n        /* \"#utility.yul\":4900:4904   */\n      0x24\n        /* \"#utility.yul\":4897:4898   */\n      0x00\n        /* \"#utility.yul\":4890:4905   */\n      revert\n        /* \"#utility.yul\":4917:5097   */\n    tag_75:\n        /* \"#utility.yul\":4965:5042   */\n      0x4e487b7100000000000000000000000000000000000000000000000000000000\n        /* \"#utility.yul\":4962:4963   */\n      0x00\n        /* \"#utility.yul\":4955:5043   */\n      mstore\n        /* \"#utility.yul\":5062:5066   */\n      0x11\n        /* \"#utility.yul\":5059:5060   */\n      0x04\n        /* \"#utility.yul\":5052:5067   */\n      mstore\n        /* \"#utility.yul\":5086:5090   */\n      0x24\n        /* \"#utility.yul\":5083:5084   */\n      0x00\n        /* \"#utility.yul\":5076:5091   */\n      revert\n        /* \"#utility.yul\":5103:5294   */\n    tag_36:\n        /* \"#utility.yul\":5143:5146   */\n      0x00\n        /* \"#utility.yul\":5162:5182   */\n      tag_136\n        /* \"#utility.yul\":5180:5181   */\n      dup3\n        /* \"#utility.yul\":5162:5182   */\n      tag_61\n      jump\t// in\n    tag_136:\n        /* \"#utility.yul\":5157:5182   */\n      swap2\n      pop\n        /* \"#utility.yul\":5196:5216   */\n      tag_137\n        /* \"#utility.yul\":5214:5215   */\n      dup4\n        /* \"#utility.yul\":5196:5216   */\n      tag_61\n      jump\t// in\n    tag_137:\n        /* \"#utility.yul\":5191:5216   */\n      swap3\n      pop\n        /* \"#utility.yul\":5239:5240   */\n      dup3\n        /* \"#utility.yul\":5236:5237   */\n      dup3\n        /* \"#utility.yul\":5232:5241   */\n      add\n        /* \"#utility.yul\":5225:5241   */\n      swap1\n      pop\n        /* \"#utility.yul\":5260:5263   */\n      dup1\n        /* \"#utility.yul\":5257:5258   */\n      dup3\n        /* \"#utility.yul\":5254:5264   */\n      gt\n        /* \"#utility.yul\":5251:5287   */\n      iszero\n      tag_138\n      jumpi\n        /* \"#utility.yul\":5267:5285   */\n      tag_139\n      tag_75\n      jump\t// in\n    tag_139:\n        /* \"#utility.yul\":5251:5287   */\n    tag_138:\n        /* \"#utility.yul\":5103:5294   */\n      swap3\n      swap2\n      pop\n      pop\n      jump\t// out\n        /* \"#utility.yul\":5300:5481   */\n    tag_76:\n        /* \"#utility.yul\":5440:5473   */\n      0x4c6f636b20706572696f6420686173206e6f7420657870697265642079657400\n        /* \"#utility.yul\":5436:5437   */\n      0x00\n        /* \"#utility.yul\":5428:5434   */\n      dup3\n        /* \"#utility.yul\":5424:5438   */\n      add\n        /* \"#utility.yul\":5417:5474   */\n      mstore\n        /* \"#utility.yul\":5300:5481   */\n      pop\n      jump\t// out\n        /* \"#utility.yul\":5487:5853   */\n    tag_77:\n        /* \"#utility.yul\":5629:5632   */\n      0x00\n        /* \"#utility.yul\":5650:5717   */\n      tag_142\n        /* \"#utility.yul\":5714:5716   */\n      0x1f\n        /* \"#utility.yul\":5709:5712   */\n      dup4\n        /* \"#utility.yul\":5650:5717   */\n      tag_72\n      jump\t// in\n    tag_142:\n        /* \"#utility.yul\":5643:5717   */\n      swap2\n      pop\n        /* \"#utility.yul\":5726:5819   */\n      tag_143\n        /* \"#utility.yul\":5815:5818   */\n      dup3\n        /* \"#utility.yul\":5726:5819   */\n      tag_76\n      jump\t// in\n    tag_143:\n        /* \"#utility.yul\":5844:5846   */\n      0x20\n        /* \"#utility.yul\":5839:5842   */\n      dup3\n        /* \"#utility.yul\":5835:5847   */\n      add\n        /* \"#utility.yul\":5828:5847   */\n      swap1\n      pop\n        /* \"#utility.yul\":5487:5853   */\n      swap2\n      swap1\n      pop\n      jump\t// out\n        /* \"#utility.yul\":5859:6278   */\n    tag_39:\n        /* \"#utility.yul\":6025:6029   */\n      0x00\n        /* \"#utility.yul\":6063:6065   */\n      0x20\n        /* \"#utility.yul\":6052:6061   */\n      dup3\n        /* \"#utility.yul\":6048:6066   */\n      add\n        /* \"#utility.yul\":6040:6066   */\n      swap1\n      pop\n        /* \"#utility.yul\":6112:6121   */\n      dup2\n        /* \"#utility.yul\":6106:6110   */\n      dup2\n        /* \"#utility.yul\":6102:6122   */\n      sub\n        /* \"#utility.yul\":6098:6099   */\n      0x00\n        /* \"#utility.yul\":6087:6096   */\n      dup4\n        /* \"#utility.yul\":6083:6100   */\n      add\n        /* \"#utility.yul\":6076:6123   */\n      mstore\n        /* \"#utility.yul\":6140:6271   */\n      tag_145\n        /* \"#utility.yul\":6266:6270   */\n      dup2\n        /* \"#utility.yul\":6140:6271   */\n      tag_77\n      jump\t// in\n    tag_145:\n        /* \"#utility.yul\":6132:6271   */\n      swap1\n      pop\n        /* \"#utility.yul\":5859:6278   */\n      swap2\n      swap1\n      pop\n      jump\t// out\n        /* \"#utility.yul\":6284:6454   */\n    tag_78:\n        /* \"#utility.yul\":6424:6446   */\n      0x4e6f2066756e647320746f207769746864726177000000000000000000000000\n        /* \"#utility.yul\":6420:6421   */\n      0x00\n        /* \"#utility.yul\":6412:6418   */\n      dup3\n        /* \"#utility.yul\":6408:6422   */\n      add\n        /* \"#utility.yul\":6401:6447   */\n      mstore\n        /* \"#utility.yul\":6284:6454   */\n      pop\n      jump\t// out\n        /* \"#utility.yul\":6460:6826   */\n    tag_79:\n        /* \"#utility.yul\":6602:6605   */\n      0x00\n        /* \"#utility.yul\":6623:6690   */\n      tag_148\n        /* \"#utility.yul\":6687:6689   */\n      0x14\n        /* \"#utility.yul\":6682:6685   */\n      dup4\n        /* \"#utility.yul\":6623:6690   */\n      tag_72\n      jump\t// in\n    tag_148:\n        /* \"#utility.yul\":6616:6690   */\n      swap2\n      pop\n        /* \"#utility.yul\":6699:6792   */\n      tag_149\n        /* \"#utility.yul\":6788:6791   */\n      dup3\n        /* \"#utility.yul\":6699:6792   */\n      tag_78\n      jump\t// in\n    tag_149:\n        /* \"#utility.yul\":6817:6819   */\n      0x20\n        /* \"#utility.yul\":6812:6815   */\n      dup3\n        /* \"#utility.yul\":6808:6820   */\n      add\n        /* \"#utility.yul\":6801:6820   */\n      swap1\n      pop\n        /* \"#utility.yul\":6460:6826   */\n      swap2\n      swap1\n      pop\n      jump\t// out\n        /* \"#utility.yul\":6832:7251   */\n    tag_42:\n        /* \"#utility.yul\":6998:7002   */\n      0x00\n        /* \"#utility.yul\":7036:7038   */\n      0x20\n        /* \"#utility.yul\":7025:7034   */\n      dup3\n        /* \"#utility.yul\":7021:7039   */\n      add\n        /* \"#utility.yul\":7013:7039   */\n      swap1\n      pop\n        /* \"#utility.yul\":7085:7094   */\n      dup2\n        /* \"#utility.yul\":7079:7083   */\n      dup2\n        /* \"#utility.yul\":7075:7095   */\n      sub\n        /* \"#utility.yul\":7071:7072   */\n      0x00\n        /* \"#utility.yul\":7060:7069   */\n      dup4\n        /* \"#utility.yul\":7056:7073   */\n      add\n        /* \"#utility.yul\":7049:7096   */\n      mstore\n        /* \"#utility.yul\":7113:7244   */\n      tag_151\n        /* \"#utility.yul\":7239:7243   */\n      dup2\n        /* \"#utility.yul\":7113:7244   */\n      tag_79\n      jump\t// in\n    tag_151:\n        /* \"#utility.yul\":7105:7244   */\n      swap1\n      pop\n        /* \"#utility.yul\":6832:7251   */\n      swap2\n      swap1\n      pop\n      jump\t// out\n        /* \"#utility.yul\":7257:7493   */\n    tag_80:\n        /* \"#utility.yul\":7397:7431   */\n      0x596f75206d7573742073656e6420736f6d6520657468657220746f2063726561\n        /* \"#utility.yul\":7393:7394   */\n      0x00\n        /* \"#utility.yul\":7385:7391   */\n      dup3\n        /* \"#utility.yul\":7381:7395   */\n      add\n        /* \"#utility.yul\":7374:7432   */\n      mstore\n        /* \"#utility.yul\":7466:7485   */\n      0x7465206120736176696e677320706c616e000000000000000000000000000000\n        /* \"#utility.yul\":7461:7463   */\n      0x20\n        /* \"#utility.yul\":7453:7459   */\n      dup3\n        /* \"#utility.yul\":7449:7464   */\n      add\n        /* \"#utility.yul\":7442:7486   */\n      mstore\n        /* \"#utility.yul\":7257:7493   */\n      pop\n      jump\t// out\n        /* \"#utility.yul\":7499:7865   */\n    tag_81:\n        /* \"#utility.yul\":7641:7644   */\n      0x00\n        /* \"#utility.yul\":7662:7729   */\n      tag_154\n        /* \"#utility.yul\":7726:7728   */\n      0x31\n        /* \"#utility.yul\":7721:7724   */\n      dup4\n        /* \"#utility.yul\":7662:7729   */\n      tag_72\n      jump\t// in\n    tag_154:\n        /* \"#utility.yul\":7655:7729   */\n      swap2\n      pop\n        /* \"#utility.yul\":7738:7831   */\n      tag_155\n        /* \"#utility.yul\":7827:7830   */\n      dup3\n        /* \"#utility.yul\":7738:7831   */\n      tag_80\n      jump\t// in\n    tag_155:\n        /* \"#utility.yul\":7856:7858   */\n      0x40\n        /* \"#utility.yul\":7851:7854   */\n      dup3\n        /* \"#utility.yul\":7847:7859   */\n      add\n        /* \"#utility.yul\":7840:7859   */\n      swap1\n      pop\n        /* \"#utility.yul\":7499:7865   */\n      swap2\n      swap1\n      pop\n      jump\t// out\n        /* \"#utility.yul\":7871:8290   */\n    tag_48:\n        /* \"#utility.yul\":8037:8041   */\n      0x00\n        /* \"#utility.yul\":8075:8077   */\n      0x20\n        /* \"#utility.yul\":8064:8073   */\n      dup3\n        /* \"#utility.yul\":8060:8078   */\n      add\n        /* \"#utility.yul\":8052:8078   */\n      swap1\n      pop\n        /* \"#utility.yul\":8124:8133   */\n      dup2\n        /* \"#utility.yul\":8118:8122   */\n      dup2\n        /* \"#utility.yul\":8114:8134   */\n      sub\n        /* \"#utility.yul\":8110:8111   */\n      0x00\n        /* \"#utility.yul\":8099:8108   */\n      dup4\n        /* \"#utility.yul\":8095:8112   */\n      add\n        /* \"#utility.yul\":8088:8135   */\n      mstore\n        /* \"#utility.yul\":8152:8283   */\n      tag_157\n        /* \"#utility.yul\":8278:8282   */\n      dup2\n        /* \"#utility.yul\":8152:8283   */\n      tag_81\n      jump\t// in\n    tag_157:\n        /* \"#utility.yul\":8144:8283   */\n      swap1\n      pop\n        /* \"#utility.yul\":7871:8290   */\n      swap2\n      swap1\n      pop\n      jump\t// out\n\n    auxdata: 0xa264697066735822122092ce68c3fd789b5ff0cf8386fefb88d8a0da74e49676ec8bf374450e54eca0e964736f6c634300081c0033\n}\n",
				"bytecode": {
					"linkReferences": {},
					"object": "6080604052348015600e575f5ffd5b50610a9b8061001c5f395ff3fe60806040526004361061003e575f3560e01c8063155dd5ee1461004257806396239f3b1461006a578063d340063214610086578063f8097856146100c4575b5f5ffd5b34801561004d575f5ffd5b5061006860048036038101906100639190610681565b610104565b005b610084600480360381019061007f9190610681565b6102d2565b005b348015610091575f5ffd5b506100ac60048036038101906100a79190610681565b610440565b6040516100bb939291906106bb565b60405180910390f35b3480156100cf575f5ffd5b506100ea60048036038101906100e5919061074a565b6105d4565b6040516100fb9594939291906107b1565b60405180910390f35b5f5f3373ffffffffffffffffffffffffffffffffffffffff1673ffffffffffffffffffffffffffffffffffffffff1681526020019081526020015f20805490508110610185576040517f08c379a000000000000000000000000000000000000000000000000000000000815260040161017c9061085c565b60405180910390fd5b5f5f5f3373ffffffffffffffffffffffffffffffffffffffff1673ffffffffffffffffffffffffffffffffffffffff1681526020019081526020015f2082815481106101d4576101d361087a565b5b905f5260205f2090600502019050806003015481600201546101f691906108d4565b421015610238576040517f08c379a000000000000000000000000000000000000000000000000000000000815260040161022f90610951565b60405180910390fd5b5f815f015490505f8111610281576040517f08c379a0000000000000000000000000000000000000000000000000000000008152600401610278906109b9565b60405180910390fd5b5f825f01819055503373ffffffffffffffffffffffffffffffffffffffff166108fc8290811502906040515f60405180830381858888f193505050501580156102cc573d5f5f3e3d5ffd5b50505050565b5f3411610314576040517f08c379a000000000000000000000000000000000000000000000000000000000815260040161030b90610a47565b60405180910390fd5b5f6040518060a001604052803481526020013373ffffffffffffffffffffffffffffffffffffffff1681526020014281526020018381526020015f151581525090505f5f3373ffffffffffffffffffffffffffffffffffffffff1673ffffffffffffffffffffffffffffffffffffffff1681526020019081526020015f2081908060018154018082558091505060019003905f5260205f2090600502015f909190919091505f820151815f01556020820151816001015f6101000a81548173ffffffffffffffffffffffffffffffffffffffff021916908373ffffffffffffffffffffffffffffffffffffffff16021790555060408201518160020155606082015181600301556080820151816004015f6101000a81548160ff02191690831515021790555050505050565b5f5f5f5f5f3373ffffffffffffffffffffffffffffffffffffffff1673ffffffffffffffffffffffffffffffffffffffff1681526020019081526020015f208054905084106104c4576040517f08c379a00000000000000000000000000000000000000000000000000000000081526004016104bb9061085c565b60405180910390fd5b5f5f5f3373ffffffffffffffffffffffffffffffffffffffff1673ffffffffffffffffffffffffffffffffffffffff1681526020019081526020015f2085815481106105135761051261087a565b5b905f5260205f2090600502016040518060a00160405290815f8201548152602001600182015f9054906101000a900473ffffffffffffffffffffffffffffffffffffffff1673ffffffffffffffffffffffffffffffffffffffff1673ffffffffffffffffffffffffffffffffffffffff1681526020016002820154815260200160038201548152602001600482015f9054906101000a900460ff1615151515815250509050805f015181604001518260600151935093509350509193909250565b5f602052815f5260405f2081815481106105ec575f80fd5b905f5260205f2090600502015f9150915050805f015490806001015f9054906101000a900473ffffffffffffffffffffffffffffffffffffffff1690806002015490806003015490806004015f9054906101000a900460ff16905085565b5f5ffd5b5f819050919050565b6106608161064e565b811461066a575f5ffd5b50565b5f8135905061067b81610657565b92915050565b5f602082840312156106965761069561064a565b5b5f6106a38482850161066d565b91505092915050565b6106b58161064e565b82525050565b5f6060820190506106ce5f8301866106ac565b6106db60208301856106ac565b6106e860408301846106ac565b949350505050565b5f73ffffffffffffffffffffffffffffffffffffffff82169050919050565b5f610719826106f0565b9050919050565b6107298161070f565b8114610733575f5ffd5b50565b5f8135905061074481610720565b92915050565b5f5f604083850312156107605761075f61064a565b5b5f61076d85828601610736565b925050602061077e8582860161066d565b9150509250929050565b6107918161070f565b82525050565b5f8115159050919050565b6107ab81610797565b82525050565b5f60a0820190506107c45f8301886106ac565b6107d16020830187610788565b6107de60408301866106ac565b6107eb60608301856106ac565b6107f860808301846107a2565b9695505050505050565b5f82825260208201905092915050565b7f496e76616c696420736176696e677320706c616e20696e6465780000000000005f82015250565b5f610846601a83610802565b915061085182610812565b602082019050919050565b5f6020820190508181035f8301526108738161083a565b9050919050565b7f4e487b71000000000000000000000000000000000000000000000000000000005f52603260045260245ffd5b7f4e487b71000000000000000000000000000000000000000000000000000000005f52601160045260245ffd5b5f6108de8261064e565b91506108e98361064e565b9250828201905080821115610901576109006108a7565b5b92915050565b7f4c6f636b20706572696f6420686173206e6f74206578706972656420796574005f82015250565b5f61093b601f83610802565b915061094682610907565b602082019050919050565b5f6020820190508181035f8301526109688161092f565b9050919050565b7f4e6f2066756e647320746f2077697468647261770000000000000000000000005f82015250565b5f6109a3601483610802565b91506109ae8261096f565b602082019050919050565b5f6020820190508181035f8301526109d081610997565b9050919050565b7f596f75206d7573742073656e6420736f6d6520657468657220746f20637265615f8201527f7465206120736176696e677320706c616e000000000000000000000000000000602082015250565b5f610a31603183610802565b9150610a3c826109d7565b604082019050919050565b5f6020820190508181035f830152610a5e81610a25565b905091905056fea264697066735822122092ce68c3fd789b5ff0cf8386fefb88d8a0da74e49676ec8bf374450e54eca0e964736f6c634300081c0033",
					"opcodes": "PUSH1 0x80 PUSH1 0x40 MSTORE CALLVALUE DUP1 ISZERO PUSH1 0xE JUMPI PUSH0 PUSH0 REVERT JUMPDEST POP PUSH2 0xA9B DUP1 PUSH2 0x1C PUSH0 CODECOPY PUSH0 RETURN INVALID PUSH1 0x80 PUSH1 0x40 MSTORE PUSH1 0x4 CALLDATASIZE LT PUSH2 0x3E JUMPI PUSH0 CALLDATALOAD PUSH1 0xE0 SHR DUP1 PUSH4 0x155DD5EE EQ PUSH2 0x42 JUMPI DUP1 PUSH4 0x96239F3B EQ PUSH2 0x6A JUMPI DUP1 PUSH4 0xD3400632 EQ PUSH2 0x86 JUMPI DUP1 PUSH4 0xF8097856 EQ PUSH2 0xC4 JUMPI JUMPDEST PUSH0 PUSH0 REVERT JUMPDEST CALLVALUE DUP1 ISZERO PUSH2 0x4D JUMPI PUSH0 PUSH0 REVERT JUMPDEST POP PUSH2 0x68 PUSH1 0x4 DUP1 CALLDATASIZE SUB DUP2 ADD SWAP1 PUSH2 0x63 SWAP2 SWAP1 PUSH2 0x681 JUMP JUMPDEST PUSH2 0x104 JUMP JUMPDEST STOP JUMPDEST PUSH2 0x84 PUSH1 0x4 DUP1 CALLDATASIZE SUB DUP2 ADD SWAP1 PUSH2 0x7F SWAP2 SWAP1 PUSH2 0x681 JUMP JUMPDEST PUSH2 0x2D2 JUMP JUMPDEST STOP JUMPDEST CALLVALUE DUP1 ISZERO PUSH2 0x91 JUMPI PUSH0 PUSH0 REVERT JUMPDEST POP PUSH2 0xAC PUSH1 0x4 DUP1 CALLDATASIZE SUB DUP2 ADD SWAP1 PUSH2 0xA7 SWAP2 SWAP1 PUSH2 0x681 JUMP JUMPDEST PUSH2 0x440 JUMP JUMPDEST PUSH1 0x40 MLOAD PUSH2 0xBB SWAP4 SWAP3 SWAP2 SWAP1 PUSH2 0x6BB JUMP JUMPDEST PUSH1 0x40 MLOAD DUP1 SWAP2 SUB SWAP1 RETURN JUMPDEST CALLVALUE DUP1 ISZERO PUSH2 0xCF JUMPI PUSH0 PUSH0 REVERT JUMPDEST POP PUSH2 0xEA PUSH1 0x4 DUP1 CALLDATASIZE SUB DUP2 ADD SWAP1 PUSH2 0xE5 SWAP2 SWAP1 PUSH2 0x74A JUMP JUMPDEST PUSH2 0x5D4 JUMP JUMPDEST PUSH1 0x40 MLOAD PUSH2 0xFB SWAP6 SWAP5 SWAP4 SWAP3 SWAP2 SWAP1 PUSH2 0x7B1 JUMP JUMPDEST PUSH1 0x40 MLOAD DUP1 SWAP2 SUB SWAP1 RETURN JUMPDEST PUSH0 PUSH0 CALLER PUSH20 0xFFFFFFFFFFFFFFFFFFFFFFFFFFFFFFFFFFFFFFFF AND PUSH20 0xFFFFFFFFFFFFFFFFFFFFFFFFFFFFFFFFFFFFFFFF AND DUP2 MSTORE PUSH1 0x20 ADD SWAP1 DUP2 MSTORE PUSH1 0x20 ADD PUSH0 KECCAK256 DUP1 SLOAD SWAP1 POP DUP2 LT PUSH2 0x185 JUMPI PUSH1 0x40 MLOAD PUSH32 0x8C379A000000000000000000000000000000000000000000000000000000000 DUP2 MSTORE PUSH1 0x4 ADD PUSH2 0x17C SWAP1 PUSH2 0x85C JUMP JUMPDEST PUSH1 0x40 MLOAD DUP1 SWAP2 SUB SWAP1 REVERT JUMPDEST PUSH0 PUSH0 PUSH0 CALLER PUSH20 0xFFFFFFFFFFFFFFFFFFFFFFFFFFFFFFFFFFFFFFFF AND PUSH20 0xFFFFFFFFFFFFFFFFFFFFFFFFFFFFFFFFFFFFFFFF AND DUP2 MSTORE PUSH1 0x20 ADD SWAP1 DUP2 MSTORE PUSH1 0x20 ADD PUSH0 KECCAK256 DUP3 DUP2 SLOAD DUP2 LT PUSH2 0x1D4 JUMPI PUSH2 0x1D3 PUSH2 0x87A JUMP JUMPDEST JUMPDEST SWAP1 PUSH0 MSTORE PUSH1 0x20 PUSH0 KECCAK256 SWAP1 PUSH1 0x5 MUL ADD SWAP1 POP DUP1 PUSH1 0x3 ADD SLOAD DUP2 PUSH1 0x2 ADD SLOAD PUSH2 0x1F6 SWAP2 SWAP1 PUSH2 0x8D4 JUMP JUMPDEST TIMESTAMP LT ISZERO PUSH2 0x238 JUMPI PUSH1 0x40 MLOAD PUSH32 0x8C379A000000000000000000000000000000000000000000000000000000000 DUP2 MSTORE PUSH1 0x4 ADD PUSH2 0x22F SWAP1 PUSH2 0x951 JUMP JUMPDEST PUSH1 0x40 MLOAD DUP1 SWAP2 SUB SWAP1 REVERT JUMPDEST PUSH0 DUP2 PUSH0 ADD SLOAD SWAP1 POP PUSH0 DUP2 GT PUSH2 0x281 JUMPI PUSH1 0x40 MLOAD PUSH32 0x8C379A000000000000000000000000000000000000000000000000000000000 DUP2 MSTORE PUSH1 0x4 ADD PUSH2 0x278 SWAP1 PUSH2 0x9B9 JUMP JUMPDEST PUSH1 0x40 MLOAD DUP1 SWAP2 SUB SWAP1 REVERT JUMPDEST PUSH0 DUP3 PUSH0 ADD DUP2 SWAP1 SSTORE POP CALLER PUSH20 0xFFFFFFFFFFFFFFFFFFFFFFFFFFFFFFFFFFFFFFFF AND PUSH2 0x8FC DUP3 SWAP1 DUP2 ISZERO MUL SWAP1 PUSH1 0x40 MLOAD PUSH0 PUSH1 0x40 MLOAD DUP1 DUP4 SUB DUP2 DUP6 DUP9 DUP9 CALL SWAP4 POP POP POP POP ISZERO DUP1 ISZERO PUSH2 0x2CC JUMPI RETURNDATASIZE PUSH0 PUSH0 RETURNDATACOPY RETURNDATASIZE PUSH0 REVERT JUMPDEST POP POP POP POP JUMP JUMPDEST PUSH0 CALLVALUE GT PUSH2 0x314 JUMPI PUSH1 0x40 MLOAD PUSH32 0x8C379A000000000000000000000000000000000000000000000000000000000 DUP2 MSTORE PUSH1 0x4 ADD PUSH2 0x30B SWAP1 PUSH2 0xA47 JUMP JUMPDEST PUSH1 0x40 MLOAD DUP1 SWAP2 SUB SWAP1 REVERT JUMPDEST PUSH0 PUSH1 0x40 MLOAD DUP1 PUSH1 0xA0 ADD PUSH1 0x40 MSTORE DUP1 CALLVALUE DUP2 MSTORE PUSH1 0x20 ADD CALLER PUSH20 0xFFFFFFFFFFFFFFFFFFFFFFFFFFFFFFFFFFFFFFFF AND DUP2 MSTORE PUSH1 0x20 ADD TIMESTAMP DUP2 MSTORE PUSH1 0x20 ADD DUP4 DUP2 MSTORE PUSH1 0x20 ADD PUSH0 ISZERO ISZERO DUP2 MSTORE POP SWAP1 POP PUSH0 PUSH0 CALLER PUSH20 0xFFFFFFFFFFFFFFFFFFFFFFFFFFFFFFFFFFFFFFFF AND PUSH20 0xFFFFFFFFFFFFFFFFFFFFFFFFFFFFFFFFFFFFFFFF AND DUP2 MSTORE PUSH1 0x20 ADD SWAP1 DUP2 MSTORE PUSH1 0x20 ADD PUSH0 KECCAK256 DUP2 SWAP1 DUP1 PUSH1 0x1 DUP2 SLOAD ADD DUP1 DUP3 SSTORE DUP1 SWAP2 POP POP PUSH1 0x1 SWAP1 SUB SWAP1 PUSH0 MSTORE PUSH1 0x20 PUSH0 KECCAK256 SWAP1 PUSH1 0x5 MUL ADD PUSH0 SWAP1 SWAP2 SWAP1 SWAP2 SWAP1 SWAP2 POP PUSH0 DUP3 ADD MLOAD DUP2 PUSH0 ADD SSTORE PUSH1 0x20 DUP3 ADD MLOAD DUP2 PUSH1 0x1 ADD PUSH0 PUSH2 0x100 EXP DUP2 SLOAD DUP2 PUSH20 0xFFFFFFFFFFFFFFFFFFFFFFFFFFFFFFFFFFFFFFFF MUL NOT AND SWAP1 DUP4 PUSH20 0xFFFFFFFFFFFFFFFFFFFFFFFFFFFFFFFFFFFFFFFF AND MUL OR SWAP1 SSTORE POP PUSH1 0x40 DUP3 ADD MLOAD DUP2 PUSH1 0x2 ADD SSTORE PUSH1 0x60 DUP3 ADD MLOAD DUP2 PUSH1 0x3 ADD SSTORE PUSH1 0x80 DUP3 ADD MLOAD DUP2 PUSH1 0x4 ADD PUSH0 PUSH2 0x100 EXP DUP2 SLOAD DUP2 PUSH1 0xFF MUL NOT AND SWAP1 DUP4 ISZERO ISZERO MUL OR SWAP1 SSTORE POP POP POP POP POP JUMP JUMPDEST PUSH0 PUSH0 PUSH0 PUSH0 PUSH0 CALLER PUSH20 0xFFFFFFFFFFFFFFFFFFFFFFFFFFFFFFFFFFFFFFFF AND PUSH20 0xFFFFFFFFFFFFFFFFFFFFFFFFFFFFFFFFFFFFFFFF AND DUP2 MSTORE PUSH1 0x20 ADD SWAP1 DUP2 MSTORE PUSH1 0x20 ADD PUSH0 KECCAK256 DUP1 SLOAD SWAP1 POP DUP5 LT PUSH2 0x4C4 JUMPI PUSH1 0x40 MLOAD PUSH32 0x8C379A000000000000000000000000000000000000000000000000000000000 DUP2 MSTORE PUSH1 0x4 ADD PUSH2 0x4BB SWAP1 PUSH2 0x85C JUMP JUMPDEST PUSH1 0x40 MLOAD DUP1 SWAP2 SUB SWAP1 REVERT JUMPDEST PUSH0 PUSH0 PUSH0 CALLER PUSH20 0xFFFFFFFFFFFFFFFFFFFFFFFFFFFFFFFFFFFFFFFF AND PUSH20 0xFFFFFFFFFFFFFFFFFFFFFFFFFFFFFFFFFFFFFFFF AND DUP2 MSTORE PUSH1 0x20 ADD SWAP1 DUP2 MSTORE PUSH1 0x20 ADD PUSH0 KECCAK256 DUP6 DUP2 SLOAD DUP2 LT PUSH2 0x513 JUMPI PUSH2 0x512 PUSH2 0x87A JUMP JUMPDEST JUMPDEST SWAP1 PUSH0 MSTORE PUSH1 0x20 PUSH0 KECCAK256 SWAP1 PUSH1 0x5 MUL ADD PUSH1 0x40 MLOAD DUP1 PUSH1 0xA0 ADD PUSH1 0x40 MSTORE SWAP1 DUP2 PUSH0 DUP3 ADD SLOAD DUP2 MSTORE PUSH1 0x20 ADD PUSH1 0x1 DUP3 ADD PUSH0 SWAP1 SLOAD SWAP1 PUSH2 0x100 EXP SWAP1 DIV PUSH20 0xFFFFFFFFFFFFFFFFFFFFFFFFFFFFFFFFFFFFFFFF AND PUSH20 0xFFFFFFFFFFFFFFFFFFFFFFFFFFFFFFFFFFFFFFFF AND PUSH20 0xFFFFFFFFFFFFFFFFFFFFFFFFFFFFFFFFFFFFFFFF AND DUP2 MSTORE PUSH1 0x20 ADD PUSH1 0x2 DUP3 ADD SLOAD DUP2 MSTORE PUSH1 0x20 ADD PUSH1 0x3 DUP3 ADD SLOAD DUP2 MSTORE PUSH1 0x20 ADD PUSH1 0x4 DUP3 ADD PUSH0 SWAP1 SLOAD SWAP1 PUSH2 0x100 EXP SWAP1 DIV PUSH1 0xFF AND ISZERO ISZERO ISZERO ISZERO DUP2 MSTORE POP POP SWAP1 POP DUP1 PUSH0 ADD MLOAD DUP2 PUSH1 0x40 ADD MLOAD DUP3 PUSH1 0x60 ADD MLOAD SWAP4 POP SWAP4 POP SWAP4 POP POP SWAP2 SWAP4 SWAP1 SWAP3 POP JUMP JUMPDEST PUSH0 PUSH1 0x20 MSTORE DUP2 PUSH0 MSTORE PUSH1 0x40 PUSH0 KECCAK256 DUP2 DUP2 SLOAD DUP2 LT PUSH2 0x5EC JUMPI PUSH0 DUP1 REVERT JUMPDEST SWAP1 PUSH0 MSTORE PUSH1 0x20 PUSH0 KECCAK256 SWAP1 PUSH1 0x5 MUL ADD PUSH0 SWAP2 POP SWAP2 POP POP DUP1 PUSH0 ADD SLOAD SWAP1 DUP1 PUSH1 0x1 ADD PUSH0 SWAP1 SLOAD SWAP1 PUSH2 0x100 EXP SWAP1 DIV PUSH20 0xFFFFFFFFFFFFFFFFFFFFFFFFFFFFFFFFFFFFFFFF AND SWAP1 DUP1 PUSH1 0x2 ADD SLOAD SWAP1 DUP1 PUSH1 0x3 ADD SLOAD SWAP1 DUP1 PUSH1 0x4 ADD PUSH0 SWAP1 SLOAD SWAP1 PUSH2 0x100 EXP SWAP1 DIV PUSH1 0xFF AND SWAP1 POP DUP6 JUMP JUMPDEST PUSH0 PUSH0 REVERT JUMPDEST PUSH0 DUP2 SWAP1 POP SWAP2 SWAP1 POP JUMP JUMPDEST PUSH2 0x660 DUP2 PUSH2 0x64E JUMP JUMPDEST DUP2 EQ PUSH2 0x66A JUMPI PUSH0 PUSH0 REVERT JUMPDEST POP JUMP JUMPDEST PUSH0 DUP2 CALLDATALOAD SWAP1 POP PUSH2 0x67B DUP2 PUSH2 0x657 JUMP JUMPDEST SWAP3 SWAP2 POP POP JUMP JUMPDEST PUSH0 PUSH1 0x20 DUP3 DUP5 SUB SLT ISZERO PUSH2 0x696 JUMPI PUSH2 0x695 PUSH2 0x64A JUMP JUMPDEST JUMPDEST PUSH0 PUSH2 0x6A3 DUP5 DUP3 DUP6 ADD PUSH2 0x66D JUMP JUMPDEST SWAP2 POP POP SWAP3 SWAP2 POP POP JUMP JUMPDEST PUSH2 0x6B5 DUP2 PUSH2 0x64E JUMP JUMPDEST DUP3 MSTORE POP POP JUMP JUMPDEST PUSH0 PUSH1 0x60 DUP3 ADD SWAP1 POP PUSH2 0x6CE PUSH0 DUP4 ADD DUP7 PUSH2 0x6AC JUMP JUMPDEST PUSH2 0x6DB PUSH1 0x20 DUP4 ADD DUP6 PUSH2 0x6AC JUMP JUMPDEST PUSH2 0x6E8 PUSH1 0x40 DUP4 ADD DUP5 PUSH2 0x6AC JUMP JUMPDEST SWAP5 SWAP4 POP POP POP POP JUMP JUMPDEST PUSH0 PUSH20 0xFFFFFFFFFFFFFFFFFFFFFFFFFFFFFFFFFFFFFFFF DUP3 AND SWAP1 POP SWAP2 SWAP1 POP JUMP JUMPDEST PUSH0 PUSH2 0x719 DUP3 PUSH2 0x6F0 JUMP JUMPDEST SWAP1 POP SWAP2 SWAP1 POP JUMP JUMPDEST PUSH2 0x729 DUP2 PUSH2 0x70F JUMP JUMPDEST DUP2 EQ PUSH2 0x733 JUMPI PUSH0 PUSH0 REVERT JUMPDEST POP JUMP JUMPDEST PUSH0 DUP2 CALLDATALOAD SWAP1 POP PUSH2 0x744 DUP2 PUSH2 0x720 JUMP JUMPDEST SWAP3 SWAP2 POP POP JUMP JUMPDEST PUSH0 PUSH0 PUSH1 0x40 DUP4 DUP6 SUB SLT ISZERO PUSH2 0x760 JUMPI PUSH2 0x75F PUSH2 0x64A JUMP JUMPDEST JUMPDEST PUSH0 PUSH2 0x76D DUP6 DUP3 DUP7 ADD PUSH2 0x736 JUMP JUMPDEST SWAP3 POP POP PUSH1 0x20 PUSH2 0x77E DUP6 DUP3 DUP7 ADD PUSH2 0x66D JUMP JUMPDEST SWAP2 POP POP SWAP3 POP SWAP3 SWAP1 POP JUMP JUMPDEST PUSH2 0x791 DUP2 PUSH2 0x70F JUMP JUMPDEST DUP3 MSTORE POP POP JUMP JUMPDEST PUSH0 DUP2 ISZERO ISZERO SWAP1 POP SWAP2 SWAP1 POP JUMP JUMPDEST PUSH2 0x7AB DUP2 PUSH2 0x797 JUMP JUMPDEST DUP3 MSTORE POP POP JUMP JUMPDEST PUSH0 PUSH1 0xA0 DUP3 ADD SWAP1 POP PUSH2 0x7C4 PUSH0 DUP4 ADD DUP9 PUSH2 0x6AC JUMP JUMPDEST PUSH2 0x7D1 PUSH1 0x20 DUP4 ADD DUP8 PUSH2 0x788 JUMP JUMPDEST PUSH2 0x7DE PUSH1 0x40 DUP4 ADD DUP7 PUSH2 0x6AC JUMP JUMPDEST PUSH2 0x7EB PUSH1 0x60 DUP4 ADD DUP6 PUSH2 0x6AC JUMP JUMPDEST PUSH2 0x7F8 PUSH1 0x80 DUP4 ADD DUP5 PUSH2 0x7A2 JUMP JUMPDEST SWAP7 SWAP6 POP POP POP POP POP POP JUMP JUMPDEST PUSH0 DUP3 DUP3 MSTORE PUSH1 0x20 DUP3 ADD SWAP1 POP SWAP3 SWAP2 POP POP JUMP JUMPDEST PUSH32 0x496E76616C696420736176696E677320706C616E20696E646578000000000000 PUSH0 DUP3 ADD MSTORE POP JUMP JUMPDEST PUSH0 PUSH2 0x846 PUSH1 0x1A DUP4 PUSH2 0x802 JUMP JUMPDEST SWAP2 POP PUSH2 0x851 DUP3 PUSH2 0x812 JUMP JUMPDEST PUSH1 0x20 DUP3 ADD SWAP1 POP SWAP2 SWAP1 POP JUMP JUMPDEST PUSH0 PUSH1 0x20 DUP3 ADD SWAP1 POP DUP2 DUP2 SUB PUSH0 DUP4 ADD MSTORE PUSH2 0x873 DUP2 PUSH2 0x83A JUMP JUMPDEST SWAP1 POP SWAP2 SWAP1 POP JUMP JUMPDEST PUSH32 0x4E487B7100000000000000000000000000000000000000000000000000000000 PUSH0 MSTORE PUSH1 0x32 PUSH1 0x4 MSTORE PUSH1 0x24 PUSH0 REVERT JUMPDEST PUSH32 0x4E487B7100000000000000000000000000000000000000000000000000000000 PUSH0 MSTORE PUSH1 0x11 PUSH1 0x4 MSTORE PUSH1 0x24 PUSH0 REVERT JUMPDEST PUSH0 PUSH2 0x8DE DUP3 PUSH2 0x64E JUMP JUMPDEST SWAP2 POP PUSH2 0x8E9 DUP4 PUSH2 0x64E JUMP JUMPDEST SWAP3 POP DUP3 DUP3 ADD SWAP1 POP DUP1 DUP3 GT ISZERO PUSH2 0x901 JUMPI PUSH2 0x900 PUSH2 0x8A7 JUMP JUMPDEST JUMPDEST SWAP3 SWAP2 POP POP JUMP JUMPDEST PUSH32 0x4C6F636B20706572696F6420686173206E6F7420657870697265642079657400 PUSH0 DUP3 ADD MSTORE POP JUMP JUMPDEST PUSH0 PUSH2 0x93B PUSH1 0x1F DUP4 PUSH2 0x802 JUMP JUMPDEST SWAP2 POP PUSH2 0x946 DUP3 PUSH2 0x907 JUMP JUMPDEST PUSH1 0x20 DUP3 ADD SWAP1 POP SWAP2 SWAP1 POP JUMP JUMPDEST PUSH0 PUSH1 0x20 DUP3 ADD SWAP1 POP DUP2 DUP2 SUB PUSH0 DUP4 ADD MSTORE PUSH2 0x968 DUP2 PUSH2 0x92F JUMP JUMPDEST SWAP1 POP SWAP2 SWAP1 POP JUMP JUMPDEST PUSH32 0x4E6F2066756E647320746F207769746864726177000000000000000000000000 PUSH0 DUP3 ADD MSTORE POP JUMP JUMPDEST PUSH0 PUSH2 0x9A3 PUSH1 0x14 DUP4 PUSH2 0x802 JUMP JUMPDEST SWAP2 POP PUSH2 0x9AE DUP3 PUSH2 0x96F JUMP JUMPDEST PUSH1 0x20 DUP3 ADD SWAP1 POP SWAP2 SWAP1 POP JUMP JUMPDEST PUSH0 PUSH1 0x20 DUP3 ADD SWAP1 POP DUP2 DUP2 SUB PUSH0 DUP4 ADD MSTORE PUSH2 0x9D0 DUP2 PUSH2 0x997 JUMP JUMPDEST SWAP1 POP SWAP2 SWAP1 POP JUMP JUMPDEST PUSH32 0x596F75206D7573742073656E6420736F6D6520657468657220746F2063726561 PUSH0 DUP3 ADD MSTORE PUSH32 0x7465206120736176696E677320706C616E000000000000000000000000000000 PUSH1 0x20 DUP3 ADD MSTORE POP JUMP JUMPDEST PUSH0 PUSH2 0xA31 PUSH1 0x31 DUP4 PUSH2 0x802 JUMP JUMPDEST SWAP2 POP PUSH2 0xA3C DUP3 PUSH2 0x9D7 JUMP JUMPDEST PUSH1 0x40 DUP3 ADD SWAP1 POP SWAP2 SWAP1 POP JUMP JUMPDEST PUSH0 PUSH1 0x20 DUP3 ADD SWAP1 POP DUP2 DUP2 SUB PUSH0 DUP4 ADD MSTORE PUSH2 0xA5E DUP2 PUSH2 0xA25 JUMP JUMPDEST SWAP1 POP SWAP2 SWAP1 POP JUMP INVALID LOG2 PUSH5 0x6970667358 0x22 SLT KECCAK256 SWAP3 0xCE PUSH9 0xC3FD789B5FF0CF8386 INVALID 0xFB DUP9 0xD8 LOG0 0xDA PUSH21 0xE49676EC8BF374450E54ECA0E964736F6C63430008 SHR STOP CALLER "
				},
				"gasEstimates": {
					"creation": {
						"codeDepositCost": "543000",
						"executionCost": "573",
						"totalCost": "543573"
					},
					"external": {
						"createSavingsPlan(uint256)": "139872",
						"savingsAccounts(address,uint256)": "infinite",
						"viewSavingsPlan(uint256)": "infinite",
						"withdrawFunds(uint256)": "infinite"
					}
				},
				"methodIdentifiers": {
					"createSavingsPlan(uint256)": "96239f3b",
					"savingsAccounts(address,uint256)": "f8097856",
					"viewSavingsPlan(uint256)": "d3400632",
					"withdrawFunds(uint256)": "155dd5ee"
				}
			},
			"storageLayout": {
				"storage": [
					{
						"astId": 18,
						"contract": "contracts/DeFiSavingsAcc.sol:DefiSavings",
						"label": "savingsAccounts",
						"offset": 0,
						"slot": "0",
						"type": "t_mapping(t_address,t_array(t_struct(SavingsAccount)12_storage)dyn_storage)"
					}
				],
				"types": {
					"t_address": {
						"encoding": "inplace",
						"label": "address",
						"numberOfBytes": "20"
					},
					"t_array(t_struct(SavingsAccount)12_storage)dyn_storage": {
						"base": "t_struct(SavingsAccount)12_storage",
						"encoding": "dynamic_array",
						"label": "struct DefiSavings.SavingsAccount[]",
						"numberOfBytes": "32"
					},
					"t_bool": {
						"encoding": "inplace",
						"label": "bool",
						"numberOfBytes": "1"
					},
					"t_mapping(t_address,t_array(t_struct(SavingsAccount)12_storage)dyn_storage)": {
						"encoding": "mapping",
						"key": "t_address",
						"label": "mapping(address => struct DefiSavings.SavingsAccount[])",
						"numberOfBytes": "32",
						"value": "t_array(t_struct(SavingsAccount)12_storage)dyn_storage"
					},
					"t_struct(SavingsAccount)12_storage": {
						"encoding": "inplace",
						"label": "struct DefiSavings.SavingsAccount",
						"members": [
							{
								"astId": 3,
								"contract": "contracts/DeFiSavingsAcc.sol:DefiSavings",
								"label": "balance",
								"offset": 0,
								"slot": "0",
								"type": "t_uint256"
							},
							{
								"astId": 5,
								"contract": "contracts/DeFiSavingsAcc.sol:DefiSavings",
								"label": "owner",
								"offset": 0,
								"slot": "1",
								"type": "t_address"
							},
							{
								"astId": 7,
								"contract": "contracts/DeFiSavingsAcc.sol:DefiSavings",
								"label": "creationTime",
								"offset": 0,
								"slot": "2",
								"type": "t_uint256"
							},
							{
								"astId": 9,
								"contract": "contracts/DeFiSavingsAcc.sol:DefiSavings",
								"label": "lockPeriod",
								"offset": 0,
								"slot": "3",
								"type": "t_uint256"
							},
							{
								"astId": 11,
								"contract": "contracts/DeFiSavingsAcc.sol:DefiSavings",
								"label": "hasWithdrawn",
								"offset": 0,
								"slot": "4",
								"type": "t_bool"
							}
						],
						"numberOfBytes": "160"
					},
					"t_uint256": {
						"encoding": "inplace",
						"label": "uint256",
						"numberOfBytes": "32"
					}
				}
			},
			"userdoc": {
				"kind": "user",
				"methods": {},
				"version": 1
			}
		}
	}
}