{
	"contracts/AssetFactory.sol": {
		"AssetFactory": {
			"abi": [
				{
					"inputs": [
						{
							"internalType": "address",
							"name": "_owner",
							"type": "address"
						}
					],
					"name": "callTransfer",
					"outputs": [],
					"stateMutability": "payable",
					"type": "function"
				},
				{
					"inputs": [
						{
							"internalType": "uint256",
							"name": "",
							"type": "uint256"
						}
					],
					"name": "newAsset",
					"outputs": [
						{
							"internalType": "contract Asset",
							"name": "",
							"type": "address"
						}
					],
					"stateMutability": "view",
					"type": "function"
				},
				{
					"inputs": [
						{
							"internalType": "string",
							"name": "_symbol",
							"type": "string"
						},
						{
							"internalType": "string",
							"name": "_name",
							"type": "string"
						},
						{
							"internalType": "uint256",
							"name": "_initialSupply",
							"type": "uint256"
						}
					],
					"name": "newAssetFactory",
					"outputs": [],
					"stateMutability": "nonpayable",
					"type": "function"
				},
				{
					"inputs": [
						{
							"internalType": "string",
							"name": "",
							"type": "string"
						}
					],
					"name": "storeAsset",
					"outputs": [
						{
							"internalType": "address",
							"name": "",
							"type": "address"
						}
					],
					"stateMutability": "view",
					"type": "function"
				}
			],
			"devdoc": {
				"kind": "dev",
				"methods": {},
				"version": 1
			},
			"evm": {
				"assembly": "    /* \"contracts/AssetFactory.sol\":651:1169  contract AssetFactory{... */\n  mstore(0x40, 0x80)\n  callvalue\n  dup1\n  iszero\n  tag_1\n  jumpi\n  revert(0x00, 0x00)\ntag_1:\n  pop\n  dataSize(sub_0)\n  dup1\n  dataOffset(sub_0)\n  0x00\n  codecopy\n  0x00\n  return\nstop\n\nsub_0: assembly {\n        /* \"contracts/AssetFactory.sol\":651:1169  contract AssetFactory{... */\n      mstore(0x40, 0x80)\n      jumpi(tag_1, lt(calldatasize, 0x04))\n      shr(0xe0, calldataload(0x00))\n      dup1\n      0x030020d2\n      eq\n      tag_2\n      jumpi\n      dup1\n      0x631cd1a6\n      eq\n      tag_3\n      jumpi\n      dup1\n      0x6acfb485\n      eq\n      tag_4\n      jumpi\n      dup1\n      0xeec990f2\n      eq\n      tag_5\n      jumpi\n    tag_1:\n      revert(0x00, 0x00)\n        /* \"contracts/AssetFactory.sol\":766:1016  function newAssetFactory(string memory _symbol, string memory _name ,uint256 _initialSupply) public {... */\n    tag_2:\n      callvalue\n      dup1\n      iszero\n      tag_6\n      jumpi\n      revert(0x00, 0x00)\n    tag_6:\n      pop\n      tag_7\n      0x04\n      dup1\n      calldatasize\n      sub\n      dup2\n      add\n      swap1\n      tag_8\n      swap2\n      swap1\n      tag_9\n      jump\t// in\n    tag_8:\n      tag_10\n      jump\t// in\n    tag_7:\n      stop\n        /* \"contracts/AssetFactory.sol\":713:757  mapping(string => address) public storeAsset */\n    tag_3:\n      callvalue\n      dup1\n      iszero\n      tag_11\n      jumpi\n      revert(0x00, 0x00)\n    tag_11:\n      pop\n      tag_12\n      0x04\n      dup1\n      calldatasize\n      sub\n      dup2\n      add\n      swap1\n      tag_13\n      swap2\n      swap1\n      tag_14\n      jump\t// in\n    tag_13:\n      tag_15\n      jump\t// in\n    tag_12:\n      mload(0x40)\n      tag_16\n      swap2\n      swap1\n      tag_17\n      jump\t// in\n    tag_16:\n      mload(0x40)\n      dup1\n      swap2\n      sub\n      swap1\n      return\n        /* \"contracts/AssetFactory.sol\":681:704  Asset[] public newAsset */\n    tag_4:\n      callvalue\n      dup1\n      iszero\n      tag_18\n      jumpi\n      revert(0x00, 0x00)\n    tag_18:\n      pop\n      tag_19\n      0x04\n      dup1\n      calldatasize\n      sub\n      dup2\n      add\n      swap1\n      tag_20\n      swap2\n      swap1\n      tag_21\n      jump\t// in\n    tag_20:\n      tag_22\n      jump\t// in\n    tag_19:\n      mload(0x40)\n      tag_23\n      swap2\n      swap1\n      tag_24\n      jump\t// in\n    tag_23:\n      mload(0x40)\n      dup1\n      swap2\n      sub\n      swap1\n      return\n        /* \"contracts/AssetFactory.sol\":1024:1162  function callTransfer(address _owner) public payable {... */\n    tag_5:\n      tag_25\n      0x04\n      dup1\n      calldatasize\n      sub\n      dup2\n      add\n      swap1\n      tag_26\n      swap2\n      swap1\n      tag_27\n      jump\t// in\n    tag_26:\n      tag_28\n      jump\t// in\n    tag_25:\n      stop\n        /* \"contracts/AssetFactory.sol\":766:1016  function newAssetFactory(string memory _symbol, string memory _name ,uint256 _initialSupply) public {... */\n    tag_10:\n        /* \"contracts/AssetFactory.sol\":879:890  Asset asset */\n      0x00\n        /* \"contracts/AssetFactory.sol\":903:910  _symbol */\n      dup4\n        /* \"contracts/AssetFactory.sol\":912:917  _name */\n      dup4\n        /* \"contracts/AssetFactory.sol\":919:933  _initialSupply */\n      dup4\n        /* \"contracts/AssetFactory.sol\":893:934  new Asset(_symbol, _name, _initialSupply) */\n      mload(0x40)\n      tag_30\n      swap1\n      tag_31\n      jump\t// in\n    tag_30:\n      tag_32\n      swap4\n      swap3\n      swap2\n      swap1\n      tag_33\n      jump\t// in\n    tag_32:\n      mload(0x40)\n      dup1\n      swap2\n      sub\n      swap1\n      0x00\n      create\n      dup1\n      iszero\n      dup1\n      iszero\n      tag_34\n      jumpi\n      returndatacopy(0x00, 0x00, returndatasize)\n      revert(0x00, returndatasize)\n    tag_34:\n      pop\n        /* \"contracts/AssetFactory.sol\":879:934  Asset asset = new Asset(_symbol, _name, _initialSupply) */\n      swap1\n      pop\n        /* \"contracts/AssetFactory.sol\":945:953  newAsset */\n      0x00\n        /* \"contracts/AssetFactory.sol\":959:964  asset */\n      dup2\n        /* \"contracts/AssetFactory.sol\":945:965  newAsset.push(asset) */\n      swap1\n      dup1\n      0x01\n      dup2\n      sload\n      add\n      dup1\n      dup3\n      sstore\n      dup1\n      swap2\n      pop\n      pop\n      0x01\n      swap1\n      sub\n      swap1\n      0x00\n      mstore\n      keccak256(0x00, 0x20)\n      add\n      0x00\n      swap1\n      swap2\n      swap1\n      swap2\n      swap1\n      swap2\n      0x0100\n      exp\n      dup2\n      sload\n      dup2\n      0xffffffffffffffffffffffffffffffffffffffff\n      mul\n      not\n      and\n      swap1\n      dup4\n      0xffffffffffffffffffffffffffffffffffffffff\n      and\n      mul\n      or\n      swap1\n      sstore\n      pop\n        /* \"contracts/AssetFactory.sol\":996:1006  msg.sender */\n      caller\n        /* \"contracts/AssetFactory.sol\":976:986  storeAsset */\n      0x01\n        /* \"contracts/AssetFactory.sol\":987:992  _name */\n      dup5\n        /* \"contracts/AssetFactory.sol\":976:993  storeAsset[_name] */\n      mload(0x40)\n      tag_36\n      swap2\n      swap1\n      tag_37\n      jump\t// in\n    tag_36:\n      swap1\n      dup2\n      mstore\n      0x20\n      add\n      mload(0x40)\n      dup1\n      swap2\n      sub\n      swap1\n      keccak256\n      0x00\n        /* \"contracts/AssetFactory.sol\":976:1006  storeAsset[_name] = msg.sender */\n      0x0100\n      exp\n      dup2\n      sload\n      dup2\n      0xffffffffffffffffffffffffffffffffffffffff\n      mul\n      not\n      and\n      swap1\n      dup4\n      0xffffffffffffffffffffffffffffffffffffffff\n      and\n      mul\n      or\n      swap1\n      sstore\n      pop\n        /* \"contracts/AssetFactory.sol\":866:1016  {... */\n      pop\n        /* \"contracts/AssetFactory.sol\":766:1016  function newAssetFactory(string memory _symbol, string memory _name ,uint256 _initialSupply) public {... */\n      pop\n      pop\n      pop\n      jump\t// out\n        /* \"contracts/AssetFactory.sol\":713:757  mapping(string => address) public storeAsset */\n    tag_15:\n      0x01\n      dup2\n      dup1\n      mload\n      0x20\n      dup2\n      add\n      dup3\n      add\n      dup1\n      mload\n      dup5\n      dup3\n      mstore\n      0x20\n      dup4\n      add\n      0x20\n      dup6\n      add\n      keccak256\n      dup2\n      dup4\n      mstore\n      dup1\n      swap6\n      pop\n      pop\n      pop\n      pop\n      pop\n      pop\n      0x00\n      swap2\n      pop\n      sload\n      swap1\n      0x0100\n      exp\n      swap1\n      div\n      0xffffffffffffffffffffffffffffffffffffffff\n      and\n      dup2\n      jump\t// out\n        /* \"contracts/AssetFactory.sol\":681:704  Asset[] public newAsset */\n    tag_22:\n      0x00\n      dup2\n      dup2\n      sload\n      dup2\n      lt\n      tag_38\n      jumpi\n      0x00\n      dup1\n      revert\n    tag_38:\n      swap1\n      0x00\n      mstore\n      keccak256(0x00, 0x20)\n      add\n      0x00\n      swap2\n      pop\n      sload\n      swap1\n      0x0100\n      exp\n      swap1\n      div\n      0xffffffffffffffffffffffffffffffffffffffff\n      and\n      dup2\n      jump\t// out\n        /* \"contracts/AssetFactory.sol\":1024:1162  function callTransfer(address _owner) public payable {... */\n    tag_28:\n        /* \"contracts/AssetFactory.sol\":1106:1112  _owner */\n      dup1\n        /* \"contracts/AssetFactory.sol\":1088:1126  IExternalContract(_owner).transferFunc */\n      0xffffffffffffffffffffffffffffffffffffffff\n      and\n      0x37544dd8\n        /* \"contracts/AssetFactory.sol\":1134:1143  msg.value */\n      callvalue\n        /* \"contracts/AssetFactory.sol\":1088:1146  IExternalContract(_owner).transferFunc{value: msg.value}() */\n      mload(0x40)\n      dup3\n      0xffffffff\n      and\n      0xe0\n      shl\n      dup2\n      mstore\n      0x04\n      add\n      0x00\n      mload(0x40)\n      dup1\n      dup4\n      sub\n      dup2\n      dup6\n      dup9\n      dup1\n      extcodesize\n      iszero\n      dup1\n      iszero\n      tag_41\n      jumpi\n      revert(0x00, 0x00)\n    tag_41:\n      pop\n      gas\n      call\n      iszero\n      dup1\n      iszero\n      tag_43\n      jumpi\n      returndatacopy(0x00, 0x00, returndatasize)\n      revert(0x00, returndatasize)\n    tag_43:\n      pop\n      pop\n      pop\n      pop\n      pop\n        /* \"contracts/AssetFactory.sol\":1024:1162  function callTransfer(address _owner) public payable {... */\n      pop\n      jump\t// out\n    tag_31:\n      dataSize(sub_0)\n      dup1\n      dataOffset(sub_0)\n      dup4\n      codecopy\n      add\n      swap1\n      jump\t// out\n        /* \"#utility.yul\":7:82   */\n    tag_44:\n        /* \"#utility.yul\":40:46   */\n      0x00\n        /* \"#utility.yul\":73:75   */\n      0x40\n        /* \"#utility.yul\":67:76   */\n      mload\n        /* \"#utility.yul\":57:76   */\n      swap1\n      pop\n        /* \"#utility.yul\":7:82   */\n      swap1\n      jump\t// out\n        /* \"#utility.yul\":88:205   */\n    tag_45:\n        /* \"#utility.yul\":197:198   */\n      0x00\n        /* \"#utility.yul\":194:195   */\n      0x00\n        /* \"#utility.yul\":187:199   */\n      revert\n        /* \"#utility.yul\":211:328   */\n    tag_46:\n        /* \"#utility.yul\":320:321   */\n      0x00\n        /* \"#utility.yul\":317:318   */\n      0x00\n        /* \"#utility.yul\":310:322   */\n      revert\n        /* \"#utility.yul\":334:451   */\n    tag_47:\n        /* \"#utility.yul\":443:444   */\n      0x00\n        /* \"#utility.yul\":440:441   */\n      0x00\n        /* \"#utility.yul\":433:445   */\n      revert\n        /* \"#utility.yul\":457:574   */\n    tag_48:\n        /* \"#utility.yul\":566:567   */\n      0x00\n        /* \"#utility.yul\":563:564   */\n      0x00\n        /* \"#utility.yul\":556:568   */\n      revert\n        /* \"#utility.yul\":580:682   */\n    tag_49:\n        /* \"#utility.yul\":621:627   */\n      0x00\n        /* \"#utility.yul\":672:674   */\n      0x1f\n        /* \"#utility.yul\":668:675   */\n      not\n        /* \"#utility.yul\":663:665   */\n      0x1f\n        /* \"#utility.yul\":656:661   */\n      dup4\n        /* \"#utility.yul\":652:666   */\n      add\n        /* \"#utility.yul\":648:676   */\n      and\n        /* \"#utility.yul\":638:676   */\n      swap1\n      pop\n        /* \"#utility.yul\":580:682   */\n      swap2\n      swap1\n      pop\n      jump\t// out\n        /* \"#utility.yul\":688:868   */\n    tag_50:\n        /* \"#utility.yul\":736:813   */\n      0x4e487b7100000000000000000000000000000000000000000000000000000000\n        /* \"#utility.yul\":733:734   */\n      0x00\n        /* \"#utility.yul\":726:814   */\n      mstore\n        /* \"#utility.yul\":833:837   */\n      0x41\n        /* \"#utility.yul\":830:831   */\n      0x04\n        /* \"#utility.yul\":823:838   */\n      mstore\n        /* \"#utility.yul\":857:861   */\n      0x24\n        /* \"#utility.yul\":854:855   */\n      0x00\n        /* \"#utility.yul\":847:862   */\n      revert\n        /* \"#utility.yul\":874:1155   */\n    tag_51:\n        /* \"#utility.yul\":957:984   */\n      tag_86\n        /* \"#utility.yul\":979:983   */\n      dup3\n        /* \"#utility.yul\":957:984   */\n      tag_49\n      jump\t// in\n    tag_86:\n        /* \"#utility.yul\":949:955   */\n      dup2\n        /* \"#utility.yul\":945:985   */\n      add\n        /* \"#utility.yul\":1087:1093   */\n      dup2\n        /* \"#utility.yul\":1075:1085   */\n      dup2\n        /* \"#utility.yul\":1072:1094   */\n      lt\n        /* \"#utility.yul\":1051:1069   */\n      0xffffffffffffffff\n        /* \"#utility.yul\":1039:1049   */\n      dup3\n        /* \"#utility.yul\":1036:1070   */\n      gt\n        /* \"#utility.yul\":1033:1095   */\n      or\n        /* \"#utility.yul\":1030:1118   */\n      iszero\n      tag_87\n      jumpi\n        /* \"#utility.yul\":1098:1116   */\n      tag_88\n      tag_50\n      jump\t// in\n    tag_88:\n        /* \"#utility.yul\":1030:1118   */\n    tag_87:\n        /* \"#utility.yul\":1138:1148   */\n      dup1\n        /* \"#utility.yul\":1134:1136   */\n      0x40\n        /* \"#utility.yul\":1127:1149   */\n      mstore\n        /* \"#utility.yul\":917:1155   */\n      pop\n        /* \"#utility.yul\":874:1155   */\n      pop\n      pop\n      jump\t// out\n        /* \"#utility.yul\":1161:1290   */\n    tag_52:\n        /* \"#utility.yul\":1195:1201   */\n      0x00\n        /* \"#utility.yul\":1222:1242   */\n      tag_90\n      tag_44\n      jump\t// in\n    tag_90:\n        /* \"#utility.yul\":1212:1242   */\n      swap1\n      pop\n        /* \"#utility.yul\":1251:1284   */\n      tag_91\n        /* \"#utility.yul\":1279:1283   */\n      dup3\n        /* \"#utility.yul\":1271:1277   */\n      dup3\n        /* \"#utility.yul\":1251:1284   */\n      tag_51\n      jump\t// in\n    tag_91:\n        /* \"#utility.yul\":1161:1290   */\n      swap2\n      swap1\n      pop\n      jump\t// out\n        /* \"#utility.yul\":1296:1604   */\n    tag_53:\n        /* \"#utility.yul\":1358:1362   */\n      0x00\n        /* \"#utility.yul\":1448:1466   */\n      0xffffffffffffffff\n        /* \"#utility.yul\":1440:1446   */\n      dup3\n        /* \"#utility.yul\":1437:1467   */\n      gt\n        /* \"#utility.yul\":1434:1490   */\n      iszero\n      tag_93\n      jumpi\n        /* \"#utility.yul\":1470:1488   */\n      tag_94\n      tag_50\n      jump\t// in\n    tag_94:\n        /* \"#utility.yul\":1434:1490   */\n    tag_93:\n        /* \"#utility.yul\":1508:1537   */\n      tag_95\n        /* \"#utility.yul\":1530:1536   */\n      dup3\n        /* \"#utility.yul\":1508:1537   */\n      tag_49\n      jump\t// in\n    tag_95:\n        /* \"#utility.yul\":1500:1537   */\n      swap1\n      pop\n        /* \"#utility.yul\":1592:1596   */\n      0x20\n        /* \"#utility.yul\":1586:1590   */\n      dup2\n        /* \"#utility.yul\":1582:1597   */\n      add\n        /* \"#utility.yul\":1574:1597   */\n      swap1\n      pop\n        /* \"#utility.yul\":1296:1604   */\n      swap2\n      swap1\n      pop\n      jump\t// out\n        /* \"#utility.yul\":1610:1758   */\n    tag_54:\n        /* \"#utility.yul\":1708:1714   */\n      dup3\n        /* \"#utility.yul\":1703:1706   */\n      dup2\n        /* \"#utility.yul\":1698:1701   */\n      dup4\n        /* \"#utility.yul\":1685:1715   */\n      calldatacopy\n        /* \"#utility.yul\":1749:1750   */\n      0x00\n        /* \"#utility.yul\":1740:1746   */\n      dup4\n        /* \"#utility.yul\":1735:1738   */\n      dup4\n        /* \"#utility.yul\":1731:1747   */\n      add\n        /* \"#utility.yul\":1724:1751   */\n      mstore\n        /* \"#utility.yul\":1610:1758   */\n      pop\n      pop\n      pop\n      jump\t// out\n        /* \"#utility.yul\":1764:2189   */\n    tag_55:\n        /* \"#utility.yul\":1842:1847   */\n      0x00\n        /* \"#utility.yul\":1867:1933   */\n      tag_98\n        /* \"#utility.yul\":1883:1932   */\n      tag_99\n        /* \"#utility.yul\":1925:1931   */\n      dup5\n        /* \"#utility.yul\":1883:1932   */\n      tag_53\n      jump\t// in\n    tag_99:\n        /* \"#utility.yul\":1867:1933   */\n      tag_52\n      jump\t// in\n    tag_98:\n        /* \"#utility.yul\":1858:1933   */\n      swap1\n      pop\n        /* \"#utility.yul\":1956:1962   */\n      dup3\n        /* \"#utility.yul\":1949:1954   */\n      dup2\n        /* \"#utility.yul\":1942:1963   */\n      mstore\n        /* \"#utility.yul\":1994:1998   */\n      0x20\n        /* \"#utility.yul\":1987:1992   */\n      dup2\n        /* \"#utility.yul\":1983:1999   */\n      add\n        /* \"#utility.yul\":2032:2035   */\n      dup5\n        /* \"#utility.yul\":2023:2029   */\n      dup5\n        /* \"#utility.yul\":2018:2021   */\n      dup5\n        /* \"#utility.yul\":2014:2030   */\n      add\n        /* \"#utility.yul\":2011:2036   */\n      gt\n        /* \"#utility.yul\":2008:2120   */\n      iszero\n      tag_100\n      jumpi\n        /* \"#utility.yul\":2039:2118   */\n      tag_101\n      tag_48\n      jump\t// in\n    tag_101:\n        /* \"#utility.yul\":2008:2120   */\n    tag_100:\n        /* \"#utility.yul\":2129:2183   */\n      tag_102\n        /* \"#utility.yul\":2176:2182   */\n      dup5\n        /* \"#utility.yul\":2171:2174   */\n      dup3\n        /* \"#utility.yul\":2166:2169   */\n      dup6\n        /* \"#utility.yul\":2129:2183   */\n      tag_54\n      jump\t// in\n    tag_102:\n        /* \"#utility.yul\":1848:2189   */\n      pop\n        /* \"#utility.yul\":1764:2189   */\n      swap4\n      swap3\n      pop\n      pop\n      pop\n      jump\t// out\n        /* \"#utility.yul\":2209:2549   */\n    tag_56:\n        /* \"#utility.yul\":2265:2270   */\n      0x00\n        /* \"#utility.yul\":2314:2317   */\n      dup3\n        /* \"#utility.yul\":2307:2311   */\n      0x1f\n        /* \"#utility.yul\":2299:2305   */\n      dup4\n        /* \"#utility.yul\":2295:2312   */\n      add\n        /* \"#utility.yul\":2291:2318   */\n      slt\n        /* \"#utility.yul\":2281:2403   */\n      tag_104\n      jumpi\n        /* \"#utility.yul\":2322:2401   */\n      tag_105\n      tag_47\n      jump\t// in\n    tag_105:\n        /* \"#utility.yul\":2281:2403   */\n    tag_104:\n        /* \"#utility.yul\":2439:2445   */\n      dup2\n        /* \"#utility.yul\":2426:2446   */\n      calldataload\n        /* \"#utility.yul\":2464:2543   */\n      tag_106\n        /* \"#utility.yul\":2539:2542   */\n      dup5\n        /* \"#utility.yul\":2531:2537   */\n      dup3\n        /* \"#utility.yul\":2524:2528   */\n      0x20\n        /* \"#utility.yul\":2516:2522   */\n      dup7\n        /* \"#utility.yul\":2512:2529   */\n      add\n        /* \"#utility.yul\":2464:2543   */\n      tag_55\n      jump\t// in\n    tag_106:\n        /* \"#utility.yul\":2455:2543   */\n      swap2\n      pop\n        /* \"#utility.yul\":2271:2549   */\n      pop\n        /* \"#utility.yul\":2209:2549   */\n      swap3\n      swap2\n      pop\n      pop\n      jump\t// out\n        /* \"#utility.yul\":2555:2632   */\n    tag_57:\n        /* \"#utility.yul\":2592:2599   */\n      0x00\n        /* \"#utility.yul\":2621:2626   */\n      dup2\n        /* \"#utility.yul\":2610:2626   */\n      swap1\n      pop\n        /* \"#utility.yul\":2555:2632   */\n      swap2\n      swap1\n      pop\n      jump\t// out\n        /* \"#utility.yul\":2638:2760   */\n    tag_58:\n        /* \"#utility.yul\":2711:2735   */\n      tag_109\n        /* \"#utility.yul\":2729:2734   */\n      dup2\n        /* \"#utility.yul\":2711:2735   */\n      tag_57\n      jump\t// in\n    tag_109:\n        /* \"#utility.yul\":2704:2709   */\n      dup2\n        /* \"#utility.yul\":2701:2736   */\n      eq\n        /* \"#utility.yul\":2691:2754   */\n      tag_110\n      jumpi\n        /* \"#utility.yul\":2750:2751   */\n      0x00\n        /* \"#utility.yul\":2747:2748   */\n      0x00\n        /* \"#utility.yul\":2740:2752   */\n      revert\n        /* \"#utility.yul\":2691:2754   */\n    tag_110:\n        /* \"#utility.yul\":2638:2760   */\n      pop\n      jump\t// out\n        /* \"#utility.yul\":2766:2905   */\n    tag_59:\n        /* \"#utility.yul\":2812:2817   */\n      0x00\n        /* \"#utility.yul\":2850:2856   */\n      dup2\n        /* \"#utility.yul\":2837:2857   */\n      calldataload\n        /* \"#utility.yul\":2828:2857   */\n      swap1\n      pop\n        /* \"#utility.yul\":2866:2899   */\n      tag_112\n        /* \"#utility.yul\":2893:2898   */\n      dup2\n        /* \"#utility.yul\":2866:2899   */\n      tag_58\n      jump\t// in\n    tag_112:\n        /* \"#utility.yul\":2766:2905   */\n      swap3\n      swap2\n      pop\n      pop\n      jump\t// out\n        /* \"#utility.yul\":2911:3890   */\n    tag_9:\n        /* \"#utility.yul\":3008:3014   */\n      0x00\n        /* \"#utility.yul\":3016:3022   */\n      0x00\n        /* \"#utility.yul\":3024:3030   */\n      0x00\n        /* \"#utility.yul\":3073:3075   */\n      0x60\n        /* \"#utility.yul\":3061:3070   */\n      dup5\n        /* \"#utility.yul\":3052:3059   */\n      dup7\n        /* \"#utility.yul\":3048:3071   */\n      sub\n        /* \"#utility.yul\":3044:3076   */\n      slt\n        /* \"#utility.yul\":3041:3160   */\n      iszero\n      tag_114\n      jumpi\n        /* \"#utility.yul\":3079:3158   */\n      tag_115\n      tag_45\n      jump\t// in\n    tag_115:\n        /* \"#utility.yul\":3041:3160   */\n    tag_114:\n        /* \"#utility.yul\":3227:3228   */\n      0x00\n        /* \"#utility.yul\":3216:3225   */\n      dup5\n        /* \"#utility.yul\":3212:3229   */\n      add\n        /* \"#utility.yul\":3199:3230   */\n      calldataload\n        /* \"#utility.yul\":3257:3275   */\n      0xffffffffffffffff\n        /* \"#utility.yul\":3249:3255   */\n      dup2\n        /* \"#utility.yul\":3246:3276   */\n      gt\n        /* \"#utility.yul\":3243:3360   */\n      iszero\n      tag_116\n      jumpi\n        /* \"#utility.yul\":3279:3358   */\n      tag_117\n      tag_46\n      jump\t// in\n    tag_117:\n        /* \"#utility.yul\":3243:3360   */\n    tag_116:\n        /* \"#utility.yul\":3384:3447   */\n      tag_118\n        /* \"#utility.yul\":3439:3446   */\n      dup7\n        /* \"#utility.yul\":3430:3436   */\n      dup3\n        /* \"#utility.yul\":3419:3428   */\n      dup8\n        /* \"#utility.yul\":3415:3437   */\n      add\n        /* \"#utility.yul\":3384:3447   */\n      tag_56\n      jump\t// in\n    tag_118:\n        /* \"#utility.yul\":3374:3447   */\n      swap4\n      pop\n        /* \"#utility.yul\":3170:3457   */\n      pop\n        /* \"#utility.yul\":3524:3526   */\n      0x20\n        /* \"#utility.yul\":3513:3522   */\n      dup5\n        /* \"#utility.yul\":3509:3527   */\n      add\n        /* \"#utility.yul\":3496:3528   */\n      calldataload\n        /* \"#utility.yul\":3555:3573   */\n      0xffffffffffffffff\n        /* \"#utility.yul\":3547:3553   */\n      dup2\n        /* \"#utility.yul\":3544:3574   */\n      gt\n        /* \"#utility.yul\":3541:3658   */\n      iszero\n      tag_119\n      jumpi\n        /* \"#utility.yul\":3577:3656   */\n      tag_120\n      tag_46\n      jump\t// in\n    tag_120:\n        /* \"#utility.yul\":3541:3658   */\n    tag_119:\n        /* \"#utility.yul\":3682:3745   */\n      tag_121\n        /* \"#utility.yul\":3737:3744   */\n      dup7\n        /* \"#utility.yul\":3728:3734   */\n      dup3\n        /* \"#utility.yul\":3717:3726   */\n      dup8\n        /* \"#utility.yul\":3713:3735   */\n      add\n        /* \"#utility.yul\":3682:3745   */\n      tag_56\n      jump\t// in\n    tag_121:\n        /* \"#utility.yul\":3672:3745   */\n      swap3\n      pop\n        /* \"#utility.yul\":3467:3755   */\n      pop\n        /* \"#utility.yul\":3794:3796   */\n      0x40\n        /* \"#utility.yul\":3820:3873   */\n      tag_122\n        /* \"#utility.yul\":3865:3872   */\n      dup7\n        /* \"#utility.yul\":3856:3862   */\n      dup3\n        /* \"#utility.yul\":3845:3854   */\n      dup8\n        /* \"#utility.yul\":3841:3863   */\n      add\n        /* \"#utility.yul\":3820:3873   */\n      tag_59\n      jump\t// in\n    tag_122:\n        /* \"#utility.yul\":3810:3873   */\n      swap2\n      pop\n        /* \"#utility.yul\":3765:3883   */\n      pop\n        /* \"#utility.yul\":2911:3890   */\n      swap3\n      pop\n      swap3\n      pop\n      swap3\n      jump\t// out\n        /* \"#utility.yul\":3896:4405   */\n    tag_14:\n        /* \"#utility.yul\":3965:3971   */\n      0x00\n        /* \"#utility.yul\":4014:4016   */\n      0x20\n        /* \"#utility.yul\":4002:4011   */\n      dup3\n        /* \"#utility.yul\":3993:4000   */\n      dup5\n        /* \"#utility.yul\":3989:4012   */\n      sub\n        /* \"#utility.yul\":3985:4017   */\n      slt\n        /* \"#utility.yul\":3982:4101   */\n      iszero\n      tag_124\n      jumpi\n        /* \"#utility.yul\":4020:4099   */\n      tag_125\n      tag_45\n      jump\t// in\n    tag_125:\n        /* \"#utility.yul\":3982:4101   */\n    tag_124:\n        /* \"#utility.yul\":4168:4169   */\n      0x00\n        /* \"#utility.yul\":4157:4166   */\n      dup3\n        /* \"#utility.yul\":4153:4170   */\n      add\n        /* \"#utility.yul\":4140:4171   */\n      calldataload\n        /* \"#utility.yul\":4198:4216   */\n      0xffffffffffffffff\n        /* \"#utility.yul\":4190:4196   */\n      dup2\n        /* \"#utility.yul\":4187:4217   */\n      gt\n        /* \"#utility.yul\":4184:4301   */\n      iszero\n      tag_126\n      jumpi\n        /* \"#utility.yul\":4220:4299   */\n      tag_127\n      tag_46\n      jump\t// in\n    tag_127:\n        /* \"#utility.yul\":4184:4301   */\n    tag_126:\n        /* \"#utility.yul\":4325:4388   */\n      tag_128\n        /* \"#utility.yul\":4380:4387   */\n      dup5\n        /* \"#utility.yul\":4371:4377   */\n      dup3\n        /* \"#utility.yul\":4360:4369   */\n      dup6\n        /* \"#utility.yul\":4356:4378   */\n      add\n        /* \"#utility.yul\":4325:4388   */\n      tag_56\n      jump\t// in\n    tag_128:\n        /* \"#utility.yul\":4315:4388   */\n      swap2\n      pop\n        /* \"#utility.yul\":4111:4398   */\n      pop\n        /* \"#utility.yul\":3896:4405   */\n      swap3\n      swap2\n      pop\n      pop\n      jump\t// out\n        /* \"#utility.yul\":4411:4537   */\n    tag_60:\n        /* \"#utility.yul\":4448:4455   */\n      0x00\n        /* \"#utility.yul\":4488:4530   */\n      0xffffffffffffffffffffffffffffffffffffffff\n        /* \"#utility.yul\":4481:4486   */\n      dup3\n        /* \"#utility.yul\":4477:4531   */\n      and\n        /* \"#utility.yul\":4466:4531   */\n      swap1\n      pop\n        /* \"#utility.yul\":4411:4537   */\n      swap2\n      swap1\n      pop\n      jump\t// out\n        /* \"#utility.yul\":4543:4639   */\n    tag_61:\n        /* \"#utility.yul\":4580:4587   */\n      0x00\n        /* \"#utility.yul\":4609:4633   */\n      tag_131\n        /* \"#utility.yul\":4627:4632   */\n      dup3\n        /* \"#utility.yul\":4609:4633   */\n      tag_60\n      jump\t// in\n    tag_131:\n        /* \"#utility.yul\":4598:4633   */\n      swap1\n      pop\n        /* \"#utility.yul\":4543:4639   */\n      swap2\n      swap1\n      pop\n      jump\t// out\n        /* \"#utility.yul\":4645:4763   */\n    tag_62:\n        /* \"#utility.yul\":4732:4756   */\n      tag_133\n        /* \"#utility.yul\":4750:4755   */\n      dup2\n        /* \"#utility.yul\":4732:4756   */\n      tag_61\n      jump\t// in\n    tag_133:\n        /* \"#utility.yul\":4727:4730   */\n      dup3\n        /* \"#utility.yul\":4720:4757   */\n      mstore\n        /* \"#utility.yul\":4645:4763   */\n      pop\n      pop\n      jump\t// out\n        /* \"#utility.yul\":4769:4991   */\n    tag_17:\n        /* \"#utility.yul\":4862:4866   */\n      0x00\n        /* \"#utility.yul\":4900:4902   */\n      0x20\n        /* \"#utility.yul\":4889:4898   */\n      dup3\n        /* \"#utility.yul\":4885:4903   */\n      add\n        /* \"#utility.yul\":4877:4903   */\n      swap1\n      pop\n        /* \"#utility.yul\":4913:4984   */\n      tag_135\n        /* \"#utility.yul\":4981:4982   */\n      0x00\n        /* \"#utility.yul\":4970:4979   */\n      dup4\n        /* \"#utility.yul\":4966:4983   */\n      add\n        /* \"#utility.yul\":4957:4963   */\n      dup5\n        /* \"#utility.yul\":4913:4984   */\n      tag_62\n      jump\t// in\n    tag_135:\n        /* \"#utility.yul\":4769:4991   */\n      swap3\n      swap2\n      pop\n      pop\n      jump\t// out\n        /* \"#utility.yul\":4997:5326   */\n    tag_21:\n        /* \"#utility.yul\":5056:5062   */\n      0x00\n        /* \"#utility.yul\":5105:5107   */\n      0x20\n        /* \"#utility.yul\":5093:5102   */\n      dup3\n        /* \"#utility.yul\":5084:5091   */\n      dup5\n        /* \"#utility.yul\":5080:5103   */\n      sub\n        /* \"#utility.yul\":5076:5108   */\n      slt\n        /* \"#utility.yul\":5073:5192   */\n      iszero\n      tag_137\n      jumpi\n        /* \"#utility.yul\":5111:5190   */\n      tag_138\n      tag_45\n      jump\t// in\n    tag_138:\n        /* \"#utility.yul\":5073:5192   */\n    tag_137:\n        /* \"#utility.yul\":5231:5232   */\n      0x00\n        /* \"#utility.yul\":5256:5309   */\n      tag_139\n        /* \"#utility.yul\":5301:5308   */\n      dup5\n        /* \"#utility.yul\":5292:5298   */\n      dup3\n        /* \"#utility.yul\":5281:5290   */\n      dup6\n        /* \"#utility.yul\":5277:5299   */\n      add\n        /* \"#utility.yul\":5256:5309   */\n      tag_59\n      jump\t// in\n    tag_139:\n        /* \"#utility.yul\":5246:5309   */\n      swap2\n      pop\n        /* \"#utility.yul\":5202:5319   */\n      pop\n        /* \"#utility.yul\":4997:5326   */\n      swap3\n      swap2\n      pop\n      pop\n      jump\t// out\n        /* \"#utility.yul\":5332:5392   */\n    tag_63:\n        /* \"#utility.yul\":5360:5363   */\n      0x00\n        /* \"#utility.yul\":5381:5386   */\n      dup2\n        /* \"#utility.yul\":5374:5386   */\n      swap1\n      pop\n        /* \"#utility.yul\":5332:5392   */\n      swap2\n      swap1\n      pop\n      jump\t// out\n        /* \"#utility.yul\":5398:5540   */\n    tag_64:\n        /* \"#utility.yul\":5448:5457   */\n      0x00\n        /* \"#utility.yul\":5481:5534   */\n      tag_142\n        /* \"#utility.yul\":5499:5533   */\n      tag_143\n        /* \"#utility.yul\":5508:5532   */\n      tag_144\n        /* \"#utility.yul\":5526:5531   */\n      dup5\n        /* \"#utility.yul\":5508:5532   */\n      tag_60\n      jump\t// in\n    tag_144:\n        /* \"#utility.yul\":5499:5533   */\n      tag_63\n      jump\t// in\n    tag_143:\n        /* \"#utility.yul\":5481:5534   */\n      tag_60\n      jump\t// in\n    tag_142:\n        /* \"#utility.yul\":5468:5534   */\n      swap1\n      pop\n        /* \"#utility.yul\":5398:5540   */\n      swap2\n      swap1\n      pop\n      jump\t// out\n        /* \"#utility.yul\":5546:5672   */\n    tag_65:\n        /* \"#utility.yul\":5596:5605   */\n      0x00\n        /* \"#utility.yul\":5629:5666   */\n      tag_146\n        /* \"#utility.yul\":5660:5665   */\n      dup3\n        /* \"#utility.yul\":5629:5666   */\n      tag_64\n      jump\t// in\n    tag_146:\n        /* \"#utility.yul\":5616:5666   */\n      swap1\n      pop\n        /* \"#utility.yul\":5546:5672   */\n      swap2\n      swap1\n      pop\n      jump\t// out\n        /* \"#utility.yul\":5678:5816   */\n    tag_66:\n        /* \"#utility.yul\":5740:5749   */\n      0x00\n        /* \"#utility.yul\":5773:5810   */\n      tag_148\n        /* \"#utility.yul\":5804:5809   */\n      dup3\n        /* \"#utility.yul\":5773:5810   */\n      tag_65\n      jump\t// in\n    tag_148:\n        /* \"#utility.yul\":5760:5810   */\n      swap1\n      pop\n        /* \"#utility.yul\":5678:5816   */\n      swap2\n      swap1\n      pop\n      jump\t// out\n        /* \"#utility.yul\":5822:5977   */\n    tag_67:\n        /* \"#utility.yul\":5921:5970   */\n      tag_150\n        /* \"#utility.yul\":5964:5969   */\n      dup2\n        /* \"#utility.yul\":5921:5970   */\n      tag_66\n      jump\t// in\n    tag_150:\n        /* \"#utility.yul\":5916:5919   */\n      dup3\n        /* \"#utility.yul\":5909:5971   */\n      mstore\n        /* \"#utility.yul\":5822:5977   */\n      pop\n      pop\n      jump\t// out\n        /* \"#utility.yul\":5983:6229   */\n    tag_24:\n        /* \"#utility.yul\":6088:6092   */\n      0x00\n        /* \"#utility.yul\":6126:6128   */\n      0x20\n        /* \"#utility.yul\":6115:6124   */\n      dup3\n        /* \"#utility.yul\":6111:6129   */\n      add\n        /* \"#utility.yul\":6103:6129   */\n      swap1\n      pop\n        /* \"#utility.yul\":6139:6222   */\n      tag_152\n        /* \"#utility.yul\":6219:6220   */\n      0x00\n        /* \"#utility.yul\":6208:6217   */\n      dup4\n        /* \"#utility.yul\":6204:6221   */\n      add\n        /* \"#utility.yul\":6195:6201   */\n      dup5\n        /* \"#utility.yul\":6139:6222   */\n      tag_67\n      jump\t// in\n    tag_152:\n        /* \"#utility.yul\":5983:6229   */\n      swap3\n      swap2\n      pop\n      pop\n      jump\t// out\n        /* \"#utility.yul\":6235:6357   */\n    tag_68:\n        /* \"#utility.yul\":6308:6332   */\n      tag_154\n        /* \"#utility.yul\":6326:6331   */\n      dup2\n        /* \"#utility.yul\":6308:6332   */\n      tag_61\n      jump\t// in\n    tag_154:\n        /* \"#utility.yul\":6301:6306   */\n      dup2\n        /* \"#utility.yul\":6298:6333   */\n      eq\n        /* \"#utility.yul\":6288:6351   */\n      tag_155\n      jumpi\n        /* \"#utility.yul\":6347:6348   */\n      0x00\n        /* \"#utility.yul\":6344:6345   */\n      0x00\n        /* \"#utility.yul\":6337:6349   */\n      revert\n        /* \"#utility.yul\":6288:6351   */\n    tag_155:\n        /* \"#utility.yul\":6235:6357   */\n      pop\n      jump\t// out\n        /* \"#utility.yul\":6363:6502   */\n    tag_69:\n        /* \"#utility.yul\":6409:6414   */\n      0x00\n        /* \"#utility.yul\":6447:6453   */\n      dup2\n        /* \"#utility.yul\":6434:6454   */\n      calldataload\n        /* \"#utility.yul\":6425:6454   */\n      swap1\n      pop\n        /* \"#utility.yul\":6463:6496   */\n      tag_157\n        /* \"#utility.yul\":6490:6495   */\n      dup2\n        /* \"#utility.yul\":6463:6496   */\n      tag_68\n      jump\t// in\n    tag_157:\n        /* \"#utility.yul\":6363:6502   */\n      swap3\n      swap2\n      pop\n      pop\n      jump\t// out\n        /* \"#utility.yul\":6508:6837   */\n    tag_27:\n        /* \"#utility.yul\":6567:6573   */\n      0x00\n        /* \"#utility.yul\":6616:6618   */\n      0x20\n        /* \"#utility.yul\":6604:6613   */\n      dup3\n        /* \"#utility.yul\":6595:6602   */\n      dup5\n        /* \"#utility.yul\":6591:6614   */\n      sub\n        /* \"#utility.yul\":6587:6619   */\n      slt\n        /* \"#utility.yul\":6584:6703   */\n      iszero\n      tag_159\n      jumpi\n        /* \"#utility.yul\":6622:6701   */\n      tag_160\n      tag_45\n      jump\t// in\n    tag_160:\n        /* \"#utility.yul\":6584:6703   */\n    tag_159:\n        /* \"#utility.yul\":6742:6743   */\n      0x00\n        /* \"#utility.yul\":6767:6820   */\n      tag_161\n        /* \"#utility.yul\":6812:6819   */\n      dup5\n        /* \"#utility.yul\":6803:6809   */\n      dup3\n        /* \"#utility.yul\":6792:6801   */\n      dup6\n        /* \"#utility.yul\":6788:6810   */\n      add\n        /* \"#utility.yul\":6767:6820   */\n      tag_69\n      jump\t// in\n    tag_161:\n        /* \"#utility.yul\":6757:6820   */\n      swap2\n      pop\n        /* \"#utility.yul\":6713:6830   */\n      pop\n        /* \"#utility.yul\":6508:6837   */\n      swap3\n      swap2\n      pop\n      pop\n      jump\t// out\n        /* \"#utility.yul\":6843:6942   */\n    tag_70:\n        /* \"#utility.yul\":6895:6901   */\n      0x00\n        /* \"#utility.yul\":6929:6934   */\n      dup2\n        /* \"#utility.yul\":6923:6935   */\n      mload\n        /* \"#utility.yul\":6913:6935   */\n      swap1\n      pop\n        /* \"#utility.yul\":6843:6942   */\n      swap2\n      swap1\n      pop\n      jump\t// out\n        /* \"#utility.yul\":6948:7117   */\n    tag_71:\n        /* \"#utility.yul\":7032:7043   */\n      0x00\n        /* \"#utility.yul\":7066:7072   */\n      dup3\n        /* \"#utility.yul\":7061:7064   */\n      dup3\n        /* \"#utility.yul\":7054:7073   */\n      mstore\n        /* \"#utility.yul\":7106:7110   */\n      0x20\n        /* \"#utility.yul\":7101:7104   */\n      dup3\n        /* \"#utility.yul\":7097:7111   */\n      add\n        /* \"#utility.yul\":7082:7111   */\n      swap1\n      pop\n        /* \"#utility.yul\":6948:7117   */\n      swap3\n      swap2\n      pop\n      pop\n      jump\t// out\n        /* \"#utility.yul\":7123:7262   */\n    tag_72:\n        /* \"#utility.yul\":7212:7218   */\n      dup3\n        /* \"#utility.yul\":7207:7210   */\n      dup2\n        /* \"#utility.yul\":7202:7205   */\n      dup4\n        /* \"#utility.yul\":7196:7219   */\n      mcopy\n        /* \"#utility.yul\":7253:7254   */\n      0x00\n        /* \"#utility.yul\":7244:7250   */\n      dup4\n        /* \"#utility.yul\":7239:7242   */\n      dup4\n        /* \"#utility.yul\":7235:7251   */\n      add\n        /* \"#utility.yul\":7228:7255   */\n      mstore\n        /* \"#utility.yul\":7123:7262   */\n      pop\n      pop\n      pop\n      jump\t// out\n        /* \"#utility.yul\":7268:7645   */\n    tag_73:\n        /* \"#utility.yul\":7356:7359   */\n      0x00\n        /* \"#utility.yul\":7384:7423   */\n      tag_166\n        /* \"#utility.yul\":7417:7422   */\n      dup3\n        /* \"#utility.yul\":7384:7423   */\n      tag_70\n      jump\t// in\n    tag_166:\n        /* \"#utility.yul\":7439:7510   */\n      tag_167\n        /* \"#utility.yul\":7503:7509   */\n      dup2\n        /* \"#utility.yul\":7498:7501   */\n      dup6\n        /* \"#utility.yul\":7439:7510   */\n      tag_71\n      jump\t// in\n    tag_167:\n        /* \"#utility.yul\":7432:7510   */\n      swap4\n      pop\n        /* \"#utility.yul\":7519:7584   */\n      tag_168\n        /* \"#utility.yul\":7577:7583   */\n      dup2\n        /* \"#utility.yul\":7572:7575   */\n      dup6\n        /* \"#utility.yul\":7565:7569   */\n      0x20\n        /* \"#utility.yul\":7558:7563   */\n      dup7\n        /* \"#utility.yul\":7554:7570   */\n      add\n        /* \"#utility.yul\":7519:7584   */\n      tag_72\n      jump\t// in\n    tag_168:\n        /* \"#utility.yul\":7609:7638   */\n      tag_169\n        /* \"#utility.yul\":7631:7637   */\n      dup2\n        /* \"#utility.yul\":7609:7638   */\n      tag_49\n      jump\t// in\n    tag_169:\n        /* \"#utility.yul\":7604:7607   */\n      dup5\n        /* \"#utility.yul\":7600:7639   */\n      add\n        /* \"#utility.yul\":7593:7639   */\n      swap2\n      pop\n        /* \"#utility.yul\":7360:7645   */\n      pop\n        /* \"#utility.yul\":7268:7645   */\n      swap3\n      swap2\n      pop\n      pop\n      jump\t// out\n        /* \"#utility.yul\":7651:7769   */\n    tag_74:\n        /* \"#utility.yul\":7738:7762   */\n      tag_171\n        /* \"#utility.yul\":7756:7761   */\n      dup2\n        /* \"#utility.yul\":7738:7762   */\n      tag_57\n      jump\t// in\n    tag_171:\n        /* \"#utility.yul\":7733:7736   */\n      dup3\n        /* \"#utility.yul\":7726:7763   */\n      mstore\n        /* \"#utility.yul\":7651:7769   */\n      pop\n      pop\n      jump\t// out\n        /* \"#utility.yul\":7775:8399   */\n    tag_33:\n        /* \"#utility.yul\":7964:7968   */\n      0x00\n        /* \"#utility.yul\":8002:8004   */\n      0x60\n        /* \"#utility.yul\":7991:8000   */\n      dup3\n        /* \"#utility.yul\":7987:8005   */\n      add\n        /* \"#utility.yul\":7979:8005   */\n      swap1\n      pop\n        /* \"#utility.yul\":8051:8060   */\n      dup2\n        /* \"#utility.yul\":8045:8049   */\n      dup2\n        /* \"#utility.yul\":8041:8061   */\n      sub\n        /* \"#utility.yul\":8037:8038   */\n      0x00\n        /* \"#utility.yul\":8026:8035   */\n      dup4\n        /* \"#utility.yul\":8022:8039   */\n      add\n        /* \"#utility.yul\":8015:8062   */\n      mstore\n        /* \"#utility.yul\":8079:8157   */\n      tag_173\n        /* \"#utility.yul\":8152:8156   */\n      dup2\n        /* \"#utility.yul\":8143:8149   */\n      dup7\n        /* \"#utility.yul\":8079:8157   */\n      tag_73\n      jump\t// in\n    tag_173:\n        /* \"#utility.yul\":8071:8157   */\n      swap1\n      pop\n        /* \"#utility.yul\":8204:8213   */\n      dup2\n        /* \"#utility.yul\":8198:8202   */\n      dup2\n        /* \"#utility.yul\":8194:8214   */\n      sub\n        /* \"#utility.yul\":8189:8191   */\n      0x20\n        /* \"#utility.yul\":8178:8187   */\n      dup4\n        /* \"#utility.yul\":8174:8192   */\n      add\n        /* \"#utility.yul\":8167:8215   */\n      mstore\n        /* \"#utility.yul\":8232:8310   */\n      tag_174\n        /* \"#utility.yul\":8305:8309   */\n      dup2\n        /* \"#utility.yul\":8296:8302   */\n      dup6\n        /* \"#utility.yul\":8232:8310   */\n      tag_73\n      jump\t// in\n    tag_174:\n        /* \"#utility.yul\":8224:8310   */\n      swap1\n      pop\n        /* \"#utility.yul\":8320:8392   */\n      tag_175\n        /* \"#utility.yul\":8388:8390   */\n      0x40\n        /* \"#utility.yul\":8377:8386   */\n      dup4\n        /* \"#utility.yul\":8373:8391   */\n      add\n        /* \"#utility.yul\":8364:8370   */\n      dup5\n        /* \"#utility.yul\":8320:8392   */\n      tag_74\n      jump\t// in\n    tag_175:\n        /* \"#utility.yul\":7775:8399   */\n      swap5\n      swap4\n      pop\n      pop\n      pop\n      pop\n      jump\t// out\n        /* \"#utility.yul\":8405:8553   */\n    tag_75:\n        /* \"#utility.yul\":8507:8518   */\n      0x00\n        /* \"#utility.yul\":8544:8547   */\n      dup2\n        /* \"#utility.yul\":8529:8547   */\n      swap1\n      pop\n        /* \"#utility.yul\":8405:8553   */\n      swap3\n      swap2\n      pop\n      pop\n      jump\t// out\n        /* \"#utility.yul\":8559:8949   */\n    tag_76:\n        /* \"#utility.yul\":8665:8668   */\n      0x00\n        /* \"#utility.yul\":8693:8732   */\n      tag_178\n        /* \"#utility.yul\":8726:8731   */\n      dup3\n        /* \"#utility.yul\":8693:8732   */\n      tag_70\n      jump\t// in\n    tag_178:\n        /* \"#utility.yul\":8748:8837   */\n      tag_179\n        /* \"#utility.yul\":8830:8836   */\n      dup2\n        /* \"#utility.yul\":8825:8828   */\n      dup6\n        /* \"#utility.yul\":8748:8837   */\n      tag_75\n      jump\t// in\n    tag_179:\n        /* \"#utility.yul\":8741:8837   */\n      swap4\n      pop\n        /* \"#utility.yul\":8846:8911   */\n      tag_180\n        /* \"#utility.yul\":8904:8910   */\n      dup2\n        /* \"#utility.yul\":8899:8902   */\n      dup6\n        /* \"#utility.yul\":8892:8896   */\n      0x20\n        /* \"#utility.yul\":8885:8890   */\n      dup7\n        /* \"#utility.yul\":8881:8897   */\n      add\n        /* \"#utility.yul\":8846:8911   */\n      tag_72\n      jump\t// in\n    tag_180:\n        /* \"#utility.yul\":8936:8942   */\n      dup1\n        /* \"#utility.yul\":8931:8934   */\n      dup5\n        /* \"#utility.yul\":8927:8943   */\n      add\n        /* \"#utility.yul\":8920:8943   */\n      swap2\n      pop\n        /* \"#utility.yul\":8669:8949   */\n      pop\n        /* \"#utility.yul\":8559:8949   */\n      swap3\n      swap2\n      pop\n      pop\n      jump\t// out\n        /* \"#utility.yul\":8955:9230   */\n    tag_37:\n        /* \"#utility.yul\":9087:9090   */\n      0x00\n        /* \"#utility.yul\":9109:9204   */\n      tag_182\n        /* \"#utility.yul\":9200:9203   */\n      dup3\n        /* \"#utility.yul\":9191:9197   */\n      dup5\n        /* \"#utility.yul\":9109:9204   */\n      tag_76\n      jump\t// in\n    tag_182:\n        /* \"#utility.yul\":9102:9204   */\n      swap2\n      pop\n        /* \"#utility.yul\":9221:9224   */\n      dup2\n        /* \"#utility.yul\":9214:9224   */\n      swap1\n      pop\n        /* \"#utility.yul\":8955:9230   */\n      swap3\n      swap2\n      pop\n      pop\n      jump\t// out\n    stop\n\n    sub_0: assembly {\n            /* \"contracts/AssetFactory.sol\":82:564  contract Asset{... */\n          mstore(0x40, 0x80)\n            /* \"contracts/AssetFactory.sol\":232:410  constructor(string memory _symbol, string memory _name ,uint256 _initialSupply){... */\n          callvalue\n          dup1\n          iszero\n          tag_1\n          jumpi\n          revert(0x00, 0x00)\n        tag_1:\n          pop\n          mload(0x40)\n          sub(codesize, bytecodeSize)\n          dup1\n          bytecodeSize\n          dup4\n          codecopy\n          dup2\n          dup2\n          add\n          0x40\n          mstore\n          dup2\n          add\n          swap1\n          tag_2\n          swap2\n          swap1\n          tag_3\n          jump\t// in\n        tag_2:\n            /* \"contracts/AssetFactory.sol\":331:338  _symbol */\n          dup3\n            /* \"contracts/AssetFactory.sol\":322:328  symbol */\n          0x00\n            /* \"contracts/AssetFactory.sol\":322:338  symbol = _symbol */\n          swap1\n          dup2\n          tag_6\n          swap2\n          swap1\n          tag_7\n          jump\t// in\n        tag_6:\n          pop\n            /* \"contracts/AssetFactory.sol\":356:361  _name */\n          dup2\n            /* \"contracts/AssetFactory.sol\":349:353  name */\n          0x01\n            /* \"contracts/AssetFactory.sol\":349:361  name = _name */\n          swap1\n          dup2\n          tag_8\n          swap2\n          swap1\n          tag_7\n          jump\t// in\n        tag_8:\n          pop\n            /* \"contracts/AssetFactory.sol\":388:402  _initialSupply */\n          dup1\n            /* \"contracts/AssetFactory.sol\":372:385  initialSupply */\n          0x02\n            /* \"contracts/AssetFactory.sol\":372:402  initialSupply = _initialSupply */\n          dup2\n          swap1\n          sstore\n          pop\n            /* \"contracts/AssetFactory.sol\":232:410  constructor(string memory _symbol, string memory _name ,uint256 _initialSupply){... */\n          pop\n          pop\n          pop\n            /* \"contracts/AssetFactory.sol\":82:564  contract Asset{... */\n          jump(tag_9)\n            /* \"#utility.yul\":7:82   */\n        tag_10:\n            /* \"#utility.yul\":40:46   */\n          0x00\n            /* \"#utility.yul\":73:75   */\n          0x40\n            /* \"#utility.yul\":67:76   */\n          mload\n            /* \"#utility.yul\":57:76   */\n          swap1\n          pop\n            /* \"#utility.yul\":7:82   */\n          swap1\n          jump\t// out\n            /* \"#utility.yul\":88:205   */\n        tag_11:\n            /* \"#utility.yul\":197:198   */\n          0x00\n            /* \"#utility.yul\":194:195   */\n          0x00\n            /* \"#utility.yul\":187:199   */\n          revert\n            /* \"#utility.yul\":211:328   */\n        tag_12:\n            /* \"#utility.yul\":320:321   */\n          0x00\n            /* \"#utility.yul\":317:318   */\n          0x00\n            /* \"#utility.yul\":310:322   */\n          revert\n            /* \"#utility.yul\":334:451   */\n        tag_13:\n            /* \"#utility.yul\":443:444   */\n          0x00\n            /* \"#utility.yul\":440:441   */\n          0x00\n            /* \"#utility.yul\":433:445   */\n          revert\n            /* \"#utility.yul\":457:574   */\n        tag_14:\n            /* \"#utility.yul\":566:567   */\n          0x00\n            /* \"#utility.yul\":563:564   */\n          0x00\n            /* \"#utility.yul\":556:568   */\n          revert\n            /* \"#utility.yul\":580:682   */\n        tag_15:\n            /* \"#utility.yul\":621:627   */\n          0x00\n            /* \"#utility.yul\":672:674   */\n          0x1f\n            /* \"#utility.yul\":668:675   */\n          not\n            /* \"#utility.yul\":663:665   */\n          0x1f\n            /* \"#utility.yul\":656:661   */\n          dup4\n            /* \"#utility.yul\":652:666   */\n          add\n            /* \"#utility.yul\":648:676   */\n          and\n            /* \"#utility.yul\":638:676   */\n          swap1\n          pop\n            /* \"#utility.yul\":580:682   */\n          swap2\n          swap1\n          pop\n          jump\t// out\n            /* \"#utility.yul\":688:868   */\n        tag_16:\n            /* \"#utility.yul\":736:813   */\n          0x4e487b7100000000000000000000000000000000000000000000000000000000\n            /* \"#utility.yul\":733:734   */\n          0x00\n            /* \"#utility.yul\":726:814   */\n          mstore\n            /* \"#utility.yul\":833:837   */\n          0x41\n            /* \"#utility.yul\":830:831   */\n          0x04\n            /* \"#utility.yul\":823:838   */\n          mstore\n            /* \"#utility.yul\":857:861   */\n          0x24\n            /* \"#utility.yul\":854:855   */\n          0x00\n            /* \"#utility.yul\":847:862   */\n          revert\n            /* \"#utility.yul\":874:1155   */\n        tag_17:\n            /* \"#utility.yul\":957:984   */\n          tag_53\n            /* \"#utility.yul\":979:983   */\n          dup3\n            /* \"#utility.yul\":957:984   */\n          tag_15\n          jump\t// in\n        tag_53:\n            /* \"#utility.yul\":949:955   */\n          dup2\n            /* \"#utility.yul\":945:985   */\n          add\n            /* \"#utility.yul\":1087:1093   */\n          dup2\n            /* \"#utility.yul\":1075:1085   */\n          dup2\n            /* \"#utility.yul\":1072:1094   */\n          lt\n            /* \"#utility.yul\":1051:1069   */\n          0xffffffffffffffff\n            /* \"#utility.yul\":1039:1049   */\n          dup3\n            /* \"#utility.yul\":1036:1070   */\n          gt\n            /* \"#utility.yul\":1033:1095   */\n          or\n            /* \"#utility.yul\":1030:1118   */\n          iszero\n          tag_54\n          jumpi\n            /* \"#utility.yul\":1098:1116   */\n          tag_55\n          tag_16\n          jump\t// in\n        tag_55:\n            /* \"#utility.yul\":1030:1118   */\n        tag_54:\n            /* \"#utility.yul\":1138:1148   */\n          dup1\n            /* \"#utility.yul\":1134:1136   */\n          0x40\n            /* \"#utility.yul\":1127:1149   */\n          mstore\n            /* \"#utility.yul\":917:1155   */\n          pop\n            /* \"#utility.yul\":874:1155   */\n          pop\n          pop\n          jump\t// out\n            /* \"#utility.yul\":1161:1290   */\n        tag_18:\n            /* \"#utility.yul\":1195:1201   */\n          0x00\n            /* \"#utility.yul\":1222:1242   */\n          tag_57\n          tag_10\n          jump\t// in\n        tag_57:\n            /* \"#utility.yul\":1212:1242   */\n          swap1\n          pop\n            /* \"#utility.yul\":1251:1284   */\n          tag_58\n            /* \"#utility.yul\":1279:1283   */\n          dup3\n            /* \"#utility.yul\":1271:1277   */\n          dup3\n            /* \"#utility.yul\":1251:1284   */\n          tag_17\n          jump\t// in\n        tag_58:\n            /* \"#utility.yul\":1161:1290   */\n          swap2\n          swap1\n          pop\n          jump\t// out\n            /* \"#utility.yul\":1296:1604   */\n        tag_19:\n            /* \"#utility.yul\":1358:1362   */\n          0x00\n            /* \"#utility.yul\":1448:1466   */\n          0xffffffffffffffff\n            /* \"#utility.yul\":1440:1446   */\n          dup3\n            /* \"#utility.yul\":1437:1467   */\n          gt\n            /* \"#utility.yul\":1434:1490   */\n          iszero\n          tag_60\n          jumpi\n            /* \"#utility.yul\":1470:1488   */\n          tag_61\n          tag_16\n          jump\t// in\n        tag_61:\n            /* \"#utility.yul\":1434:1490   */\n        tag_60:\n            /* \"#utility.yul\":1508:1537   */\n          tag_62\n            /* \"#utility.yul\":1530:1536   */\n          dup3\n            /* \"#utility.yul\":1508:1537   */\n          tag_15\n          jump\t// in\n        tag_62:\n            /* \"#utility.yul\":1500:1537   */\n          swap1\n          pop\n            /* \"#utility.yul\":1592:1596   */\n          0x20\n            /* \"#utility.yul\":1586:1590   */\n          dup2\n            /* \"#utility.yul\":1582:1597   */\n          add\n            /* \"#utility.yul\":1574:1597   */\n          swap1\n          pop\n            /* \"#utility.yul\":1296:1604   */\n          swap2\n          swap1\n          pop\n          jump\t// out\n            /* \"#utility.yul\":1610:1749   */\n        tag_20:\n            /* \"#utility.yul\":1699:1705   */\n          dup3\n            /* \"#utility.yul\":1694:1697   */\n          dup2\n            /* \"#utility.yul\":1689:1692   */\n          dup4\n            /* \"#utility.yul\":1683:1706   */\n          mcopy\n            /* \"#utility.yul\":1740:1741   */\n          0x00\n            /* \"#utility.yul\":1731:1737   */\n          dup4\n            /* \"#utility.yul\":1726:1729   */\n          dup4\n            /* \"#utility.yul\":1722:1738   */\n          add\n            /* \"#utility.yul\":1715:1742   */\n          mstore\n            /* \"#utility.yul\":1610:1749   */\n          pop\n          pop\n          pop\n          jump\t// out\n            /* \"#utility.yul\":1755:2189   */\n        tag_21:\n            /* \"#utility.yul\":1844:1849   */\n          0x00\n            /* \"#utility.yul\":1869:1935   */\n          tag_65\n            /* \"#utility.yul\":1885:1934   */\n          tag_66\n            /* \"#utility.yul\":1927:1933   */\n          dup5\n            /* \"#utility.yul\":1885:1934   */\n          tag_19\n          jump\t// in\n        tag_66:\n            /* \"#utility.yul\":1869:1935   */\n          tag_18\n          jump\t// in\n        tag_65:\n            /* \"#utility.yul\":1860:1935   */\n          swap1\n          pop\n            /* \"#utility.yul\":1958:1964   */\n          dup3\n            /* \"#utility.yul\":1951:1956   */\n          dup2\n            /* \"#utility.yul\":1944:1965   */\n          mstore\n            /* \"#utility.yul\":1996:2000   */\n          0x20\n            /* \"#utility.yul\":1989:1994   */\n          dup2\n            /* \"#utility.yul\":1985:2001   */\n          add\n            /* \"#utility.yul\":2034:2037   */\n          dup5\n            /* \"#utility.yul\":2025:2031   */\n          dup5\n            /* \"#utility.yul\":2020:2023   */\n          dup5\n            /* \"#utility.yul\":2016:2032   */\n          add\n            /* \"#utility.yul\":2013:2038   */\n          gt\n            /* \"#utility.yul\":2010:2122   */\n          iszero\n          tag_67\n          jumpi\n            /* \"#utility.yul\":2041:2120   */\n          tag_68\n          tag_14\n          jump\t// in\n        tag_68:\n            /* \"#utility.yul\":2010:2122   */\n        tag_67:\n            /* \"#utility.yul\":2131:2183   */\n          tag_69\n            /* \"#utility.yul\":2176:2182   */\n          dup5\n            /* \"#utility.yul\":2171:2174   */\n          dup3\n            /* \"#utility.yul\":2166:2169   */\n          dup6\n            /* \"#utility.yul\":2131:2183   */\n          tag_20\n          jump\t// in\n        tag_69:\n            /* \"#utility.yul\":1850:2189   */\n          pop\n            /* \"#utility.yul\":1755:2189   */\n          swap4\n          swap3\n          pop\n          pop\n          pop\n          jump\t// out\n            /* \"#utility.yul\":2209:2564   */\n        tag_22:\n            /* \"#utility.yul\":2276:2281   */\n          0x00\n            /* \"#utility.yul\":2325:2328   */\n          dup3\n            /* \"#utility.yul\":2318:2322   */\n          0x1f\n            /* \"#utility.yul\":2310:2316   */\n          dup4\n            /* \"#utility.yul\":2306:2323   */\n          add\n            /* \"#utility.yul\":2302:2329   */\n          slt\n            /* \"#utility.yul\":2292:2414   */\n          tag_71\n          jumpi\n            /* \"#utility.yul\":2333:2412   */\n          tag_72\n          tag_13\n          jump\t// in\n        tag_72:\n            /* \"#utility.yul\":2292:2414   */\n        tag_71:\n            /* \"#utility.yul\":2443:2449   */\n          dup2\n            /* \"#utility.yul\":2437:2450   */\n          mload\n            /* \"#utility.yul\":2468:2558   */\n          tag_73\n            /* \"#utility.yul\":2554:2557   */\n          dup5\n            /* \"#utility.yul\":2546:2552   */\n          dup3\n            /* \"#utility.yul\":2539:2543   */\n          0x20\n            /* \"#utility.yul\":2531:2537   */\n          dup7\n            /* \"#utility.yul\":2527:2544   */\n          add\n            /* \"#utility.yul\":2468:2558   */\n          tag_21\n          jump\t// in\n        tag_73:\n            /* \"#utility.yul\":2459:2558   */\n          swap2\n          pop\n            /* \"#utility.yul\":2282:2564   */\n          pop\n            /* \"#utility.yul\":2209:2564   */\n          swap3\n          swap2\n          pop\n          pop\n          jump\t// out\n            /* \"#utility.yul\":2570:2647   */\n        tag_23:\n            /* \"#utility.yul\":2607:2614   */\n          0x00\n            /* \"#utility.yul\":2636:2641   */\n          dup2\n            /* \"#utility.yul\":2625:2641   */\n          swap1\n          pop\n            /* \"#utility.yul\":2570:2647   */\n          swap2\n          swap1\n          pop\n          jump\t// out\n            /* \"#utility.yul\":2653:2775   */\n        tag_24:\n            /* \"#utility.yul\":2726:2750   */\n          tag_76\n            /* \"#utility.yul\":2744:2749   */\n          dup2\n            /* \"#utility.yul\":2726:2750   */\n          tag_23\n          jump\t// in\n        tag_76:\n            /* \"#utility.yul\":2719:2724   */\n          dup2\n            /* \"#utility.yul\":2716:2751   */\n          eq\n            /* \"#utility.yul\":2706:2769   */\n          tag_77\n          jumpi\n            /* \"#utility.yul\":2765:2766   */\n          0x00\n            /* \"#utility.yul\":2762:2763   */\n          0x00\n            /* \"#utility.yul\":2755:2767   */\n          revert\n            /* \"#utility.yul\":2706:2769   */\n        tag_77:\n            /* \"#utility.yul\":2653:2775   */\n          pop\n          jump\t// out\n            /* \"#utility.yul\":2781:2924   */\n        tag_25:\n            /* \"#utility.yul\":2838:2843   */\n          0x00\n            /* \"#utility.yul\":2869:2875   */\n          dup2\n            /* \"#utility.yul\":2863:2876   */\n          mload\n            /* \"#utility.yul\":2854:2876   */\n          swap1\n          pop\n            /* \"#utility.yul\":2885:2918   */\n          tag_79\n            /* \"#utility.yul\":2912:2917   */\n          dup2\n            /* \"#utility.yul\":2885:2918   */\n          tag_24\n          jump\t// in\n        tag_79:\n            /* \"#utility.yul\":2781:2924   */\n          swap3\n          swap2\n          pop\n          pop\n          jump\t// out\n            /* \"#utility.yul\":2930:3939   */\n        tag_3:\n            /* \"#utility.yul\":3038:3044   */\n          0x00\n            /* \"#utility.yul\":3046:3052   */\n          0x00\n            /* \"#utility.yul\":3054:3060   */\n          0x00\n            /* \"#utility.yul\":3103:3105   */\n          0x60\n            /* \"#utility.yul\":3091:3100   */\n          dup5\n            /* \"#utility.yul\":3082:3089   */\n          dup7\n            /* \"#utility.yul\":3078:3101   */\n          sub\n            /* \"#utility.yul\":3074:3106   */\n          slt\n            /* \"#utility.yul\":3071:3190   */\n          iszero\n          tag_81\n          jumpi\n            /* \"#utility.yul\":3109:3188   */\n          tag_82\n          tag_11\n          jump\t// in\n        tag_82:\n            /* \"#utility.yul\":3071:3190   */\n        tag_81:\n            /* \"#utility.yul\":3250:3251   */\n          0x00\n            /* \"#utility.yul\":3239:3248   */\n          dup5\n            /* \"#utility.yul\":3235:3252   */\n          add\n            /* \"#utility.yul\":3229:3253   */\n          mload\n            /* \"#utility.yul\":3280:3298   */\n          0xffffffffffffffff\n            /* \"#utility.yul\":3272:3278   */\n          dup2\n            /* \"#utility.yul\":3269:3299   */\n          gt\n            /* \"#utility.yul\":3266:3383   */\n          iszero\n          tag_83\n          jumpi\n            /* \"#utility.yul\":3302:3381   */\n          tag_84\n          tag_12\n          jump\t// in\n        tag_84:\n            /* \"#utility.yul\":3266:3383   */\n        tag_83:\n            /* \"#utility.yul\":3407:3481   */\n          tag_85\n            /* \"#utility.yul\":3473:3480   */\n          dup7\n            /* \"#utility.yul\":3464:3470   */\n          dup3\n            /* \"#utility.yul\":3453:3462   */\n          dup8\n            /* \"#utility.yul\":3449:3471   */\n          add\n            /* \"#utility.yul\":3407:3481   */\n          tag_22\n          jump\t// in\n        tag_85:\n            /* \"#utility.yul\":3397:3481   */\n          swap4\n          pop\n            /* \"#utility.yul\":3200:3491   */\n          pop\n            /* \"#utility.yul\":3551:3553   */\n          0x20\n            /* \"#utility.yul\":3540:3549   */\n          dup5\n            /* \"#utility.yul\":3536:3554   */\n          add\n            /* \"#utility.yul\":3530:3555   */\n          mload\n            /* \"#utility.yul\":3582:3600   */\n          0xffffffffffffffff\n            /* \"#utility.yul\":3574:3580   */\n          dup2\n            /* \"#utility.yul\":3571:3601   */\n          gt\n            /* \"#utility.yul\":3568:3685   */\n          iszero\n          tag_86\n          jumpi\n            /* \"#utility.yul\":3604:3683   */\n          tag_87\n          tag_12\n          jump\t// in\n        tag_87:\n            /* \"#utility.yul\":3568:3685   */\n        tag_86:\n            /* \"#utility.yul\":3709:3783   */\n          tag_88\n            /* \"#utility.yul\":3775:3782   */\n          dup7\n            /* \"#utility.yul\":3766:3772   */\n          dup3\n            /* \"#utility.yul\":3755:3764   */\n          dup8\n            /* \"#utility.yul\":3751:3773   */\n          add\n            /* \"#utility.yul\":3709:3783   */\n          tag_22\n          jump\t// in\n        tag_88:\n            /* \"#utility.yul\":3699:3783   */\n          swap3\n          pop\n            /* \"#utility.yul\":3501:3793   */\n          pop\n            /* \"#utility.yul\":3832:3834   */\n          0x40\n            /* \"#utility.yul\":3858:3922   */\n          tag_89\n            /* \"#utility.yul\":3914:3921   */\n          dup7\n            /* \"#utility.yul\":3905:3911   */\n          dup3\n            /* \"#utility.yul\":3894:3903   */\n          dup8\n            /* \"#utility.yul\":3890:3912   */\n          add\n            /* \"#utility.yul\":3858:3922   */\n          tag_25\n          jump\t// in\n        tag_89:\n            /* \"#utility.yul\":3848:3922   */\n          swap2\n          pop\n            /* \"#utility.yul\":3803:3932   */\n          pop\n            /* \"#utility.yul\":2930:3939   */\n          swap3\n          pop\n          swap3\n          pop\n          swap3\n          jump\t// out\n            /* \"#utility.yul\":3945:4044   */\n        tag_26:\n            /* \"#utility.yul\":3997:4003   */\n          0x00\n            /* \"#utility.yul\":4031:4036   */\n          dup2\n            /* \"#utility.yul\":4025:4037   */\n          mload\n            /* \"#utility.yul\":4015:4037   */\n          swap1\n          pop\n            /* \"#utility.yul\":3945:4044   */\n          swap2\n          swap1\n          pop\n          jump\t// out\n            /* \"#utility.yul\":4050:4230   */\n        tag_27:\n            /* \"#utility.yul\":4098:4175   */\n          0x4e487b7100000000000000000000000000000000000000000000000000000000\n            /* \"#utility.yul\":4095:4096   */\n          0x00\n            /* \"#utility.yul\":4088:4176   */\n          mstore\n            /* \"#utility.yul\":4195:4199   */\n          0x22\n            /* \"#utility.yul\":4192:4193   */\n          0x04\n            /* \"#utility.yul\":4185:4200   */\n          mstore\n            /* \"#utility.yul\":4219:4223   */\n          0x24\n            /* \"#utility.yul\":4216:4217   */\n          0x00\n            /* \"#utility.yul\":4209:4224   */\n          revert\n            /* \"#utility.yul\":4236:4556   */\n        tag_28:\n            /* \"#utility.yul\":4280:4286   */\n          0x00\n            /* \"#utility.yul\":4317:4318   */\n          0x02\n            /* \"#utility.yul\":4311:4315   */\n          dup3\n            /* \"#utility.yul\":4307:4319   */\n          div\n            /* \"#utility.yul\":4297:4319   */\n          swap1\n          pop\n            /* \"#utility.yul\":4364:4365   */\n          0x01\n            /* \"#utility.yul\":4358:4362   */\n          dup3\n            /* \"#utility.yul\":4354:4366   */\n          and\n            /* \"#utility.yul\":4385:4403   */\n          dup1\n            /* \"#utility.yul\":4375:4456   */\n          tag_93\n          jumpi\n            /* \"#utility.yul\":4441:4445   */\n          0x7f\n            /* \"#utility.yul\":4433:4439   */\n          dup3\n            /* \"#utility.yul\":4429:4446   */\n          and\n            /* \"#utility.yul\":4419:4446   */\n          swap2\n          pop\n            /* \"#utility.yul\":4375:4456   */\n        tag_93:\n            /* \"#utility.yul\":4503:4505   */\n          0x20\n            /* \"#utility.yul\":4495:4501   */\n          dup3\n            /* \"#utility.yul\":4492:4506   */\n          lt\n            /* \"#utility.yul\":4472:4490   */\n          dup2\n            /* \"#utility.yul\":4469:4507   */\n          sub\n            /* \"#utility.yul\":4466:4550   */\n          tag_94\n          jumpi\n            /* \"#utility.yul\":4522:4540   */\n          tag_95\n          tag_27\n          jump\t// in\n        tag_95:\n            /* \"#utility.yul\":4466:4550   */\n        tag_94:\n            /* \"#utility.yul\":4287:4556   */\n          pop\n            /* \"#utility.yul\":4236:4556   */\n          swap2\n          swap1\n          pop\n          jump\t// out\n            /* \"#utility.yul\":4562:4703   */\n        tag_29:\n            /* \"#utility.yul\":4611:4615   */\n          0x00\n            /* \"#utility.yul\":4634:4637   */\n          dup2\n            /* \"#utility.yul\":4626:4637   */\n          swap1\n          pop\n            /* \"#utility.yul\":4657:4660   */\n          dup2\n            /* \"#utility.yul\":4654:4655   */\n          0x00\n            /* \"#utility.yul\":4647:4661   */\n          mstore\n            /* \"#utility.yul\":4691:4695   */\n          0x20\n            /* \"#utility.yul\":4688:4689   */\n          0x00\n            /* \"#utility.yul\":4678:4696   */\n          keccak256\n            /* \"#utility.yul\":4670:4696   */\n          swap1\n          pop\n            /* \"#utility.yul\":4562:4703   */\n          swap2\n          swap1\n          pop\n          jump\t// out\n            /* \"#utility.yul\":4709:4802   */\n        tag_30:\n            /* \"#utility.yul\":4746:4752   */\n          0x00\n            /* \"#utility.yul\":4793:4795   */\n          0x20\n            /* \"#utility.yul\":4788:4790   */\n          0x1f\n            /* \"#utility.yul\":4781:4786   */\n          dup4\n            /* \"#utility.yul\":4777:4791   */\n          add\n            /* \"#utility.yul\":4773:4796   */\n          div\n            /* \"#utility.yul\":4763:4796   */\n          swap1\n          pop\n            /* \"#utility.yul\":4709:4802   */\n          swap2\n          swap1\n          pop\n          jump\t// out\n            /* \"#utility.yul\":4808:4915   */\n        tag_31:\n            /* \"#utility.yul\":4852:4860   */\n          0x00\n            /* \"#utility.yul\":4902:4907   */\n          dup3\n            /* \"#utility.yul\":4896:4900   */\n          dup3\n            /* \"#utility.yul\":4892:4908   */\n          shl\n            /* \"#utility.yul\":4871:4908   */\n          swap1\n          pop\n            /* \"#utility.yul\":4808:4915   */\n          swap3\n          swap2\n          pop\n          pop\n          jump\t// out\n            /* \"#utility.yul\":4921:5314   */\n        tag_32:\n            /* \"#utility.yul\":4990:4996   */\n          0x00\n            /* \"#utility.yul\":5040:5041   */\n          0x08\n            /* \"#utility.yul\":5028:5038   */\n          dup4\n            /* \"#utility.yul\":5024:5042   */\n          mul\n            /* \"#utility.yul\":5063:5160   */\n          tag_100\n            /* \"#utility.yul\":5093:5159   */\n          0xffffffffffffffffffffffffffffffffffffffffffffffffffffffffffffffff\n            /* \"#utility.yul\":5082:5091   */\n          dup3\n            /* \"#utility.yul\":5063:5160   */\n          tag_31\n          jump\t// in\n        tag_100:\n            /* \"#utility.yul\":5181:5220   */\n          tag_101\n            /* \"#utility.yul\":5211:5219   */\n          dup7\n            /* \"#utility.yul\":5200:5209   */\n          dup4\n            /* \"#utility.yul\":5181:5220   */\n          tag_31\n          jump\t// in\n        tag_101:\n            /* \"#utility.yul\":5169:5220   */\n          swap6\n          pop\n            /* \"#utility.yul\":5253:5257   */\n          dup1\n            /* \"#utility.yul\":5249:5258   */\n          not\n            /* \"#utility.yul\":5242:5247   */\n          dup5\n            /* \"#utility.yul\":5238:5259   */\n          and\n            /* \"#utility.yul\":5229:5259   */\n          swap4\n          pop\n            /* \"#utility.yul\":5302:5306   */\n          dup1\n            /* \"#utility.yul\":5292:5300   */\n          dup7\n            /* \"#utility.yul\":5288:5307   */\n          and\n            /* \"#utility.yul\":5281:5286   */\n          dup5\n            /* \"#utility.yul\":5278:5308   */\n          or\n            /* \"#utility.yul\":5268:5308   */\n          swap3\n          pop\n            /* \"#utility.yul\":4997:5314   */\n          pop\n          pop\n            /* \"#utility.yul\":4921:5314   */\n          swap4\n          swap3\n          pop\n          pop\n          pop\n          jump\t// out\n            /* \"#utility.yul\":5320:5380   */\n        tag_33:\n            /* \"#utility.yul\":5348:5351   */\n          0x00\n            /* \"#utility.yul\":5369:5374   */\n          dup2\n            /* \"#utility.yul\":5362:5374   */\n          swap1\n          pop\n            /* \"#utility.yul\":5320:5380   */\n          swap2\n          swap1\n          pop\n          jump\t// out\n            /* \"#utility.yul\":5386:5528   */\n        tag_34:\n            /* \"#utility.yul\":5436:5445   */\n          0x00\n            /* \"#utility.yul\":5469:5522   */\n          tag_104\n            /* \"#utility.yul\":5487:5521   */\n          tag_105\n            /* \"#utility.yul\":5496:5520   */\n          tag_106\n            /* \"#utility.yul\":5514:5519   */\n          dup5\n            /* \"#utility.yul\":5496:5520   */\n          tag_23\n          jump\t// in\n        tag_106:\n            /* \"#utility.yul\":5487:5521   */\n          tag_33\n          jump\t// in\n        tag_105:\n            /* \"#utility.yul\":5469:5522   */\n          tag_23\n          jump\t// in\n        tag_104:\n            /* \"#utility.yul\":5456:5522   */\n          swap1\n          pop\n            /* \"#utility.yul\":5386:5528   */\n          swap2\n          swap1\n          pop\n          jump\t// out\n            /* \"#utility.yul\":5534:5609   */\n        tag_35:\n            /* \"#utility.yul\":5577:5580   */\n          0x00\n            /* \"#utility.yul\":5598:5603   */\n          dup2\n            /* \"#utility.yul\":5591:5603   */\n          swap1\n          pop\n            /* \"#utility.yul\":5534:5609   */\n          swap2\n          swap1\n          pop\n          jump\t// out\n            /* \"#utility.yul\":5615:5884   */\n        tag_36:\n            /* \"#utility.yul\":5725:5764   */\n          tag_109\n            /* \"#utility.yul\":5756:5763   */\n          dup4\n            /* \"#utility.yul\":5725:5764   */\n          tag_34\n          jump\t// in\n        tag_109:\n            /* \"#utility.yul\":5786:5877   */\n          tag_110\n            /* \"#utility.yul\":5835:5876   */\n          tag_111\n            /* \"#utility.yul\":5859:5875   */\n          dup3\n            /* \"#utility.yul\":5835:5876   */\n          tag_35\n          jump\t// in\n        tag_111:\n            /* \"#utility.yul\":5827:5833   */\n          dup5\n            /* \"#utility.yul\":5820:5824   */\n          dup5\n            /* \"#utility.yul\":5814:5825   */\n          sload\n            /* \"#utility.yul\":5786:5877   */\n          tag_32\n          jump\t// in\n        tag_110:\n            /* \"#utility.yul\":5780:5784   */\n          dup3\n            /* \"#utility.yul\":5773:5878   */\n          sstore\n            /* \"#utility.yul\":5691:5884   */\n          pop\n            /* \"#utility.yul\":5615:5884   */\n          pop\n          pop\n          pop\n          jump\t// out\n            /* \"#utility.yul\":5890:5963   */\n        tag_37:\n            /* \"#utility.yul\":5935:5938   */\n          0x00\n            /* \"#utility.yul\":5956:5957   */\n          0x00\n            /* \"#utility.yul\":5949:5957   */\n          swap1\n          pop\n            /* \"#utility.yul\":5890:5963   */\n          swap1\n          jump\t// out\n            /* \"#utility.yul\":5969:6158   */\n        tag_38:\n            /* \"#utility.yul\":6046:6078   */\n          tag_114\n          tag_37\n          jump\t// in\n        tag_114:\n            /* \"#utility.yul\":6087:6152   */\n          tag_115\n            /* \"#utility.yul\":6145:6151   */\n          dup2\n            /* \"#utility.yul\":6137:6143   */\n          dup5\n            /* \"#utility.yul\":6131:6135   */\n          dup5\n            /* \"#utility.yul\":6087:6152   */\n          tag_36\n          jump\t// in\n        tag_115:\n            /* \"#utility.yul\":6022:6158   */\n          pop\n            /* \"#utility.yul\":5969:6158   */\n          pop\n          pop\n          jump\t// out\n            /* \"#utility.yul\":6164:6350   */\n        tag_39:\n            /* \"#utility.yul\":6224:6344   */\n        tag_117:\n            /* \"#utility.yul\":6241:6244   */\n          dup2\n            /* \"#utility.yul\":6234:6239   */\n          dup2\n            /* \"#utility.yul\":6231:6245   */\n          lt\n            /* \"#utility.yul\":6224:6344   */\n          iszero\n          tag_119\n          jumpi\n            /* \"#utility.yul\":6295:6334   */\n          tag_120\n            /* \"#utility.yul\":6332:6333   */\n          0x00\n            /* \"#utility.yul\":6325:6330   */\n          dup3\n            /* \"#utility.yul\":6295:6334   */\n          tag_38\n          jump\t// in\n        tag_120:\n            /* \"#utility.yul\":6268:6269   */\n          0x01\n            /* \"#utility.yul\":6261:6266   */\n          dup2\n            /* \"#utility.yul\":6257:6270   */\n          add\n            /* \"#utility.yul\":6248:6270   */\n          swap1\n          pop\n            /* \"#utility.yul\":6224:6344   */\n          jump(tag_117)\n        tag_119:\n            /* \"#utility.yul\":6164:6350   */\n          pop\n          pop\n          jump\t// out\n            /* \"#utility.yul\":6356:6899   */\n        tag_40:\n            /* \"#utility.yul\":6457:6459   */\n          0x1f\n            /* \"#utility.yul\":6452:6455   */\n          dup3\n            /* \"#utility.yul\":6449:6460   */\n          gt\n            /* \"#utility.yul\":6446:6892   */\n          iszero\n          tag_122\n          jumpi\n            /* \"#utility.yul\":6491:6529   */\n          tag_123\n            /* \"#utility.yul\":6523:6528   */\n          dup2\n            /* \"#utility.yul\":6491:6529   */\n          tag_29\n          jump\t// in\n        tag_123:\n            /* \"#utility.yul\":6575:6604   */\n          tag_124\n            /* \"#utility.yul\":6593:6603   */\n          dup5\n            /* \"#utility.yul\":6575:6604   */\n          tag_30\n          jump\t// in\n        tag_124:\n            /* \"#utility.yul\":6565:6573   */\n          dup2\n            /* \"#utility.yul\":6561:6605   */\n          add\n            /* \"#utility.yul\":6758:6760   */\n          0x20\n            /* \"#utility.yul\":6746:6756   */\n          dup6\n            /* \"#utility.yul\":6743:6761   */\n          lt\n            /* \"#utility.yul\":6740:6789   */\n          iszero\n          tag_125\n          jumpi\n            /* \"#utility.yul\":6779:6787   */\n          dup2\n            /* \"#utility.yul\":6764:6787   */\n          swap1\n          pop\n            /* \"#utility.yul\":6740:6789   */\n        tag_125:\n            /* \"#utility.yul\":6802:6882   */\n          tag_126\n            /* \"#utility.yul\":6858:6880   */\n          tag_127\n            /* \"#utility.yul\":6876:6879   */\n          dup6\n            /* \"#utility.yul\":6858:6880   */\n          tag_30\n          jump\t// in\n        tag_127:\n            /* \"#utility.yul\":6848:6856   */\n          dup4\n            /* \"#utility.yul\":6844:6881   */\n          add\n            /* \"#utility.yul\":6831:6842   */\n          dup3\n            /* \"#utility.yul\":6802:6882   */\n          tag_39\n          jump\t// in\n        tag_126:\n            /* \"#utility.yul\":6461:6892   */\n          pop\n          pop\n            /* \"#utility.yul\":6446:6892   */\n        tag_122:\n            /* \"#utility.yul\":6356:6899   */\n          pop\n          pop\n          pop\n          jump\t// out\n            /* \"#utility.yul\":6905:7022   */\n        tag_41:\n            /* \"#utility.yul\":6959:6967   */\n          0x00\n            /* \"#utility.yul\":7009:7014   */\n          dup3\n            /* \"#utility.yul\":7003:7007   */\n          dup3\n            /* \"#utility.yul\":6999:7015   */\n          shr\n            /* \"#utility.yul\":6978:7015   */\n          swap1\n          pop\n            /* \"#utility.yul\":6905:7022   */\n          swap3\n          swap2\n          pop\n          pop\n          jump\t// out\n            /* \"#utility.yul\":7028:7197   */\n        tag_42:\n            /* \"#utility.yul\":7072:7078   */\n          0x00\n            /* \"#utility.yul\":7105:7156   */\n          tag_130\n            /* \"#utility.yul\":7153:7154   */\n          0x00\n            /* \"#utility.yul\":7149:7155   */\n          not\n            /* \"#utility.yul\":7141:7146   */\n          dup5\n            /* \"#utility.yul\":7138:7139   */\n          0x08\n            /* \"#utility.yul\":7134:7147   */\n          mul\n            /* \"#utility.yul\":7105:7156   */\n          tag_41\n          jump\t// in\n        tag_130:\n            /* \"#utility.yul\":7101:7157   */\n          not\n            /* \"#utility.yul\":7186:7190   */\n          dup1\n            /* \"#utility.yul\":7180:7184   */\n          dup4\n            /* \"#utility.yul\":7176:7191   */\n          and\n            /* \"#utility.yul\":7166:7191   */\n          swap2\n          pop\n            /* \"#utility.yul\":7079:7197   */\n          pop\n            /* \"#utility.yul\":7028:7197   */\n          swap3\n          swap2\n          pop\n          pop\n          jump\t// out\n            /* \"#utility.yul\":7202:7497   */\n        tag_43:\n            /* \"#utility.yul\":7278:7282   */\n          0x00\n            /* \"#utility.yul\":7424:7453   */\n          tag_132\n            /* \"#utility.yul\":7449:7452   */\n          dup4\n            /* \"#utility.yul\":7443:7447   */\n          dup4\n            /* \"#utility.yul\":7424:7453   */\n          tag_42\n          jump\t// in\n        tag_132:\n            /* \"#utility.yul\":7416:7453   */\n          swap2\n          pop\n            /* \"#utility.yul\":7486:7489   */\n          dup3\n            /* \"#utility.yul\":7483:7484   */\n          0x02\n            /* \"#utility.yul\":7479:7490   */\n          mul\n            /* \"#utility.yul\":7473:7477   */\n          dup3\n            /* \"#utility.yul\":7470:7491   */\n          or\n            /* \"#utility.yul\":7462:7491   */\n          swap1\n          pop\n            /* \"#utility.yul\":7202:7497   */\n          swap3\n          swap2\n          pop\n          pop\n          jump\t// out\n            /* \"#utility.yul\":7502:8897   */\n        tag_7:\n            /* \"#utility.yul\":7619:7656   */\n          tag_134\n            /* \"#utility.yul\":7652:7655   */\n          dup3\n            /* \"#utility.yul\":7619:7656   */\n          tag_26\n          jump\t// in\n        tag_134:\n            /* \"#utility.yul\":7721:7739   */\n          0xffffffffffffffff\n            /* \"#utility.yul\":7713:7719   */\n          dup2\n            /* \"#utility.yul\":7710:7740   */\n          gt\n            /* \"#utility.yul\":7707:7763   */\n          iszero\n          tag_135\n          jumpi\n            /* \"#utility.yul\":7743:7761   */\n          tag_136\n          tag_16\n          jump\t// in\n        tag_136:\n            /* \"#utility.yul\":7707:7763   */\n        tag_135:\n            /* \"#utility.yul\":7787:7825   */\n          tag_137\n            /* \"#utility.yul\":7819:7823   */\n          dup3\n            /* \"#utility.yul\":7813:7824   */\n          sload\n            /* \"#utility.yul\":7787:7825   */\n          tag_28\n          jump\t// in\n        tag_137:\n            /* \"#utility.yul\":7872:7939   */\n          tag_138\n            /* \"#utility.yul\":7932:7938   */\n          dup3\n            /* \"#utility.yul\":7924:7930   */\n          dup3\n            /* \"#utility.yul\":7918:7922   */\n          dup6\n            /* \"#utility.yul\":7872:7939   */\n          tag_40\n          jump\t// in\n        tag_138:\n            /* \"#utility.yul\":7966:7967   */\n          0x00\n            /* \"#utility.yul\":7990:7994   */\n          0x20\n            /* \"#utility.yul\":7977:7994   */\n          swap1\n          pop\n            /* \"#utility.yul\":8022:8024   */\n          0x1f\n            /* \"#utility.yul\":8014:8020   */\n          dup4\n            /* \"#utility.yul\":8011:8025   */\n          gt\n            /* \"#utility.yul\":8039:8040   */\n          0x01\n            /* \"#utility.yul\":8034:8652   */\n          dup2\n          eq\n          tag_140\n          jumpi\n            /* \"#utility.yul\":8696:8697   */\n          0x00\n            /* \"#utility.yul\":8713:8719   */\n          dup5\n            /* \"#utility.yul\":8710:8787   */\n          iszero\n          tag_141\n          jumpi\n            /* \"#utility.yul\":8762:8771   */\n          dup3\n            /* \"#utility.yul\":8757:8760   */\n          dup8\n            /* \"#utility.yul\":8753:8772   */\n          add\n            /* \"#utility.yul\":8747:8773   */\n          mload\n            /* \"#utility.yul\":8738:8773   */\n          swap1\n          pop\n            /* \"#utility.yul\":8710:8787   */\n        tag_141:\n            /* \"#utility.yul\":8813:8880   */\n          tag_142\n            /* \"#utility.yul\":8873:8879   */\n          dup6\n            /* \"#utility.yul\":8866:8871   */\n          dup3\n            /* \"#utility.yul\":8813:8880   */\n          tag_43\n          jump\t// in\n        tag_142:\n            /* \"#utility.yul\":8807:8811   */\n          dup7\n            /* \"#utility.yul\":8800:8881   */\n          sstore\n            /* \"#utility.yul\":8669:8891   */\n          pop\n            /* \"#utility.yul\":8004:8891   */\n          jump(tag_139)\n            /* \"#utility.yul\":8034:8652   */\n        tag_140:\n            /* \"#utility.yul\":8086:8090   */\n          0x1f\n            /* \"#utility.yul\":8082:8091   */\n          not\n            /* \"#utility.yul\":8074:8080   */\n          dup5\n            /* \"#utility.yul\":8070:8092   */\n          and\n            /* \"#utility.yul\":8120:8157   */\n          tag_143\n            /* \"#utility.yul\":8152:8156   */\n          dup7\n            /* \"#utility.yul\":8120:8157   */\n          tag_29\n          jump\t// in\n        tag_143:\n            /* \"#utility.yul\":8179:8180   */\n          0x00\n            /* \"#utility.yul\":8193:8401   */\n        tag_144:\n            /* \"#utility.yul\":8207:8214   */\n          dup3\n            /* \"#utility.yul\":8204:8205   */\n          dup2\n            /* \"#utility.yul\":8201:8215   */\n          lt\n            /* \"#utility.yul\":8193:8401   */\n          iszero\n          tag_146\n          jumpi\n            /* \"#utility.yul\":8286:8295   */\n          dup5\n            /* \"#utility.yul\":8281:8284   */\n          dup10\n            /* \"#utility.yul\":8277:8296   */\n          add\n            /* \"#utility.yul\":8271:8297   */\n          mload\n            /* \"#utility.yul\":8263:8269   */\n          dup3\n            /* \"#utility.yul\":8256:8298   */\n          sstore\n            /* \"#utility.yul\":8337:8338   */\n          0x01\n            /* \"#utility.yul\":8329:8335   */\n          dup3\n            /* \"#utility.yul\":8325:8339   */\n          add\n            /* \"#utility.yul\":8315:8339   */\n          swap2\n          pop\n            /* \"#utility.yul\":8384:8386   */\n          0x20\n            /* \"#utility.yul\":8373:8382   */\n          dup6\n            /* \"#utility.yul\":8369:8387   */\n          add\n            /* \"#utility.yul\":8356:8387   */\n          swap5\n          pop\n            /* \"#utility.yul\":8230:8234   */\n          0x20\n            /* \"#utility.yul\":8227:8228   */\n          dup2\n            /* \"#utility.yul\":8223:8235   */\n          add\n            /* \"#utility.yul\":8218:8235   */\n          swap1\n          pop\n            /* \"#utility.yul\":8193:8401   */\n          jump(tag_144)\n        tag_146:\n            /* \"#utility.yul\":8429:8435   */\n          dup7\n            /* \"#utility.yul\":8420:8427   */\n          dup4\n            /* \"#utility.yul\":8417:8436   */\n          lt\n            /* \"#utility.yul\":8414:8593   */\n          iszero\n          tag_147\n          jumpi\n            /* \"#utility.yul\":8487:8496   */\n          dup5\n            /* \"#utility.yul\":8482:8485   */\n          dup10\n            /* \"#utility.yul\":8478:8497   */\n          add\n            /* \"#utility.yul\":8472:8498   */\n          mload\n            /* \"#utility.yul\":8530:8578   */\n          tag_148\n            /* \"#utility.yul\":8572:8576   */\n          0x1f\n            /* \"#utility.yul\":8564:8570   */\n          dup10\n            /* \"#utility.yul\":8560:8577   */\n          and\n            /* \"#utility.yul\":8549:8558   */\n          dup3\n            /* \"#utility.yul\":8530:8578   */\n          tag_42\n          jump\t// in\n        tag_148:\n            /* \"#utility.yul\":8522:8528   */\n          dup4\n            /* \"#utility.yul\":8515:8579   */\n          sstore\n            /* \"#utility.yul\":8437:8593   */\n          pop\n            /* \"#utility.yul\":8414:8593   */\n        tag_147:\n            /* \"#utility.yul\":8639:8640   */\n          0x01\n            /* \"#utility.yul\":8635:8636   */\n          0x02\n            /* \"#utility.yul\":8627:8633   */\n          dup9\n            /* \"#utility.yul\":8623:8637   */\n          mul\n            /* \"#utility.yul\":8619:8641   */\n          add\n            /* \"#utility.yul\":8613:8617   */\n          dup9\n            /* \"#utility.yul\":8606:8642   */\n          sstore\n            /* \"#utility.yul\":8041:8652   */\n          pop\n          pop\n          pop\n            /* \"#utility.yul\":8004:8891   */\n        tag_139:\n          pop\n            /* \"#utility.yul\":7594:8897   */\n          pop\n          pop\n          pop\n            /* \"#utility.yul\":7502:8897   */\n          pop\n          pop\n          jump\t// out\n            /* \"contracts/AssetFactory.sol\":82:564  contract Asset{... */\n        tag_9:\n          dataSize(sub_0)\n          dup1\n          dataOffset(sub_0)\n          0x00\n          codecopy\n          0x00\n          return\n        stop\n\n        sub_0: assembly {\n                /* \"contracts/AssetFactory.sol\":82:564  contract Asset{... */\n              mstore(0x40, 0x80)\n              jumpi(tag_1, lt(calldatasize, 0x04))\n              shr(0xe0, calldataload(0x00))\n              dup1\n              0x06fdde03\n              eq\n              tag_2\n              jumpi\n              dup1\n              0x37544dd8\n              eq\n              tag_3\n              jumpi\n              dup1\n              0x378dc3dc\n              eq\n              tag_4\n              jumpi\n              dup1\n              0x95d89b41\n              eq\n              tag_5\n              jumpi\n              dup1\n              0xf7260d3e\n              eq\n              tag_6\n              jumpi\n            tag_1:\n              revert(0x00, 0x00)\n                /* \"contracts/AssetFactory.sol\":132:150  string public name */\n            tag_2:\n              callvalue\n              dup1\n              iszero\n              tag_7\n              jumpi\n              revert(0x00, 0x00)\n            tag_7:\n              pop\n              tag_8\n              tag_9\n              jump\t// in\n            tag_8:\n              mload(0x40)\n              tag_10\n              swap2\n              swap1\n              tag_11\n              jump\t// in\n            tag_10:\n              mload(0x40)\n              dup1\n              swap2\n              sub\n              swap1\n              return\n                /* \"contracts/AssetFactory.sol\":418:561  function transferFunc() external payable{... */\n            tag_3:\n              tag_12\n              tag_13\n              jump\t// in\n            tag_12:\n              stop\n                /* \"contracts/AssetFactory.sol\":157:185  uint256 public initialSupply */\n            tag_4:\n              callvalue\n              dup1\n              iszero\n              tag_14\n              jumpi\n              revert(0x00, 0x00)\n            tag_14:\n              pop\n              tag_15\n              tag_16\n              jump\t// in\n            tag_15:\n              mload(0x40)\n              tag_17\n              swap2\n              swap1\n              tag_18\n              jump\t// in\n            tag_17:\n              mload(0x40)\n              dup1\n              swap2\n              sub\n              swap1\n              return\n                /* \"contracts/AssetFactory.sol\":105:125  string public symbol */\n            tag_5:\n              callvalue\n              dup1\n              iszero\n              tag_19\n              jumpi\n              revert(0x00, 0x00)\n            tag_19:\n              pop\n              tag_20\n              tag_21\n              jump\t// in\n            tag_20:\n              mload(0x40)\n              tag_22\n              swap2\n              swap1\n              tag_11\n              jump\t// in\n            tag_22:\n              mload(0x40)\n              dup1\n              swap2\n              sub\n              swap1\n              return\n                /* \"contracts/AssetFactory.sol\":192:223  address payable public receiver */\n            tag_6:\n              callvalue\n              dup1\n              iszero\n              tag_23\n              jumpi\n              revert(0x00, 0x00)\n            tag_23:\n              pop\n              tag_24\n              tag_25\n              jump\t// in\n            tag_24:\n              mload(0x40)\n              tag_26\n              swap2\n              swap1\n              tag_27\n              jump\t// in\n            tag_26:\n              mload(0x40)\n              dup1\n              swap2\n              sub\n              swap1\n              return\n                /* \"contracts/AssetFactory.sol\":132:150  string public name */\n            tag_9:\n              0x01\n              dup1\n              sload\n              tag_28\n              swap1\n              tag_29\n              jump\t// in\n            tag_28:\n              dup1\n              0x1f\n              add\n              0x20\n              dup1\n              swap2\n              div\n              mul\n              0x20\n              add\n              mload(0x40)\n              swap1\n              dup2\n              add\n              0x40\n              mstore\n              dup1\n              swap3\n              swap2\n              swap1\n              dup2\n              dup2\n              mstore\n              0x20\n              add\n              dup3\n              dup1\n              sload\n              tag_30\n              swap1\n              tag_29\n              jump\t// in\n            tag_30:\n              dup1\n              iszero\n              tag_31\n              jumpi\n              dup1\n              0x1f\n              lt\n              tag_32\n              jumpi\n              0x0100\n              dup1\n              dup4\n              sload\n              div\n              mul\n              dup4\n              mstore\n              swap2\n              0x20\n              add\n              swap2\n              jump(tag_31)\n            tag_32:\n              dup3\n              add\n              swap2\n              swap1\n              0x00\n              mstore\n              keccak256(0x00, 0x20)\n              swap1\n            tag_33:\n              dup2\n              sload\n              dup2\n              mstore\n              swap1\n              0x01\n              add\n              swap1\n              0x20\n              add\n              dup1\n              dup4\n              gt\n              tag_33\n              jumpi\n              dup3\n              swap1\n              sub\n              0x1f\n              and\n              dup3\n              add\n              swap2\n            tag_31:\n              pop\n              pop\n              pop\n              pop\n              pop\n              dup2\n              jump\t// out\n                /* \"contracts/AssetFactory.sol\":418:561  function transferFunc() external payable{... */\n            tag_13:\n                /* \"contracts/AssetFactory.sol\":489:490  0 */\n              0x00\n                /* \"contracts/AssetFactory.sol\":477:486  msg.value */\n              callvalue\n                /* \"contracts/AssetFactory.sol\":477:490  msg.value > 0 */\n              gt\n                /* \"contracts/AssetFactory.sol\":469:510  require(msg.value > 0, \"Must send Ether\") */\n              tag_35\n              jumpi\n              mload(0x40)\n              0x08c379a000000000000000000000000000000000000000000000000000000000\n              dup2\n              mstore\n              0x04\n              add\n              tag_36\n              swap1\n              tag_37\n              jump\t// in\n            tag_36:\n              mload(0x40)\n              dup1\n              swap2\n              sub\n              swap1\n              revert\n            tag_35:\n                /* \"contracts/AssetFactory.sol\":523:531  receiver */\n              0x03\n              0x00\n              swap1\n              sload\n              swap1\n              0x0100\n              exp\n              swap1\n              div\n              0xffffffffffffffffffffffffffffffffffffffff\n              and\n                /* \"contracts/AssetFactory.sol\":523:540  receiver.transfer */\n              0xffffffffffffffffffffffffffffffffffffffff\n              and\n                /* \"contracts/AssetFactory.sol\":523:551  receiver.transfer(msg.value) */\n              0x08fc\n                /* \"contracts/AssetFactory.sol\":541:550  msg.value */\n              callvalue\n                /* \"contracts/AssetFactory.sol\":523:551  receiver.transfer(msg.value) */\n              swap1\n              dup2\n              iszero\n              mul\n              swap1\n              mload(0x40)\n              0x00\n              mload(0x40)\n              dup1\n              dup4\n              sub\n              dup2\n              dup6\n              dup9\n              dup9\n              call\n              swap4\n              pop\n              pop\n              pop\n              pop\n              iszero\n              dup1\n              iszero\n              tag_39\n              jumpi\n              returndatacopy(0x00, 0x00, returndatasize)\n              revert(0x00, returndatasize)\n            tag_39:\n              pop\n                /* \"contracts/AssetFactory.sol\":418:561  function transferFunc() external payable{... */\n              jump\t// out\n                /* \"contracts/AssetFactory.sol\":157:185  uint256 public initialSupply */\n            tag_16:\n              sload(0x02)\n              dup2\n              jump\t// out\n                /* \"contracts/AssetFactory.sol\":105:125  string public symbol */\n            tag_21:\n              0x00\n              dup1\n              sload\n              tag_40\n              swap1\n              tag_29\n              jump\t// in\n            tag_40:\n              dup1\n              0x1f\n              add\n              0x20\n              dup1\n              swap2\n              div\n              mul\n              0x20\n              add\n              mload(0x40)\n              swap1\n              dup2\n              add\n              0x40\n              mstore\n              dup1\n              swap3\n              swap2\n              swap1\n              dup2\n              dup2\n              mstore\n              0x20\n              add\n              dup3\n              dup1\n              sload\n              tag_41\n              swap1\n              tag_29\n              jump\t// in\n            tag_41:\n              dup1\n              iszero\n              tag_42\n              jumpi\n              dup1\n              0x1f\n              lt\n              tag_43\n              jumpi\n              0x0100\n              dup1\n              dup4\n              sload\n              div\n              mul\n              dup4\n              mstore\n              swap2\n              0x20\n              add\n              swap2\n              jump(tag_42)\n            tag_43:\n              dup3\n              add\n              swap2\n              swap1\n              0x00\n              mstore\n              keccak256(0x00, 0x20)\n              swap1\n            tag_44:\n              dup2\n              sload\n              dup2\n              mstore\n              swap1\n              0x01\n              add\n              swap1\n              0x20\n              add\n              dup1\n              dup4\n              gt\n              tag_44\n              jumpi\n              dup3\n              swap1\n              sub\n              0x1f\n              and\n              dup3\n              add\n              swap2\n            tag_42:\n              pop\n              pop\n              pop\n              pop\n              pop\n              dup2\n              jump\t// out\n                /* \"contracts/AssetFactory.sol\":192:223  address payable public receiver */\n            tag_25:\n              0x03\n              0x00\n              swap1\n              sload\n              swap1\n              0x0100\n              exp\n              swap1\n              div\n              0xffffffffffffffffffffffffffffffffffffffff\n              and\n              dup2\n              jump\t// out\n                /* \"#utility.yul\":7:106   */\n            tag_45:\n                /* \"#utility.yul\":59:65   */\n              0x00\n                /* \"#utility.yul\":93:98   */\n              dup2\n                /* \"#utility.yul\":87:99   */\n              mload\n                /* \"#utility.yul\":77:99   */\n              swap1\n              pop\n                /* \"#utility.yul\":7:106   */\n              swap2\n              swap1\n              pop\n              jump\t// out\n                /* \"#utility.yul\":112:281   */\n            tag_46:\n                /* \"#utility.yul\":196:207   */\n              0x00\n                /* \"#utility.yul\":230:236   */\n              dup3\n                /* \"#utility.yul\":225:228   */\n              dup3\n                /* \"#utility.yul\":218:237   */\n              mstore\n                /* \"#utility.yul\":270:274   */\n              0x20\n                /* \"#utility.yul\":265:268   */\n              dup3\n                /* \"#utility.yul\":261:275   */\n              add\n                /* \"#utility.yul\":246:275   */\n              swap1\n              pop\n                /* \"#utility.yul\":112:281   */\n              swap3\n              swap2\n              pop\n              pop\n              jump\t// out\n                /* \"#utility.yul\":287:426   */\n            tag_47:\n                /* \"#utility.yul\":376:382   */\n              dup3\n                /* \"#utility.yul\":371:374   */\n              dup2\n                /* \"#utility.yul\":366:369   */\n              dup4\n                /* \"#utility.yul\":360:383   */\n              mcopy\n                /* \"#utility.yul\":417:418   */\n              0x00\n                /* \"#utility.yul\":408:414   */\n              dup4\n                /* \"#utility.yul\":403:406   */\n              dup4\n                /* \"#utility.yul\":399:415   */\n              add\n                /* \"#utility.yul\":392:419   */\n              mstore\n                /* \"#utility.yul\":287:426   */\n              pop\n              pop\n              pop\n              jump\t// out\n                /* \"#utility.yul\":432:534   */\n            tag_48:\n                /* \"#utility.yul\":473:479   */\n              0x00\n                /* \"#utility.yul\":524:526   */\n              0x1f\n                /* \"#utility.yul\":520:527   */\n              not\n                /* \"#utility.yul\":515:517   */\n              0x1f\n                /* \"#utility.yul\":508:513   */\n              dup4\n                /* \"#utility.yul\":504:518   */\n              add\n                /* \"#utility.yul\":500:528   */\n              and\n                /* \"#utility.yul\":490:528   */\n              swap1\n              pop\n                /* \"#utility.yul\":432:534   */\n              swap2\n              swap1\n              pop\n              jump\t// out\n                /* \"#utility.yul\":540:917   */\n            tag_49:\n                /* \"#utility.yul\":628:631   */\n              0x00\n                /* \"#utility.yul\":656:695   */\n              tag_64\n                /* \"#utility.yul\":689:694   */\n              dup3\n                /* \"#utility.yul\":656:695   */\n              tag_45\n              jump\t// in\n            tag_64:\n                /* \"#utility.yul\":711:782   */\n              tag_65\n                /* \"#utility.yul\":775:781   */\n              dup2\n                /* \"#utility.yul\":770:773   */\n              dup6\n                /* \"#utility.yul\":711:782   */\n              tag_46\n              jump\t// in\n            tag_65:\n                /* \"#utility.yul\":704:782   */\n              swap4\n              pop\n                /* \"#utility.yul\":791:856   */\n              tag_66\n                /* \"#utility.yul\":849:855   */\n              dup2\n                /* \"#utility.yul\":844:847   */\n              dup6\n                /* \"#utility.yul\":837:841   */\n              0x20\n                /* \"#utility.yul\":830:835   */\n              dup7\n                /* \"#utility.yul\":826:842   */\n              add\n                /* \"#utility.yul\":791:856   */\n              tag_47\n              jump\t// in\n            tag_66:\n                /* \"#utility.yul\":881:910   */\n              tag_67\n                /* \"#utility.yul\":903:909   */\n              dup2\n                /* \"#utility.yul\":881:910   */\n              tag_48\n              jump\t// in\n            tag_67:\n                /* \"#utility.yul\":876:879   */\n              dup5\n                /* \"#utility.yul\":872:911   */\n              add\n                /* \"#utility.yul\":865:911   */\n              swap2\n              pop\n                /* \"#utility.yul\":632:917   */\n              pop\n                /* \"#utility.yul\":540:917   */\n              swap3\n              swap2\n              pop\n              pop\n              jump\t// out\n                /* \"#utility.yul\":923:1236   */\n            tag_11:\n                /* \"#utility.yul\":1036:1040   */\n              0x00\n                /* \"#utility.yul\":1074:1076   */\n              0x20\n                /* \"#utility.yul\":1063:1072   */\n              dup3\n                /* \"#utility.yul\":1059:1077   */\n              add\n                /* \"#utility.yul\":1051:1077   */\n              swap1\n              pop\n                /* \"#utility.yul\":1123:1132   */\n              dup2\n                /* \"#utility.yul\":1117:1121   */\n              dup2\n                /* \"#utility.yul\":1113:1133   */\n              sub\n                /* \"#utility.yul\":1109:1110   */\n              0x00\n                /* \"#utility.yul\":1098:1107   */\n              dup4\n                /* \"#utility.yul\":1094:1111   */\n              add\n                /* \"#utility.yul\":1087:1134   */\n              mstore\n                /* \"#utility.yul\":1151:1229   */\n              tag_69\n                /* \"#utility.yul\":1224:1228   */\n              dup2\n                /* \"#utility.yul\":1215:1221   */\n              dup5\n                /* \"#utility.yul\":1151:1229   */\n              tag_49\n              jump\t// in\n            tag_69:\n                /* \"#utility.yul\":1143:1229   */\n              swap1\n              pop\n                /* \"#utility.yul\":923:1236   */\n              swap3\n              swap2\n              pop\n              pop\n              jump\t// out\n                /* \"#utility.yul\":1242:1319   */\n            tag_50:\n                /* \"#utility.yul\":1279:1286   */\n              0x00\n                /* \"#utility.yul\":1308:1313   */\n              dup2\n                /* \"#utility.yul\":1297:1313   */\n              swap1\n              pop\n                /* \"#utility.yul\":1242:1319   */\n              swap2\n              swap1\n              pop\n              jump\t// out\n                /* \"#utility.yul\":1325:1443   */\n            tag_51:\n                /* \"#utility.yul\":1412:1436   */\n              tag_72\n                /* \"#utility.yul\":1430:1435   */\n              dup2\n                /* \"#utility.yul\":1412:1436   */\n              tag_50\n              jump\t// in\n            tag_72:\n                /* \"#utility.yul\":1407:1410   */\n              dup3\n                /* \"#utility.yul\":1400:1437   */\n              mstore\n                /* \"#utility.yul\":1325:1443   */\n              pop\n              pop\n              jump\t// out\n                /* \"#utility.yul\":1449:1671   */\n            tag_18:\n                /* \"#utility.yul\":1542:1546   */\n              0x00\n                /* \"#utility.yul\":1580:1582   */\n              0x20\n                /* \"#utility.yul\":1569:1578   */\n              dup3\n                /* \"#utility.yul\":1565:1583   */\n              add\n                /* \"#utility.yul\":1557:1583   */\n              swap1\n              pop\n                /* \"#utility.yul\":1593:1664   */\n              tag_74\n                /* \"#utility.yul\":1661:1662   */\n              0x00\n                /* \"#utility.yul\":1650:1659   */\n              dup4\n                /* \"#utility.yul\":1646:1663   */\n              add\n                /* \"#utility.yul\":1637:1643   */\n              dup5\n                /* \"#utility.yul\":1593:1664   */\n              tag_51\n              jump\t// in\n            tag_74:\n                /* \"#utility.yul\":1449:1671   */\n              swap3\n              swap2\n              pop\n              pop\n              jump\t// out\n                /* \"#utility.yul\":1677:1803   */\n            tag_52:\n                /* \"#utility.yul\":1714:1721   */\n              0x00\n                /* \"#utility.yul\":1754:1796   */\n              0xffffffffffffffffffffffffffffffffffffffff\n                /* \"#utility.yul\":1747:1752   */\n              dup3\n                /* \"#utility.yul\":1743:1797   */\n              and\n                /* \"#utility.yul\":1732:1797   */\n              swap1\n              pop\n                /* \"#utility.yul\":1677:1803   */\n              swap2\n              swap1\n              pop\n              jump\t// out\n                /* \"#utility.yul\":1809:1913   */\n            tag_53:\n                /* \"#utility.yul\":1854:1861   */\n              0x00\n                /* \"#utility.yul\":1883:1907   */\n              tag_77\n                /* \"#utility.yul\":1901:1906   */\n              dup3\n                /* \"#utility.yul\":1883:1907   */\n              tag_52\n              jump\t// in\n            tag_77:\n                /* \"#utility.yul\":1872:1907   */\n              swap1\n              pop\n                /* \"#utility.yul\":1809:1913   */\n              swap2\n              swap1\n              pop\n              jump\t// out\n                /* \"#utility.yul\":1919:2061   */\n            tag_54:\n                /* \"#utility.yul\":2022:2054   */\n              tag_79\n                /* \"#utility.yul\":2048:2053   */\n              dup2\n                /* \"#utility.yul\":2022:2054   */\n              tag_53\n              jump\t// in\n            tag_79:\n                /* \"#utility.yul\":2017:2020   */\n              dup3\n                /* \"#utility.yul\":2010:2055   */\n              mstore\n                /* \"#utility.yul\":1919:2061   */\n              pop\n              pop\n              jump\t// out\n                /* \"#utility.yul\":2067:2321   */\n            tag_27:\n                /* \"#utility.yul\":2176:2180   */\n              0x00\n                /* \"#utility.yul\":2214:2216   */\n              0x20\n                /* \"#utility.yul\":2203:2212   */\n              dup3\n                /* \"#utility.yul\":2199:2217   */\n              add\n                /* \"#utility.yul\":2191:2217   */\n              swap1\n              pop\n                /* \"#utility.yul\":2227:2314   */\n              tag_81\n                /* \"#utility.yul\":2311:2312   */\n              0x00\n                /* \"#utility.yul\":2300:2309   */\n              dup4\n                /* \"#utility.yul\":2296:2313   */\n              add\n                /* \"#utility.yul\":2287:2293   */\n              dup5\n                /* \"#utility.yul\":2227:2314   */\n              tag_54\n              jump\t// in\n            tag_81:\n                /* \"#utility.yul\":2067:2321   */\n              swap3\n              swap2\n              pop\n              pop\n              jump\t// out\n                /* \"#utility.yul\":2327:2507   */\n            tag_55:\n                /* \"#utility.yul\":2375:2452   */\n              0x4e487b7100000000000000000000000000000000000000000000000000000000\n                /* \"#utility.yul\":2372:2373   */\n              0x00\n                /* \"#utility.yul\":2365:2453   */\n              mstore\n                /* \"#utility.yul\":2472:2476   */\n              0x22\n                /* \"#utility.yul\":2469:2470   */\n              0x04\n                /* \"#utility.yul\":2462:2477   */\n              mstore\n                /* \"#utility.yul\":2496:2500   */\n              0x24\n                /* \"#utility.yul\":2493:2494   */\n              0x00\n                /* \"#utility.yul\":2486:2501   */\n              revert\n                /* \"#utility.yul\":2513:2833   */\n            tag_29:\n                /* \"#utility.yul\":2557:2563   */\n              0x00\n                /* \"#utility.yul\":2594:2595   */\n              0x02\n                /* \"#utility.yul\":2588:2592   */\n              dup3\n                /* \"#utility.yul\":2584:2596   */\n              div\n                /* \"#utility.yul\":2574:2596   */\n              swap1\n              pop\n                /* \"#utility.yul\":2641:2642   */\n              0x01\n                /* \"#utility.yul\":2635:2639   */\n              dup3\n                /* \"#utility.yul\":2631:2643   */\n              and\n                /* \"#utility.yul\":2662:2680   */\n              dup1\n                /* \"#utility.yul\":2652:2733   */\n              tag_84\n              jumpi\n                /* \"#utility.yul\":2718:2722   */\n              0x7f\n                /* \"#utility.yul\":2710:2716   */\n              dup3\n                /* \"#utility.yul\":2706:2723   */\n              and\n                /* \"#utility.yul\":2696:2723   */\n              swap2\n              pop\n                /* \"#utility.yul\":2652:2733   */\n            tag_84:\n                /* \"#utility.yul\":2780:2782   */\n              0x20\n                /* \"#utility.yul\":2772:2778   */\n              dup3\n                /* \"#utility.yul\":2769:2783   */\n              lt\n                /* \"#utility.yul\":2749:2767   */\n              dup2\n                /* \"#utility.yul\":2746:2784   */\n              sub\n                /* \"#utility.yul\":2743:2827   */\n              tag_85\n              jumpi\n                /* \"#utility.yul\":2799:2817   */\n              tag_86\n              tag_55\n              jump\t// in\n            tag_86:\n                /* \"#utility.yul\":2743:2827   */\n            tag_85:\n                /* \"#utility.yul\":2564:2833   */\n              pop\n                /* \"#utility.yul\":2513:2833   */\n              swap2\n              swap1\n              pop\n              jump\t// out\n                /* \"#utility.yul\":2839:3004   */\n            tag_56:\n                /* \"#utility.yul\":2979:2996   */\n              0x4d7573742073656e642045746865720000000000000000000000000000000000\n                /* \"#utility.yul\":2975:2976   */\n              0x00\n                /* \"#utility.yul\":2967:2973   */\n              dup3\n                /* \"#utility.yul\":2963:2977   */\n              add\n                /* \"#utility.yul\":2956:2997   */\n              mstore\n                /* \"#utility.yul\":2839:3004   */\n              pop\n              jump\t// out\n                /* \"#utility.yul\":3010:3376   */\n            tag_57:\n                /* \"#utility.yul\":3152:3155   */\n              0x00\n                /* \"#utility.yul\":3173:3240   */\n              tag_89\n                /* \"#utility.yul\":3237:3239   */\n              0x0f\n                /* \"#utility.yul\":3232:3235   */\n              dup4\n                /* \"#utility.yul\":3173:3240   */\n              tag_46\n              jump\t// in\n            tag_89:\n                /* \"#utility.yul\":3166:3240   */\n              swap2\n              pop\n                /* \"#utility.yul\":3249:3342   */\n              tag_90\n                /* \"#utility.yul\":3338:3341   */\n              dup3\n                /* \"#utility.yul\":3249:3342   */\n              tag_56\n              jump\t// in\n            tag_90:\n                /* \"#utility.yul\":3367:3369   */\n              0x20\n                /* \"#utility.yul\":3362:3365   */\n              dup3\n                /* \"#utility.yul\":3358:3370   */\n              add\n                /* \"#utility.yul\":3351:3370   */\n              swap1\n              pop\n                /* \"#utility.yul\":3010:3376   */\n              swap2\n              swap1\n              pop\n              jump\t// out\n                /* \"#utility.yul\":3382:3801   */\n            tag_37:\n                /* \"#utility.yul\":3548:3552   */\n              0x00\n                /* \"#utility.yul\":3586:3588   */\n              0x20\n                /* \"#utility.yul\":3575:3584   */\n              dup3\n                /* \"#utility.yul\":3571:3589   */\n              add\n                /* \"#utility.yul\":3563:3589   */\n              swap1\n              pop\n                /* \"#utility.yul\":3635:3644   */\n              dup2\n                /* \"#utility.yul\":3629:3633   */\n              dup2\n                /* \"#utility.yul\":3625:3645   */\n              sub\n                /* \"#utility.yul\":3621:3622   */\n              0x00\n                /* \"#utility.yul\":3610:3619   */\n              dup4\n                /* \"#utility.yul\":3606:3623   */\n              add\n                /* \"#utility.yul\":3599:3646   */\n              mstore\n                /* \"#utility.yul\":3663:3794   */\n              tag_92\n                /* \"#utility.yul\":3789:3793   */\n              dup2\n                /* \"#utility.yul\":3663:3794   */\n              tag_57\n              jump\t// in\n            tag_92:\n                /* \"#utility.yul\":3655:3794   */\n              swap1\n              pop\n                /* \"#utility.yul\":3382:3801   */\n              swap2\n              swap1\n              pop\n              jump\t// out\n\n            auxdata: 0xa26469706673582212205c4f78facdf23066c257c82f076b6e9c44d114a47ddd90a0c6b32a0288a23b6264736f6c634300081c0033\n        }\n    }\n\n    auxdata: 0xa264697066735822122088d91db4f65d2930ec08e77918c22610c2edff84ae290f852f094d676ae286ed64736f6c634300081c0033\n}\n",
				"bytecode": {
					"linkReferences": {},
					"object": "6080604052348015600e575f5ffd5b506112018061001c5f395ff3fe60806040526004361061003e575f3560e01c8063030020d214610042578063631cd1a61461006a5780636acfb485146100a6578063eec990f2146100e2575b5f5ffd5b34801561004d575f5ffd5b5061006860048036038101906100639190610466565b6100fe565b005b348015610075575f5ffd5b50610090600480360381019061008b91906104ee565b6101f7565b60405161009d9190610574565b60405180910390f35b3480156100b1575f5ffd5b506100cc60048036038101906100c7919061058d565b61023f565b6040516100d99190610613565b60405180910390f35b6100fc60048036038101906100f79190610656565b610279565b005b5f83838360405161010e906102d9565b61011a939291906106f0565b604051809103905ff080158015610133573d5f5f3e3d5ffd5b5090505f81908060018154018082558091505060019003905f5260205f20015f9091909190916101000a81548173ffffffffffffffffffffffffffffffffffffffff021916908373ffffffffffffffffffffffffffffffffffffffff160217905550336001846040516101a6919061076d565b90815260200160405180910390205f6101000a81548173ffffffffffffffffffffffffffffffffffffffff021916908373ffffffffffffffffffffffffffffffffffffffff16021790555050505050565b6001818051602081018201805184825260208301602085012081835280955050505050505f915054906101000a900473ffffffffffffffffffffffffffffffffffffffff1681565b5f818154811061024d575f80fd5b905f5260205f20015f915054906101000a900473ffffffffffffffffffffffffffffffffffffffff1681565b8073ffffffffffffffffffffffffffffffffffffffff166337544dd8346040518263ffffffff1660e01b81526004015f604051808303818588803b1580156102bf575f5ffd5b505af11580156102d1573d5f5f3e3d5ffd5b505050505050565b610a488061078483390190565b5f604051905090565b5f5ffd5b5f5ffd5b5f5ffd5b5f5ffd5b5f601f19601f8301169050919050565b7f4e487b71000000000000000000000000000000000000000000000000000000005f52604160045260245ffd5b610345826102ff565b810181811067ffffffffffffffff821117156103645761036361030f565b5b80604052505050565b5f6103766102e6565b9050610382828261033c565b919050565b5f67ffffffffffffffff8211156103a1576103a061030f565b5b6103aa826102ff565b9050602081019050919050565b828183375f83830152505050565b5f6103d76103d284610387565b61036d565b9050828152602081018484840111156103f3576103f26102fb565b5b6103fe8482856103b7565b509392505050565b5f82601f83011261041a576104196102f7565b5b813561042a8482602086016103c5565b91505092915050565b5f819050919050565b61044581610433565b811461044f575f5ffd5b50565b5f813590506104608161043c565b92915050565b5f5f5f6060848603121561047d5761047c6102ef565b5b5f84013567ffffffffffffffff81111561049a576104996102f3565b5b6104a686828701610406565b935050602084013567ffffffffffffffff8111156104c7576104c66102f3565b5b6104d386828701610406565b92505060406104e486828701610452565b9150509250925092565b5f60208284031215610503576105026102ef565b5b5f82013567ffffffffffffffff8111156105205761051f6102f3565b5b61052c84828501610406565b91505092915050565b5f73ffffffffffffffffffffffffffffffffffffffff82169050919050565b5f61055e82610535565b9050919050565b61056e81610554565b82525050565b5f6020820190506105875f830184610565565b92915050565b5f602082840312156105a2576105a16102ef565b5b5f6105af84828501610452565b91505092915050565b5f819050919050565b5f6105db6105d66105d184610535565b6105b8565b610535565b9050919050565b5f6105ec826105c1565b9050919050565b5f6105fd826105e2565b9050919050565b61060d816105f3565b82525050565b5f6020820190506106265f830184610604565b92915050565b61063581610554565b811461063f575f5ffd5b50565b5f813590506106508161062c565b92915050565b5f6020828403121561066b5761066a6102ef565b5b5f61067884828501610642565b91505092915050565b5f81519050919050565b5f82825260208201905092915050565b8281835e5f83830152505050565b5f6106b382610681565b6106bd818561068b565b93506106cd81856020860161069b565b6106d6816102ff565b840191505092915050565b6106ea81610433565b82525050565b5f6060820190508181035f83015261070881866106a9565b9050818103602083015261071c81856106a9565b905061072b60408301846106e1565b949350505050565b5f81905092915050565b5f61074782610681565b6107518185610733565b935061076181856020860161069b565b80840191505092915050565b5f610778828461073d565b91508190509291505056fe608060405234801561000f575f5ffd5b50604051610a48380380610a48833981810160405281019061003191906101df565b825f908161003f919061046e565b50816001908161004f919061046e565b508060028190555050505061053d565b5f604051905090565b5f5ffd5b5f5ffd5b5f5ffd5b5f5ffd5b5f601f19601f8301169050919050565b7f4e487b71000000000000000000000000000000000000000000000000000000005f52604160045260245ffd5b6100be82610078565b810181811067ffffffffffffffff821117156100dd576100dc610088565b5b80604052505050565b5f6100ef61005f565b90506100fb82826100b5565b919050565b5f67ffffffffffffffff82111561011a57610119610088565b5b61012382610078565b9050602081019050919050565b8281835e5f83830152505050565b5f61015061014b84610100565b6100e6565b90508281526020810184848401111561016c5761016b610074565b5b610177848285610130565b509392505050565b5f82601f83011261019357610192610070565b5b81516101a384826020860161013e565b91505092915050565b5f819050919050565b6101be816101ac565b81146101c8575f5ffd5b50565b5f815190506101d9816101b5565b92915050565b5f5f5f606084860312156101f6576101f5610068565b5b5f84015167ffffffffffffffff8111156102135761021261006c565b5b61021f8682870161017f565b935050602084015167ffffffffffffffff8111156102405761023f61006c565b5b61024c8682870161017f565b925050604061025d868287016101cb565b9150509250925092565b5f81519050919050565b7f4e487b71000000000000000000000000000000000000000000000000000000005f52602260045260245ffd5b5f60028204905060018216806102b557607f821691505b6020821081036102c8576102c7610271565b5b50919050565b5f819050815f5260205f209050919050565b5f6020601f8301049050919050565b5f82821b905092915050565b5f6008830261032a7fffffffffffffffffffffffffffffffffffffffffffffffffffffffffffffffff826102ef565b61033486836102ef565b95508019841693508086168417925050509392505050565b5f819050919050565b5f61036f61036a610365846101ac565b61034c565b6101ac565b9050919050565b5f819050919050565b61038883610355565b61039c61039482610376565b8484546102fb565b825550505050565b5f5f905090565b6103b36103a4565b6103be81848461037f565b505050565b5b818110156103e1576103d65f826103ab565b6001810190506103c4565b5050565b601f821115610426576103f7816102ce565b610400846102e0565b8101602085101561040f578190505b61042361041b856102e0565b8301826103c3565b50505b505050565b5f82821c905092915050565b5f6104465f198460080261042b565b1980831691505092915050565b5f61045e8383610437565b9150826002028217905092915050565b61047782610267565b67ffffffffffffffff8111156104905761048f610088565b5b61049a825461029e565b6104a58282856103e5565b5f60209050601f8311600181146104d6575f84156104c4578287015190505b6104ce8582610453565b865550610535565b601f1984166104e4866102ce565b5f5b8281101561050b578489015182556001820191506020850194506020810190506104e6565b868310156105285784890151610524601f891682610437565b8355505b6001600288020188555050505b505050505050565b6104fe8061054a5f395ff3fe608060405260043610610049575f3560e01c806306fdde031461004d57806337544dd814610077578063378dc3dc1461008157806395d89b41146100ab578063f7260d3e146100d5575b5f5ffd5b348015610058575f5ffd5b506100616100ff565b60405161006e919061035a565b60405180910390f35b61007f61018b565b005b34801561008c575f5ffd5b50610095610234565b6040516100a29190610392565b60405180910390f35b3480156100b6575f5ffd5b506100bf61023a565b6040516100cc919061035a565b60405180910390f35b3480156100e0575f5ffd5b506100e96102c5565b6040516100f691906103ea565b60405180910390f35b6001805461010c90610430565b80601f016020809104026020016040519081016040528092919081815260200182805461013890610430565b80156101835780601f1061015a57610100808354040283529160200191610183565b820191905f5260205f20905b81548152906001019060200180831161016657829003601f168201915b505050505081565b5f34116101cd576040517f08c379a00000000000000000000000000000000000000000000000000000000081526004016101c4906104aa565b60405180910390fd5b60035f9054906101000a900473ffffffffffffffffffffffffffffffffffffffff1673ffffffffffffffffffffffffffffffffffffffff166108fc3490811502906040515f60405180830381858888f19350505050158015610231573d5f5f3e3d5ffd5b50565b60025481565b5f805461024690610430565b80601f016020809104026020016040519081016040528092919081815260200182805461027290610430565b80156102bd5780601f10610294576101008083540402835291602001916102bd565b820191905f5260205f20905b8154815290600101906020018083116102a057829003601f168201915b505050505081565b60035f9054906101000a900473ffffffffffffffffffffffffffffffffffffffff1681565b5f81519050919050565b5f82825260208201905092915050565b8281835e5f83830152505050565b5f601f19601f8301169050919050565b5f61032c826102ea565b61033681856102f4565b9350610346818560208601610304565b61034f81610312565b840191505092915050565b5f6020820190508181035f8301526103728184610322565b905092915050565b5f819050919050565b61038c8161037a565b82525050565b5f6020820190506103a55f830184610383565b92915050565b5f73ffffffffffffffffffffffffffffffffffffffff82169050919050565b5f6103d4826103ab565b9050919050565b6103e4816103ca565b82525050565b5f6020820190506103fd5f8301846103db565b92915050565b7f4e487b71000000000000000000000000000000000000000000000000000000005f52602260045260245ffd5b5f600282049050600182168061044757607f821691505b60208210810361045a57610459610403565b5b50919050565b7f4d7573742073656e6420457468657200000000000000000000000000000000005f82015250565b5f610494600f836102f4565b915061049f82610460565b602082019050919050565b5f6020820190508181035f8301526104c181610488565b905091905056fea26469706673582212205c4f78facdf23066c257c82f076b6e9c44d114a47ddd90a0c6b32a0288a23b6264736f6c634300081c0033a264697066735822122088d91db4f65d2930ec08e77918c22610c2edff84ae290f852f094d676ae286ed64736f6c634300081c0033",
					"opcodes": "PUSH1 0x80 PUSH1 0x40 MSTORE CALLVALUE DUP1 ISZERO PUSH1 0xE JUMPI PUSH0 PUSH0 REVERT JUMPDEST POP PUSH2 0x1201 DUP1 PUSH2 0x1C PUSH0 CODECOPY PUSH0 RETURN INVALID PUSH1 0x80 PUSH1 0x40 MSTORE PUSH1 0x4 CALLDATASIZE LT PUSH2 0x3E JUMPI PUSH0 CALLDATALOAD PUSH1 0xE0 SHR DUP1 PUSH4 0x30020D2 EQ PUSH2 0x42 JUMPI DUP1 PUSH4 0x631CD1A6 EQ PUSH2 0x6A JUMPI DUP1 PUSH4 0x6ACFB485 EQ PUSH2 0xA6 JUMPI DUP1 PUSH4 0xEEC990F2 EQ PUSH2 0xE2 JUMPI JUMPDEST PUSH0 PUSH0 REVERT JUMPDEST CALLVALUE DUP1 ISZERO PUSH2 0x4D JUMPI PUSH0 PUSH0 REVERT JUMPDEST POP PUSH2 0x68 PUSH1 0x4 DUP1 CALLDATASIZE SUB DUP2 ADD SWAP1 PUSH2 0x63 SWAP2 SWAP1 PUSH2 0x466 JUMP JUMPDEST PUSH2 0xFE JUMP JUMPDEST STOP JUMPDEST CALLVALUE DUP1 ISZERO PUSH2 0x75 JUMPI PUSH0 PUSH0 REVERT JUMPDEST POP PUSH2 0x90 PUSH1 0x4 DUP1 CALLDATASIZE SUB DUP2 ADD SWAP1 PUSH2 0x8B SWAP2 SWAP1 PUSH2 0x4EE JUMP JUMPDEST PUSH2 0x1F7 JUMP JUMPDEST PUSH1 0x40 MLOAD PUSH2 0x9D SWAP2 SWAP1 PUSH2 0x574 JUMP JUMPDEST PUSH1 0x40 MLOAD DUP1 SWAP2 SUB SWAP1 RETURN JUMPDEST CALLVALUE DUP1 ISZERO PUSH2 0xB1 JUMPI PUSH0 PUSH0 REVERT JUMPDEST POP PUSH2 0xCC PUSH1 0x4 DUP1 CALLDATASIZE SUB DUP2 ADD SWAP1 PUSH2 0xC7 SWAP2 SWAP1 PUSH2 0x58D JUMP JUMPDEST PUSH2 0x23F JUMP JUMPDEST PUSH1 0x40 MLOAD PUSH2 0xD9 SWAP2 SWAP1 PUSH2 0x613 JUMP JUMPDEST PUSH1 0x40 MLOAD DUP1 SWAP2 SUB SWAP1 RETURN JUMPDEST PUSH2 0xFC PUSH1 0x4 DUP1 CALLDATASIZE SUB DUP2 ADD SWAP1 PUSH2 0xF7 SWAP2 SWAP1 PUSH2 0x656 JUMP JUMPDEST PUSH2 0x279 JUMP JUMPDEST STOP JUMPDEST PUSH0 DUP4 DUP4 DUP4 PUSH1 0x40 MLOAD PUSH2 0x10E SWAP1 PUSH2 0x2D9 JUMP JUMPDEST PUSH2 0x11A SWAP4 SWAP3 SWAP2 SWAP1 PUSH2 0x6F0 JUMP JUMPDEST PUSH1 0x40 MLOAD DUP1 SWAP2 SUB SWAP1 PUSH0 CREATE DUP1 ISZERO DUP1 ISZERO PUSH2 0x133 JUMPI RETURNDATASIZE PUSH0 PUSH0 RETURNDATACOPY RETURNDATASIZE PUSH0 REVERT JUMPDEST POP SWAP1 POP PUSH0 DUP2 SWAP1 DUP1 PUSH1 0x1 DUP2 SLOAD ADD DUP1 DUP3 SSTORE DUP1 SWAP2 POP POP PUSH1 0x1 SWAP1 SUB SWAP1 PUSH0 MSTORE PUSH1 0x20 PUSH0 KECCAK256 ADD PUSH0 SWAP1 SWAP2 SWAP1 SWAP2 SWAP1 SWAP2 PUSH2 0x100 EXP DUP2 SLOAD DUP2 PUSH20 0xFFFFFFFFFFFFFFFFFFFFFFFFFFFFFFFFFFFFFFFF MUL NOT AND SWAP1 DUP4 PUSH20 0xFFFFFFFFFFFFFFFFFFFFFFFFFFFFFFFFFFFFFFFF AND MUL OR SWAP1 SSTORE POP CALLER PUSH1 0x1 DUP5 PUSH1 0x40 MLOAD PUSH2 0x1A6 SWAP2 SWAP1 PUSH2 0x76D JUMP JUMPDEST SWAP1 DUP2 MSTORE PUSH1 0x20 ADD PUSH1 0x40 MLOAD DUP1 SWAP2 SUB SWAP1 KECCAK256 PUSH0 PUSH2 0x100 EXP DUP2 SLOAD DUP2 PUSH20 0xFFFFFFFFFFFFFFFFFFFFFFFFFFFFFFFFFFFFFFFF MUL NOT AND SWAP1 DUP4 PUSH20 0xFFFFFFFFFFFFFFFFFFFFFFFFFFFFFFFFFFFFFFFF AND MUL OR SWAP1 SSTORE POP POP POP POP POP JUMP JUMPDEST PUSH1 0x1 DUP2 DUP1 MLOAD PUSH1 0x20 DUP2 ADD DUP3 ADD DUP1 MLOAD DUP5 DUP3 MSTORE PUSH1 0x20 DUP4 ADD PUSH1 0x20 DUP6 ADD KECCAK256 DUP2 DUP4 MSTORE DUP1 SWAP6 POP POP POP POP POP POP PUSH0 SWAP2 POP SLOAD SWAP1 PUSH2 0x100 EXP SWAP1 DIV PUSH20 0xFFFFFFFFFFFFFFFFFFFFFFFFFFFFFFFFFFFFFFFF AND DUP2 JUMP JUMPDEST PUSH0 DUP2 DUP2 SLOAD DUP2 LT PUSH2 0x24D JUMPI PUSH0 DUP1 REVERT JUMPDEST SWAP1 PUSH0 MSTORE PUSH1 0x20 PUSH0 KECCAK256 ADD PUSH0 SWAP2 POP SLOAD SWAP1 PUSH2 0x100 EXP SWAP1 DIV PUSH20 0xFFFFFFFFFFFFFFFFFFFFFFFFFFFFFFFFFFFFFFFF AND DUP2 JUMP JUMPDEST DUP1 PUSH20 0xFFFFFFFFFFFFFFFFFFFFFFFFFFFFFFFFFFFFFFFF AND PUSH4 0x37544DD8 CALLVALUE PUSH1 0x40 MLOAD DUP3 PUSH4 0xFFFFFFFF AND PUSH1 0xE0 SHL DUP2 MSTORE PUSH1 0x4 ADD PUSH0 PUSH1 0x40 MLOAD DUP1 DUP4 SUB DUP2 DUP6 DUP9 DUP1 EXTCODESIZE ISZERO DUP1 ISZERO PUSH2 0x2BF JUMPI PUSH0 PUSH0 REVERT JUMPDEST POP GAS CALL ISZERO DUP1 ISZERO PUSH2 0x2D1 JUMPI RETURNDATASIZE PUSH0 PUSH0 RETURNDATACOPY RETURNDATASIZE PUSH0 REVERT JUMPDEST POP POP POP POP POP POP JUMP JUMPDEST PUSH2 0xA48 DUP1 PUSH2 0x784 DUP4 CODECOPY ADD SWAP1 JUMP JUMPDEST PUSH0 PUSH1 0x40 MLOAD SWAP1 POP SWAP1 JUMP JUMPDEST PUSH0 PUSH0 REVERT JUMPDEST PUSH0 PUSH0 REVERT JUMPDEST PUSH0 PUSH0 REVERT JUMPDEST PUSH0 PUSH0 REVERT JUMPDEST PUSH0 PUSH1 0x1F NOT PUSH1 0x1F DUP4 ADD AND SWAP1 POP SWAP2 SWAP1 POP JUMP JUMPDEST PUSH32 0x4E487B7100000000000000000000000000000000000000000000000000000000 PUSH0 MSTORE PUSH1 0x41 PUSH1 0x4 MSTORE PUSH1 0x24 PUSH0 REVERT JUMPDEST PUSH2 0x345 DUP3 PUSH2 0x2FF JUMP JUMPDEST DUP2 ADD DUP2 DUP2 LT PUSH8 0xFFFFFFFFFFFFFFFF DUP3 GT OR ISZERO PUSH2 0x364 JUMPI PUSH2 0x363 PUSH2 0x30F JUMP JUMPDEST JUMPDEST DUP1 PUSH1 0x40 MSTORE POP POP POP JUMP JUMPDEST PUSH0 PUSH2 0x376 PUSH2 0x2E6 JUMP JUMPDEST SWAP1 POP PUSH2 0x382 DUP3 DUP3 PUSH2 0x33C JUMP JUMPDEST SWAP2 SWAP1 POP JUMP JUMPDEST PUSH0 PUSH8 0xFFFFFFFFFFFFFFFF DUP3 GT ISZERO PUSH2 0x3A1 JUMPI PUSH2 0x3A0 PUSH2 0x30F JUMP JUMPDEST JUMPDEST PUSH2 0x3AA DUP3 PUSH2 0x2FF JUMP JUMPDEST SWAP1 POP PUSH1 0x20 DUP2 ADD SWAP1 POP SWAP2 SWAP1 POP JUMP JUMPDEST DUP3 DUP2 DUP4 CALLDATACOPY PUSH0 DUP4 DUP4 ADD MSTORE POP POP POP JUMP JUMPDEST PUSH0 PUSH2 0x3D7 PUSH2 0x3D2 DUP5 PUSH2 0x387 JUMP JUMPDEST PUSH2 0x36D JUMP JUMPDEST SWAP1 POP DUP3 DUP2 MSTORE PUSH1 0x20 DUP2 ADD DUP5 DUP5 DUP5 ADD GT ISZERO PUSH2 0x3F3 JUMPI PUSH2 0x3F2 PUSH2 0x2FB JUMP JUMPDEST JUMPDEST PUSH2 0x3FE DUP5 DUP3 DUP6 PUSH2 0x3B7 JUMP JUMPDEST POP SWAP4 SWAP3 POP POP POP JUMP JUMPDEST PUSH0 DUP3 PUSH1 0x1F DUP4 ADD SLT PUSH2 0x41A JUMPI PUSH2 0x419 PUSH2 0x2F7 JUMP JUMPDEST JUMPDEST DUP2 CALLDATALOAD PUSH2 0x42A DUP5 DUP3 PUSH1 0x20 DUP7 ADD PUSH2 0x3C5 JUMP JUMPDEST SWAP2 POP POP SWAP3 SWAP2 POP POP JUMP JUMPDEST PUSH0 DUP2 SWAP1 POP SWAP2 SWAP1 POP JUMP JUMPDEST PUSH2 0x445 DUP2 PUSH2 0x433 JUMP JUMPDEST DUP2 EQ PUSH2 0x44F JUMPI PUSH0 PUSH0 REVERT JUMPDEST POP JUMP JUMPDEST PUSH0 DUP2 CALLDATALOAD SWAP1 POP PUSH2 0x460 DUP2 PUSH2 0x43C JUMP JUMPDEST SWAP3 SWAP2 POP POP JUMP JUMPDEST PUSH0 PUSH0 PUSH0 PUSH1 0x60 DUP5 DUP7 SUB SLT ISZERO PUSH2 0x47D JUMPI PUSH2 0x47C PUSH2 0x2EF JUMP JUMPDEST JUMPDEST PUSH0 DUP5 ADD CALLDATALOAD PUSH8 0xFFFFFFFFFFFFFFFF DUP2 GT ISZERO PUSH2 0x49A JUMPI PUSH2 0x499 PUSH2 0x2F3 JUMP JUMPDEST JUMPDEST PUSH2 0x4A6 DUP7 DUP3 DUP8 ADD PUSH2 0x406 JUMP JUMPDEST SWAP4 POP POP PUSH1 0x20 DUP5 ADD CALLDATALOAD PUSH8 0xFFFFFFFFFFFFFFFF DUP2 GT ISZERO PUSH2 0x4C7 JUMPI PUSH2 0x4C6 PUSH2 0x2F3 JUMP JUMPDEST JUMPDEST PUSH2 0x4D3 DUP7 DUP3 DUP8 ADD PUSH2 0x406 JUMP JUMPDEST SWAP3 POP POP PUSH1 0x40 PUSH2 0x4E4 DUP7 DUP3 DUP8 ADD PUSH2 0x452 JUMP JUMPDEST SWAP2 POP POP SWAP3 POP SWAP3 POP SWAP3 JUMP JUMPDEST PUSH0 PUSH1 0x20 DUP3 DUP5 SUB SLT ISZERO PUSH2 0x503 JUMPI PUSH2 0x502 PUSH2 0x2EF JUMP JUMPDEST JUMPDEST PUSH0 DUP3 ADD CALLDATALOAD PUSH8 0xFFFFFFFFFFFFFFFF DUP2 GT ISZERO PUSH2 0x520 JUMPI PUSH2 0x51F PUSH2 0x2F3 JUMP JUMPDEST JUMPDEST PUSH2 0x52C DUP5 DUP3 DUP6 ADD PUSH2 0x406 JUMP JUMPDEST SWAP2 POP POP SWAP3 SWAP2 POP POP JUMP JUMPDEST PUSH0 PUSH20 0xFFFFFFFFFFFFFFFFFFFFFFFFFFFFFFFFFFFFFFFF DUP3 AND SWAP1 POP SWAP2 SWAP1 POP JUMP JUMPDEST PUSH0 PUSH2 0x55E DUP3 PUSH2 0x535 JUMP JUMPDEST SWAP1 POP SWAP2 SWAP1 POP JUMP JUMPDEST PUSH2 0x56E DUP2 PUSH2 0x554 JUMP JUMPDEST DUP3 MSTORE POP POP JUMP JUMPDEST PUSH0 PUSH1 0x20 DUP3 ADD SWAP1 POP PUSH2 0x587 PUSH0 DUP4 ADD DUP5 PUSH2 0x565 JUMP JUMPDEST SWAP3 SWAP2 POP POP JUMP JUMPDEST PUSH0 PUSH1 0x20 DUP3 DUP5 SUB SLT ISZERO PUSH2 0x5A2 JUMPI PUSH2 0x5A1 PUSH2 0x2EF JUMP JUMPDEST JUMPDEST PUSH0 PUSH2 0x5AF DUP5 DUP3 DUP6 ADD PUSH2 0x452 JUMP JUMPDEST SWAP2 POP POP SWAP3 SWAP2 POP POP JUMP JUMPDEST PUSH0 DUP2 SWAP1 POP SWAP2 SWAP1 POP JUMP JUMPDEST PUSH0 PUSH2 0x5DB PUSH2 0x5D6 PUSH2 0x5D1 DUP5 PUSH2 0x535 JUMP JUMPDEST PUSH2 0x5B8 JUMP JUMPDEST PUSH2 0x535 JUMP JUMPDEST SWAP1 POP SWAP2 SWAP1 POP JUMP JUMPDEST PUSH0 PUSH2 0x5EC DUP3 PUSH2 0x5C1 JUMP JUMPDEST SWAP1 POP SWAP2 SWAP1 POP JUMP JUMPDEST PUSH0 PUSH2 0x5FD DUP3 PUSH2 0x5E2 JUMP JUMPDEST SWAP1 POP SWAP2 SWAP1 POP JUMP JUMPDEST PUSH2 0x60D DUP2 PUSH2 0x5F3 JUMP JUMPDEST DUP3 MSTORE POP POP JUMP JUMPDEST PUSH0 PUSH1 0x20 DUP3 ADD SWAP1 POP PUSH2 0x626 PUSH0 DUP4 ADD DUP5 PUSH2 0x604 JUMP JUMPDEST SWAP3 SWAP2 POP POP JUMP JUMPDEST PUSH2 0x635 DUP2 PUSH2 0x554 JUMP JUMPDEST DUP2 EQ PUSH2 0x63F JUMPI PUSH0 PUSH0 REVERT JUMPDEST POP JUMP JUMPDEST PUSH0 DUP2 CALLDATALOAD SWAP1 POP PUSH2 0x650 DUP2 PUSH2 0x62C JUMP JUMPDEST SWAP3 SWAP2 POP POP JUMP JUMPDEST PUSH0 PUSH1 0x20 DUP3 DUP5 SUB SLT ISZERO PUSH2 0x66B JUMPI PUSH2 0x66A PUSH2 0x2EF JUMP JUMPDEST JUMPDEST PUSH0 PUSH2 0x678 DUP5 DUP3 DUP6 ADD PUSH2 0x642 JUMP JUMPDEST SWAP2 POP POP SWAP3 SWAP2 POP POP JUMP JUMPDEST PUSH0 DUP2 MLOAD SWAP1 POP SWAP2 SWAP1 POP JUMP JUMPDEST PUSH0 DUP3 DUP3 MSTORE PUSH1 0x20 DUP3 ADD SWAP1 POP SWAP3 SWAP2 POP POP JUMP JUMPDEST DUP3 DUP2 DUP4 MCOPY PUSH0 DUP4 DUP4 ADD MSTORE POP POP POP JUMP JUMPDEST PUSH0 PUSH2 0x6B3 DUP3 PUSH2 0x681 JUMP JUMPDEST PUSH2 0x6BD DUP2 DUP6 PUSH2 0x68B JUMP JUMPDEST SWAP4 POP PUSH2 0x6CD DUP2 DUP6 PUSH1 0x20 DUP7 ADD PUSH2 0x69B JUMP JUMPDEST PUSH2 0x6D6 DUP2 PUSH2 0x2FF JUMP JUMPDEST DUP5 ADD SWAP2 POP POP SWAP3 SWAP2 POP POP JUMP JUMPDEST PUSH2 0x6EA DUP2 PUSH2 0x433 JUMP JUMPDEST DUP3 MSTORE POP POP JUMP JUMPDEST PUSH0 PUSH1 0x60 DUP3 ADD SWAP1 POP DUP2 DUP2 SUB PUSH0 DUP4 ADD MSTORE PUSH2 0x708 DUP2 DUP7 PUSH2 0x6A9 JUMP JUMPDEST SWAP1 POP DUP2 DUP2 SUB PUSH1 0x20 DUP4 ADD MSTORE PUSH2 0x71C DUP2 DUP6 PUSH2 0x6A9 JUMP JUMPDEST SWAP1 POP PUSH2 0x72B PUSH1 0x40 DUP4 ADD DUP5 PUSH2 0x6E1 JUMP JUMPDEST SWAP5 SWAP4 POP POP POP POP JUMP JUMPDEST PUSH0 DUP2 SWAP1 POP SWAP3 SWAP2 POP POP JUMP JUMPDEST PUSH0 PUSH2 0x747 DUP3 PUSH2 0x681 JUMP JUMPDEST PUSH2 0x751 DUP2 DUP6 PUSH2 0x733 JUMP JUMPDEST SWAP4 POP PUSH2 0x761 DUP2 DUP6 PUSH1 0x20 DUP7 ADD PUSH2 0x69B JUMP JUMPDEST DUP1 DUP5 ADD SWAP2 POP POP SWAP3 SWAP2 POP POP JUMP JUMPDEST PUSH0 PUSH2 0x778 DUP3 DUP5 PUSH2 0x73D JUMP JUMPDEST SWAP2 POP DUP2 SWAP1 POP SWAP3 SWAP2 POP POP JUMP INVALID PUSH1 0x80 PUSH1 0x40 MSTORE CALLVALUE DUP1 ISZERO PUSH2 0xF JUMPI PUSH0 PUSH0 REVERT JUMPDEST POP PUSH1 0x40 MLOAD PUSH2 0xA48 CODESIZE SUB DUP1 PUSH2 0xA48 DUP4 CODECOPY DUP2 DUP2 ADD PUSH1 0x40 MSTORE DUP2 ADD SWAP1 PUSH2 0x31 SWAP2 SWAP1 PUSH2 0x1DF JUMP JUMPDEST DUP3 PUSH0 SWAP1 DUP2 PUSH2 0x3F SWAP2 SWAP1 PUSH2 0x46E JUMP JUMPDEST POP DUP2 PUSH1 0x1 SWAP1 DUP2 PUSH2 0x4F SWAP2 SWAP1 PUSH2 0x46E JUMP JUMPDEST POP DUP1 PUSH1 0x2 DUP2 SWAP1 SSTORE POP POP POP POP PUSH2 0x53D JUMP JUMPDEST PUSH0 PUSH1 0x40 MLOAD SWAP1 POP SWAP1 JUMP JUMPDEST PUSH0 PUSH0 REVERT JUMPDEST PUSH0 PUSH0 REVERT JUMPDEST PUSH0 PUSH0 REVERT JUMPDEST PUSH0 PUSH0 REVERT JUMPDEST PUSH0 PUSH1 0x1F NOT PUSH1 0x1F DUP4 ADD AND SWAP1 POP SWAP2 SWAP1 POP JUMP JUMPDEST PUSH32 0x4E487B7100000000000000000000000000000000000000000000000000000000 PUSH0 MSTORE PUSH1 0x41 PUSH1 0x4 MSTORE PUSH1 0x24 PUSH0 REVERT JUMPDEST PUSH2 0xBE DUP3 PUSH2 0x78 JUMP JUMPDEST DUP2 ADD DUP2 DUP2 LT PUSH8 0xFFFFFFFFFFFFFFFF DUP3 GT OR ISZERO PUSH2 0xDD JUMPI PUSH2 0xDC PUSH2 0x88 JUMP JUMPDEST JUMPDEST DUP1 PUSH1 0x40 MSTORE POP POP POP JUMP JUMPDEST PUSH0 PUSH2 0xEF PUSH2 0x5F JUMP JUMPDEST SWAP1 POP PUSH2 0xFB DUP3 DUP3 PUSH2 0xB5 JUMP JUMPDEST SWAP2 SWAP1 POP JUMP JUMPDEST PUSH0 PUSH8 0xFFFFFFFFFFFFFFFF DUP3 GT ISZERO PUSH2 0x11A JUMPI PUSH2 0x119 PUSH2 0x88 JUMP JUMPDEST JUMPDEST PUSH2 0x123 DUP3 PUSH2 0x78 JUMP JUMPDEST SWAP1 POP PUSH1 0x20 DUP2 ADD SWAP1 POP SWAP2 SWAP1 POP JUMP JUMPDEST DUP3 DUP2 DUP4 MCOPY PUSH0 DUP4 DUP4 ADD MSTORE POP POP POP JUMP JUMPDEST PUSH0 PUSH2 0x150 PUSH2 0x14B DUP5 PUSH2 0x100 JUMP JUMPDEST PUSH2 0xE6 JUMP JUMPDEST SWAP1 POP DUP3 DUP2 MSTORE PUSH1 0x20 DUP2 ADD DUP5 DUP5 DUP5 ADD GT ISZERO PUSH2 0x16C JUMPI PUSH2 0x16B PUSH2 0x74 JUMP JUMPDEST JUMPDEST PUSH2 0x177 DUP5 DUP3 DUP6 PUSH2 0x130 JUMP JUMPDEST POP SWAP4 SWAP3 POP POP POP JUMP JUMPDEST PUSH0 DUP3 PUSH1 0x1F DUP4 ADD SLT PUSH2 0x193 JUMPI PUSH2 0x192 PUSH2 0x70 JUMP JUMPDEST JUMPDEST DUP2 MLOAD PUSH2 0x1A3 DUP5 DUP3 PUSH1 0x20 DUP7 ADD PUSH2 0x13E JUMP JUMPDEST SWAP2 POP POP SWAP3 SWAP2 POP POP JUMP JUMPDEST PUSH0 DUP2 SWAP1 POP SWAP2 SWAP1 POP JUMP JUMPDEST PUSH2 0x1BE DUP2 PUSH2 0x1AC JUMP JUMPDEST DUP2 EQ PUSH2 0x1C8 JUMPI PUSH0 PUSH0 REVERT JUMPDEST POP JUMP JUMPDEST PUSH0 DUP2 MLOAD SWAP1 POP PUSH2 0x1D9 DUP2 PUSH2 0x1B5 JUMP JUMPDEST SWAP3 SWAP2 POP POP JUMP JUMPDEST PUSH0 PUSH0 PUSH0 PUSH1 0x60 DUP5 DUP7 SUB SLT ISZERO PUSH2 0x1F6 JUMPI PUSH2 0x1F5 PUSH2 0x68 JUMP JUMPDEST JUMPDEST PUSH0 DUP5 ADD MLOAD PUSH8 0xFFFFFFFFFFFFFFFF DUP2 GT ISZERO PUSH2 0x213 JUMPI PUSH2 0x212 PUSH2 0x6C JUMP JUMPDEST JUMPDEST PUSH2 0x21F DUP7 DUP3 DUP8 ADD PUSH2 0x17F JUMP JUMPDEST SWAP4 POP POP PUSH1 0x20 DUP5 ADD MLOAD PUSH8 0xFFFFFFFFFFFFFFFF DUP2 GT ISZERO PUSH2 0x240 JUMPI PUSH2 0x23F PUSH2 0x6C JUMP JUMPDEST JUMPDEST PUSH2 0x24C DUP7 DUP3 DUP8 ADD PUSH2 0x17F JUMP JUMPDEST SWAP3 POP POP PUSH1 0x40 PUSH2 0x25D DUP7 DUP3 DUP8 ADD PUSH2 0x1CB JUMP JUMPDEST SWAP2 POP POP SWAP3 POP SWAP3 POP SWAP3 JUMP JUMPDEST PUSH0 DUP2 MLOAD SWAP1 POP SWAP2 SWAP1 POP JUMP JUMPDEST PUSH32 0x4E487B7100000000000000000000000000000000000000000000000000000000 PUSH0 MSTORE PUSH1 0x22 PUSH1 0x4 MSTORE PUSH1 0x24 PUSH0 REVERT JUMPDEST PUSH0 PUSH1 0x2 DUP3 DIV SWAP1 POP PUSH1 0x1 DUP3 AND DUP1 PUSH2 0x2B5 JUMPI PUSH1 0x7F DUP3 AND SWAP2 POP JUMPDEST PUSH1 0x20 DUP3 LT DUP2 SUB PUSH2 0x2C8 JUMPI PUSH2 0x2C7 PUSH2 0x271 JUMP JUMPDEST JUMPDEST POP SWAP2 SWAP1 POP JUMP JUMPDEST PUSH0 DUP2 SWAP1 POP DUP2 PUSH0 MSTORE PUSH1 0x20 PUSH0 KECCAK256 SWAP1 POP SWAP2 SWAP1 POP JUMP JUMPDEST PUSH0 PUSH1 0x20 PUSH1 0x1F DUP4 ADD DIV SWAP1 POP SWAP2 SWAP1 POP JUMP JUMPDEST PUSH0 DUP3 DUP3 SHL SWAP1 POP SWAP3 SWAP2 POP POP JUMP JUMPDEST PUSH0 PUSH1 0x8 DUP4 MUL PUSH2 0x32A PUSH32 0xFFFFFFFFFFFFFFFFFFFFFFFFFFFFFFFFFFFFFFFFFFFFFFFFFFFFFFFFFFFFFFFF DUP3 PUSH2 0x2EF JUMP JUMPDEST PUSH2 0x334 DUP7 DUP4 PUSH2 0x2EF JUMP JUMPDEST SWAP6 POP DUP1 NOT DUP5 AND SWAP4 POP DUP1 DUP7 AND DUP5 OR SWAP3 POP POP POP SWAP4 SWAP3 POP POP POP JUMP JUMPDEST PUSH0 DUP2 SWAP1 POP SWAP2 SWAP1 POP JUMP JUMPDEST PUSH0 PUSH2 0x36F PUSH2 0x36A PUSH2 0x365 DUP5 PUSH2 0x1AC JUMP JUMPDEST PUSH2 0x34C JUMP JUMPDEST PUSH2 0x1AC JUMP JUMPDEST SWAP1 POP SWAP2 SWAP1 POP JUMP JUMPDEST PUSH0 DUP2 SWAP1 POP SWAP2 SWAP1 POP JUMP JUMPDEST PUSH2 0x388 DUP4 PUSH2 0x355 JUMP JUMPDEST PUSH2 0x39C PUSH2 0x394 DUP3 PUSH2 0x376 JUMP JUMPDEST DUP5 DUP5 SLOAD PUSH2 0x2FB JUMP JUMPDEST DUP3 SSTORE POP POP POP POP JUMP JUMPDEST PUSH0 PUSH0 SWAP1 POP SWAP1 JUMP JUMPDEST PUSH2 0x3B3 PUSH2 0x3A4 JUMP JUMPDEST PUSH2 0x3BE DUP2 DUP5 DUP5 PUSH2 0x37F JUMP JUMPDEST POP POP POP JUMP JUMPDEST JUMPDEST DUP2 DUP2 LT ISZERO PUSH2 0x3E1 JUMPI PUSH2 0x3D6 PUSH0 DUP3 PUSH2 0x3AB JUMP JUMPDEST PUSH1 0x1 DUP2 ADD SWAP1 POP PUSH2 0x3C4 JUMP JUMPDEST POP POP JUMP JUMPDEST PUSH1 0x1F DUP3 GT ISZERO PUSH2 0x426 JUMPI PUSH2 0x3F7 DUP2 PUSH2 0x2CE JUMP JUMPDEST PUSH2 0x400 DUP5 PUSH2 0x2E0 JUMP JUMPDEST DUP2 ADD PUSH1 0x20 DUP6 LT ISZERO PUSH2 0x40F JUMPI DUP2 SWAP1 POP JUMPDEST PUSH2 0x423 PUSH2 0x41B DUP6 PUSH2 0x2E0 JUMP JUMPDEST DUP4 ADD DUP3 PUSH2 0x3C3 JUMP JUMPDEST POP POP JUMPDEST POP POP POP JUMP JUMPDEST PUSH0 DUP3 DUP3 SHR SWAP1 POP SWAP3 SWAP2 POP POP JUMP JUMPDEST PUSH0 PUSH2 0x446 PUSH0 NOT DUP5 PUSH1 0x8 MUL PUSH2 0x42B JUMP JUMPDEST NOT DUP1 DUP4 AND SWAP2 POP POP SWAP3 SWAP2 POP POP JUMP JUMPDEST PUSH0 PUSH2 0x45E DUP4 DUP4 PUSH2 0x437 JUMP JUMPDEST SWAP2 POP DUP3 PUSH1 0x2 MUL DUP3 OR SWAP1 POP SWAP3 SWAP2 POP POP JUMP JUMPDEST PUSH2 0x477 DUP3 PUSH2 0x267 JUMP JUMPDEST PUSH8 0xFFFFFFFFFFFFFFFF DUP2 GT ISZERO PUSH2 0x490 JUMPI PUSH2 0x48F PUSH2 0x88 JUMP JUMPDEST JUMPDEST PUSH2 0x49A DUP3 SLOAD PUSH2 0x29E JUMP JUMPDEST PUSH2 0x4A5 DUP3 DUP3 DUP6 PUSH2 0x3E5 JUMP JUMPDEST PUSH0 PUSH1 0x20 SWAP1 POP PUSH1 0x1F DUP4 GT PUSH1 0x1 DUP2 EQ PUSH2 0x4D6 JUMPI PUSH0 DUP5 ISZERO PUSH2 0x4C4 JUMPI DUP3 DUP8 ADD MLOAD SWAP1 POP JUMPDEST PUSH2 0x4CE DUP6 DUP3 PUSH2 0x453 JUMP JUMPDEST DUP7 SSTORE POP PUSH2 0x535 JUMP JUMPDEST PUSH1 0x1F NOT DUP5 AND PUSH2 0x4E4 DUP7 PUSH2 0x2CE JUMP JUMPDEST PUSH0 JUMPDEST DUP3 DUP2 LT ISZERO PUSH2 0x50B JUMPI DUP5 DUP10 ADD MLOAD DUP3 SSTORE PUSH1 0x1 DUP3 ADD SWAP2 POP PUSH1 0x20 DUP6 ADD SWAP5 POP PUSH1 0x20 DUP2 ADD SWAP1 POP PUSH2 0x4E6 JUMP JUMPDEST DUP7 DUP4 LT ISZERO PUSH2 0x528 JUMPI DUP5 DUP10 ADD MLOAD PUSH2 0x524 PUSH1 0x1F DUP10 AND DUP3 PUSH2 0x437 JUMP JUMPDEST DUP4 SSTORE POP JUMPDEST PUSH1 0x1 PUSH1 0x2 DUP9 MUL ADD DUP9 SSTORE POP POP POP JUMPDEST POP POP POP POP POP POP JUMP JUMPDEST PUSH2 0x4FE DUP1 PUSH2 0x54A PUSH0 CODECOPY PUSH0 RETURN INVALID PUSH1 0x80 PUSH1 0x40 MSTORE PUSH1 0x4 CALLDATASIZE LT PUSH2 0x49 JUMPI PUSH0 CALLDATALOAD PUSH1 0xE0 SHR DUP1 PUSH4 0x6FDDE03 EQ PUSH2 0x4D JUMPI DUP1 PUSH4 0x37544DD8 EQ PUSH2 0x77 JUMPI DUP1 PUSH4 0x378DC3DC EQ PUSH2 0x81 JUMPI DUP1 PUSH4 0x95D89B41 EQ PUSH2 0xAB JUMPI DUP1 PUSH4 0xF7260D3E EQ PUSH2 0xD5 JUMPI JUMPDEST PUSH0 PUSH0 REVERT JUMPDEST CALLVALUE DUP1 ISZERO PUSH2 0x58 JUMPI PUSH0 PUSH0 REVERT JUMPDEST POP PUSH2 0x61 PUSH2 0xFF JUMP JUMPDEST PUSH1 0x40 MLOAD PUSH2 0x6E SWAP2 SWAP1 PUSH2 0x35A JUMP JUMPDEST PUSH1 0x40 MLOAD DUP1 SWAP2 SUB SWAP1 RETURN JUMPDEST PUSH2 0x7F PUSH2 0x18B JUMP JUMPDEST STOP JUMPDEST CALLVALUE DUP1 ISZERO PUSH2 0x8C JUMPI PUSH0 PUSH0 REVERT JUMPDEST POP PUSH2 0x95 PUSH2 0x234 JUMP JUMPDEST PUSH1 0x40 MLOAD PUSH2 0xA2 SWAP2 SWAP1 PUSH2 0x392 JUMP JUMPDEST PUSH1 0x40 MLOAD DUP1 SWAP2 SUB SWAP1 RETURN JUMPDEST CALLVALUE DUP1 ISZERO PUSH2 0xB6 JUMPI PUSH0 PUSH0 REVERT JUMPDEST POP PUSH2 0xBF PUSH2 0x23A JUMP JUMPDEST PUSH1 0x40 MLOAD PUSH2 0xCC SWAP2 SWAP1 PUSH2 0x35A JUMP JUMPDEST PUSH1 0x40 MLOAD DUP1 SWAP2 SUB SWAP1 RETURN JUMPDEST CALLVALUE DUP1 ISZERO PUSH2 0xE0 JUMPI PUSH0 PUSH0 REVERT JUMPDEST POP PUSH2 0xE9 PUSH2 0x2C5 JUMP JUMPDEST PUSH1 0x40 MLOAD PUSH2 0xF6 SWAP2 SWAP1 PUSH2 0x3EA JUMP JUMPDEST PUSH1 0x40 MLOAD DUP1 SWAP2 SUB SWAP1 RETURN JUMPDEST PUSH1 0x1 DUP1 SLOAD PUSH2 0x10C SWAP1 PUSH2 0x430 JUMP JUMPDEST DUP1 PUSH1 0x1F ADD PUSH1 0x20 DUP1 SWAP2 DIV MUL PUSH1 0x20 ADD PUSH1 0x40 MLOAD SWAP1 DUP2 ADD PUSH1 0x40 MSTORE DUP1 SWAP3 SWAP2 SWAP1 DUP2 DUP2 MSTORE PUSH1 0x20 ADD DUP3 DUP1 SLOAD PUSH2 0x138 SWAP1 PUSH2 0x430 JUMP JUMPDEST DUP1 ISZERO PUSH2 0x183 JUMPI DUP1 PUSH1 0x1F LT PUSH2 0x15A JUMPI PUSH2 0x100 DUP1 DUP4 SLOAD DIV MUL DUP4 MSTORE SWAP2 PUSH1 0x20 ADD SWAP2 PUSH2 0x183 JUMP JUMPDEST DUP3 ADD SWAP2 SWAP1 PUSH0 MSTORE PUSH1 0x20 PUSH0 KECCAK256 SWAP1 JUMPDEST DUP2 SLOAD DUP2 MSTORE SWAP1 PUSH1 0x1 ADD SWAP1 PUSH1 0x20 ADD DUP1 DUP4 GT PUSH2 0x166 JUMPI DUP3 SWAP1 SUB PUSH1 0x1F AND DUP3 ADD SWAP2 JUMPDEST POP POP POP POP POP DUP2 JUMP JUMPDEST PUSH0 CALLVALUE GT PUSH2 0x1CD JUMPI PUSH1 0x40 MLOAD PUSH32 0x8C379A000000000000000000000000000000000000000000000000000000000 DUP2 MSTORE PUSH1 0x4 ADD PUSH2 0x1C4 SWAP1 PUSH2 0x4AA JUMP JUMPDEST PUSH1 0x40 MLOAD DUP1 SWAP2 SUB SWAP1 REVERT JUMPDEST PUSH1 0x3 PUSH0 SWAP1 SLOAD SWAP1 PUSH2 0x100 EXP SWAP1 DIV PUSH20 0xFFFFFFFFFFFFFFFFFFFFFFFFFFFFFFFFFFFFFFFF AND PUSH20 0xFFFFFFFFFFFFFFFFFFFFFFFFFFFFFFFFFFFFFFFF AND PUSH2 0x8FC CALLVALUE SWAP1 DUP2 ISZERO MUL SWAP1 PUSH1 0x40 MLOAD PUSH0 PUSH1 0x40 MLOAD DUP1 DUP4 SUB DUP2 DUP6 DUP9 DUP9 CALL SWAP4 POP POP POP POP ISZERO DUP1 ISZERO PUSH2 0x231 JUMPI RETURNDATASIZE PUSH0 PUSH0 RETURNDATACOPY RETURNDATASIZE PUSH0 REVERT JUMPDEST POP JUMP JUMPDEST PUSH1 0x2 SLOAD DUP2 JUMP JUMPDEST PUSH0 DUP1 SLOAD PUSH2 0x246 SWAP1 PUSH2 0x430 JUMP JUMPDEST DUP1 PUSH1 0x1F ADD PUSH1 0x20 DUP1 SWAP2 DIV MUL PUSH1 0x20 ADD PUSH1 0x40 MLOAD SWAP1 DUP2 ADD PUSH1 0x40 MSTORE DUP1 SWAP3 SWAP2 SWAP1 DUP2 DUP2 MSTORE PUSH1 0x20 ADD DUP3 DUP1 SLOAD PUSH2 0x272 SWAP1 PUSH2 0x430 JUMP JUMPDEST DUP1 ISZERO PUSH2 0x2BD JUMPI DUP1 PUSH1 0x1F LT PUSH2 0x294 JUMPI PUSH2 0x100 DUP1 DUP4 SLOAD DIV MUL DUP4 MSTORE SWAP2 PUSH1 0x20 ADD SWAP2 PUSH2 0x2BD JUMP JUMPDEST DUP3 ADD SWAP2 SWAP1 PUSH0 MSTORE PUSH1 0x20 PUSH0 KECCAK256 SWAP1 JUMPDEST DUP2 SLOAD DUP2 MSTORE SWAP1 PUSH1 0x1 ADD SWAP1 PUSH1 0x20 ADD DUP1 DUP4 GT PUSH2 0x2A0 JUMPI DUP3 SWAP1 SUB PUSH1 0x1F AND DUP3 ADD SWAP2 JUMPDEST POP POP POP POP POP DUP2 JUMP JUMPDEST PUSH1 0x3 PUSH0 SWAP1 SLOAD SWAP1 PUSH2 0x100 EXP SWAP1 DIV PUSH20 0xFFFFFFFFFFFFFFFFFFFFFFFFFFFFFFFFFFFFFFFF AND DUP2 JUMP JUMPDEST PUSH0 DUP2 MLOAD SWAP1 POP SWAP2 SWAP1 POP JUMP JUMPDEST PUSH0 DUP3 DUP3 MSTORE PUSH1 0x20 DUP3 ADD SWAP1 POP SWAP3 SWAP2 POP POP JUMP JUMPDEST DUP3 DUP2 DUP4 MCOPY PUSH0 DUP4 DUP4 ADD MSTORE POP POP POP JUMP JUMPDEST PUSH0 PUSH1 0x1F NOT PUSH1 0x1F DUP4 ADD AND SWAP1 POP SWAP2 SWAP1 POP JUMP JUMPDEST PUSH0 PUSH2 0x32C DUP3 PUSH2 0x2EA JUMP JUMPDEST PUSH2 0x336 DUP2 DUP6 PUSH2 0x2F4 JUMP JUMPDEST SWAP4 POP PUSH2 0x346 DUP2 DUP6 PUSH1 0x20 DUP7 ADD PUSH2 0x304 JUMP JUMPDEST PUSH2 0x34F DUP2 PUSH2 0x312 JUMP JUMPDEST DUP5 ADD SWAP2 POP POP SWAP3 SWAP2 POP POP JUMP JUMPDEST PUSH0 PUSH1 0x20 DUP3 ADD SWAP1 POP DUP2 DUP2 SUB PUSH0 DUP4 ADD MSTORE PUSH2 0x372 DUP2 DUP5 PUSH2 0x322 JUMP JUMPDEST SWAP1 POP SWAP3 SWAP2 POP POP JUMP JUMPDEST PUSH0 DUP2 SWAP1 POP SWAP2 SWAP1 POP JUMP JUMPDEST PUSH2 0x38C DUP2 PUSH2 0x37A JUMP JUMPDEST DUP3 MSTORE POP POP JUMP JUMPDEST PUSH0 PUSH1 0x20 DUP3 ADD SWAP1 POP PUSH2 0x3A5 PUSH0 DUP4 ADD DUP5 PUSH2 0x383 JUMP JUMPDEST SWAP3 SWAP2 POP POP JUMP JUMPDEST PUSH0 PUSH20 0xFFFFFFFFFFFFFFFFFFFFFFFFFFFFFFFFFFFFFFFF DUP3 AND SWAP1 POP SWAP2 SWAP1 POP JUMP JUMPDEST PUSH0 PUSH2 0x3D4 DUP3 PUSH2 0x3AB JUMP JUMPDEST SWAP1 POP SWAP2 SWAP1 POP JUMP JUMPDEST PUSH2 0x3E4 DUP2 PUSH2 0x3CA JUMP JUMPDEST DUP3 MSTORE POP POP JUMP JUMPDEST PUSH0 PUSH1 0x20 DUP3 ADD SWAP1 POP PUSH2 0x3FD PUSH0 DUP4 ADD DUP5 PUSH2 0x3DB JUMP JUMPDEST SWAP3 SWAP2 POP POP JUMP JUMPDEST PUSH32 0x4E487B7100000000000000000000000000000000000000000000000000000000 PUSH0 MSTORE PUSH1 0x22 PUSH1 0x4 MSTORE PUSH1 0x24 PUSH0 REVERT JUMPDEST PUSH0 PUSH1 0x2 DUP3 DIV SWAP1 POP PUSH1 0x1 DUP3 AND DUP1 PUSH2 0x447 JUMPI PUSH1 0x7F DUP3 AND SWAP2 POP JUMPDEST PUSH1 0x20 DUP3 LT DUP2 SUB PUSH2 0x45A JUMPI PUSH2 0x459 PUSH2 0x403 JUMP JUMPDEST JUMPDEST POP SWAP2 SWAP1 POP JUMP JUMPDEST PUSH32 0x4D7573742073656E642045746865720000000000000000000000000000000000 PUSH0 DUP3 ADD MSTORE POP JUMP JUMPDEST PUSH0 PUSH2 0x494 PUSH1 0xF DUP4 PUSH2 0x2F4 JUMP JUMPDEST SWAP2 POP PUSH2 0x49F DUP3 PUSH2 0x460 JUMP JUMPDEST PUSH1 0x20 DUP3 ADD SWAP1 POP SWAP2 SWAP1 POP JUMP JUMPDEST PUSH0 PUSH1 0x20 DUP3 ADD SWAP1 POP DUP2 DUP2 SUB PUSH0 DUP4 ADD MSTORE PUSH2 0x4C1 DUP2 PUSH2 0x488 JUMP JUMPDEST SWAP1 POP SWAP2 SWAP1 POP JUMP INVALID LOG2 PUSH5 0x6970667358 0x22 SLT KECCAK256 TLOAD 0x4F PUSH25 0xFACDF23066C257C82F076B6E9C44D114A47DDD90A0C6B32A02 DUP9 LOG2 EXTCODESIZE PUSH3 0x64736F PUSH13 0x634300081C0033A26469706673 PC 0x22 SLT KECCAK256 DUP9 0xD9 SAR 0xB4 0xF6 TSTORE 0x29 ADDRESS 0xEC ADDMOD 0xE7 PUSH26 0x18C22610C2EDFF84AE290F852F094D676AE286ED64736F6C6343 STOP ADDMOD SHR STOP CALLER "
				},
				"gasEstimates": {
					"creation": {
						"codeDepositCost": "921800",
						"executionCost": "960",
						"totalCost": "922760"
					},
					"external": {
						"callTransfer(address)": "infinite",
						"newAsset(uint256)": "infinite",
						"newAssetFactory(string,string,uint256)": "infinite",
						"storeAsset(string)": "infinite"
					}
				},
				"methodIdentifiers": {
					"callTransfer(address)": "eec990f2",
					"newAsset(uint256)": "6acfb485",
					"newAssetFactory(string,string,uint256)": "030020d2",
					"storeAsset(string)": "631cd1a6"
				}
			},
			"storageLayout": {
				"storage": [
					{
						"astId": 59,
						"contract": "contracts/AssetFactory.sol:AssetFactory",
						"label": "newAsset",
						"offset": 0,
						"slot": "0",
						"type": "t_array(t_contract(Asset)51)dyn_storage"
					},
					{
						"astId": 63,
						"contract": "contracts/AssetFactory.sol:AssetFactory",
						"label": "storeAsset",
						"offset": 0,
						"slot": "1",
						"type": "t_mapping(t_string_memory_ptr,t_address)"
					}
				],
				"types": {
					"t_address": {
						"encoding": "inplace",
						"label": "address",
						"numberOfBytes": "20"
					},
					"t_array(t_contract(Asset)51)dyn_storage": {
						"base": "t_contract(Asset)51",
						"encoding": "dynamic_array",
						"label": "contract Asset[]",
						"numberOfBytes": "32"
					},
					"t_contract(Asset)51": {
						"encoding": "inplace",
						"label": "contract Asset",
						"numberOfBytes": "20"
					},
					"t_mapping(t_string_memory_ptr,t_address)": {
						"encoding": "mapping",
						"key": "t_string_memory_ptr",
						"label": "mapping(string => address)",
						"numberOfBytes": "32",
						"value": "t_address"
					},
					"t_string_memory_ptr": {
						"encoding": "bytes",
						"label": "string",
						"numberOfBytes": "32"
					}
				}
			},
			"userdoc": {
				"kind": "user",
				"methods": {},
				"version": 1
			}
		}
	}
}