{
	"contracts/MessageBoard.sol": {
		"MessageBoard": {
			"abi": [
				{
					"inputs": [
						{
							"internalType": "address",
							"name": "",
							"type": "address"
						}
					],
					"name": "messages",
					"outputs": [
						{
							"internalType": "string",
							"name": "",
							"type": "string"
						}
					],
					"stateMutability": "view",
					"type": "function"
				},
				{
					"inputs": [],
					"name": "previewMessage",
					"outputs": [
						{
							"internalType": "string",
							"name": "",
							"type": "string"
						}
					],
					"stateMutability": "view",
					"type": "function"
				},
				{
					"inputs": [
						{
							"internalType": "string",
							"name": "_message",
							"type": "string"
						}
					],
					"name": "storeMessage",
					"outputs": [],
					"stateMutability": "nonpayable",
					"type": "function"
				}
			],
			"devdoc": {
				"kind": "dev",
				"methods": {},
				"version": 1
			},
			"evm": {
				"assembly": "    /* \"contracts/MessageBoard.sol\":82:477  contract MessageBoard{... */\n  mstore(0x40, 0x80)\n  callvalue\n  dup1\n  iszero\n  tag_1\n  jumpi\n  revert(0x00, 0x00)\ntag_1:\n  pop\n  dataSize(sub_0)\n  dup1\n  dataOffset(sub_0)\n  0x00\n  codecopy\n  0x00\n  return\nstop\n\nsub_0: assembly {\n        /* \"contracts/MessageBoard.sol\":82:477  contract MessageBoard{... */\n      mstore(0x40, 0x80)\n      callvalue\n      dup1\n      iszero\n      tag_1\n      jumpi\n      revert(0x00, 0x00)\n    tag_1:\n      pop\n      jumpi(tag_2, lt(calldatasize, 0x04))\n      shr(0xe0, calldataload(0x00))\n      dup1\n      0x5fdd59f8\n      eq\n      tag_3\n      jumpi\n      dup1\n      0x7a7b6872\n      eq\n      tag_4\n      jumpi\n      dup1\n      0xd4e36ba7\n      eq\n      tag_5\n      jumpi\n    tag_2:\n      revert(0x00, 0x00)\n        /* \"contracts/MessageBoard.sol\":112:154  mapping(address => string) public messages */\n    tag_3:\n      tag_6\n      0x04\n      dup1\n      calldatasize\n      sub\n      dup2\n      add\n      swap1\n      tag_7\n      swap2\n      swap1\n      tag_8\n      jump\t// in\n    tag_7:\n      tag_9\n      jump\t// in\n    tag_6:\n      mload(0x40)\n      tag_10\n      swap2\n      swap1\n      tag_11\n      jump\t// in\n    tag_10:\n      mload(0x40)\n      dup1\n      swap2\n      sub\n      swap1\n      return\n        /* \"contracts/MessageBoard.sol\":273:474  function previewMessage() public view returns (string memory){... */\n    tag_4:\n      tag_12\n      tag_13\n      jump\t// in\n    tag_12:\n      mload(0x40)\n      tag_14\n      swap2\n      swap1\n      tag_11\n      jump\t// in\n    tag_14:\n      mload(0x40)\n      dup1\n      swap2\n      sub\n      swap1\n      return\n        /* \"contracts/MessageBoard.sol\":163:265  function storeMessage(string memory _message) public{... */\n    tag_5:\n      tag_15\n      0x04\n      dup1\n      calldatasize\n      sub\n      dup2\n      add\n      swap1\n      tag_16\n      swap2\n      swap1\n      tag_17\n      jump\t// in\n    tag_16:\n      tag_18\n      jump\t// in\n    tag_15:\n      stop\n        /* \"contracts/MessageBoard.sol\":112:154  mapping(address => string) public messages */\n    tag_9:\n      mstore(0x20, 0x00)\n      dup1\n      0x00\n      mstore\n      keccak256(0x00, 0x40)\n      0x00\n      swap2\n      pop\n      swap1\n      pop\n      dup1\n      sload\n      tag_19\n      swap1\n      tag_20\n      jump\t// in\n    tag_19:\n      dup1\n      0x1f\n      add\n      0x20\n      dup1\n      swap2\n      div\n      mul\n      0x20\n      add\n      mload(0x40)\n      swap1\n      dup2\n      add\n      0x40\n      mstore\n      dup1\n      swap3\n      swap2\n      swap1\n      dup2\n      dup2\n      mstore\n      0x20\n      add\n      dup3\n      dup1\n      sload\n      tag_21\n      swap1\n      tag_20\n      jump\t// in\n    tag_21:\n      dup1\n      iszero\n      tag_22\n      jumpi\n      dup1\n      0x1f\n      lt\n      tag_23\n      jumpi\n      0x0100\n      dup1\n      dup4\n      sload\n      div\n      mul\n      dup4\n      mstore\n      swap2\n      0x20\n      add\n      swap2\n      jump(tag_22)\n    tag_23:\n      dup3\n      add\n      swap2\n      swap1\n      0x00\n      mstore\n      keccak256(0x00, 0x20)\n      swap1\n    tag_24:\n      dup2\n      sload\n      dup2\n      mstore\n      swap1\n      0x01\n      add\n      swap1\n      0x20\n      add\n      dup1\n      dup4\n      gt\n      tag_24\n      jumpi\n      dup3\n      swap1\n      sub\n      0x1f\n      and\n      dup3\n      add\n      swap2\n    tag_22:\n      pop\n      pop\n      pop\n      pop\n      pop\n      dup2\n      jump\t// out\n        /* \"contracts/MessageBoard.sol\":273:474  function previewMessage() public view returns (string memory){... */\n    tag_13:\n        /* \"contracts/MessageBoard.sol\":320:333  string memory */\n      0x60\n        /* \"contracts/MessageBoard.sol\":347:373  string memory draftMessage */\n      0x00\n        /* \"contracts/MessageBoard.sol\":410:418  messages */\n      0x00\n        /* \"contracts/MessageBoard.sol\":410:430  messages[msg.sender] */\n      0x00\n        /* \"contracts/MessageBoard.sol\":419:429  msg.sender */\n      caller\n        /* \"contracts/MessageBoard.sol\":410:430  messages[msg.sender] */\n      0xffffffffffffffffffffffffffffffffffffffff\n      and\n      0xffffffffffffffffffffffffffffffffffffffff\n      and\n      dup2\n      mstore\n      0x20\n      add\n      swap1\n      dup2\n      mstore\n      0x20\n      add\n      0x00\n      keccak256\n        /* \"contracts/MessageBoard.sol\":383:431  abi.encodePacked(\"Draft:\", messages[msg.sender]) */\n      add(0x20, mload(0x40))\n      tag_26\n      swap2\n      swap1\n      tag_27\n      jump\t// in\n    tag_26:\n      mload(0x40)\n      0x20\n      dup2\n      dup4\n      sub\n      sub\n      dup2\n      mstore\n      swap1\n      0x40\n      mstore\n        /* \"contracts/MessageBoard.sol\":347:432  string memory draftMessage = string(abi.encodePacked(\"Draft:\", messages[msg.sender])) */\n      swap1\n      pop\n        /* \"contracts/MessageBoard.sol\":450:462  draftMessage */\n      dup1\n        /* \"contracts/MessageBoard.sol\":443:462  return draftMessage */\n      swap2\n      pop\n      pop\n        /* \"contracts/MessageBoard.sol\":273:474  function previewMessage() public view returns (string memory){... */\n      swap1\n      jump\t// out\n        /* \"contracts/MessageBoard.sol\":163:265  function storeMessage(string memory _message) public{... */\n    tag_18:\n        /* \"contracts/MessageBoard.sol\":249:257  _message */\n      dup1\n        /* \"contracts/MessageBoard.sol\":226:234  messages */\n      0x00\n        /* \"contracts/MessageBoard.sol\":226:246  messages[msg.sender] */\n      0x00\n        /* \"contracts/MessageBoard.sol\":235:245  msg.sender */\n      caller\n        /* \"contracts/MessageBoard.sol\":226:246  messages[msg.sender] */\n      0xffffffffffffffffffffffffffffffffffffffff\n      and\n      0xffffffffffffffffffffffffffffffffffffffff\n      and\n      dup2\n      mstore\n      0x20\n      add\n      swap1\n      dup2\n      mstore\n      0x20\n      add\n      0x00\n      keccak256\n        /* \"contracts/MessageBoard.sol\":226:257  messages[msg.sender] = _message */\n      swap1\n      dup2\n      tag_29\n      swap2\n      swap1\n      tag_30\n      jump\t// in\n    tag_29:\n      pop\n        /* \"contracts/MessageBoard.sol\":163:265  function storeMessage(string memory _message) public{... */\n      pop\n      jump\t// out\n        /* \"#utility.yul\":7:82   */\n    tag_31:\n        /* \"#utility.yul\":40:46   */\n      0x00\n        /* \"#utility.yul\":73:75   */\n      0x40\n        /* \"#utility.yul\":67:76   */\n      mload\n        /* \"#utility.yul\":57:76   */\n      swap1\n      pop\n        /* \"#utility.yul\":7:82   */\n      swap1\n      jump\t// out\n        /* \"#utility.yul\":88:205   */\n    tag_32:\n        /* \"#utility.yul\":197:198   */\n      0x00\n        /* \"#utility.yul\":194:195   */\n      0x00\n        /* \"#utility.yul\":187:199   */\n      revert\n        /* \"#utility.yul\":211:328   */\n    tag_33:\n        /* \"#utility.yul\":320:321   */\n      0x00\n        /* \"#utility.yul\":317:318   */\n      0x00\n        /* \"#utility.yul\":310:322   */\n      revert\n        /* \"#utility.yul\":334:460   */\n    tag_34:\n        /* \"#utility.yul\":371:378   */\n      0x00\n        /* \"#utility.yul\":411:453   */\n      0xffffffffffffffffffffffffffffffffffffffff\n        /* \"#utility.yul\":404:409   */\n      dup3\n        /* \"#utility.yul\":400:454   */\n      and\n        /* \"#utility.yul\":389:454   */\n      swap1\n      pop\n        /* \"#utility.yul\":334:460   */\n      swap2\n      swap1\n      pop\n      jump\t// out\n        /* \"#utility.yul\":466:562   */\n    tag_35:\n        /* \"#utility.yul\":503:510   */\n      0x00\n        /* \"#utility.yul\":532:556   */\n      tag_79\n        /* \"#utility.yul\":550:555   */\n      dup3\n        /* \"#utility.yul\":532:556   */\n      tag_34\n      jump\t// in\n    tag_79:\n        /* \"#utility.yul\":521:556   */\n      swap1\n      pop\n        /* \"#utility.yul\":466:562   */\n      swap2\n      swap1\n      pop\n      jump\t// out\n        /* \"#utility.yul\":568:690   */\n    tag_36:\n        /* \"#utility.yul\":641:665   */\n      tag_81\n        /* \"#utility.yul\":659:664   */\n      dup2\n        /* \"#utility.yul\":641:665   */\n      tag_35\n      jump\t// in\n    tag_81:\n        /* \"#utility.yul\":634:639   */\n      dup2\n        /* \"#utility.yul\":631:666   */\n      eq\n        /* \"#utility.yul\":621:684   */\n      tag_82\n      jumpi\n        /* \"#utility.yul\":680:681   */\n      0x00\n        /* \"#utility.yul\":677:678   */\n      0x00\n        /* \"#utility.yul\":670:682   */\n      revert\n        /* \"#utility.yul\":621:684   */\n    tag_82:\n        /* \"#utility.yul\":568:690   */\n      pop\n      jump\t// out\n        /* \"#utility.yul\":696:835   */\n    tag_37:\n        /* \"#utility.yul\":742:747   */\n      0x00\n        /* \"#utility.yul\":780:786   */\n      dup2\n        /* \"#utility.yul\":767:787   */\n      calldataload\n        /* \"#utility.yul\":758:787   */\n      swap1\n      pop\n        /* \"#utility.yul\":796:829   */\n      tag_84\n        /* \"#utility.yul\":823:828   */\n      dup2\n        /* \"#utility.yul\":796:829   */\n      tag_36\n      jump\t// in\n    tag_84:\n        /* \"#utility.yul\":696:835   */\n      swap3\n      swap2\n      pop\n      pop\n      jump\t// out\n        /* \"#utility.yul\":841:1170   */\n    tag_8:\n        /* \"#utility.yul\":900:906   */\n      0x00\n        /* \"#utility.yul\":949:951   */\n      0x20\n        /* \"#utility.yul\":937:946   */\n      dup3\n        /* \"#utility.yul\":928:935   */\n      dup5\n        /* \"#utility.yul\":924:947   */\n      sub\n        /* \"#utility.yul\":920:952   */\n      slt\n        /* \"#utility.yul\":917:1036   */\n      iszero\n      tag_86\n      jumpi\n        /* \"#utility.yul\":955:1034   */\n      tag_87\n      tag_32\n      jump\t// in\n    tag_87:\n        /* \"#utility.yul\":917:1036   */\n    tag_86:\n        /* \"#utility.yul\":1075:1076   */\n      0x00\n        /* \"#utility.yul\":1100:1153   */\n      tag_88\n        /* \"#utility.yul\":1145:1152   */\n      dup5\n        /* \"#utility.yul\":1136:1142   */\n      dup3\n        /* \"#utility.yul\":1125:1134   */\n      dup6\n        /* \"#utility.yul\":1121:1143   */\n      add\n        /* \"#utility.yul\":1100:1153   */\n      tag_37\n      jump\t// in\n    tag_88:\n        /* \"#utility.yul\":1090:1153   */\n      swap2\n      pop\n        /* \"#utility.yul\":1046:1163   */\n      pop\n        /* \"#utility.yul\":841:1170   */\n      swap3\n      swap2\n      pop\n      pop\n      jump\t// out\n        /* \"#utility.yul\":1176:1275   */\n    tag_38:\n        /* \"#utility.yul\":1228:1234   */\n      0x00\n        /* \"#utility.yul\":1262:1267   */\n      dup2\n        /* \"#utility.yul\":1256:1268   */\n      mload\n        /* \"#utility.yul\":1246:1268   */\n      swap1\n      pop\n        /* \"#utility.yul\":1176:1275   */\n      swap2\n      swap1\n      pop\n      jump\t// out\n        /* \"#utility.yul\":1281:1450   */\n    tag_39:\n        /* \"#utility.yul\":1365:1376   */\n      0x00\n        /* \"#utility.yul\":1399:1405   */\n      dup3\n        /* \"#utility.yul\":1394:1397   */\n      dup3\n        /* \"#utility.yul\":1387:1406   */\n      mstore\n        /* \"#utility.yul\":1439:1443   */\n      0x20\n        /* \"#utility.yul\":1434:1437   */\n      dup3\n        /* \"#utility.yul\":1430:1444   */\n      add\n        /* \"#utility.yul\":1415:1444   */\n      swap1\n      pop\n        /* \"#utility.yul\":1281:1450   */\n      swap3\n      swap2\n      pop\n      pop\n      jump\t// out\n        /* \"#utility.yul\":1456:1595   */\n    tag_40:\n        /* \"#utility.yul\":1545:1551   */\n      dup3\n        /* \"#utility.yul\":1540:1543   */\n      dup2\n        /* \"#utility.yul\":1535:1538   */\n      dup4\n        /* \"#utility.yul\":1529:1552   */\n      mcopy\n        /* \"#utility.yul\":1586:1587   */\n      0x00\n        /* \"#utility.yul\":1577:1583   */\n      dup4\n        /* \"#utility.yul\":1572:1575   */\n      dup4\n        /* \"#utility.yul\":1568:1584   */\n      add\n        /* \"#utility.yul\":1561:1588   */\n      mstore\n        /* \"#utility.yul\":1456:1595   */\n      pop\n      pop\n      pop\n      jump\t// out\n        /* \"#utility.yul\":1601:1703   */\n    tag_41:\n        /* \"#utility.yul\":1642:1648   */\n      0x00\n        /* \"#utility.yul\":1693:1695   */\n      0x1f\n        /* \"#utility.yul\":1689:1696   */\n      not\n        /* \"#utility.yul\":1684:1686   */\n      0x1f\n        /* \"#utility.yul\":1677:1682   */\n      dup4\n        /* \"#utility.yul\":1673:1687   */\n      add\n        /* \"#utility.yul\":1669:1697   */\n      and\n        /* \"#utility.yul\":1659:1697   */\n      swap1\n      pop\n        /* \"#utility.yul\":1601:1703   */\n      swap2\n      swap1\n      pop\n      jump\t// out\n        /* \"#utility.yul\":1709:2086   */\n    tag_42:\n        /* \"#utility.yul\":1797:1800   */\n      0x00\n        /* \"#utility.yul\":1825:1864   */\n      tag_94\n        /* \"#utility.yul\":1858:1863   */\n      dup3\n        /* \"#utility.yul\":1825:1864   */\n      tag_38\n      jump\t// in\n    tag_94:\n        /* \"#utility.yul\":1880:1951   */\n      tag_95\n        /* \"#utility.yul\":1944:1950   */\n      dup2\n        /* \"#utility.yul\":1939:1942   */\n      dup6\n        /* \"#utility.yul\":1880:1951   */\n      tag_39\n      jump\t// in\n    tag_95:\n        /* \"#utility.yul\":1873:1951   */\n      swap4\n      pop\n        /* \"#utility.yul\":1960:2025   */\n      tag_96\n        /* \"#utility.yul\":2018:2024   */\n      dup2\n        /* \"#utility.yul\":2013:2016   */\n      dup6\n        /* \"#utility.yul\":2006:2010   */\n      0x20\n        /* \"#utility.yul\":1999:2004   */\n      dup7\n        /* \"#utility.yul\":1995:2011   */\n      add\n        /* \"#utility.yul\":1960:2025   */\n      tag_40\n      jump\t// in\n    tag_96:\n        /* \"#utility.yul\":2050:2079   */\n      tag_97\n        /* \"#utility.yul\":2072:2078   */\n      dup2\n        /* \"#utility.yul\":2050:2079   */\n      tag_41\n      jump\t// in\n    tag_97:\n        /* \"#utility.yul\":2045:2048   */\n      dup5\n        /* \"#utility.yul\":2041:2080   */\n      add\n        /* \"#utility.yul\":2034:2080   */\n      swap2\n      pop\n        /* \"#utility.yul\":1801:2086   */\n      pop\n        /* \"#utility.yul\":1709:2086   */\n      swap3\n      swap2\n      pop\n      pop\n      jump\t// out\n        /* \"#utility.yul\":2092:2405   */\n    tag_11:\n        /* \"#utility.yul\":2205:2209   */\n      0x00\n        /* \"#utility.yul\":2243:2245   */\n      0x20\n        /* \"#utility.yul\":2232:2241   */\n      dup3\n        /* \"#utility.yul\":2228:2246   */\n      add\n        /* \"#utility.yul\":2220:2246   */\n      swap1\n      pop\n        /* \"#utility.yul\":2292:2301   */\n      dup2\n        /* \"#utility.yul\":2286:2290   */\n      dup2\n        /* \"#utility.yul\":2282:2302   */\n      sub\n        /* \"#utility.yul\":2278:2279   */\n      0x00\n        /* \"#utility.yul\":2267:2276   */\n      dup4\n        /* \"#utility.yul\":2263:2280   */\n      add\n        /* \"#utility.yul\":2256:2303   */\n      mstore\n        /* \"#utility.yul\":2320:2398   */\n      tag_99\n        /* \"#utility.yul\":2393:2397   */\n      dup2\n        /* \"#utility.yul\":2384:2390   */\n      dup5\n        /* \"#utility.yul\":2320:2398   */\n      tag_42\n      jump\t// in\n    tag_99:\n        /* \"#utility.yul\":2312:2398   */\n      swap1\n      pop\n        /* \"#utility.yul\":2092:2405   */\n      swap3\n      swap2\n      pop\n      pop\n      jump\t// out\n        /* \"#utility.yul\":2411:2528   */\n    tag_43:\n        /* \"#utility.yul\":2520:2521   */\n      0x00\n        /* \"#utility.yul\":2517:2518   */\n      0x00\n        /* \"#utility.yul\":2510:2522   */\n      revert\n        /* \"#utility.yul\":2534:2651   */\n    tag_44:\n        /* \"#utility.yul\":2643:2644   */\n      0x00\n        /* \"#utility.yul\":2640:2641   */\n      0x00\n        /* \"#utility.yul\":2633:2645   */\n      revert\n        /* \"#utility.yul\":2657:2837   */\n    tag_45:\n        /* \"#utility.yul\":2705:2782   */\n      0x4e487b7100000000000000000000000000000000000000000000000000000000\n        /* \"#utility.yul\":2702:2703   */\n      0x00\n        /* \"#utility.yul\":2695:2783   */\n      mstore\n        /* \"#utility.yul\":2802:2806   */\n      0x41\n        /* \"#utility.yul\":2799:2800   */\n      0x04\n        /* \"#utility.yul\":2792:2807   */\n      mstore\n        /* \"#utility.yul\":2826:2830   */\n      0x24\n        /* \"#utility.yul\":2823:2824   */\n      0x00\n        /* \"#utility.yul\":2816:2831   */\n      revert\n        /* \"#utility.yul\":2843:3124   */\n    tag_46:\n        /* \"#utility.yul\":2926:2953   */\n      tag_104\n        /* \"#utility.yul\":2948:2952   */\n      dup3\n        /* \"#utility.yul\":2926:2953   */\n      tag_41\n      jump\t// in\n    tag_104:\n        /* \"#utility.yul\":2918:2924   */\n      dup2\n        /* \"#utility.yul\":2914:2954   */\n      add\n        /* \"#utility.yul\":3056:3062   */\n      dup2\n        /* \"#utility.yul\":3044:3054   */\n      dup2\n        /* \"#utility.yul\":3041:3063   */\n      lt\n        /* \"#utility.yul\":3020:3038   */\n      0xffffffffffffffff\n        /* \"#utility.yul\":3008:3018   */\n      dup3\n        /* \"#utility.yul\":3005:3039   */\n      gt\n        /* \"#utility.yul\":3002:3064   */\n      or\n        /* \"#utility.yul\":2999:3087   */\n      iszero\n      tag_105\n      jumpi\n        /* \"#utility.yul\":3067:3085   */\n      tag_106\n      tag_45\n      jump\t// in\n    tag_106:\n        /* \"#utility.yul\":2999:3087   */\n    tag_105:\n        /* \"#utility.yul\":3107:3117   */\n      dup1\n        /* \"#utility.yul\":3103:3105   */\n      0x40\n        /* \"#utility.yul\":3096:3118   */\n      mstore\n        /* \"#utility.yul\":2886:3124   */\n      pop\n        /* \"#utility.yul\":2843:3124   */\n      pop\n      pop\n      jump\t// out\n        /* \"#utility.yul\":3130:3259   */\n    tag_47:\n        /* \"#utility.yul\":3164:3170   */\n      0x00\n        /* \"#utility.yul\":3191:3211   */\n      tag_108\n      tag_31\n      jump\t// in\n    tag_108:\n        /* \"#utility.yul\":3181:3211   */\n      swap1\n      pop\n        /* \"#utility.yul\":3220:3253   */\n      tag_109\n        /* \"#utility.yul\":3248:3252   */\n      dup3\n        /* \"#utility.yul\":3240:3246   */\n      dup3\n        /* \"#utility.yul\":3220:3253   */\n      tag_46\n      jump\t// in\n    tag_109:\n        /* \"#utility.yul\":3130:3259   */\n      swap2\n      swap1\n      pop\n      jump\t// out\n        /* \"#utility.yul\":3265:3573   */\n    tag_48:\n        /* \"#utility.yul\":3327:3331   */\n      0x00\n        /* \"#utility.yul\":3417:3435   */\n      0xffffffffffffffff\n        /* \"#utility.yul\":3409:3415   */\n      dup3\n        /* \"#utility.yul\":3406:3436   */\n      gt\n        /* \"#utility.yul\":3403:3459   */\n      iszero\n      tag_111\n      jumpi\n        /* \"#utility.yul\":3439:3457   */\n      tag_112\n      tag_45\n      jump\t// in\n    tag_112:\n        /* \"#utility.yul\":3403:3459   */\n    tag_111:\n        /* \"#utility.yul\":3477:3506   */\n      tag_113\n        /* \"#utility.yul\":3499:3505   */\n      dup3\n        /* \"#utility.yul\":3477:3506   */\n      tag_41\n      jump\t// in\n    tag_113:\n        /* \"#utility.yul\":3469:3506   */\n      swap1\n      pop\n        /* \"#utility.yul\":3561:3565   */\n      0x20\n        /* \"#utility.yul\":3555:3559   */\n      dup2\n        /* \"#utility.yul\":3551:3566   */\n      add\n        /* \"#utility.yul\":3543:3566   */\n      swap1\n      pop\n        /* \"#utility.yul\":3265:3573   */\n      swap2\n      swap1\n      pop\n      jump\t// out\n        /* \"#utility.yul\":3579:3727   */\n    tag_49:\n        /* \"#utility.yul\":3677:3683   */\n      dup3\n        /* \"#utility.yul\":3672:3675   */\n      dup2\n        /* \"#utility.yul\":3667:3670   */\n      dup4\n        /* \"#utility.yul\":3654:3684   */\n      calldatacopy\n        /* \"#utility.yul\":3718:3719   */\n      0x00\n        /* \"#utility.yul\":3709:3715   */\n      dup4\n        /* \"#utility.yul\":3704:3707   */\n      dup4\n        /* \"#utility.yul\":3700:3716   */\n      add\n        /* \"#utility.yul\":3693:3720   */\n      mstore\n        /* \"#utility.yul\":3579:3727   */\n      pop\n      pop\n      pop\n      jump\t// out\n        /* \"#utility.yul\":3733:4158   */\n    tag_50:\n        /* \"#utility.yul\":3811:3816   */\n      0x00\n        /* \"#utility.yul\":3836:3902   */\n      tag_116\n        /* \"#utility.yul\":3852:3901   */\n      tag_117\n        /* \"#utility.yul\":3894:3900   */\n      dup5\n        /* \"#utility.yul\":3852:3901   */\n      tag_48\n      jump\t// in\n    tag_117:\n        /* \"#utility.yul\":3836:3902   */\n      tag_47\n      jump\t// in\n    tag_116:\n        /* \"#utility.yul\":3827:3902   */\n      swap1\n      pop\n        /* \"#utility.yul\":3925:3931   */\n      dup3\n        /* \"#utility.yul\":3918:3923   */\n      dup2\n        /* \"#utility.yul\":3911:3932   */\n      mstore\n        /* \"#utility.yul\":3963:3967   */\n      0x20\n        /* \"#utility.yul\":3956:3961   */\n      dup2\n        /* \"#utility.yul\":3952:3968   */\n      add\n        /* \"#utility.yul\":4001:4004   */\n      dup5\n        /* \"#utility.yul\":3992:3998   */\n      dup5\n        /* \"#utility.yul\":3987:3990   */\n      dup5\n        /* \"#utility.yul\":3983:3999   */\n      add\n        /* \"#utility.yul\":3980:4005   */\n      gt\n        /* \"#utility.yul\":3977:4089   */\n      iszero\n      tag_118\n      jumpi\n        /* \"#utility.yul\":4008:4087   */\n      tag_119\n      tag_44\n      jump\t// in\n    tag_119:\n        /* \"#utility.yul\":3977:4089   */\n    tag_118:\n        /* \"#utility.yul\":4098:4152   */\n      tag_120\n        /* \"#utility.yul\":4145:4151   */\n      dup5\n        /* \"#utility.yul\":4140:4143   */\n      dup3\n        /* \"#utility.yul\":4135:4138   */\n      dup6\n        /* \"#utility.yul\":4098:4152   */\n      tag_49\n      jump\t// in\n    tag_120:\n        /* \"#utility.yul\":3817:4158   */\n      pop\n        /* \"#utility.yul\":3733:4158   */\n      swap4\n      swap3\n      pop\n      pop\n      pop\n      jump\t// out\n        /* \"#utility.yul\":4178:4518   */\n    tag_51:\n        /* \"#utility.yul\":4234:4239   */\n      0x00\n        /* \"#utility.yul\":4283:4286   */\n      dup3\n        /* \"#utility.yul\":4276:4280   */\n      0x1f\n        /* \"#utility.yul\":4268:4274   */\n      dup4\n        /* \"#utility.yul\":4264:4281   */\n      add\n        /* \"#utility.yul\":4260:4287   */\n      slt\n        /* \"#utility.yul\":4250:4372   */\n      tag_122\n      jumpi\n        /* \"#utility.yul\":4291:4370   */\n      tag_123\n      tag_43\n      jump\t// in\n    tag_123:\n        /* \"#utility.yul\":4250:4372   */\n    tag_122:\n        /* \"#utility.yul\":4408:4414   */\n      dup2\n        /* \"#utility.yul\":4395:4415   */\n      calldataload\n        /* \"#utility.yul\":4433:4512   */\n      tag_124\n        /* \"#utility.yul\":4508:4511   */\n      dup5\n        /* \"#utility.yul\":4500:4506   */\n      dup3\n        /* \"#utility.yul\":4493:4497   */\n      0x20\n        /* \"#utility.yul\":4485:4491   */\n      dup7\n        /* \"#utility.yul\":4481:4498   */\n      add\n        /* \"#utility.yul\":4433:4512   */\n      tag_50\n      jump\t// in\n    tag_124:\n        /* \"#utility.yul\":4424:4512   */\n      swap2\n      pop\n        /* \"#utility.yul\":4240:4518   */\n      pop\n        /* \"#utility.yul\":4178:4518   */\n      swap3\n      swap2\n      pop\n      pop\n      jump\t// out\n        /* \"#utility.yul\":4524:5033   */\n    tag_17:\n        /* \"#utility.yul\":4593:4599   */\n      0x00\n        /* \"#utility.yul\":4642:4644   */\n      0x20\n        /* \"#utility.yul\":4630:4639   */\n      dup3\n        /* \"#utility.yul\":4621:4628   */\n      dup5\n        /* \"#utility.yul\":4617:4640   */\n      sub\n        /* \"#utility.yul\":4613:4645   */\n      slt\n        /* \"#utility.yul\":4610:4729   */\n      iszero\n      tag_126\n      jumpi\n        /* \"#utility.yul\":4648:4727   */\n      tag_127\n      tag_32\n      jump\t// in\n    tag_127:\n        /* \"#utility.yul\":4610:4729   */\n    tag_126:\n        /* \"#utility.yul\":4796:4797   */\n      0x00\n        /* \"#utility.yul\":4785:4794   */\n      dup3\n        /* \"#utility.yul\":4781:4798   */\n      add\n        /* \"#utility.yul\":4768:4799   */\n      calldataload\n        /* \"#utility.yul\":4826:4844   */\n      0xffffffffffffffff\n        /* \"#utility.yul\":4818:4824   */\n      dup2\n        /* \"#utility.yul\":4815:4845   */\n      gt\n        /* \"#utility.yul\":4812:4929   */\n      iszero\n      tag_128\n      jumpi\n        /* \"#utility.yul\":4848:4927   */\n      tag_129\n      tag_33\n      jump\t// in\n    tag_129:\n        /* \"#utility.yul\":4812:4929   */\n    tag_128:\n        /* \"#utility.yul\":4953:5016   */\n      tag_130\n        /* \"#utility.yul\":5008:5015   */\n      dup5\n        /* \"#utility.yul\":4999:5005   */\n      dup3\n        /* \"#utility.yul\":4988:4997   */\n      dup6\n        /* \"#utility.yul\":4984:5006   */\n      add\n        /* \"#utility.yul\":4953:5016   */\n      tag_51\n      jump\t// in\n    tag_130:\n        /* \"#utility.yul\":4943:5016   */\n      swap2\n      pop\n        /* \"#utility.yul\":4739:5026   */\n      pop\n        /* \"#utility.yul\":4524:5033   */\n      swap3\n      swap2\n      pop\n      pop\n      jump\t// out\n        /* \"#utility.yul\":5039:5219   */\n    tag_52:\n        /* \"#utility.yul\":5087:5164   */\n      0x4e487b7100000000000000000000000000000000000000000000000000000000\n        /* \"#utility.yul\":5084:5085   */\n      0x00\n        /* \"#utility.yul\":5077:5165   */\n      mstore\n        /* \"#utility.yul\":5184:5188   */\n      0x22\n        /* \"#utility.yul\":5181:5182   */\n      0x04\n        /* \"#utility.yul\":5174:5189   */\n      mstore\n        /* \"#utility.yul\":5208:5212   */\n      0x24\n        /* \"#utility.yul\":5205:5206   */\n      0x00\n        /* \"#utility.yul\":5198:5213   */\n      revert\n        /* \"#utility.yul\":5225:5545   */\n    tag_20:\n        /* \"#utility.yul\":5269:5275   */\n      0x00\n        /* \"#utility.yul\":5306:5307   */\n      0x02\n        /* \"#utility.yul\":5300:5304   */\n      dup3\n        /* \"#utility.yul\":5296:5308   */\n      div\n        /* \"#utility.yul\":5286:5308   */\n      swap1\n      pop\n        /* \"#utility.yul\":5353:5354   */\n      0x01\n        /* \"#utility.yul\":5347:5351   */\n      dup3\n        /* \"#utility.yul\":5343:5355   */\n      and\n        /* \"#utility.yul\":5374:5392   */\n      dup1\n        /* \"#utility.yul\":5364:5445   */\n      tag_133\n      jumpi\n        /* \"#utility.yul\":5430:5434   */\n      0x7f\n        /* \"#utility.yul\":5422:5428   */\n      dup3\n        /* \"#utility.yul\":5418:5435   */\n      and\n        /* \"#utility.yul\":5408:5435   */\n      swap2\n      pop\n        /* \"#utility.yul\":5364:5445   */\n    tag_133:\n        /* \"#utility.yul\":5492:5494   */\n      0x20\n        /* \"#utility.yul\":5484:5490   */\n      dup3\n        /* \"#utility.yul\":5481:5495   */\n      lt\n        /* \"#utility.yul\":5461:5479   */\n      dup2\n        /* \"#utility.yul\":5458:5496   */\n      sub\n        /* \"#utility.yul\":5455:5539   */\n      tag_134\n      jumpi\n        /* \"#utility.yul\":5511:5529   */\n      tag_135\n      tag_52\n      jump\t// in\n    tag_135:\n        /* \"#utility.yul\":5455:5539   */\n    tag_134:\n        /* \"#utility.yul\":5276:5545   */\n      pop\n        /* \"#utility.yul\":5225:5545   */\n      swap2\n      swap1\n      pop\n      jump\t// out\n        /* \"#utility.yul\":5551:5699   */\n    tag_53:\n        /* \"#utility.yul\":5653:5664   */\n      0x00\n        /* \"#utility.yul\":5690:5693   */\n      dup2\n        /* \"#utility.yul\":5675:5693   */\n      swap1\n      pop\n        /* \"#utility.yul\":5551:5699   */\n      swap3\n      swap2\n      pop\n      pop\n      jump\t// out\n        /* \"#utility.yul\":5705:5861   */\n    tag_54:\n        /* \"#utility.yul\":5845:5853   */\n      0x44726166743a0000000000000000000000000000000000000000000000000000\n        /* \"#utility.yul\":5841:5842   */\n      0x00\n        /* \"#utility.yul\":5833:5839   */\n      dup3\n        /* \"#utility.yul\":5829:5843   */\n      add\n        /* \"#utility.yul\":5822:5854   */\n      mstore\n        /* \"#utility.yul\":5705:5861   */\n      pop\n      jump\t// out\n        /* \"#utility.yul\":5867:6267   */\n    tag_55:\n        /* \"#utility.yul\":6027:6030   */\n      0x00\n        /* \"#utility.yul\":6048:6132   */\n      tag_139\n        /* \"#utility.yul\":6130:6131   */\n      0x06\n        /* \"#utility.yul\":6125:6128   */\n      dup4\n        /* \"#utility.yul\":6048:6132   */\n      tag_53\n      jump\t// in\n    tag_139:\n        /* \"#utility.yul\":6041:6132   */\n      swap2\n      pop\n        /* \"#utility.yul\":6141:6234   */\n      tag_140\n        /* \"#utility.yul\":6230:6233   */\n      dup3\n        /* \"#utility.yul\":6141:6234   */\n      tag_54\n      jump\t// in\n    tag_140:\n        /* \"#utility.yul\":6259:6260   */\n      0x06\n        /* \"#utility.yul\":6254:6257   */\n      dup3\n        /* \"#utility.yul\":6250:6261   */\n      add\n        /* \"#utility.yul\":6243:6261   */\n      swap1\n      pop\n        /* \"#utility.yul\":5867:6267   */\n      swap2\n      swap1\n      pop\n      jump\t// out\n        /* \"#utility.yul\":6273:6414   */\n    tag_56:\n        /* \"#utility.yul\":6322:6326   */\n      0x00\n        /* \"#utility.yul\":6345:6348   */\n      dup2\n        /* \"#utility.yul\":6337:6348   */\n      swap1\n      pop\n        /* \"#utility.yul\":6368:6371   */\n      dup2\n        /* \"#utility.yul\":6365:6366   */\n      0x00\n        /* \"#utility.yul\":6358:6372   */\n      mstore\n        /* \"#utility.yul\":6402:6406   */\n      0x20\n        /* \"#utility.yul\":6399:6400   */\n      0x00\n        /* \"#utility.yul\":6389:6407   */\n      keccak256\n        /* \"#utility.yul\":6381:6407   */\n      swap1\n      pop\n        /* \"#utility.yul\":6273:6414   */\n      swap2\n      swap1\n      pop\n      jump\t// out\n        /* \"#utility.yul\":6444:7318   */\n    tag_57:\n        /* \"#utility.yul\":6547:6550   */\n      0x00\n        /* \"#utility.yul\":6584:6589   */\n      dup2\n        /* \"#utility.yul\":6578:6590   */\n      sload\n        /* \"#utility.yul\":6613:6649   */\n      tag_143\n        /* \"#utility.yul\":6639:6648   */\n      dup2\n        /* \"#utility.yul\":6613:6649   */\n      tag_20\n      jump\t// in\n    tag_143:\n        /* \"#utility.yul\":6665:6754   */\n      tag_144\n        /* \"#utility.yul\":6747:6753   */\n      dup2\n        /* \"#utility.yul\":6742:6745   */\n      dup7\n        /* \"#utility.yul\":6665:6754   */\n      tag_53\n      jump\t// in\n    tag_144:\n        /* \"#utility.yul\":6658:6754   */\n      swap5\n      pop\n        /* \"#utility.yul\":6785:6786   */\n      0x01\n        /* \"#utility.yul\":6774:6783   */\n      dup3\n        /* \"#utility.yul\":6770:6787   */\n      and\n        /* \"#utility.yul\":6801:6802   */\n      0x00\n        /* \"#utility.yul\":6796:6962   */\n      dup2\n      eq\n      tag_146\n      jumpi\n        /* \"#utility.yul\":6976:6977   */\n      0x01\n        /* \"#utility.yul\":6971:7312   */\n      dup2\n      eq\n      tag_147\n      jumpi\n        /* \"#utility.yul\":6763:7312   */\n      jump(tag_145)\n        /* \"#utility.yul\":6796:6962   */\n    tag_146:\n        /* \"#utility.yul\":6880:6884   */\n      0xff\n        /* \"#utility.yul\":6876:6885   */\n      not\n        /* \"#utility.yul\":6865:6874   */\n      dup4\n        /* \"#utility.yul\":6861:6886   */\n      and\n        /* \"#utility.yul\":6856:6859   */\n      dup7\n        /* \"#utility.yul\":6849:6887   */\n      mstore\n        /* \"#utility.yul\":6942:6948   */\n      dup2\n        /* \"#utility.yul\":6935:6949   */\n      iszero\n        /* \"#utility.yul\":6928:6950   */\n      iszero\n        /* \"#utility.yul\":6920:6926   */\n      dup3\n        /* \"#utility.yul\":6916:6951   */\n      mul\n        /* \"#utility.yul\":6911:6914   */\n      dup7\n        /* \"#utility.yul\":6907:6952   */\n      add\n        /* \"#utility.yul\":6900:6952   */\n      swap4\n      pop\n        /* \"#utility.yul\":6796:6962   */\n      jump(tag_145)\n        /* \"#utility.yul\":6971:7312   */\n    tag_147:\n        /* \"#utility.yul\":7038:7076   */\n      tag_148\n        /* \"#utility.yul\":7070:7075   */\n      dup6\n        /* \"#utility.yul\":7038:7076   */\n      tag_56\n      jump\t// in\n    tag_148:\n        /* \"#utility.yul\":7098:7099   */\n      0x00\n        /* \"#utility.yul\":7112:7266   */\n    tag_149:\n        /* \"#utility.yul\":7126:7132   */\n      dup4\n        /* \"#utility.yul\":7123:7124   */\n      dup2\n        /* \"#utility.yul\":7120:7133   */\n      lt\n        /* \"#utility.yul\":7112:7266   */\n      iszero\n      tag_151\n      jumpi\n        /* \"#utility.yul\":7200:7207   */\n      dup2\n        /* \"#utility.yul\":7194:7208   */\n      sload\n        /* \"#utility.yul\":7190:7191   */\n      dup2\n        /* \"#utility.yul\":7185:7188   */\n      dup10\n        /* \"#utility.yul\":7181:7192   */\n      add\n        /* \"#utility.yul\":7174:7209   */\n      mstore\n        /* \"#utility.yul\":7250:7251   */\n      0x01\n        /* \"#utility.yul\":7241:7248   */\n      dup3\n        /* \"#utility.yul\":7237:7252   */\n      add\n        /* \"#utility.yul\":7226:7252   */\n      swap2\n      pop\n        /* \"#utility.yul\":7148:7152   */\n      0x20\n        /* \"#utility.yul\":7145:7146   */\n      dup2\n        /* \"#utility.yul\":7141:7153   */\n      add\n        /* \"#utility.yul\":7136:7153   */\n      swap1\n      pop\n        /* \"#utility.yul\":7112:7266   */\n      jump(tag_149)\n    tag_151:\n        /* \"#utility.yul\":7295:7301   */\n      dup4\n        /* \"#utility.yul\":7290:7293   */\n      dup9\n        /* \"#utility.yul\":7286:7302   */\n      add\n        /* \"#utility.yul\":7279:7302   */\n      swap6\n      pop\n        /* \"#utility.yul\":6978:7312   */\n      pop\n      pop\n        /* \"#utility.yul\":6763:7312   */\n    tag_145:\n      pop\n        /* \"#utility.yul\":6551:7318   */\n      pop\n      pop\n        /* \"#utility.yul\":6444:7318   */\n      swap3\n      swap2\n      pop\n      pop\n      jump\t// out\n        /* \"#utility.yul\":7324:7859   */\n    tag_27:\n        /* \"#utility.yul\":7554:7557   */\n      0x00\n        /* \"#utility.yul\":7576:7724   */\n      tag_153\n        /* \"#utility.yul\":7720:7723   */\n      dup3\n        /* \"#utility.yul\":7576:7724   */\n      tag_55\n      jump\t// in\n    tag_153:\n        /* \"#utility.yul\":7569:7724   */\n      swap2\n      pop\n        /* \"#utility.yul\":7741:7833   */\n      tag_154\n        /* \"#utility.yul\":7829:7832   */\n      dup3\n        /* \"#utility.yul\":7820:7826   */\n      dup5\n        /* \"#utility.yul\":7741:7833   */\n      tag_57\n      jump\t// in\n    tag_154:\n        /* \"#utility.yul\":7734:7833   */\n      swap2\n      pop\n        /* \"#utility.yul\":7850:7853   */\n      dup2\n        /* \"#utility.yul\":7843:7853   */\n      swap1\n      pop\n        /* \"#utility.yul\":7324:7859   */\n      swap3\n      swap2\n      pop\n      pop\n      jump\t// out\n        /* \"#utility.yul\":7865:7958   */\n    tag_58:\n        /* \"#utility.yul\":7902:7908   */\n      0x00\n        /* \"#utility.yul\":7949:7951   */\n      0x20\n        /* \"#utility.yul\":7944:7946   */\n      0x1f\n        /* \"#utility.yul\":7937:7942   */\n      dup4\n        /* \"#utility.yul\":7933:7947   */\n      add\n        /* \"#utility.yul\":7929:7952   */\n      div\n        /* \"#utility.yul\":7919:7952   */\n      swap1\n      pop\n        /* \"#utility.yul\":7865:7958   */\n      swap2\n      swap1\n      pop\n      jump\t// out\n        /* \"#utility.yul\":7964:8071   */\n    tag_59:\n        /* \"#utility.yul\":8008:8016   */\n      0x00\n        /* \"#utility.yul\":8058:8063   */\n      dup3\n        /* \"#utility.yul\":8052:8056   */\n      dup3\n        /* \"#utility.yul\":8048:8064   */\n      shl\n        /* \"#utility.yul\":8027:8064   */\n      swap1\n      pop\n        /* \"#utility.yul\":7964:8071   */\n      swap3\n      swap2\n      pop\n      pop\n      jump\t// out\n        /* \"#utility.yul\":8077:8470   */\n    tag_60:\n        /* \"#utility.yul\":8146:8152   */\n      0x00\n        /* \"#utility.yul\":8196:8197   */\n      0x08\n        /* \"#utility.yul\":8184:8194   */\n      dup4\n        /* \"#utility.yul\":8180:8198   */\n      mul\n        /* \"#utility.yul\":8219:8316   */\n      tag_158\n        /* \"#utility.yul\":8249:8315   */\n      0xffffffffffffffffffffffffffffffffffffffffffffffffffffffffffffffff\n        /* \"#utility.yul\":8238:8247   */\n      dup3\n        /* \"#utility.yul\":8219:8316   */\n      tag_59\n      jump\t// in\n    tag_158:\n        /* \"#utility.yul\":8337:8376   */\n      tag_159\n        /* \"#utility.yul\":8367:8375   */\n      dup7\n        /* \"#utility.yul\":8356:8365   */\n      dup4\n        /* \"#utility.yul\":8337:8376   */\n      tag_59\n      jump\t// in\n    tag_159:\n        /* \"#utility.yul\":8325:8376   */\n      swap6\n      pop\n        /* \"#utility.yul\":8409:8413   */\n      dup1\n        /* \"#utility.yul\":8405:8414   */\n      not\n        /* \"#utility.yul\":8398:8403   */\n      dup5\n        /* \"#utility.yul\":8394:8415   */\n      and\n        /* \"#utility.yul\":8385:8415   */\n      swap4\n      pop\n        /* \"#utility.yul\":8458:8462   */\n      dup1\n        /* \"#utility.yul\":8448:8456   */\n      dup7\n        /* \"#utility.yul\":8444:8463   */\n      and\n        /* \"#utility.yul\":8437:8442   */\n      dup5\n        /* \"#utility.yul\":8434:8464   */\n      or\n        /* \"#utility.yul\":8424:8464   */\n      swap3\n      pop\n        /* \"#utility.yul\":8153:8470   */\n      pop\n      pop\n        /* \"#utility.yul\":8077:8470   */\n      swap4\n      swap3\n      pop\n      pop\n      pop\n      jump\t// out\n        /* \"#utility.yul\":8476:8553   */\n    tag_61:\n        /* \"#utility.yul\":8513:8520   */\n      0x00\n        /* \"#utility.yul\":8542:8547   */\n      dup2\n        /* \"#utility.yul\":8531:8547   */\n      swap1\n      pop\n        /* \"#utility.yul\":8476:8553   */\n      swap2\n      swap1\n      pop\n      jump\t// out\n        /* \"#utility.yul\":8559:8619   */\n    tag_62:\n        /* \"#utility.yul\":8587:8590   */\n      0x00\n        /* \"#utility.yul\":8608:8613   */\n      dup2\n        /* \"#utility.yul\":8601:8613   */\n      swap1\n      pop\n        /* \"#utility.yul\":8559:8619   */\n      swap2\n      swap1\n      pop\n      jump\t// out\n        /* \"#utility.yul\":8625:8767   */\n    tag_63:\n        /* \"#utility.yul\":8675:8684   */\n      0x00\n        /* \"#utility.yul\":8708:8761   */\n      tag_163\n        /* \"#utility.yul\":8726:8760   */\n      tag_164\n        /* \"#utility.yul\":8735:8759   */\n      tag_165\n        /* \"#utility.yul\":8753:8758   */\n      dup5\n        /* \"#utility.yul\":8735:8759   */\n      tag_61\n      jump\t// in\n    tag_165:\n        /* \"#utility.yul\":8726:8760   */\n      tag_62\n      jump\t// in\n    tag_164:\n        /* \"#utility.yul\":8708:8761   */\n      tag_61\n      jump\t// in\n    tag_163:\n        /* \"#utility.yul\":8695:8761   */\n      swap1\n      pop\n        /* \"#utility.yul\":8625:8767   */\n      swap2\n      swap1\n      pop\n      jump\t// out\n        /* \"#utility.yul\":8773:8848   */\n    tag_64:\n        /* \"#utility.yul\":8816:8819   */\n      0x00\n        /* \"#utility.yul\":8837:8842   */\n      dup2\n        /* \"#utility.yul\":8830:8842   */\n      swap1\n      pop\n        /* \"#utility.yul\":8773:8848   */\n      swap2\n      swap1\n      pop\n      jump\t// out\n        /* \"#utility.yul\":8854:9123   */\n    tag_65:\n        /* \"#utility.yul\":8964:9003   */\n      tag_168\n        /* \"#utility.yul\":8995:9002   */\n      dup4\n        /* \"#utility.yul\":8964:9003   */\n      tag_63\n      jump\t// in\n    tag_168:\n        /* \"#utility.yul\":9025:9116   */\n      tag_169\n        /* \"#utility.yul\":9074:9115   */\n      tag_170\n        /* \"#utility.yul\":9098:9114   */\n      dup3\n        /* \"#utility.yul\":9074:9115   */\n      tag_64\n      jump\t// in\n    tag_170:\n        /* \"#utility.yul\":9066:9072   */\n      dup5\n        /* \"#utility.yul\":9059:9063   */\n      dup5\n        /* \"#utility.yul\":9053:9064   */\n      sload\n        /* \"#utility.yul\":9025:9116   */\n      tag_60\n      jump\t// in\n    tag_169:\n        /* \"#utility.yul\":9019:9023   */\n      dup3\n        /* \"#utility.yul\":9012:9117   */\n      sstore\n        /* \"#utility.yul\":8930:9123   */\n      pop\n        /* \"#utility.yul\":8854:9123   */\n      pop\n      pop\n      pop\n      jump\t// out\n        /* \"#utility.yul\":9129:9202   */\n    tag_66:\n        /* \"#utility.yul\":9174:9177   */\n      0x00\n        /* \"#utility.yul\":9195:9196   */\n      0x00\n        /* \"#utility.yul\":9188:9196   */\n      swap1\n      pop\n        /* \"#utility.yul\":9129:9202   */\n      swap1\n      jump\t// out\n        /* \"#utility.yul\":9208:9397   */\n    tag_67:\n        /* \"#utility.yul\":9285:9317   */\n      tag_173\n      tag_66\n      jump\t// in\n    tag_173:\n        /* \"#utility.yul\":9326:9391   */\n      tag_174\n        /* \"#utility.yul\":9384:9390   */\n      dup2\n        /* \"#utility.yul\":9376:9382   */\n      dup5\n        /* \"#utility.yul\":9370:9374   */\n      dup5\n        /* \"#utility.yul\":9326:9391   */\n      tag_65\n      jump\t// in\n    tag_174:\n        /* \"#utility.yul\":9261:9397   */\n      pop\n        /* \"#utility.yul\":9208:9397   */\n      pop\n      pop\n      jump\t// out\n        /* \"#utility.yul\":9403:9589   */\n    tag_68:\n        /* \"#utility.yul\":9463:9583   */\n    tag_176:\n        /* \"#utility.yul\":9480:9483   */\n      dup2\n        /* \"#utility.yul\":9473:9478   */\n      dup2\n        /* \"#utility.yul\":9470:9484   */\n      lt\n        /* \"#utility.yul\":9463:9583   */\n      iszero\n      tag_178\n      jumpi\n        /* \"#utility.yul\":9534:9573   */\n      tag_179\n        /* \"#utility.yul\":9571:9572   */\n      0x00\n        /* \"#utility.yul\":9564:9569   */\n      dup3\n        /* \"#utility.yul\":9534:9573   */\n      tag_67\n      jump\t// in\n    tag_179:\n        /* \"#utility.yul\":9507:9508   */\n      0x01\n        /* \"#utility.yul\":9500:9505   */\n      dup2\n        /* \"#utility.yul\":9496:9509   */\n      add\n        /* \"#utility.yul\":9487:9509   */\n      swap1\n      pop\n        /* \"#utility.yul\":9463:9583   */\n      jump(tag_176)\n    tag_178:\n        /* \"#utility.yul\":9403:9589   */\n      pop\n      pop\n      jump\t// out\n        /* \"#utility.yul\":9595:10138   */\n    tag_69:\n        /* \"#utility.yul\":9696:9698   */\n      0x1f\n        /* \"#utility.yul\":9691:9694   */\n      dup3\n        /* \"#utility.yul\":9688:9699   */\n      gt\n        /* \"#utility.yul\":9685:10131   */\n      iszero\n      tag_181\n      jumpi\n        /* \"#utility.yul\":9730:9768   */\n      tag_182\n        /* \"#utility.yul\":9762:9767   */\n      dup2\n        /* \"#utility.yul\":9730:9768   */\n      tag_56\n      jump\t// in\n    tag_182:\n        /* \"#utility.yul\":9814:9843   */\n      tag_183\n        /* \"#utility.yul\":9832:9842   */\n      dup5\n        /* \"#utility.yul\":9814:9843   */\n      tag_58\n      jump\t// in\n    tag_183:\n        /* \"#utility.yul\":9804:9812   */\n      dup2\n        /* \"#utility.yul\":9800:9844   */\n      add\n        /* \"#utility.yul\":9997:9999   */\n      0x20\n        /* \"#utility.yul\":9985:9995   */\n      dup6\n        /* \"#utility.yul\":9982:10000   */\n      lt\n        /* \"#utility.yul\":9979:10028   */\n      iszero\n      tag_184\n      jumpi\n        /* \"#utility.yul\":10018:10026   */\n      dup2\n        /* \"#utility.yul\":10003:10026   */\n      swap1\n      pop\n        /* \"#utility.yul\":9979:10028   */\n    tag_184:\n        /* \"#utility.yul\":10041:10121   */\n      tag_185\n        /* \"#utility.yul\":10097:10119   */\n      tag_186\n        /* \"#utility.yul\":10115:10118   */\n      dup6\n        /* \"#utility.yul\":10097:10119   */\n      tag_58\n      jump\t// in\n    tag_186:\n        /* \"#utility.yul\":10087:10095   */\n      dup4\n        /* \"#utility.yul\":10083:10120   */\n      add\n        /* \"#utility.yul\":10070:10081   */\n      dup3\n        /* \"#utility.yul\":10041:10121   */\n      tag_68\n      jump\t// in\n    tag_185:\n        /* \"#utility.yul\":9700:10131   */\n      pop\n      pop\n        /* \"#utility.yul\":9685:10131   */\n    tag_181:\n        /* \"#utility.yul\":9595:10138   */\n      pop\n      pop\n      pop\n      jump\t// out\n        /* \"#utility.yul\":10144:10261   */\n    tag_70:\n        /* \"#utility.yul\":10198:10206   */\n      0x00\n        /* \"#utility.yul\":10248:10253   */\n      dup3\n        /* \"#utility.yul\":10242:10246   */\n      dup3\n        /* \"#utility.yul\":10238:10254   */\n      shr\n        /* \"#utility.yul\":10217:10254   */\n      swap1\n      pop\n        /* \"#utility.yul\":10144:10261   */\n      swap3\n      swap2\n      pop\n      pop\n      jump\t// out\n        /* \"#utility.yul\":10267:10436   */\n    tag_71:\n        /* \"#utility.yul\":10311:10317   */\n      0x00\n        /* \"#utility.yul\":10344:10395   */\n      tag_189\n        /* \"#utility.yul\":10392:10393   */\n      0x00\n        /* \"#utility.yul\":10388:10394   */\n      not\n        /* \"#utility.yul\":10380:10385   */\n      dup5\n        /* \"#utility.yul\":10377:10378   */\n      0x08\n        /* \"#utility.yul\":10373:10386   */\n      mul\n        /* \"#utility.yul\":10344:10395   */\n      tag_70\n      jump\t// in\n    tag_189:\n        /* \"#utility.yul\":10340:10396   */\n      not\n        /* \"#utility.yul\":10425:10429   */\n      dup1\n        /* \"#utility.yul\":10419:10423   */\n      dup4\n        /* \"#utility.yul\":10415:10430   */\n      and\n        /* \"#utility.yul\":10405:10430   */\n      swap2\n      pop\n        /* \"#utility.yul\":10318:10436   */\n      pop\n        /* \"#utility.yul\":10267:10436   */\n      swap3\n      swap2\n      pop\n      pop\n      jump\t// out\n        /* \"#utility.yul\":10441:10736   */\n    tag_72:\n        /* \"#utility.yul\":10517:10521   */\n      0x00\n        /* \"#utility.yul\":10663:10692   */\n      tag_191\n        /* \"#utility.yul\":10688:10691   */\n      dup4\n        /* \"#utility.yul\":10682:10686   */\n      dup4\n        /* \"#utility.yul\":10663:10692   */\n      tag_71\n      jump\t// in\n    tag_191:\n        /* \"#utility.yul\":10655:10692   */\n      swap2\n      pop\n        /* \"#utility.yul\":10725:10728   */\n      dup3\n        /* \"#utility.yul\":10722:10723   */\n      0x02\n        /* \"#utility.yul\":10718:10729   */\n      mul\n        /* \"#utility.yul\":10712:10716   */\n      dup3\n        /* \"#utility.yul\":10709:10730   */\n      or\n        /* \"#utility.yul\":10701:10730   */\n      swap1\n      pop\n        /* \"#utility.yul\":10441:10736   */\n      swap3\n      swap2\n      pop\n      pop\n      jump\t// out\n        /* \"#utility.yul\":10741:12136   */\n    tag_30:\n        /* \"#utility.yul\":10858:10895   */\n      tag_193\n        /* \"#utility.yul\":10891:10894   */\n      dup3\n        /* \"#utility.yul\":10858:10895   */\n      tag_38\n      jump\t// in\n    tag_193:\n        /* \"#utility.yul\":10960:10978   */\n      0xffffffffffffffff\n        /* \"#utility.yul\":10952:10958   */\n      dup2\n        /* \"#utility.yul\":10949:10979   */\n      gt\n        /* \"#utility.yul\":10946:11002   */\n      iszero\n      tag_194\n      jumpi\n        /* \"#utility.yul\":10982:11000   */\n      tag_195\n      tag_45\n      jump\t// in\n    tag_195:\n        /* \"#utility.yul\":10946:11002   */\n    tag_194:\n        /* \"#utility.yul\":11026:11064   */\n      tag_196\n        /* \"#utility.yul\":11058:11062   */\n      dup3\n        /* \"#utility.yul\":11052:11063   */\n      sload\n        /* \"#utility.yul\":11026:11064   */\n      tag_20\n      jump\t// in\n    tag_196:\n        /* \"#utility.yul\":11111:11178   */\n      tag_197\n        /* \"#utility.yul\":11171:11177   */\n      dup3\n        /* \"#utility.yul\":11163:11169   */\n      dup3\n        /* \"#utility.yul\":11157:11161   */\n      dup6\n        /* \"#utility.yul\":11111:11178   */\n      tag_69\n      jump\t// in\n    tag_197:\n        /* \"#utility.yul\":11205:11206   */\n      0x00\n        /* \"#utility.yul\":11229:11233   */\n      0x20\n        /* \"#utility.yul\":11216:11233   */\n      swap1\n      pop\n        /* \"#utility.yul\":11261:11263   */\n      0x1f\n        /* \"#utility.yul\":11253:11259   */\n      dup4\n        /* \"#utility.yul\":11250:11264   */\n      gt\n        /* \"#utility.yul\":11278:11279   */\n      0x01\n        /* \"#utility.yul\":11273:11891   */\n      dup2\n      eq\n      tag_199\n      jumpi\n        /* \"#utility.yul\":11935:11936   */\n      0x00\n        /* \"#utility.yul\":11952:11958   */\n      dup5\n        /* \"#utility.yul\":11949:12026   */\n      iszero\n      tag_200\n      jumpi\n        /* \"#utility.yul\":12001:12010   */\n      dup3\n        /* \"#utility.yul\":11996:11999   */\n      dup8\n        /* \"#utility.yul\":11992:12011   */\n      add\n        /* \"#utility.yul\":11986:12012   */\n      mload\n        /* \"#utility.yul\":11977:12012   */\n      swap1\n      pop\n        /* \"#utility.yul\":11949:12026   */\n    tag_200:\n        /* \"#utility.yul\":12052:12119   */\n      tag_201\n        /* \"#utility.yul\":12112:12118   */\n      dup6\n        /* \"#utility.yul\":12105:12110   */\n      dup3\n        /* \"#utility.yul\":12052:12119   */\n      tag_72\n      jump\t// in\n    tag_201:\n        /* \"#utility.yul\":12046:12050   */\n      dup7\n        /* \"#utility.yul\":12039:12120   */\n      sstore\n        /* \"#utility.yul\":11908:12130   */\n      pop\n        /* \"#utility.yul\":11243:12130   */\n      jump(tag_198)\n        /* \"#utility.yul\":11273:11891   */\n    tag_199:\n        /* \"#utility.yul\":11325:11329   */\n      0x1f\n        /* \"#utility.yul\":11321:11330   */\n      not\n        /* \"#utility.yul\":11313:11319   */\n      dup5\n        /* \"#utility.yul\":11309:11331   */\n      and\n        /* \"#utility.yul\":11359:11396   */\n      tag_202\n        /* \"#utility.yul\":11391:11395   */\n      dup7\n        /* \"#utility.yul\":11359:11396   */\n      tag_56\n      jump\t// in\n    tag_202:\n        /* \"#utility.yul\":11418:11419   */\n      0x00\n        /* \"#utility.yul\":11432:11640   */\n    tag_203:\n        /* \"#utility.yul\":11446:11453   */\n      dup3\n        /* \"#utility.yul\":11443:11444   */\n      dup2\n        /* \"#utility.yul\":11440:11454   */\n      lt\n        /* \"#utility.yul\":11432:11640   */\n      iszero\n      tag_205\n      jumpi\n        /* \"#utility.yul\":11525:11534   */\n      dup5\n        /* \"#utility.yul\":11520:11523   */\n      dup10\n        /* \"#utility.yul\":11516:11535   */\n      add\n        /* \"#utility.yul\":11510:11536   */\n      mload\n        /* \"#utility.yul\":11502:11508   */\n      dup3\n        /* \"#utility.yul\":11495:11537   */\n      sstore\n        /* \"#utility.yul\":11576:11577   */\n      0x01\n        /* \"#utility.yul\":11568:11574   */\n      dup3\n        /* \"#utility.yul\":11564:11578   */\n      add\n        /* \"#utility.yul\":11554:11578   */\n      swap2\n      pop\n        /* \"#utility.yul\":11623:11625   */\n      0x20\n        /* \"#utility.yul\":11612:11621   */\n      dup6\n        /* \"#utility.yul\":11608:11626   */\n      add\n        /* \"#utility.yul\":11595:11626   */\n      swap5\n      pop\n        /* \"#utility.yul\":11469:11473   */\n      0x20\n        /* \"#utility.yul\":11466:11467   */\n      dup2\n        /* \"#utility.yul\":11462:11474   */\n      add\n        /* \"#utility.yul\":11457:11474   */\n      swap1\n      pop\n        /* \"#utility.yul\":11432:11640   */\n      jump(tag_203)\n    tag_205:\n        /* \"#utility.yul\":11668:11674   */\n      dup7\n        /* \"#utility.yul\":11659:11666   */\n      dup4\n        /* \"#utility.yul\":11656:11675   */\n      lt\n        /* \"#utility.yul\":11653:11832   */\n      iszero\n      tag_206\n      jumpi\n        /* \"#utility.yul\":11726:11735   */\n      dup5\n        /* \"#utility.yul\":11721:11724   */\n      dup10\n        /* \"#utility.yul\":11717:11736   */\n      add\n        /* \"#utility.yul\":11711:11737   */\n      mload\n        /* \"#utility.yul\":11769:11817   */\n      tag_207\n        /* \"#utility.yul\":11811:11815   */\n      0x1f\n        /* \"#utility.yul\":11803:11809   */\n      dup10\n        /* \"#utility.yul\":11799:11816   */\n      and\n        /* \"#utility.yul\":11788:11797   */\n      dup3\n        /* \"#utility.yul\":11769:11817   */\n      tag_71\n      jump\t// in\n    tag_207:\n        /* \"#utility.yul\":11761:11767   */\n      dup4\n        /* \"#utility.yul\":11754:11818   */\n      sstore\n        /* \"#utility.yul\":11676:11832   */\n      pop\n        /* \"#utility.yul\":11653:11832   */\n    tag_206:\n        /* \"#utility.yul\":11878:11879   */\n      0x01\n        /* \"#utility.yul\":11874:11875   */\n      0x02\n        /* \"#utility.yul\":11866:11872   */\n      dup9\n        /* \"#utility.yul\":11862:11876   */\n      mul\n        /* \"#utility.yul\":11858:11880   */\n      add\n        /* \"#utility.yul\":11852:11856   */\n      dup9\n        /* \"#utility.yul\":11845:11881   */\n      sstore\n        /* \"#utility.yul\":11280:11891   */\n      pop\n      pop\n      pop\n        /* \"#utility.yul\":11243:12130   */\n    tag_198:\n      pop\n        /* \"#utility.yul\":10833:12136   */\n      pop\n      pop\n      pop\n        /* \"#utility.yul\":10741:12136   */\n      pop\n      pop\n      jump\t// out\n\n    auxdata: 0xa2646970667358221220e8b07f3be8101c536512c00181c7809bd110385bda4a9a6320fb08c3b196c6be64736f6c634300081c0033\n}\n",
				"bytecode": {
					"linkReferences": {},
					"object": "6080604052348015600e575f5ffd5b506108948061001c5f395ff3fe608060405234801561000f575f5ffd5b506004361061003f575f3560e01c80635fdd59f8146100435780637a7b687214610073578063d4e36ba714610091575b5f5ffd5b61005d60048036038101906100589190610266565b6100ad565b60405161006a9190610301565b60405180910390f35b61007b610147565b6040516100889190610301565b60405180910390f35b6100ab60048036038101906100a6919061044d565b6101ae565b005b5f602052805f5260405f205f9150905080546100c8906104c1565b80601f01602080910402602001604051908101604052809291908181526020018280546100f4906104c1565b801561013f5780601f106101165761010080835404028352916020019161013f565b820191905f5260205f20905b81548152906001019060200180831161012257829003601f168201915b505050505081565b60605f5f5f3373ffffffffffffffffffffffffffffffffffffffff1673ffffffffffffffffffffffffffffffffffffffff1681526020019081526020015f2060405160200161019691906105d7565b60405160208183030381529060405290508091505090565b805f5f3373ffffffffffffffffffffffffffffffffffffffff1673ffffffffffffffffffffffffffffffffffffffff1681526020019081526020015f2090816101f7919061078f565b5050565b5f604051905090565b5f5ffd5b5f5ffd5b5f73ffffffffffffffffffffffffffffffffffffffff82169050919050565b5f6102358261020c565b9050919050565b6102458161022b565b811461024f575f5ffd5b50565b5f813590506102608161023c565b92915050565b5f6020828403121561027b5761027a610204565b5b5f61028884828501610252565b91505092915050565b5f81519050919050565b5f82825260208201905092915050565b8281835e5f83830152505050565b5f601f19601f8301169050919050565b5f6102d382610291565b6102dd818561029b565b93506102ed8185602086016102ab565b6102f6816102b9565b840191505092915050565b5f6020820190508181035f83015261031981846102c9565b905092915050565b5f5ffd5b5f5ffd5b7f4e487b71000000000000000000000000000000000000000000000000000000005f52604160045260245ffd5b61035f826102b9565b810181811067ffffffffffffffff8211171561037e5761037d610329565b5b80604052505050565b5f6103906101fb565b905061039c8282610356565b919050565b5f67ffffffffffffffff8211156103bb576103ba610329565b5b6103c4826102b9565b9050602081019050919050565b828183375f83830152505050565b5f6103f16103ec846103a1565b610387565b90508281526020810184848401111561040d5761040c610325565b5b6104188482856103d1565b509392505050565b5f82601f83011261043457610433610321565b5b81356104448482602086016103df565b91505092915050565b5f6020828403121561046257610461610204565b5b5f82013567ffffffffffffffff81111561047f5761047e610208565b5b61048b84828501610420565b91505092915050565b7f4e487b71000000000000000000000000000000000000000000000000000000005f52602260045260245ffd5b5f60028204905060018216806104d857607f821691505b6020821081036104eb576104ea610494565b5b50919050565b5f81905092915050565b7f44726166743a00000000000000000000000000000000000000000000000000005f82015250565b5f61052f6006836104f1565b915061053a826104fb565b600682019050919050565b5f819050815f5260205f209050919050565b5f8154610563816104c1565b61056d81866104f1565b9450600182165f8114610587576001811461059c576105ce565b60ff19831686528115158202860193506105ce565b6105a585610545565b5f5b838110156105c6578154818901526001820191506020810190506105a7565b838801955050505b50505092915050565b5f6105e182610523565b91506105ed8284610557565b915081905092915050565b5f6020601f8301049050919050565b5f82821b905092915050565b5f600883026106427fffffffffffffffffffffffffffffffffffffffffffffffffffffffffffffffff82610607565b61064c8683610607565b95508019841693508086168417925050509392505050565b5f819050919050565b5f819050919050565b5f61069061068b61068684610664565b61066d565b610664565b9050919050565b5f819050919050565b6106a983610676565b6106bd6106b582610697565b848454610613565b825550505050565b5f5f905090565b6106d46106c5565b6106df8184846106a0565b505050565b5b81811015610702576106f75f826106cc565b6001810190506106e5565b5050565b601f8211156107475761071881610545565b610721846105f8565b81016020851015610730578190505b61074461073c856105f8565b8301826106e4565b50505b505050565b5f82821c905092915050565b5f6107675f198460080261074c565b1980831691505092915050565b5f61077f8383610758565b9150826002028217905092915050565b61079882610291565b67ffffffffffffffff8111156107b1576107b0610329565b5b6107bb82546104c1565b6107c6828285610706565b5f60209050601f8311600181146107f7575f84156107e5578287015190505b6107ef8582610774565b865550610856565b601f19841661080586610545565b5f5b8281101561082c57848901518255600182019150602085019450602081019050610807565b868310156108495784890151610845601f891682610758565b8355505b6001600288020188555050505b50505050505056fea2646970667358221220e8b07f3be8101c536512c00181c7809bd110385bda4a9a6320fb08c3b196c6be64736f6c634300081c0033",
					"opcodes": "PUSH1 0x80 PUSH1 0x40 MSTORE CALLVALUE DUP1 ISZERO PUSH1 0xE JUMPI PUSH0 PUSH0 REVERT JUMPDEST POP PUSH2 0x894 DUP1 PUSH2 0x1C PUSH0 CODECOPY PUSH0 RETURN INVALID PUSH1 0x80 PUSH1 0x40 MSTORE CALLVALUE DUP1 ISZERO PUSH2 0xF JUMPI PUSH0 PUSH0 REVERT JUMPDEST POP PUSH1 0x4 CALLDATASIZE LT PUSH2 0x3F JUMPI PUSH0 CALLDATALOAD PUSH1 0xE0 SHR DUP1 PUSH4 0x5FDD59F8 EQ PUSH2 0x43 JUMPI DUP1 PUSH4 0x7A7B6872 EQ PUSH2 0x73 JUMPI DUP1 PUSH4 0xD4E36BA7 EQ PUSH2 0x91 JUMPI JUMPDEST PUSH0 PUSH0 REVERT JUMPDEST PUSH2 0x5D PUSH1 0x4 DUP1 CALLDATASIZE SUB DUP2 ADD SWAP1 PUSH2 0x58 SWAP2 SWAP1 PUSH2 0x266 JUMP JUMPDEST PUSH2 0xAD JUMP JUMPDEST PUSH1 0x40 MLOAD PUSH2 0x6A SWAP2 SWAP1 PUSH2 0x301 JUMP JUMPDEST PUSH1 0x40 MLOAD DUP1 SWAP2 SUB SWAP1 RETURN JUMPDEST PUSH2 0x7B PUSH2 0x147 JUMP JUMPDEST PUSH1 0x40 MLOAD PUSH2 0x88 SWAP2 SWAP1 PUSH2 0x301 JUMP JUMPDEST PUSH1 0x40 MLOAD DUP1 SWAP2 SUB SWAP1 RETURN JUMPDEST PUSH2 0xAB PUSH1 0x4 DUP1 CALLDATASIZE SUB DUP2 ADD SWAP1 PUSH2 0xA6 SWAP2 SWAP1 PUSH2 0x44D JUMP JUMPDEST PUSH2 0x1AE JUMP JUMPDEST STOP JUMPDEST PUSH0 PUSH1 0x20 MSTORE DUP1 PUSH0 MSTORE PUSH1 0x40 PUSH0 KECCAK256 PUSH0 SWAP2 POP SWAP1 POP DUP1 SLOAD PUSH2 0xC8 SWAP1 PUSH2 0x4C1 JUMP JUMPDEST DUP1 PUSH1 0x1F ADD PUSH1 0x20 DUP1 SWAP2 DIV MUL PUSH1 0x20 ADD PUSH1 0x40 MLOAD SWAP1 DUP2 ADD PUSH1 0x40 MSTORE DUP1 SWAP3 SWAP2 SWAP1 DUP2 DUP2 MSTORE PUSH1 0x20 ADD DUP3 DUP1 SLOAD PUSH2 0xF4 SWAP1 PUSH2 0x4C1 JUMP JUMPDEST DUP1 ISZERO PUSH2 0x13F JUMPI DUP1 PUSH1 0x1F LT PUSH2 0x116 JUMPI PUSH2 0x100 DUP1 DUP4 SLOAD DIV MUL DUP4 MSTORE SWAP2 PUSH1 0x20 ADD SWAP2 PUSH2 0x13F JUMP JUMPDEST DUP3 ADD SWAP2 SWAP1 PUSH0 MSTORE PUSH1 0x20 PUSH0 KECCAK256 SWAP1 JUMPDEST DUP2 SLOAD DUP2 MSTORE SWAP1 PUSH1 0x1 ADD SWAP1 PUSH1 0x20 ADD DUP1 DUP4 GT PUSH2 0x122 JUMPI DUP3 SWAP1 SUB PUSH1 0x1F AND DUP3 ADD SWAP2 JUMPDEST POP POP POP POP POP DUP2 JUMP JUMPDEST PUSH1 0x60 PUSH0 PUSH0 PUSH0 CALLER PUSH20 0xFFFFFFFFFFFFFFFFFFFFFFFFFFFFFFFFFFFFFFFF AND PUSH20 0xFFFFFFFFFFFFFFFFFFFFFFFFFFFFFFFFFFFFFFFF AND DUP2 MSTORE PUSH1 0x20 ADD SWAP1 DUP2 MSTORE PUSH1 0x20 ADD PUSH0 KECCAK256 PUSH1 0x40 MLOAD PUSH1 0x20 ADD PUSH2 0x196 SWAP2 SWAP1 PUSH2 0x5D7 JUMP JUMPDEST PUSH1 0x40 MLOAD PUSH1 0x20 DUP2 DUP4 SUB SUB DUP2 MSTORE SWAP1 PUSH1 0x40 MSTORE SWAP1 POP DUP1 SWAP2 POP POP SWAP1 JUMP JUMPDEST DUP1 PUSH0 PUSH0 CALLER PUSH20 0xFFFFFFFFFFFFFFFFFFFFFFFFFFFFFFFFFFFFFFFF AND PUSH20 0xFFFFFFFFFFFFFFFFFFFFFFFFFFFFFFFFFFFFFFFF AND DUP2 MSTORE PUSH1 0x20 ADD SWAP1 DUP2 MSTORE PUSH1 0x20 ADD PUSH0 KECCAK256 SWAP1 DUP2 PUSH2 0x1F7 SWAP2 SWAP1 PUSH2 0x78F JUMP JUMPDEST POP POP JUMP JUMPDEST PUSH0 PUSH1 0x40 MLOAD SWAP1 POP SWAP1 JUMP JUMPDEST PUSH0 PUSH0 REVERT JUMPDEST PUSH0 PUSH0 REVERT JUMPDEST PUSH0 PUSH20 0xFFFFFFFFFFFFFFFFFFFFFFFFFFFFFFFFFFFFFFFF DUP3 AND SWAP1 POP SWAP2 SWAP1 POP JUMP JUMPDEST PUSH0 PUSH2 0x235 DUP3 PUSH2 0x20C JUMP JUMPDEST SWAP1 POP SWAP2 SWAP1 POP JUMP JUMPDEST PUSH2 0x245 DUP2 PUSH2 0x22B JUMP JUMPDEST DUP2 EQ PUSH2 0x24F JUMPI PUSH0 PUSH0 REVERT JUMPDEST POP JUMP JUMPDEST PUSH0 DUP2 CALLDATALOAD SWAP1 POP PUSH2 0x260 DUP2 PUSH2 0x23C JUMP JUMPDEST SWAP3 SWAP2 POP POP JUMP JUMPDEST PUSH0 PUSH1 0x20 DUP3 DUP5 SUB SLT ISZERO PUSH2 0x27B JUMPI PUSH2 0x27A PUSH2 0x204 JUMP JUMPDEST JUMPDEST PUSH0 PUSH2 0x288 DUP5 DUP3 DUP6 ADD PUSH2 0x252 JUMP JUMPDEST SWAP2 POP POP SWAP3 SWAP2 POP POP JUMP JUMPDEST PUSH0 DUP2 MLOAD SWAP1 POP SWAP2 SWAP1 POP JUMP JUMPDEST PUSH0 DUP3 DUP3 MSTORE PUSH1 0x20 DUP3 ADD SWAP1 POP SWAP3 SWAP2 POP POP JUMP JUMPDEST DUP3 DUP2 DUP4 MCOPY PUSH0 DUP4 DUP4 ADD MSTORE POP POP POP JUMP JUMPDEST PUSH0 PUSH1 0x1F NOT PUSH1 0x1F DUP4 ADD AND SWAP1 POP SWAP2 SWAP1 POP JUMP JUMPDEST PUSH0 PUSH2 0x2D3 DUP3 PUSH2 0x291 JUMP JUMPDEST PUSH2 0x2DD DUP2 DUP6 PUSH2 0x29B JUMP JUMPDEST SWAP4 POP PUSH2 0x2ED DUP2 DUP6 PUSH1 0x20 DUP7 ADD PUSH2 0x2AB JUMP JUMPDEST PUSH2 0x2F6 DUP2 PUSH2 0x2B9 JUMP JUMPDEST DUP5 ADD SWAP2 POP POP SWAP3 SWAP2 POP POP JUMP JUMPDEST PUSH0 PUSH1 0x20 DUP3 ADD SWAP1 POP DUP2 DUP2 SUB PUSH0 DUP4 ADD MSTORE PUSH2 0x319 DUP2 DUP5 PUSH2 0x2C9 JUMP JUMPDEST SWAP1 POP SWAP3 SWAP2 POP POP JUMP JUMPDEST PUSH0 PUSH0 REVERT JUMPDEST PUSH0 PUSH0 REVERT JUMPDEST PUSH32 0x4E487B7100000000000000000000000000000000000000000000000000000000 PUSH0 MSTORE PUSH1 0x41 PUSH1 0x4 MSTORE PUSH1 0x24 PUSH0 REVERT JUMPDEST PUSH2 0x35F DUP3 PUSH2 0x2B9 JUMP JUMPDEST DUP2 ADD DUP2 DUP2 LT PUSH8 0xFFFFFFFFFFFFFFFF DUP3 GT OR ISZERO PUSH2 0x37E JUMPI PUSH2 0x37D PUSH2 0x329 JUMP JUMPDEST JUMPDEST DUP1 PUSH1 0x40 MSTORE POP POP POP JUMP JUMPDEST PUSH0 PUSH2 0x390 PUSH2 0x1FB JUMP JUMPDEST SWAP1 POP PUSH2 0x39C DUP3 DUP3 PUSH2 0x356 JUMP JUMPDEST SWAP2 SWAP1 POP JUMP JUMPDEST PUSH0 PUSH8 0xFFFFFFFFFFFFFFFF DUP3 GT ISZERO PUSH2 0x3BB JUMPI PUSH2 0x3BA PUSH2 0x329 JUMP JUMPDEST JUMPDEST PUSH2 0x3C4 DUP3 PUSH2 0x2B9 JUMP JUMPDEST SWAP1 POP PUSH1 0x20 DUP2 ADD SWAP1 POP SWAP2 SWAP1 POP JUMP JUMPDEST DUP3 DUP2 DUP4 CALLDATACOPY PUSH0 DUP4 DUP4 ADD MSTORE POP POP POP JUMP JUMPDEST PUSH0 PUSH2 0x3F1 PUSH2 0x3EC DUP5 PUSH2 0x3A1 JUMP JUMPDEST PUSH2 0x387 JUMP JUMPDEST SWAP1 POP DUP3 DUP2 MSTORE PUSH1 0x20 DUP2 ADD DUP5 DUP5 DUP5 ADD GT ISZERO PUSH2 0x40D JUMPI PUSH2 0x40C PUSH2 0x325 JUMP JUMPDEST JUMPDEST PUSH2 0x418 DUP5 DUP3 DUP6 PUSH2 0x3D1 JUMP JUMPDEST POP SWAP4 SWAP3 POP POP POP JUMP JUMPDEST PUSH0 DUP3 PUSH1 0x1F DUP4 ADD SLT PUSH2 0x434 JUMPI PUSH2 0x433 PUSH2 0x321 JUMP JUMPDEST JUMPDEST DUP2 CALLDATALOAD PUSH2 0x444 DUP5 DUP3 PUSH1 0x20 DUP7 ADD PUSH2 0x3DF JUMP JUMPDEST SWAP2 POP POP SWAP3 SWAP2 POP POP JUMP JUMPDEST PUSH0 PUSH1 0x20 DUP3 DUP5 SUB SLT ISZERO PUSH2 0x462 JUMPI PUSH2 0x461 PUSH2 0x204 JUMP JUMPDEST JUMPDEST PUSH0 DUP3 ADD CALLDATALOAD PUSH8 0xFFFFFFFFFFFFFFFF DUP2 GT ISZERO PUSH2 0x47F JUMPI PUSH2 0x47E PUSH2 0x208 JUMP JUMPDEST JUMPDEST PUSH2 0x48B DUP5 DUP3 DUP6 ADD PUSH2 0x420 JUMP JUMPDEST SWAP2 POP POP SWAP3 SWAP2 POP POP JUMP JUMPDEST PUSH32 0x4E487B7100000000000000000000000000000000000000000000000000000000 PUSH0 MSTORE PUSH1 0x22 PUSH1 0x4 MSTORE PUSH1 0x24 PUSH0 REVERT JUMPDEST PUSH0 PUSH1 0x2 DUP3 DIV SWAP1 POP PUSH1 0x1 DUP3 AND DUP1 PUSH2 0x4D8 JUMPI PUSH1 0x7F DUP3 AND SWAP2 POP JUMPDEST PUSH1 0x20 DUP3 LT DUP2 SUB PUSH2 0x4EB JUMPI PUSH2 0x4EA PUSH2 0x494 JUMP JUMPDEST JUMPDEST POP SWAP2 SWAP1 POP JUMP JUMPDEST PUSH0 DUP2 SWAP1 POP SWAP3 SWAP2 POP POP JUMP JUMPDEST PUSH32 0x44726166743A0000000000000000000000000000000000000000000000000000 PUSH0 DUP3 ADD MSTORE POP JUMP JUMPDEST PUSH0 PUSH2 0x52F PUSH1 0x6 DUP4 PUSH2 0x4F1 JUMP JUMPDEST SWAP2 POP PUSH2 0x53A DUP3 PUSH2 0x4FB JUMP JUMPDEST PUSH1 0x6 DUP3 ADD SWAP1 POP SWAP2 SWAP1 POP JUMP JUMPDEST PUSH0 DUP2 SWAP1 POP DUP2 PUSH0 MSTORE PUSH1 0x20 PUSH0 KECCAK256 SWAP1 POP SWAP2 SWAP1 POP JUMP JUMPDEST PUSH0 DUP2 SLOAD PUSH2 0x563 DUP2 PUSH2 0x4C1 JUMP JUMPDEST PUSH2 0x56D DUP2 DUP7 PUSH2 0x4F1 JUMP JUMPDEST SWAP5 POP PUSH1 0x1 DUP3 AND PUSH0 DUP2 EQ PUSH2 0x587 JUMPI PUSH1 0x1 DUP2 EQ PUSH2 0x59C JUMPI PUSH2 0x5CE JUMP JUMPDEST PUSH1 0xFF NOT DUP4 AND DUP7 MSTORE DUP2 ISZERO ISZERO DUP3 MUL DUP7 ADD SWAP4 POP PUSH2 0x5CE JUMP JUMPDEST PUSH2 0x5A5 DUP6 PUSH2 0x545 JUMP JUMPDEST PUSH0 JUMPDEST DUP4 DUP2 LT ISZERO PUSH2 0x5C6 JUMPI DUP2 SLOAD DUP2 DUP10 ADD MSTORE PUSH1 0x1 DUP3 ADD SWAP2 POP PUSH1 0x20 DUP2 ADD SWAP1 POP PUSH2 0x5A7 JUMP JUMPDEST DUP4 DUP9 ADD SWAP6 POP POP POP JUMPDEST POP POP POP SWAP3 SWAP2 POP POP JUMP JUMPDEST PUSH0 PUSH2 0x5E1 DUP3 PUSH2 0x523 JUMP JUMPDEST SWAP2 POP PUSH2 0x5ED DUP3 DUP5 PUSH2 0x557 JUMP JUMPDEST SWAP2 POP DUP2 SWAP1 POP SWAP3 SWAP2 POP POP JUMP JUMPDEST PUSH0 PUSH1 0x20 PUSH1 0x1F DUP4 ADD DIV SWAP1 POP SWAP2 SWAP1 POP JUMP JUMPDEST PUSH0 DUP3 DUP3 SHL SWAP1 POP SWAP3 SWAP2 POP POP JUMP JUMPDEST PUSH0 PUSH1 0x8 DUP4 MUL PUSH2 0x642 PUSH32 0xFFFFFFFFFFFFFFFFFFFFFFFFFFFFFFFFFFFFFFFFFFFFFFFFFFFFFFFFFFFFFFFF DUP3 PUSH2 0x607 JUMP JUMPDEST PUSH2 0x64C DUP7 DUP4 PUSH2 0x607 JUMP JUMPDEST SWAP6 POP DUP1 NOT DUP5 AND SWAP4 POP DUP1 DUP7 AND DUP5 OR SWAP3 POP POP POP SWAP4 SWAP3 POP POP POP JUMP JUMPDEST PUSH0 DUP2 SWAP1 POP SWAP2 SWAP1 POP JUMP JUMPDEST PUSH0 DUP2 SWAP1 POP SWAP2 SWAP1 POP JUMP JUMPDEST PUSH0 PUSH2 0x690 PUSH2 0x68B PUSH2 0x686 DUP5 PUSH2 0x664 JUMP JUMPDEST PUSH2 0x66D JUMP JUMPDEST PUSH2 0x664 JUMP JUMPDEST SWAP1 POP SWAP2 SWAP1 POP JUMP JUMPDEST PUSH0 DUP2 SWAP1 POP SWAP2 SWAP1 POP JUMP JUMPDEST PUSH2 0x6A9 DUP4 PUSH2 0x676 JUMP JUMPDEST PUSH2 0x6BD PUSH2 0x6B5 DUP3 PUSH2 0x697 JUMP JUMPDEST DUP5 DUP5 SLOAD PUSH2 0x613 JUMP JUMPDEST DUP3 SSTORE POP POP POP POP JUMP JUMPDEST PUSH0 PUSH0 SWAP1 POP SWAP1 JUMP JUMPDEST PUSH2 0x6D4 PUSH2 0x6C5 JUMP JUMPDEST PUSH2 0x6DF DUP2 DUP5 DUP5 PUSH2 0x6A0 JUMP JUMPDEST POP POP POP JUMP JUMPDEST JUMPDEST DUP2 DUP2 LT ISZERO PUSH2 0x702 JUMPI PUSH2 0x6F7 PUSH0 DUP3 PUSH2 0x6CC JUMP JUMPDEST PUSH1 0x1 DUP2 ADD SWAP1 POP PUSH2 0x6E5 JUMP JUMPDEST POP POP JUMP JUMPDEST PUSH1 0x1F DUP3 GT ISZERO PUSH2 0x747 JUMPI PUSH2 0x718 DUP2 PUSH2 0x545 JUMP JUMPDEST PUSH2 0x721 DUP5 PUSH2 0x5F8 JUMP JUMPDEST DUP2 ADD PUSH1 0x20 DUP6 LT ISZERO PUSH2 0x730 JUMPI DUP2 SWAP1 POP JUMPDEST PUSH2 0x744 PUSH2 0x73C DUP6 PUSH2 0x5F8 JUMP JUMPDEST DUP4 ADD DUP3 PUSH2 0x6E4 JUMP JUMPDEST POP POP JUMPDEST POP POP POP JUMP JUMPDEST PUSH0 DUP3 DUP3 SHR SWAP1 POP SWAP3 SWAP2 POP POP JUMP JUMPDEST PUSH0 PUSH2 0x767 PUSH0 NOT DUP5 PUSH1 0x8 MUL PUSH2 0x74C JUMP JUMPDEST NOT DUP1 DUP4 AND SWAP2 POP POP SWAP3 SWAP2 POP POP JUMP JUMPDEST PUSH0 PUSH2 0x77F DUP4 DUP4 PUSH2 0x758 JUMP JUMPDEST SWAP2 POP DUP3 PUSH1 0x2 MUL DUP3 OR SWAP1 POP SWAP3 SWAP2 POP POP JUMP JUMPDEST PUSH2 0x798 DUP3 PUSH2 0x291 JUMP JUMPDEST PUSH8 0xFFFFFFFFFFFFFFFF DUP2 GT ISZERO PUSH2 0x7B1 JUMPI PUSH2 0x7B0 PUSH2 0x329 JUMP JUMPDEST JUMPDEST PUSH2 0x7BB DUP3 SLOAD PUSH2 0x4C1 JUMP JUMPDEST PUSH2 0x7C6 DUP3 DUP3 DUP6 PUSH2 0x706 JUMP JUMPDEST PUSH0 PUSH1 0x20 SWAP1 POP PUSH1 0x1F DUP4 GT PUSH1 0x1 DUP2 EQ PUSH2 0x7F7 JUMPI PUSH0 DUP5 ISZERO PUSH2 0x7E5 JUMPI DUP3 DUP8 ADD MLOAD SWAP1 POP JUMPDEST PUSH2 0x7EF DUP6 DUP3 PUSH2 0x774 JUMP JUMPDEST DUP7 SSTORE POP PUSH2 0x856 JUMP JUMPDEST PUSH1 0x1F NOT DUP5 AND PUSH2 0x805 DUP7 PUSH2 0x545 JUMP JUMPDEST PUSH0 JUMPDEST DUP3 DUP2 LT ISZERO PUSH2 0x82C JUMPI DUP5 DUP10 ADD MLOAD DUP3 SSTORE PUSH1 0x1 DUP3 ADD SWAP2 POP PUSH1 0x20 DUP6 ADD SWAP5 POP PUSH1 0x20 DUP2 ADD SWAP1 POP PUSH2 0x807 JUMP JUMPDEST DUP7 DUP4 LT ISZERO PUSH2 0x849 JUMPI DUP5 DUP10 ADD MLOAD PUSH2 0x845 PUSH1 0x1F DUP10 AND DUP3 PUSH2 0x758 JUMP JUMPDEST DUP4 SSTORE POP JUMPDEST PUSH1 0x1 PUSH1 0x2 DUP9 MUL ADD DUP9 SSTORE POP POP POP JUMPDEST POP POP POP POP POP POP JUMP INVALID LOG2 PUSH5 0x6970667358 0x22 SLT KECCAK256 0xE8 0xB0 PUSH32 0x3BE8101C536512C00181C7809BD110385BDA4A9A6320FB08C3B196C6BE64736F PUSH13 0x634300081C0033000000000000 "
				},
				"gasEstimates": {
					"creation": {
						"codeDepositCost": "439200",
						"executionCost": "472",
						"totalCost": "439672"
					},
					"external": {
						"messages(address)": "infinite",
						"previewMessage()": "infinite",
						"storeMessage(string)": "infinite"
					}
				},
				"methodIdentifiers": {
					"messages(address)": "5fdd59f8",
					"previewMessage()": "7a7b6872",
					"storeMessage(string)": "d4e36ba7"
				}
			},
			"storageLayout": {
				"storage": [
					{
						"astId": 5,
						"contract": "contracts/MessageBoard.sol:MessageBoard",
						"label": "messages",
						"offset": 0,
						"slot": "0",
						"type": "t_mapping(t_address,t_string_storage)"
					}
				],
				"types": {
					"t_address": {
						"encoding": "inplace",
						"label": "address",
						"numberOfBytes": "20"
					},
					"t_mapping(t_address,t_string_storage)": {
						"encoding": "mapping",
						"key": "t_address",
						"label": "mapping(address => string)",
						"numberOfBytes": "32",
						"value": "t_string_storage"
					},
					"t_string_storage": {
						"encoding": "bytes",
						"label": "string",
						"numberOfBytes": "32"
					}
				}
			},
			"userdoc": {
				"kind": "user",
				"methods": {},
				"version": 1
			}
		}
	}
}