{
	"contracts/Compound.sol": {
		"Compound": {
			"abi": [
				{
					"inputs": [
						{
							"internalType": "uint256",
							"name": "principal",
							"type": "uint256"
						},
						{
							"internalType": "uint256",
							"name": "rate",
							"type": "uint256"
						},
						{
							"internalType": "uint256",
							"name": "number",
							"type": "uint256"
						}
					],
					"name": "calculateCompoundInterest",
					"outputs": [
						{
							"internalType": "uint256",
							"name": "balance",
							"type": "uint256"
						}
					],
					"stateMutability": "pure",
					"type": "function"
				}
			],
			"devdoc": {
				"kind": "dev",
				"methods": {},
				"version": 1
			},
			"evm": {
				"assembly": "    /* \"contracts/Compound.sol\":84:466  contract Compound{... */\n  mstore(0x40, 0x80)\n  callvalue\n  dup1\n  iszero\n  tag_1\n  jumpi\n  revert(0x00, 0x00)\ntag_1:\n  pop\n  dataSize(sub_0)\n  dup1\n  dataOffset(sub_0)\n  0x00\n  codecopy\n  0x00\n  return\nstop\n\nsub_0: assembly {\n        /* \"contracts/Compound.sol\":84:466  contract Compound{... */\n      mstore(0x40, 0x80)\n      callvalue\n      dup1\n      iszero\n      tag_1\n      jumpi\n      revert(0x00, 0x00)\n    tag_1:\n      pop\n      jumpi(tag_2, lt(calldatasize, 0x04))\n      shr(0xe0, calldataload(0x00))\n      dup1\n      0xe088abdd\n      eq\n      tag_3\n      jumpi\n    tag_2:\n      revert(0x00, 0x00)\n        /* \"contracts/Compound.sol\":114:457  function calculateCompoundInterest(uint256 principal, uint256 rate, uint256 number) public pure returns (uint256 balance){... */\n    tag_3:\n      tag_4\n      0x04\n      dup1\n      calldatasize\n      sub\n      dup2\n      add\n      swap1\n      tag_5\n      swap2\n      swap1\n      tag_6\n      jump\t// in\n    tag_5:\n      tag_7\n      jump\t// in\n    tag_4:\n      mload(0x40)\n      tag_8\n      swap2\n      swap1\n      tag_9\n      jump\t// in\n    tag_8:\n      mload(0x40)\n      dup1\n      swap2\n      sub\n      swap1\n      return\n    tag_7:\n        /* \"contracts/Compound.sol\":219:234  uint256 balance */\n      0x00\n        /* \"contracts/Compound.sol\":260:269  principal */\n      dup4\n        /* \"contracts/Compound.sol\":250:269  balance = principal */\n      swap1\n      pop\n        /* \"contracts/Compound.sol\":291:300  uint256 i */\n      0x00\n        /* \"contracts/Compound.sol\":303:304  0 */\n      0x00\n        /* \"contracts/Compound.sol\":291:304  uint256 i = 0 */\n      swap1\n      pop\n        /* \"contracts/Compound.sol\":286:393  for (uint256 i = 0; i < number; i++) {... */\n    tag_11:\n        /* \"contracts/Compound.sol\":310:316  number */\n      dup3\n        /* \"contracts/Compound.sol\":306:307  i */\n      dup2\n        /* \"contracts/Compound.sol\":306:316  i < number */\n      lt\n        /* \"contracts/Compound.sol\":286:393  for (uint256 i = 0; i < number; i++) {... */\n      iszero\n      tag_12\n      jumpi\n        /* \"contracts/Compound.sol\":373:376  100 */\n      0x64\n        /* \"contracts/Compound.sol\":365:369  rate */\n      dup5\n        /* \"contracts/Compound.sol\":359:362  100 */\n      0x64\n        /* \"contracts/Compound.sol\":359:369  100 + rate */\n      tag_14\n      swap2\n      swap1\n      tag_15\n      jump\t// in\n    tag_14:\n        /* \"contracts/Compound.sol\":348:355  balance */\n      dup4\n        /* \"contracts/Compound.sol\":348:370  balance * (100 + rate) */\n      tag_16\n      swap2\n      swap1\n      tag_17\n      jump\t// in\n    tag_16:\n        /* \"contracts/Compound.sol\":348:376  balance * (100 + rate) / 100 */\n      tag_18\n      swap2\n      swap1\n      tag_19\n      jump\t// in\n    tag_18:\n        /* \"contracts/Compound.sol\":338:376  balance = balance * (100 + rate) / 100 */\n      swap2\n      pop\n        /* \"contracts/Compound.sol\":318:321  i++ */\n      dup1\n      dup1\n      0x01\n      add\n      swap2\n      pop\n      pop\n        /* \"contracts/Compound.sol\":286:393  for (uint256 i = 0; i < number; i++) {... */\n      jump(tag_11)\n    tag_12:\n      pop\n        /* \"contracts/Compound.sol\":114:457  function calculateCompoundInterest(uint256 principal, uint256 rate, uint256 number) public pure returns (uint256 balance){... */\n      swap4\n      swap3\n      pop\n      pop\n      pop\n      jump\t// out\n        /* \"#utility.yul\":88:205   */\n    tag_21:\n        /* \"#utility.yul\":197:198   */\n      0x00\n        /* \"#utility.yul\":194:195   */\n      0x00\n        /* \"#utility.yul\":187:199   */\n      revert\n        /* \"#utility.yul\":334:411   */\n    tag_23:\n        /* \"#utility.yul\":371:378   */\n      0x00\n        /* \"#utility.yul\":400:405   */\n      dup2\n        /* \"#utility.yul\":389:405   */\n      swap1\n      pop\n        /* \"#utility.yul\":334:411   */\n      swap2\n      swap1\n      pop\n      jump\t// out\n        /* \"#utility.yul\":417:539   */\n    tag_24:\n        /* \"#utility.yul\":490:514   */\n      tag_35\n        /* \"#utility.yul\":508:513   */\n      dup2\n        /* \"#utility.yul\":490:514   */\n      tag_23\n      jump\t// in\n    tag_35:\n        /* \"#utility.yul\":483:488   */\n      dup2\n        /* \"#utility.yul\":480:515   */\n      eq\n        /* \"#utility.yul\":470:533   */\n      tag_36\n      jumpi\n        /* \"#utility.yul\":529:530   */\n      0x00\n        /* \"#utility.yul\":526:527   */\n      0x00\n        /* \"#utility.yul\":519:531   */\n      revert\n        /* \"#utility.yul\":470:533   */\n    tag_36:\n        /* \"#utility.yul\":417:539   */\n      pop\n      jump\t// out\n        /* \"#utility.yul\":545:684   */\n    tag_25:\n        /* \"#utility.yul\":591:596   */\n      0x00\n        /* \"#utility.yul\":629:635   */\n      dup2\n        /* \"#utility.yul\":616:636   */\n      calldataload\n        /* \"#utility.yul\":607:636   */\n      swap1\n      pop\n        /* \"#utility.yul\":645:678   */\n      tag_38\n        /* \"#utility.yul\":672:677   */\n      dup2\n        /* \"#utility.yul\":645:678   */\n      tag_24\n      jump\t// in\n    tag_38:\n        /* \"#utility.yul\":545:684   */\n      swap3\n      swap2\n      pop\n      pop\n      jump\t// out\n        /* \"#utility.yul\":690:1309   */\n    tag_6:\n        /* \"#utility.yul\":767:773   */\n      0x00\n        /* \"#utility.yul\":775:781   */\n      0x00\n        /* \"#utility.yul\":783:789   */\n      0x00\n        /* \"#utility.yul\":832:834   */\n      0x60\n        /* \"#utility.yul\":820:829   */\n      dup5\n        /* \"#utility.yul\":811:818   */\n      dup7\n        /* \"#utility.yul\":807:830   */\n      sub\n        /* \"#utility.yul\":803:835   */\n      slt\n        /* \"#utility.yul\":800:919   */\n      iszero\n      tag_40\n      jumpi\n        /* \"#utility.yul\":838:917   */\n      tag_41\n      tag_21\n      jump\t// in\n    tag_41:\n        /* \"#utility.yul\":800:919   */\n    tag_40:\n        /* \"#utility.yul\":958:959   */\n      0x00\n        /* \"#utility.yul\":983:1036   */\n      tag_42\n        /* \"#utility.yul\":1028:1035   */\n      dup7\n        /* \"#utility.yul\":1019:1025   */\n      dup3\n        /* \"#utility.yul\":1008:1017   */\n      dup8\n        /* \"#utility.yul\":1004:1026   */\n      add\n        /* \"#utility.yul\":983:1036   */\n      tag_25\n      jump\t// in\n    tag_42:\n        /* \"#utility.yul\":973:1036   */\n      swap4\n      pop\n        /* \"#utility.yul\":929:1046   */\n      pop\n        /* \"#utility.yul\":1085:1087   */\n      0x20\n        /* \"#utility.yul\":1111:1164   */\n      tag_43\n        /* \"#utility.yul\":1156:1163   */\n      dup7\n        /* \"#utility.yul\":1147:1153   */\n      dup3\n        /* \"#utility.yul\":1136:1145   */\n      dup8\n        /* \"#utility.yul\":1132:1154   */\n      add\n        /* \"#utility.yul\":1111:1164   */\n      tag_25\n      jump\t// in\n    tag_43:\n        /* \"#utility.yul\":1101:1164   */\n      swap3\n      pop\n        /* \"#utility.yul\":1056:1174   */\n      pop\n        /* \"#utility.yul\":1213:1215   */\n      0x40\n        /* \"#utility.yul\":1239:1292   */\n      tag_44\n        /* \"#utility.yul\":1284:1291   */\n      dup7\n        /* \"#utility.yul\":1275:1281   */\n      dup3\n        /* \"#utility.yul\":1264:1273   */\n      dup8\n        /* \"#utility.yul\":1260:1282   */\n      add\n        /* \"#utility.yul\":1239:1292   */\n      tag_25\n      jump\t// in\n    tag_44:\n        /* \"#utility.yul\":1229:1292   */\n      swap2\n      pop\n        /* \"#utility.yul\":1184:1302   */\n      pop\n        /* \"#utility.yul\":690:1309   */\n      swap3\n      pop\n      swap3\n      pop\n      swap3\n      jump\t// out\n        /* \"#utility.yul\":1315:1433   */\n    tag_26:\n        /* \"#utility.yul\":1402:1426   */\n      tag_46\n        /* \"#utility.yul\":1420:1425   */\n      dup2\n        /* \"#utility.yul\":1402:1426   */\n      tag_23\n      jump\t// in\n    tag_46:\n        /* \"#utility.yul\":1397:1400   */\n      dup3\n        /* \"#utility.yul\":1390:1427   */\n      mstore\n        /* \"#utility.yul\":1315:1433   */\n      pop\n      pop\n      jump\t// out\n        /* \"#utility.yul\":1439:1661   */\n    tag_9:\n        /* \"#utility.yul\":1532:1536   */\n      0x00\n        /* \"#utility.yul\":1570:1572   */\n      0x20\n        /* \"#utility.yul\":1559:1568   */\n      dup3\n        /* \"#utility.yul\":1555:1573   */\n      add\n        /* \"#utility.yul\":1547:1573   */\n      swap1\n      pop\n        /* \"#utility.yul\":1583:1654   */\n      tag_48\n        /* \"#utility.yul\":1651:1652   */\n      0x00\n        /* \"#utility.yul\":1640:1649   */\n      dup4\n        /* \"#utility.yul\":1636:1653   */\n      add\n        /* \"#utility.yul\":1627:1633   */\n      dup5\n        /* \"#utility.yul\":1583:1654   */\n      tag_26\n      jump\t// in\n    tag_48:\n        /* \"#utility.yul\":1439:1661   */\n      swap3\n      swap2\n      pop\n      pop\n      jump\t// out\n        /* \"#utility.yul\":1667:1847   */\n    tag_27:\n        /* \"#utility.yul\":1715:1792   */\n      0x4e487b7100000000000000000000000000000000000000000000000000000000\n        /* \"#utility.yul\":1712:1713   */\n      0x00\n        /* \"#utility.yul\":1705:1793   */\n      mstore\n        /* \"#utility.yul\":1812:1816   */\n      0x11\n        /* \"#utility.yul\":1809:1810   */\n      0x04\n        /* \"#utility.yul\":1802:1817   */\n      mstore\n        /* \"#utility.yul\":1836:1840   */\n      0x24\n        /* \"#utility.yul\":1833:1834   */\n      0x00\n        /* \"#utility.yul\":1826:1841   */\n      revert\n        /* \"#utility.yul\":1853:2044   */\n    tag_15:\n        /* \"#utility.yul\":1893:1896   */\n      0x00\n        /* \"#utility.yul\":1912:1932   */\n      tag_51\n        /* \"#utility.yul\":1930:1931   */\n      dup3\n        /* \"#utility.yul\":1912:1932   */\n      tag_23\n      jump\t// in\n    tag_51:\n        /* \"#utility.yul\":1907:1932   */\n      swap2\n      pop\n        /* \"#utility.yul\":1946:1966   */\n      tag_52\n        /* \"#utility.yul\":1964:1965   */\n      dup4\n        /* \"#utility.yul\":1946:1966   */\n      tag_23\n      jump\t// in\n    tag_52:\n        /* \"#utility.yul\":1941:1966   */\n      swap3\n      pop\n        /* \"#utility.yul\":1989:1990   */\n      dup3\n        /* \"#utility.yul\":1986:1987   */\n      dup3\n        /* \"#utility.yul\":1982:1991   */\n      add\n        /* \"#utility.yul\":1975:1991   */\n      swap1\n      pop\n        /* \"#utility.yul\":2010:2013   */\n      dup1\n        /* \"#utility.yul\":2007:2008   */\n      dup3\n        /* \"#utility.yul\":2004:2014   */\n      gt\n        /* \"#utility.yul\":2001:2037   */\n      iszero\n      tag_53\n      jumpi\n        /* \"#utility.yul\":2017:2035   */\n      tag_54\n      tag_27\n      jump\t// in\n    tag_54:\n        /* \"#utility.yul\":2001:2037   */\n    tag_53:\n        /* \"#utility.yul\":1853:2044   */\n      swap3\n      swap2\n      pop\n      pop\n      jump\t// out\n        /* \"#utility.yul\":2050:2460   */\n    tag_17:\n        /* \"#utility.yul\":2090:2097   */\n      0x00\n        /* \"#utility.yul\":2113:2133   */\n      tag_56\n        /* \"#utility.yul\":2131:2132   */\n      dup3\n        /* \"#utility.yul\":2113:2133   */\n      tag_23\n      jump\t// in\n    tag_56:\n        /* \"#utility.yul\":2108:2133   */\n      swap2\n      pop\n        /* \"#utility.yul\":2147:2167   */\n      tag_57\n        /* \"#utility.yul\":2165:2166   */\n      dup4\n        /* \"#utility.yul\":2147:2167   */\n      tag_23\n      jump\t// in\n    tag_57:\n        /* \"#utility.yul\":2142:2167   */\n      swap3\n      pop\n        /* \"#utility.yul\":2202:2203   */\n      dup3\n        /* \"#utility.yul\":2199:2200   */\n      dup3\n        /* \"#utility.yul\":2195:2204   */\n      mul\n        /* \"#utility.yul\":2224:2254   */\n      tag_58\n        /* \"#utility.yul\":2242:2253   */\n      dup2\n        /* \"#utility.yul\":2224:2254   */\n      tag_23\n      jump\t// in\n    tag_58:\n        /* \"#utility.yul\":2213:2254   */\n      swap2\n      pop\n        /* \"#utility.yul\":2403:2404   */\n      dup3\n        /* \"#utility.yul\":2394:2401   */\n      dup3\n        /* \"#utility.yul\":2390:2405   */\n      div\n        /* \"#utility.yul\":2387:2388   */\n      dup5\n        /* \"#utility.yul\":2384:2406   */\n      eq\n        /* \"#utility.yul\":2364:2365   */\n      dup4\n        /* \"#utility.yul\":2357:2366   */\n      iszero\n        /* \"#utility.yul\":2337:2420   */\n      or\n        /* \"#utility.yul\":2314:2453   */\n      tag_59\n      jumpi\n        /* \"#utility.yul\":2433:2451   */\n      tag_60\n      tag_27\n      jump\t// in\n    tag_60:\n        /* \"#utility.yul\":2314:2453   */\n    tag_59:\n        /* \"#utility.yul\":2098:2460   */\n      pop\n        /* \"#utility.yul\":2050:2460   */\n      swap3\n      swap2\n      pop\n      pop\n      jump\t// out\n        /* \"#utility.yul\":2466:2646   */\n    tag_28:\n        /* \"#utility.yul\":2514:2591   */\n      0x4e487b7100000000000000000000000000000000000000000000000000000000\n        /* \"#utility.yul\":2511:2512   */\n      0x00\n        /* \"#utility.yul\":2504:2592   */\n      mstore\n        /* \"#utility.yul\":2611:2615   */\n      0x12\n        /* \"#utility.yul\":2608:2609   */\n      0x04\n        /* \"#utility.yul\":2601:2616   */\n      mstore\n        /* \"#utility.yul\":2635:2639   */\n      0x24\n        /* \"#utility.yul\":2632:2633   */\n      0x00\n        /* \"#utility.yul\":2625:2640   */\n      revert\n        /* \"#utility.yul\":2652:2837   */\n    tag_19:\n        /* \"#utility.yul\":2692:2693   */\n      0x00\n        /* \"#utility.yul\":2709:2729   */\n      tag_63\n        /* \"#utility.yul\":2727:2728   */\n      dup3\n        /* \"#utility.yul\":2709:2729   */\n      tag_23\n      jump\t// in\n    tag_63:\n        /* \"#utility.yul\":2704:2729   */\n      swap2\n      pop\n        /* \"#utility.yul\":2743:2763   */\n      tag_64\n        /* \"#utility.yul\":2761:2762   */\n      dup4\n        /* \"#utility.yul\":2743:2763   */\n      tag_23\n      jump\t// in\n    tag_64:\n        /* \"#utility.yul\":2738:2763   */\n      swap3\n      pop\n        /* \"#utility.yul\":2782:2783   */\n      dup3\n        /* \"#utility.yul\":2772:2807   */\n      tag_65\n      jumpi\n        /* \"#utility.yul\":2787:2805   */\n      tag_66\n      tag_28\n      jump\t// in\n    tag_66:\n        /* \"#utility.yul\":2772:2807   */\n    tag_65:\n        /* \"#utility.yul\":2829:2830   */\n      dup3\n        /* \"#utility.yul\":2826:2827   */\n      dup3\n        /* \"#utility.yul\":2822:2831   */\n      div\n        /* \"#utility.yul\":2817:2831   */\n      swap1\n      pop\n        /* \"#utility.yul\":2652:2837   */\n      swap3\n      swap2\n      pop\n      pop\n      jump\t// out\n\n    auxdata: 0xa2646970667358221220fcdf82fc63994deb644fad665288639d5b84c02275299cb71542bbd90db9746164736f6c634300081c0033\n}\n",
				"bytecode": {
					"linkReferences": {},
					"object": "6080604052348015600e575f5ffd5b5061028c8061001c5f395ff3fe608060405234801561000f575f5ffd5b5060043610610029575f3560e01c8063e088abdd1461002d575b5f5ffd5b610047600480360381019061004291906100e0565b61005d565b604051610054919061013f565b60405180910390f35b5f8390505f5f90505b828110156100a157606484606461007d9190610185565b8361008891906101b8565b6100929190610226565b91508080600101915050610066565b509392505050565b5f5ffd5b5f819050919050565b6100bf816100ad565b81146100c9575f5ffd5b50565b5f813590506100da816100b6565b92915050565b5f5f5f606084860312156100f7576100f66100a9565b5b5f610104868287016100cc565b9350506020610115868287016100cc565b9250506040610126868287016100cc565b9150509250925092565b610139816100ad565b82525050565b5f6020820190506101525f830184610130565b92915050565b7f4e487b71000000000000000000000000000000000000000000000000000000005f52601160045260245ffd5b5f61018f826100ad565b915061019a836100ad565b92508282019050808211156101b2576101b1610158565b5b92915050565b5f6101c2826100ad565b91506101cd836100ad565b92508282026101db816100ad565b915082820484148315176101f2576101f1610158565b5b5092915050565b7f4e487b71000000000000000000000000000000000000000000000000000000005f52601260045260245ffd5b5f610230826100ad565b915061023b836100ad565b92508261024b5761024a6101f9565b5b82820490509291505056fea2646970667358221220fcdf82fc63994deb644fad665288639d5b84c02275299cb71542bbd90db9746164736f6c634300081c0033",
					"opcodes": "PUSH1 0x80 PUSH1 0x40 MSTORE CALLVALUE DUP1 ISZERO PUSH1 0xE JUMPI PUSH0 PUSH0 REVERT JUMPDEST POP PUSH2 0x28C DUP1 PUSH2 0x1C PUSH0 CODECOPY PUSH0 RETURN INVALID PUSH1 0x80 PUSH1 0x40 MSTORE CALLVALUE DUP1 ISZERO PUSH2 0xF JUMPI PUSH0 PUSH0 REVERT JUMPDEST POP PUSH1 0x4 CALLDATASIZE LT PUSH2 0x29 JUMPI PUSH0 CALLDATALOAD PUSH1 0xE0 SHR DUP1 PUSH4 0xE088ABDD EQ PUSH2 0x2D JUMPI JUMPDEST PUSH0 PUSH0 REVERT JUMPDEST PUSH2 0x47 PUSH1 0x4 DUP1 CALLDATASIZE SUB DUP2 ADD SWAP1 PUSH2 0x42 SWAP2 SWAP1 PUSH2 0xE0 JUMP JUMPDEST PUSH2 0x5D JUMP JUMPDEST PUSH1 0x40 MLOAD PUSH2 0x54 SWAP2 SWAP1 PUSH2 0x13F JUMP JUMPDEST PUSH1 0x40 MLOAD DUP1 SWAP2 SUB SWAP1 RETURN JUMPDEST PUSH0 DUP4 SWAP1 POP PUSH0 PUSH0 SWAP1 POP JUMPDEST DUP3 DUP2 LT ISZERO PUSH2 0xA1 JUMPI PUSH1 0x64 DUP5 PUSH1 0x64 PUSH2 0x7D SWAP2 SWAP1 PUSH2 0x185 JUMP JUMPDEST DUP4 PUSH2 0x88 SWAP2 SWAP1 PUSH2 0x1B8 JUMP JUMPDEST PUSH2 0x92 SWAP2 SWAP1 PUSH2 0x226 JUMP JUMPDEST SWAP2 POP DUP1 DUP1 PUSH1 0x1 ADD SWAP2 POP POP PUSH2 0x66 JUMP JUMPDEST POP SWAP4 SWAP3 POP POP POP JUMP JUMPDEST PUSH0 PUSH0 REVERT JUMPDEST PUSH0 DUP2 SWAP1 POP SWAP2 SWAP1 POP JUMP JUMPDEST PUSH2 0xBF DUP2 PUSH2 0xAD JUMP JUMPDEST DUP2 EQ PUSH2 0xC9 JUMPI PUSH0 PUSH0 REVERT JUMPDEST POP JUMP JUMPDEST PUSH0 DUP2 CALLDATALOAD SWAP1 POP PUSH2 0xDA DUP2 PUSH2 0xB6 JUMP JUMPDEST SWAP3 SWAP2 POP POP JUMP JUMPDEST PUSH0 PUSH0 PUSH0 PUSH1 0x60 DUP5 DUP7 SUB SLT ISZERO PUSH2 0xF7 JUMPI PUSH2 0xF6 PUSH2 0xA9 JUMP JUMPDEST JUMPDEST PUSH0 PUSH2 0x104 DUP7 DUP3 DUP8 ADD PUSH2 0xCC JUMP JUMPDEST SWAP4 POP POP PUSH1 0x20 PUSH2 0x115 DUP7 DUP3 DUP8 ADD PUSH2 0xCC JUMP JUMPDEST SWAP3 POP POP PUSH1 0x40 PUSH2 0x126 DUP7 DUP3 DUP8 ADD PUSH2 0xCC JUMP JUMPDEST SWAP2 POP POP SWAP3 POP SWAP3 POP SWAP3 JUMP JUMPDEST PUSH2 0x139 DUP2 PUSH2 0xAD JUMP JUMPDEST DUP3 MSTORE POP POP JUMP JUMPDEST PUSH0 PUSH1 0x20 DUP3 ADD SWAP1 POP PUSH2 0x152 PUSH0 DUP4 ADD DUP5 PUSH2 0x130 JUMP JUMPDEST SWAP3 SWAP2 POP POP JUMP JUMPDEST PUSH32 0x4E487B7100000000000000000000000000000000000000000000000000000000 PUSH0 MSTORE PUSH1 0x11 PUSH1 0x4 MSTORE PUSH1 0x24 PUSH0 REVERT JUMPDEST PUSH0 PUSH2 0x18F DUP3 PUSH2 0xAD JUMP JUMPDEST SWAP2 POP PUSH2 0x19A DUP4 PUSH2 0xAD JUMP JUMPDEST SWAP3 POP DUP3 DUP3 ADD SWAP1 POP DUP1 DUP3 GT ISZERO PUSH2 0x1B2 JUMPI PUSH2 0x1B1 PUSH2 0x158 JUMP JUMPDEST JUMPDEST SWAP3 SWAP2 POP POP JUMP JUMPDEST PUSH0 PUSH2 0x1C2 DUP3 PUSH2 0xAD JUMP JUMPDEST SWAP2 POP PUSH2 0x1CD DUP4 PUSH2 0xAD JUMP JUMPDEST SWAP3 POP DUP3 DUP3 MUL PUSH2 0x1DB DUP2 PUSH2 0xAD JUMP JUMPDEST SWAP2 POP DUP3 DUP3 DIV DUP5 EQ DUP4 ISZERO OR PUSH2 0x1F2 JUMPI PUSH2 0x1F1 PUSH2 0x158 JUMP JUMPDEST JUMPDEST POP SWAP3 SWAP2 POP POP JUMP JUMPDEST PUSH32 0x4E487B7100000000000000000000000000000000000000000000000000000000 PUSH0 MSTORE PUSH1 0x12 PUSH1 0x4 MSTORE PUSH1 0x24 PUSH0 REVERT JUMPDEST PUSH0 PUSH2 0x230 DUP3 PUSH2 0xAD JUMP JUMPDEST SWAP2 POP PUSH2 0x23B DUP4 PUSH2 0xAD JUMP JUMPDEST SWAP3 POP DUP3 PUSH2 0x24B JUMPI PUSH2 0x24A PUSH2 0x1F9 JUMP JUMPDEST JUMPDEST DUP3 DUP3 DIV SWAP1 POP SWAP3 SWAP2 POP POP JUMP INVALID LOG2 PUSH5 0x6970667358 0x22 SLT KECCAK256 0xFC 0xDF DUP3 0xFC PUSH4 0x994DEB64 0x4F 0xAD PUSH7 0x5288639D5B84C0 0x22 PUSH22 0x299CB71542BBD90DB9746164736F6C634300081C0033 "
				},
				"gasEstimates": {
					"creation": {
						"codeDepositCost": "130400",
						"executionCost": "175",
						"totalCost": "130575"
					},
					"external": {
						"calculateCompoundInterest(uint256,uint256,uint256)": "infinite"
					}
				},
				"methodIdentifiers": {
					"calculateCompoundInterest(uint256,uint256,uint256)": "e088abdd"
				}
			},
			"storageLayout": {
				"storage": [],
				"types": null
			},
			"userdoc": {
				"kind": "user",
				"methods": {},
				"version": 1
			}
		}
	}
}